:100000000C94BF020C94E7020C94E7020C94E702F4
:100010000C94E7020C94E7020C94E7020C94E702BC
:100020000C94E7020C942A140C94E7020C9423130A
:100030000C94E7020C94E7020C94E7020C94E7029C
:100040000C94E7020C94E7020C94E7020C94E7028C
:100050000C94E7020C94E7020C94E7020C94E7027C
:100060000C94F7020C94E702EC08EF08FB08170960
:1000700029094609650982099F091C0A370A47159B
:100080004C1551155B1560156C1571157F1589158B
:100090009815EA23E823EC23EE23F023F223F4233C
:1000A000F623F823FA23FC23E731EB31F131013257
:1000B00011322132313239323F321A331D33843317
:1000C0009433A433B533C6333F3477340102030489
:1000D0000608090C1012182024304048608090C097
:1000E000312F363454312F333254312F33322031C3
:1000F0002F313654312F313620312F385420312FC3
:1001000031362E312F382020312F345420312F38E2
:100110002E20312F342020312F325420312F342EF5
:1001200020312F3220203154202020312F322E2018
:1001300031202020203254202020312E2020203237
:10014000202020200002030302020E1E0CF029537F
:100150004551002D303132333435363738390020AF
:100160004343232044442320452046462320474739
:100170002320414123204200207361766564000002
:100180000303013A0402840403090504A20405A13F
:100190000206B70407CD0408BB0209DD020A1F05E9
:1001A0000BEE010CDE030D88030E5D030F5D0310E3
:1001B0005D0311450312DE03138803145D03155D0F
:1001C00003165D03174503182D031972021A100454
:1001D0001B05021CE30476302E3937004D49444993
:1001E0002053657100496E6974696E67210065224C
:1001F0006A222F236B2279228F22062391224163C8
:1002000063656E7400432355233F245A23D7236824
:100210002308246A234343230053746F7020202053
:1002200020506C61796261636B5265636F72642008
:10023000204164642052657374416464205469658C
:10024000204164642048616C664164645374727533
:100250006D4164644163636E7444656C20537465DE
:1002600070436C722053746570436C6561725365A2
:10027000710077247C241D257D248B24A224F32463
:10028000A424696E74202020657874202020696E73
:10029000744F75746578744F757400436C6F636B3D
:1002A0000031253625E125372545255C25AD255E20
:1002B000256175746F004761746500F525FA259A0C
:1002C00026FB2509262026712622266F6666206FCA
:1002D0006E2020004B6579537461727400AE26B3B2
:1002E000265327B426C226D9262A27DB266F666620
:1002F000206F6E202073746570004B6579207379D0
:100300006E63002528EA288929BE288E28812901C4
:100310002967273C656D7074793E00636C6B326CA5
:100320006F616400636C6B327361766500E429EF82
:1003300029EA2AF429A92A022ABF2A042A43686141
:100340006E6E656C00FE2A1F2B0F2C242B322B5651
:100350002BD42B582B4D6F642043432300302C9318
:100360002CDA2D942CA22CF42C712DF62C4D6F64CC
:10037000204374726C004D6F642041746368004DBB
:100380006F642056656C6F003E2E592E1F2F5A2E1B
:10039000682E872ED82E892E7365712020207365D4
:1003A000712A32207365712A33207365712A3420D3
:1003B0007365712A36207365712A38207365712A36
:1003C00031327365712A31367365712A323473653F
:1003D000712A3332004D6F64204C656E6700402FE8
:1003E0005B2F16305C2F6A2F892FDA2F8B2F7361CA
:1003F00077202020747269202020737175617265E6
:1004000072616E646F6D004D6F6420576176650098
:1004100037303C30DB303D30C5304B309C304D30D8
:100420006E6F6E657265637673656E64626F746815
:100430000050726F6743686E6700EF30EC32A5348E
:10044000FF32D932BF32BB31113170617463680041
:10045000636C6561720064656C65746500616363FB
:10046000656E7400737472756D0068616C660074FB
:10047000696500726573740073746F700052656310
:100480006F7264001F352A35F9352F353D355335E8
:10049000C83555356E6F6E6500526F6F744E6F7450
:1004A00065000D361236B43613369C362136723658
:1004B00023365374657000CA36CF367037D036DEB7
:1004C00036F5364637F736537472756D0084378DBE
:1004D000376A388E3747389C37ED379E3753776900
:1004E0006E670086388D386F3992385B39A03832A4
:1004F00039A23853797365783A0063757220616C5C
:100500006C200053797365780083398E398B3A8F6C
:1005100039533A9D39623A9F3954656D706F004680
:100520003B513B153C563B643B7B3BE23B7D3B6B8D
:1005300065790056656C6F63697479002003AA04BD
:1005400033104910D8111612271232123A1A3B1AD8
:10055000011FB8226B23A5245F252326DC26B227A2
:100560003A2A862B232D8A2E8C2F4E3063317A35F2
:100570002436F8369F37A338A039E23A943B112449
:100580001FBECFEFD8E0DEBFCDBF11E0A0E0B1E0ED
:10059000E0EFFAE702C005900D92AA30B107D9F753
:1005A00018E0AAE0B1E001C01D92AC33B107E1F759
:1005B00015E0CEE7D5E004C02297FE010E94723D0F
:1005C000CC33D107C9F70E9415130C94293C0C9425
:1005D00000008FB7F89420910A0130910B014091EF
:1005E0000C0150910D018FBFB901CA0108951F92EE
:1005F0000F920FB60F9211242F933F934F935F9357
:100600006F937F938F939F93AF93BF93EF93FF93DA
:10061000E0910F01F0911001309709F00995FF91D9
:10062000EF91BF91AF919F918F917F916F915F916A
:100630004F913F912F910F900FBE0F901F901895E3
:100640000895FC0182E7808383E7818384E78283C6
:1006500085E7838380E784838EE6858381E78683CD
:100660008FE6878386E780878DE6818787E78287A5
:1006700008950F931F93CF93DF93162FEA01A0E005
:10068000B0E0BC01CD012AE030E040E050E00E9443
:100690009D3C9B01AC01210F311D411D511D64E9A1
:1006A00075E387E790E00E94FC3CCA01B901615004
:1006B000704080409040C45FD140E1F08B019E01CA
:1006C000442737FD4095542F0E949D3C24EF31E094
:1006D00040E050E00E941E3DC801821B930B9093A6
:1006E0001A0180931901200F311F30931C012093B0
:1006F0001B0108C070931A016093190170931C01CB
:1007000060931B01DF91CF911F910F91089580910C
:100710002C0180FF03C081E080932F01089508958C
:1007200080913001882351F010923001E091400512
:10073000F0914105309711F080E00995089580917E
:100740000301ECECF0E0E80FF11DE491E0933201DD
:10075000E0931701109218010895DC0112968D9113
:100760009C9113976817790738F015961C921E9282
:1007700014971D921C9208958D919C911197681762
:10078000790751F16817790720F4AB0120E030E0D8
:1007900007C014962D913C911597AB01481B590B3E
:1007A0004115510599F04150504016968D919C91FC
:1007B00017972817390750F4FD01E20FF31F8085C2
:1007C0008F70880F8F5F280F311DEACF15963C93ED
:1007D0002E9314976D937C930895CF93DF93EC0140
:1007E000C05CDF4F2881C054D04090E01CC0422F35
:1007F00050E0FA01EE0FFF1FE40FF51FEC0FFD1F95
:100800008181861729F44F5F5F4F992379F427C0C0
:10081000CA010196FC01EE0FFF1FE80FF91FEC0F54
:10082000FD1F922F2081222311F758C0892F90E0BD
:100830000196DC01AA0FBB1FA80FB91FAC0FBD1F8B
:10084000FA01EE0FFF1FE40FF51FEC0FFD1F808173
:100850008C933881FE01EF5BFF4F90E025C0FA01D9
:10086000EE0FFF1FE40FF51FEC0FFD1F8081C05C32
:10087000DF4F8883C054D040ECCF8191821799F428
:10088000692F08C0FE01E40FF51FEE5BFF4F80816A
:1008900082936F5F462F50E0888190E00197481760
:1008A000590784F303C09F5F931738F330E0C90101
:1008B0000196FC01EE0FFF1FE80FF91FEC0FFD1F63
:1008C0001082F901EE0FFF1FE20FF31FEC0FFD1F67
:1008D0008FEF81831282888181508883DF91CF914D
:1008E0000895282F80914A05909149058150891BD0
:1008F0008F77C1F380914905E82FF0E0E856F94F72
:1009000020838F5F8F77809349050895CF93DF937E
:10091000DC011C920496FC018CE3EF0119928A958C
:10092000E9F7CD018E5B9F4FFC0184E1EF01199245
:100930008A95E9F7A05CBF4F1C92A054B040FD011E
:1009400090E08FEF81839F5F33969531D1F7DF91F0
:10095000CF9108951F9310922C0181E491E00E94A1
:1009600021038CE491E00E94231584E591E00E942C
:10097000231510925D0110925C0110925F0110929C
:100980005E01109261011092600110926301109259
:10099000620184EE94E00E9486048091900620918A
:1009A0009106309192064091930660919406E091F1
:1009B0009506A091960610919706B82FBF5F91E01B
:1009C000B81708F090E0F92FF20F81E0F21708F065
:1009D00080E0782F730F81E0731708F080E0582FC4
:1009E000540F81E0541708F080E0382F360F81E073
:1009F000361708F080E0282F2E0F81E02E1708F020
:100A000080E0982F9A0F81E09A1708F080E0810F1C
:100A1000B0939006F09391067093920650939306CC
:100A200030939406209395069093960680939706AC
:100A30001F910895FC0180E2DF01982F1D929A9585
:100A4000E9F7808308950F931F93CF93DF93EC0111
:100A50004E815F8123E04038520708F046C08A810A
:100A60009B81E3E0873E9E0708F03FC0892B61F43D
:100A70001982188281E090E09B838A831D821C8208
:100A80009F838E83188631C02C813D81FE01E20F49
:100A9000F31F80858F70880F8F5F8901080F111DEC
:100AA0000417150768F4C8010996B801685F7F4FFD
:100AB0006C0F7D1F401B510B8C0F9D1F0E943E3CF5
:100AC000888199810196998388838A819B81019687
:100AD0009B838A831D830C830C0F1D1FF8011086D6
:100AE0008E819F8101969F838E83DF91CF911F918D
:100AF0000F9108950F931F93CF93DF93EC012C81F7
:100B00003D814E815F812417350760F5FC01E20FBE
:100B1000F31F80858F70880F8F5F8901080F111D6B
:100B20000417150770F4275F3F4FB801685F7F4FC8
:100B30006C0F7D1F401B510BCE01820F931F0E9433
:100B40003E3C8E819F812C813D81820F931F0196B7
:100B5000801B910B9F838E83FE01E20FF31F808524
:100B6000807F8087DF91CF911F910F910895982FFB
:100B700080912D01981729F090932D01892F0E94C3
:100B80004A100895209126010E9468118091200149
:100B90008823D9F4109211011092120110921301BE
:100BA000109214018FEF9FEF90931601809315011F
:100BB00010921F0181E08093200180911901909192
:100BC0001A0190931E0180931D0108951F93182F01
:100BD00014C08091490590914A05891B8F77C9F30C
:100BE00090914A05E92FF0E0E856F94F80819F5F28
:100BF0009F7790934A050E94281280914A05909110
:100C000049058150891B8F77811718F31F9108952B
:100C10000F931F93CF93DF93182FEB01042F842F93
:100C20008F5F0E94E605812F0E94710404C08991A4
:100C30000E94710401500023D1F7DF91CF911F91E1
:100C40000F910895582F282F30E02F703070809129
:100C5000260190E02817390719F0852F0E94080611
:100C60000895FF920F931F93182F062FF42E83E001
:100C70000E94E605812F0E947104802F0E9471045A
:100C80008F2D0E9471041F910F91FF900895809104
:100C90002601806B68E740E00E94310680912601C2
:100CA000806B6BE740E00E9431060895982F809199
:100CB0002601981741F0909326010E94470684EE82
:100CC00094E00E9486040895CF93DF93E091EC05B1
:100CD00026C0CE2FD0E0FE01EE0FFF1FEE0FFF1F4C
:100CE000EC0FFD1FE45BFA4F83818823D1F4608110
:100CF0006E3F59F04181442319F08281806903C01D
:100D00008281806840E00E943106FE01EE0FFF1FE5
:100D1000EE0FFF1FEC0FFD1FE45BFA4FE481EE23A3
:100D2000C1F60E940711DF91CF910895982FAB0172
:100D300080912601981751F46F77440F452F441F77
:100D4000550B5195892F806E0E9431060895982F7A
:100D500080912601981721F4892F806A0E9431061C
:100D60000895FF920F931F93182F062FF42EE091F2
:100D70003A05F0913B05309739F140E00995882319
:100D800019F126C084EE94E0602F0E94ED0380915B
:100D90002F01882331F4812F8068602F4F2D0E940E
:100DA000310680913001882399F0809131018823A8
:100DB00079F060915C0170915D016F5F7F4F8CE510
:100DC00091E00E94AD0304C0809126011817D1F272
:100DD0001F910F91FF9008950F931F93182F062FC7
:100DE00082E00E94E605812F0E947104802F0E94FC
:100DF00071041F910F910895982F809126019817E3
:100E000041F46093340160933501892F806D0E9415
:100E1000EC06089580912F01882399F080912C0190
:100E200080FD05C081FF03C08CEF0E942812109244
:100E30002F01E0913E05F0913F05309711F080E0E1
:100E40000995089580913001882361F40E940A0772
:100E500081E080933001E0914005F09141053097A9
:100E600009F00995089580913001882319F40E94B2
:100E7000220708950E949003089580912C0180FF1D
:100E800002C00E940A070895EF92FF920F931F93EA
:100E9000CF93DF93E62EC82FD0E0FE0143E0EE0FA4
:100EA000FF1F4A95E1F7E45BFE4F90915101858168
:100EB0009817B1F410915001112331F460E0062F1E
:100EC000112707FD10950EC08CE491E00E94B0152B
:100ED0008102C00111246FE770E00E94E93CEFCF6E
:100EE00000E010E033E0CC0FDD1F3A95E1F7C45B82
:100EF000DE4F909159018D819817C1F4F0905801FF
:100F0000FF2011F460E00CC084E591E00E94B01570
:100F10002F2D8202C00111246FE770E00E94E93C8E
:100F2000862F992787FD9095080F191F0115110528
:100F300069F0B8016E0D711D6038710514F06FE72E
:100F400070E077FF02C060E070E0E62E8E2DCDB736
:100F5000DEB7E6E00C94613D0F931F93CF93DF93D0
:100F6000082F10914F01112311F460E00BC08CE4A5
:100F700091E00E94B0158102C00111246FE770E07A
:100F80000E94E93CC62FDD27C7FDD095109157017F
:100F9000112311F460E00BC084E591E00E94B015CC
:100FA0008102C00111246FE770E00E94E93C7727BD
:100FB00067FD70956C0F7D1F6115710561F0600F05
:100FC000711D6038710514F06FE770E077FF02C0A3
:100FD00060E070E0062F802FDF91CF911F910F917D
:100FE00008950F931F93CF93DF93082F10914E0115
:100FF000112311F460E00BC08CE491E00E94B01565
:101000008102C00111246FE770E00E94E93CC62F05
:10101000DD27C7FDD09510915601112311F460E032
:101020000BC084E591E00E94B0158102C00111243B
:101030006FE770E00E94E93C772767FD70956C0FC1
:101040007D1F6115710571F0600F711D1616170671
:101050001CF061E070E005C06038710514F06FE7C6
:1010600070E0062F802FDF91CF911F910F9108958F
:10107000FF920F931F93F82E0CE411E0C8016F2D1F
:101080000E943215C80108966F2D0E9432151F91DB
:101090000F91FF9008950F931F930CE411E0C80186
:1010A0000E941C16C80108960E941C161F910F91E1
:1010B00008950F931F930CE411E0C8010E942E15B0
:1010C000C80108960E942E151F910F9108958091D6
:1010D0003201815080932E0180910601809333016B
:1010E0001092400110923F018CE591E060E070E0C9
:1010F0000E94AD0381E080932F010E94590808955A
:1011000080912F01882309F049C080913001882304
:1011100009F044C020912C0120FD20C01092110143
:101120001092120110921301109214018FEF9FEF91
:10113000909316018093150110921F0181E0809316
:1011400020018091190190911A0190931E018093C2
:101150001D0121FF03C08AEF0E942812E0910301C4
:10116000F0E0E453FF4FE491E0933201E093170184
:10117000109218010E94670810923A0110923B01E8
:1011800010923C0110923D0110923E01E0913E050B
:10119000F0913F05309711F081E009950895809115
:1011A0002F01882319F40E94800808950E940A07DD
:1011B000089580912C0180FF02C00E94800808954C
:1011C000CF93DF93E82FF0E0EB30F10508F063C137
:1011D000EC5CFF4F0C94703D0E940A075CC10E94BA
:1011E000900380912F01882319F40E94800853C135
:1011F0000E94670850C10E94330780913001882304
:1012000009F449C12AE0222F2295207F2160909184
:101210004805E92FF0E0EE0FFF1FE75EF84F20834F
:1012200081E081839F5F9F719093480534C18091D5
:101230003001882329F08CE591E00E9423052BC121
:1012400080912F01882309F426C181E080933E011B
:1012500022C180913001882381F080915E019091BC
:101260005F01892B09F417C1E0916001F0916101E0
:10127000E45AFE4F808590E11CC080912F018823A5
:1012800009F409C181E080933A0105C180913001E0
:10129000882391F080915E0190915F01892B09F480
:1012A000FAC0E0916001F0916101E45AFE4F80853F
:1012B00090E289278087EFC080912F01882309F46D
:1012C000EAC081E080933B01E6C080913001882331
:1012D00081F080915E0190915F01892B09F4DBC060
:1012E000E0916001F0916101E45AFE4F808590E445
:1012F000E0CF80912F01882309F4CDC081E0809355
:101300003C01C9C080913001882381F080915E0149
:1013100090915F01892B09F4BEC0E0916001F091CA
:101320006101E45AFE4F80858058C4CF80912F011F
:10133000882309F4B0C081E080933D01ACC0809166
:101340003001882309F4A7C0209160013091610128
:1013500040916201509163012417350708F09BC04A
:10136000F901E45AFE4F80858F70880F8F5FE90185
:10137000C80FD11DC417D50750F4BE016C597E4F5C
:101380004C1B5D0BC9018C599E4F0E943E3C409105
:10139000600150916101A0916201B0916301A40FBD
:1013A000B51FAC1BBD0BB0936301A093620180918C
:1013B0005E0190915F01019790935F0180935E01C0
:1013C000009749F4109261011092600110925D0142
:1013D00010925C0160C020915C0130915D01281782
:1013E000390708F458C0BC01615070406217730798
:1013F00020F49B0140E050E004C0CB01821B930B22
:101400009C012115310579F0215030404A175B07C6
:1014100050F4FA01E45AFE4F80858F70880F8F5F79
:10142000480F511DEECF50936101409360017093BE
:101430005D0160935C012FC080913001882359F1D8
:10144000209160013091610180916201909163016E
:101450002817390700F58CE591E00E947A05E091A4
:101460006001F0916101E45AFE4F108614C0809132
:101470003001882381F010925D0110925C0110927E
:101480005F0110925E011092610110926001109252
:10149000630110926201DF91CF910895FF920F9343
:1014A0001F93F82E062F142FE0913C05F0913D0577
:1014B000309749F10995882331F12DC0808180173B
:1014C00039F4112341F1892F612F0E94E00823C0D4
:1014D0009F5F31969B3091F780915101801721F4E5
:1014E000109336011093380180915901801721F42F
:1014F00010933701109339018F2D806B602F412F8E
:101500000E94310608C080912601F81621F4E1E41A
:10151000F1E090E0D3CF1F910F91FF90089540919B
:101520000401509105018091020190E060E00E9469
:1015300039030895A3E0B0E0E0EAFAE00C94393D05
:10154000882E6983242E322E60E0409126010E946D
:101550003E11882339F0809126018068682D40E093
:101560000E943106809134010E94AC07182F8091AF
:101570003501181741F080912601806D612F0E947E
:10158000EC061093350178E3A72E71E0B72E61E5E4
:10159000C62E61E0D62E44244A94542C00E010E07C
:1015A000F801EA5CFE4F802F60810E944407982E6C
:1015B000F50180819816E1F0F6016081692C7724AD
:1015C000F62EEE24C3018E299F294816590681F074
:1015D00080912601806B492D0E943106F501908291
:1015E000F601F081FB831A824A805B8046285728E7
:1015F0000F5F1F4F0894A11CB11C88E090E0C80E3B
:10160000D91E0230110561F689810E94F107482F29
:10161000332051F0882D642F432D0E94C205320CD7
:10162000882D60E0432D09C0809126018069682DD6
:101630000E943106882D60E0422D0E94C20523964B
:10164000E2E10C94553DA0E0B0E0E9E2FBE00C944F
:10165000423D80915E0190915F01892B09F406C1A2
:1016600080913301882321F4809106018093330116
:1016700080915C0190915D019093400180933F01C6
:101680000091600110916101F801E45AFE4F20853C
:1016900080913A01882311F031E009C0822F90E057
:1016A000B4E096958795BA95E1F7382F317080911F
:1016B0003B01882319F0EE24E3940AC0822F90E0C6
:1016C000A5E096958795AA95E1F7EE24E394E822A4
:1016D00080913C01882319F0FF24F3940AC0822FE3
:1016E00090E0F6E096958795FA95E1F7FF24F3945C
:1016F000F82280913D01882319F0BB24B39404C0E3
:10170000B22EBB1CBB24BB1CD0903E0110923A01F0
:1017100010923B0110923C0110923D0110923E014B
:101720003323A9F1809103010E943410A82FF801FE
:10173000E45AFE4F80858F70880F8F5FA801480F95
:10174000511D6091620170916301FA01EC59FE4FE5
:1017500020E030E00AC09081892F807F84FF0BC099
:1017600031969F7041F42F5F3F4FC901840F951F41
:101770008617970780F32F5F3F4F8A2F90E0289FAF
:10178000E001299FD00D389FD00D112415C0809104
:101790002701882331F081500E943410C82FD0E0F7
:1017A0000BC0809103010E9434108695C82FD0E0B1
:1017B000209711F4C1E0D0E0EE2029F0C230D1052D
:1017C00010F0D695C795FF2011F4CC2405C0809168
:1017D00028010E943410C82EDD2009F047C0F8010E
:1017E000E45AFE4FD0842FE0D2220B591E4FEE2434
:1017F000FF243AC0F8014081818160912B0166236A
:1018000009F4682FBB2081F08091070190E0860FDA
:10181000911D009719F461E070E006C0BC018038AA
:10182000910514F06FE770E03091330120910601CB
:10183000662309F461E0842F90E0830F911D821BE1
:1018400091098038910514F08FE790E097FF02C06E
:1018500080E090E09E012150422F2E2D0E949A0A96
:10186000F394EC0C0E5F1F4FFD1420F2CDB7DEB7E2
:10187000E9E00C945E3D80915C0190915D01892BC3
:1018800019F480E00E9438080E94230B80915E01C9
:1018900090915F01892B61F060915C0170915D0115
:1018A0006F5F7F4F8CE591E00E94AD030E944B0873
:1018B000E0914205F0914305309709F009950895AC
:1018C0000E94640680912F018823A1F0E0914405D5
:1018D000F0914505309709F0099580912E018F5FB1
:1018E00080932E0190913201891720F010922E01E1
:1018F0000E943B0C089590912C0190FD13C08091A3
:101900002F01882379F091FF03C088EF0E942812ED
:101910000E94600C089580914B05882339F00E9445
:101920006406089580912F018823A9F3089580917A
:101930002C0180FF06C080912F01882311F00E94A6
:10194000600C0895FF920F931F93CF93DF93082F9E
:10195000162FF42EE0913A05F0913B05309709F4EB
:1019600089C10995882309F485C189C180912A011B
:10197000882351F080912F01882331F48091300128
:10198000882311F40E94800884EE94E0612F0E9465
:10199000ED038091E404843181F4E8EEF4E060E04A
:1019A0008281882309F46081339625E0E432F207CE
:1019B000B9F784EE94E00E94ED03E8EEF4E041E034
:1019C00080818F3F29F04F5F33964531C9F740E062
:1019D000242F30E0C9010196FC01EE0FFF1FE80F34
:1019E000F91FEC51FB4F809124058083F901EE0F24
:1019F000FF1FE20FF31FEC51FB4F1183F282409364
:101A000024055091E40420E030E023C0D901F9011D
:101A1000EB5DFA4F808190E0FC01EE0FFF1FE80FB5
:101A2000F91FEC51FB4F81812F5F3F4F181788F44E
:101A3000952F09C0E92FF0E0EC51FB4FE05CFF4F20
:101A40008191808391506917A8F3AB5DBA4F4C9395
:101A50000AC0622F2517D0F2442329F0E52FF0E0C9
:101A6000EB5DFA4F4083E52FEF5FE093E404809154
:101A70002F01882379F480913001882309F072C006
:101A800080912901823009F06DC0109333010E94CA
:101A90003B0C6EC080912901813009F058C0E130C3
:101AA00009F055C00E94670880912C0180FD4FC04D
:101AB00020911D0130911E012F5F3F4F40E050E00B
:101AC0008091110190911201A0911301B091140124
:101AD000820F931FA41FB51F8093110190931201D1
:101AE000A0931301B09314018091150190911601F8
:101AF0000196909316018093150120911701309162
:101B000018018217930760F01092160110921501C8
:101B100090E080911F01882309F491E090931F01C8
:101B2000E0911F01F0E0EE0FFF1FE75EFE4F8081A6
:101B3000918190931E0180931D0190938900809361
:101B400088009695879590938B0080938A0080916A
:101B50000601882339F080913001882349F41093DD
:101B6000330106C0802F8069612F4F2D0E943106FE
:101B700080913001882309F482C08091310188234B
:101B800049F08091E4048130A9F48CE591E00E9451
:101B90007A0510C08091E404813061F480915E0187
:101BA00090915F01875E934008F069C08CE591E0F9
:101BB0000E94230580915E0190915F01892B09F4B9
:101BC0005EC06091600170916101FB01E45AFE4FBB
:101BD000E085EF70AB014F5F5F4F20E011C0A22F97
:101BE000B0E0AA0FBB1FA40FB51FA45ABE4F189692
:101BF0008C911897811719F41996FC9240C02F5FA9
:101C00002E1768F3409162015091630183E04E37D3
:101C10005807A8F5EF3099F1EE0FEF5FEB01CE0F0B
:101C2000D11DC417D50750F4BE016C597E4F4C1B13
:101C30005D0BCE018A599E4F0E943E3CFE01E45A44
:101C4000FE4F1087F18680916201909163010296A8
:101C50009093630180936201E0916001F0916101D2
:101C6000E45AFE4F9085892F8F708F5F907F892B6C
:101C7000808705C080912601081709F477CECDB77B
:101C8000DEB7E5E00C94623DCF93DF93FC018091D9
:101C9000220190912301A0912401B091250181831B
:101CA0009283A383B483809126018583809102016E
:101CB00086838091030187838091270180878091AB
:101CC0002801818780910401909105019387828783
:101CD00080912901848780912A01858780912B0139
:101CE000868780912C01878780910601808B809167
:101CF0000701818BEF016496ACE4B1E086E00D90C2
:101D000009928150E1F7DF015A96E4E5F1E086E0BF
:101D100001900D928150E1F7DF91CF910895CF931B
:101D2000DF93EC0189819A81AB81BC818093220190
:101D300090932301A0932401B09325018D8180937A
:101D400026018E81809302010E948F0AEF81E09329
:101D50000301F0E0E453FF4FE491E0933201E0939C
:101D60001701109218018885809327018985809337
:101D700028018A859B8590930501809304010E9428
:101D80008F0A8C85809329018D8580932A018E8509
:101D900080932B018F8580932C0188898093060185
:101DA000898980930701ACE4B1E0FE01749686E076
:101DB00001900D928150E1F7A4E5B1E0FE017A9621
:101DC00086E001900D928150E1F7E0914605F09197
:101DD0004705309719F0809121010995DF91CF9146
:101DE0000895CF92DF92EF92FF921F93162F7A0100
:101DF00069010E949816812FB701A6010E947316EF
:101E00001F91FF90EF90DF90CF900895A0E2B0E097
:101E1000ECE0FFE00C94463DF82E809321018E010A
:101E20000F5F1F4FC8010E941A05C8010E94440E8F
:101E30002091620130916301C8016F2D44E651E0A9
:101E40000E94F10EE0914605F0914705309711F0A0
:101E50008F2D0995A096E5E00C94623DA0E2B0E0DC
:101E6000E4E3FFE00C94463DF82E809321018E01BF
:101E70000F5F1F4FC8010E941A05C8016F2D0E94F5
:101E80008017C8010E948F0E8F2D64E671E00E94BA
:101E90004016BC01009749F110925D0110925C015F
:101EA00010925F0110925E01109261011092600128
:101EB000909363018093620140E050E020E030E0C5
:101EC0000AC0FA01E45AFE4F80858F70880F8F5F39
:101ED000480F511D9D01D90111964617570788F3E8
:101EE00030935F0120935E0110C010925D0110924B
:101EF0005C0110925F0110925E01109261011092DC
:101F000060011092630110926201E0914605F09128
:101F10004705309711F08F2D0995A096E5E00C94B8
:101F2000623D0F931F93082F162F809126010817EB
:101F300009F580912D0180FF18C0262F30E0809197
:101F4000F60590E0A0E0B0E043E0880F991FAA1FDB
:101F5000BB1F4A95D1F72817390760F4862F0E94D6
:101F60002E0F80912D0181FF05C0802F806C612F85
:101F70000E94EC061F910F910895A0E2B0E0E3ECFF
:101F8000FFE00C94473D8E010F5F1F4FC8010E9478
:101F90001A05C8010E94E91600E0CE010196602FE3
:101FA00040E050E020E030E00E94F10E0F5F043688
:101FB000A1F7A096E4E00C94633D0E94FE100E94FD
:101FC000BD0F80E00E942E0F08951F93182F0E94CE
:101FD000161C812F0E94891A1F91089581E491E0B7
:101FE0000E9485100E945C1080932D010E94641055
:101FF0000E942E0F80910301ECECF0E0E80FF11D40
:10200000E491E0933201E0931701109218010E94CD
:102010008F0A109211011092120110921301109266
:1020200014018FEF9FEF909316018093150110928A
:102030001F0181E0809320018091190190911A0184
:1020400090931E0180931D010E94670810922F013A
:1020500010923A0110923B0110923C0110923D0106
:1020600010923E0108950895ECECF0E0E80FF11DA8
:10207000E4918E2F08952091F60530E040E050E085
:1020800083E0220F331F441F551F8A95D1F7C901E2
:1020900008950895682F80E390E00E94853C08959C
:1020A00090E08B5F9F4F0E94853C0895682F84E0ED
:1020B00090E00E94853C089580E390E00E94673C98
:1020C000843008F080E008951F9384E090E00E943F
:1020D000673C182F0E943B108436910518F024E6C7
:1020E00030E003C00E943B109C01812F90E08217DA
:1020F000930708F010E0812F1F91089565E070E0CC
:102100004BE050E00E94753C08950F931F93182FE9
:10211000092F65E070E04BE050E00E94573C212F12
:10212000302FC901FC0190E0808187FD10829F5F04
:1021300031969B30C9F71F910F910895ABE0B0E045
:10214000E4EAF0E10C94473D80E090E00E946F3CAF
:10215000835F9E4D19F000E010E009C082E090E03E
:102160000E946F3C8C018133910509F443C080E0EB
:1021700090E063EF7EED0E94973C0330110518F468
:1021800000E010E002C00250104082E090E061E305
:1021900070E00E94973C0330110528F0C8010297B7
:1021A000029728F409C080E00E94561005C0C801BB
:1021B00003978B30910550F48E010F5F1F4FC801BC
:1021C0000E942103C8010E947E1007C00C9728F0CE
:1021D000C8010E978032910540F480E2E0E1F0E022
:1021E000DF011D928A95E9F702C0819718F480E01B
:1021F0000E944A102B96E4E00C94633D80E090E04E
:102200006CE071E20E94973C0E949E10089530910C
:102210004B052091EC0504C08FEF80832481392F7A
:10222000822F90E0FC01EE0FFF1FEE0FFF1FE80F63
:10223000F91FE45BFA4F8381882329F030934B0523
:102240002093EC0518C0932F9150222329F7309347
:102250004B051092EC050895822F90E0FC01EE0FE3
:10226000FF1FEE0FFF1FE80FF91FE45BFA4F83819A
:10227000815083832481222379F70895582FE09198
:10228000EC0590E021C02E2F30E0F901EE0FFF1F8A
:10229000EE0FFF1FE20FF31FE45BFA4F80818517FB
:1022A00049F48181861731F48281841719F48EEF05
:1022B00080839F5FF901EE0FFF1FEE0FFF1FE20FFC
:1022C000F31FE45BFA4FE481EE23E9F6892F0895CA
:1022D000982FE1E5F5E071E080818F3F29F07F5F85
:1022E00035967032C9F7089580914B058F5F8093C2
:1022F0004B05A72FB0E0FD01EE0FFF1FEE0FFF1FF4
:10230000EA0FFB1FE45BFA4F9083618322834383D0
:102310005091EC05552371F0852F90E0FC01EE0FF4
:10232000FF1FEE0FFF1FE80FF91FE45BFA4F8381D9
:10233000481768F4FD01EE0FFF1FEE0FFF1FEA0FB5
:10234000FB1FE45BFA4F54837093EC050895252F2F
:1023500030E0F901EE0FFF1FEE0FFF1FE20FF31F3A
:10236000E45BFA4F5481552371F0852F90E0FC0116
:10237000EE0FFF1FEE0FFF1FE80FF91FE45BFA4F90
:102380008381481720F7FD01EE0FFF1FEE0FFF1F9F
:10239000EA0FFB1FE45BFA4F5483F901EE0FFF1FB6
:1023A000EE0FFF1FE20FF31FE45BFA4F74830895F3
:1023B00008958CE495E06FEF70E040EA50E00E94F1
:1023C000503C1092EC0510924B050895259A2D98DB
:1023D0001092EE05239A2B981092ED0508958091A6
:1023E000EE05882351F08091EE0581508093EE0533
:1023F0008091EE05882309F42D988091ED058823BE
:1024000051F08091ED0581508093ED058091ED05AF
:10241000882309F42B9808952D9A82E08093EE0585
:1024200008952B9A82E08093ED0508950895E0ECDD
:10243000F0E080818D7F80831092C50087E28093D9
:10244000C400E1ECF0E08081886080830895089505
:10245000982F8091C00085FFFCCF9093C6000E940A
:10246000111208951F931092EF051092F305109228
:10247000F40580919006209191063091920640914A
:10248000930660919406E0919506A09196061091AE
:102490009706B82FBF5F91E0B81708F090E0F92FCA
:1024A000F20F81E0F21708F080E0782F730F81E0DF
:1024B000731708F080E0582F540F81E0541708F08C
:1024C00080E0382F360F81E0361708F080E0282FA3
:1024D0002E0F81E02E1708F080E0982F9A0F81E0F0
:1024E0009A1708F080E0810FB0939006F093910660
:1024F000709392065093930630939406209395061A
:1025000090939606809397061F9108950F931F93BB
:10251000789401EC10E0F80110820E94D911E1E8F2
:10252000F0E08081887F81608083109280008BE062
:1025300080838EE699E1909389008093880087EBF1
:102540009CE090938B0080938A00EFE6F0E080811E
:1025500082608083E1EBF0E08081887F826080830D
:10256000E0EBF0E080818C7F81608083E0E7F0E049
:1025700080818160808387B18F6087B988B1807FD7
:1025800088B98BE697E060E270E040E150E00E949D
:10259000503C89E597E06FE370E040E150E00E9435
:1025A000503C10927C0710927D0710926A078FEFC3
:1025B0008093690780937E0710927F070E942A19F3
:1025C000E0ECF0E080818D7F80831092C50087E28F
:1025D0008093C400F801808188608083808180615D
:1025E00080830E9417120E949E1088E790E060E0AE
:1025F00044EF51E00E9439038CE090E09093180181
:10260000809317018FEF9FEF909316018093150130
:1026100010921F01109220010E94E6110E94EE0FFD
:102620000E94C8211F910F91089584B714BE809114
:102630006000886180936000109260000E948612A2
:102640000E944821FDCF1F920F920FB60F921124C6
:102650002F933F934F935F936F937F938F939F93AA
:10266000AF93BF93EF93FF9320911D0130911E0113
:102670002F5F3F4F40E050E0809111019091120197
:10268000A0911301B0911401820F931FA41FB51FD5
:102690008093110190931201A0931301B093140140
:1026A00080911501909116010196909316018093E7
:1026B000150120911701309118018217930760F0DE
:1026C000109216011092150190E080911F0188234D
:1026D00009F491E090931F01E0911F01F0E0EE0FEB
:1026E000FF1FE75EFE4F8081918190931E018093D2
:1026F0001D0190938900809388009695879590930B
:102700008B0080938A0080912001882311F00E9421
:102710007B0CFF91EF91BF91AF919F918F917F9132
:102720006F915F914F913F912F910F900FBE0F903E
:102730001F9018950F931F93CF93DF93EC01062FF3
:10274000162F1F70603F51F0673F41F0BC016F5F73
:102750007F4F802F4C8121E00E942206602F607FF6
:10276000603B81F1613B40F46039C1F0603A21F196
:10277000603809F06AC00EC0603D99F1613D20F4F7
:10278000603C09F062C028C0603E81F1603F09F002
:102790005CC03AC0812F69814A810BC04A814423C1
:1027A00029F0812F69810E94A20C4FC0812F69817D
:1027B00040E00E94B10649C0812F69814A810E9490
:1027C000A70643C06981862F88578830F0F1812F92
:1027D0004A810E944E0A39C0812F69810E94910F5F
:1027E00034C0812F69810E94FC062FC06A8170E08D
:1027F0007695762F6627779567958981680F711D85
:10280000812F0E94960621C01830A1F0193028F4BB
:10281000112351F01730C9F409C01B3089F01C3066
:1028200091F01A3091F409C0898101C087EF0E94AC
:10283000E50F0BC00E94970C08C00E94D90805C084
:102840000E94870302C00E943D07DF91CF911F9134
:102850000F91089578941F920F920FB60F92112442
:102860001F932F933F934F935F936F937F938F9318
:102870009F93AF93BF93EF93FF938091C00087FF27
:102880006AC01091C6001E3F09F465C0183F11F0E0
:102890000E940C12812F0E948F03183F30F08FEEA0
:1028A00095E0612F0E949A1356C017FF34C0109212
:1028B000F30581E08093F405812F807F803AA1F0B9
:1028C000813A28F4803881F08039B1F40DC0803E1F
:1028D00059F0803F19F0803B79F406C0912F9F702A
:1028E000892F8150823020F482E08093F40504C067
:1028F000943010F01092F4058091EF05803F19F4A8
:1029000087EF0E94E50F1093EF05103F71F480EF01
:102910000E94E50F0AC08091F305E82FF0E0E15135
:10292000FA4F11838F5F8093F3059091F3058091A7
:10293000F405981780F08FEE95E06091EF050E9406
:102940009A131092F3058091EF05813F20F01092C9
:10295000F4051092EF058091490590914A05891B75
:102960008F77A9F08091C00085FF11C080914A0542
:10297000E82FF0E0E856F94F10818F5F8F77809352
:102980004A05183F11F00E9411121093C600809161
:10299000F5058F5F8093F50580FD3AC00E94AF205A
:1029A0008091F50590E083709070892B89F5909166
:1029B0000E01892F8A5980930E018D37D8F09751D7
:1029C00090930E0180910A0190910B0101969093D2
:1029D0000B0180930A0180910A0190910B01892BD0
:1029E00049F480910C0190910D01019690930D0195
:1029F00080930C010E94EF118091F50590E08770A3
:102A00009070892B29F480917F078F5F80937F07D7
:102A1000FF91EF91BF91AF919F918F917F916F91B6
:102A20005F914F913F912F911F910F900FBE0F908B
:102A30001F901895FC011082118212821382148259
:102A400081E085830895FC01108211821282138235
:102A5000148281E08583178216820895FC01178213
:102A600016820895FC016A3028F48181681711F4F8
:102A7000178216820895FC018181E82FF0E0EA3088
:102A8000F10508F05FC0E15CFF4F0C94703D2091B0
:102A90005E0130915F015AC020915E0130915F016B
:102AA00018C080915E0190915F019C01220F331F3D
:102AB000280F391F4BC020915E0130915F011AC071
:102AC00080915E0190915F019C01220F331F280FBE
:102AD000391F220F331F3AC020915E0130915F01F0
:102AE00021C080915E0190915F019C01220F331FF4
:102AF000280F391F220F331F220F331F27C02091A9
:102B00005E0130915F0154E0220F331F5A95E1F7C7
:102B10001DC080915E0190915F019C01220F331FC7
:102B2000280F391F93E0220F331F9A95E1F70EC04B
:102B300020915E0130915F0185E0220F331F8A955D
:102B4000E1F704C0282F30E028503040211531052E
:102B500019F420E030E002C021503040C90108954E
:102B6000CF93DF93EC010E943B15BC01888181303B
:102B7000C9F0813030F08230A1F1833009F055C0C6
:102B80003DC06115710509F450C02E813F81C90116
:102B90009695982F882797958795821B930B0E946F
:102BA000D53C46C06330710520F48E8180FF3DC066
:102BB0003EC04E818F8160FD05C0242F382F922F9B
:102BC000882706C0242F382F922F88276F5F7F4FCA
:102BD000220F331F821B930B0E94D53C67FD61952A
:102BE00027C06115710509F16F5F7F4F7695679575
:102BF0008E819F8186179707D0F417C0209100011E
:102C000030910101C90181709070909581959F4F1D
:102C10008070947B369527958227932790930101A6
:102C200080930001692F6F7703C060E001C06FE7F8
:102C3000862FDF91CF9108950F931F93CF93DF934A
:102C4000EC010E811F810F5F1F4F1F830E830E94B7
:102C50003B158017910710F41F821E82DF91CF91E0
:102C60001F910F910895FC0190E0808180528F3573
:102C700010F08FE580839F5F31969430B1F708950F
:102C8000A2E0B0E0E6E4F6E10C94453D7B010E9451
:102C9000B3172FEF8F3F9207F9F08C0100581F4FA9
:102CA000B80162507040CE01019642E050E00E94AF
:102CB0004518029789F449815A81CA0101978058C1
:102CC000934050F4C701B8010E9445189C018981C6
:102CD0009A812817390711F020E030E0C9012296C7
:102CE000E6E00C94613DA2E0B0E0E9E7F6E10C9487
:102CF000453D7B015A8349830E94B3172FEF8F3FD5
:102D0000920791F08C0100581F4FB801625070403B
:102D1000CE01019642E050E00E94D61849815A81C6
:102D2000C701B8010E94D6182296E6E00C94613DD6
:102D3000CF93DF93EC01862F0E94B317BC018FEF76
:102D40006F3F780729F0CE0140E250E00E94D6188C
:102D5000DF91CF910895A1E0B0E0E1EBF6E10C94B2
:102D6000413D7B019FE5A92E9FE5B92E9FE5C92E28
:102D70009FE5D92EFB01A082B182C282D3820E943C
:102D8000B3178C01FFEF8F3F9F07F9F0CE0101963B
:102D9000B80141E050E00E9445180197B1F48981E3
:102DA000813298F40F5F1F4FC701B80144E050E033
:102DB0000E944518049731F0F701A082B182C282C7
:102DC000D38203C0C7010E9433162196EAE00C9417
:102DD0005D3D0F931F938C0120E2FC0120838FE562
:102DE0009FE5AFE5BFE581839283A383B48315821A
:102DF00088E7868387E087831086118684EF91E0D9
:102E00009387828714861586168617868CE3808BB7
:102E1000218B138A128AC80144960E941A15C80190
:102E20004A960E941A1581E0F801818F8AE0878F07
:102E30001F910F910895CF93DF93EC0101960E94AB
:102E400033168D81803120F0CE010E94E91655C0E5
:102E50008E818951823E10F088E78E838F81843184
:102E600010F087E08F838885853108F01886898582
:102E7000843108F019868A859B850197875E934087
:102E800020F084EF91E09B878A878C85833008F05F
:102E90001C868D85823008F01D868E8587FD1E86F6
:102EA0008F85843008F01F86888987FF02C08CE3F5
:102EB000888B8989181614F080E2898BFE0190E0D6
:102EC0008489843008F0148A8589893C08F0158A41
:102ED0008689803809F4168A8789803809F4178A28
:102EE000808D803809F4108E818D883710F081E054
:102EF000818F9F5F3696923019F7DF91CF910895B9
:102F0000A1E0B0E0E6E8F7E10C94453D7C01162F26
:102F10000E94E916812F0E94B3178C018FEF0F3F9B
:102F20001807E9F0CE010196B80141E050E00E9497
:102F300045180197A1F44981413288F4C701B801CD
:102F400050E00E944518298130E08217930721F054
:102F5000C7010E94E91603C0C7010E941B172196F2
:102F6000E6E00C94613D782F770F770F60E06050BA
:102F70007C4F9B0140E050E0605074408091F6052A
:102F800090E0A0E0B0E0EDE0880F991FAA1FBB1F02
:102F9000EA95D1F782179307A407B50710F46FEFEE
:102FA0007FEFCB0108951F93382FE92F142F422F65
:102FB000722F760F703408F064C08091F8059091FC
:102FC000F9058150891B8F738717B8F3832F9E2FC4
:102FD0009C01D90120E00DC08091F905E82FF0E0B7
:102FE000EE57F84F9D9190838F5F8F738093F90513
:102FF0002F5F261788F3812F952F9C01D90120E0A0
:103000000DC08091F905E82FF0E0EE57F84F9D9143
:1030100090838F5F8F738093F9052F5F241788F358
:103020008091C2078823E1F78091CB072091F705B3
:103030008091F9059091F805891B8F7311F18091AA
:10304000C2078823F1F48FEF8093CB0782E080934F
:10305000C2072065220F209381079091F9052091E6
:10306000F8058091BC0080628093BC00921B9F7326
:1030700041F08091C2078823E1F78091CB078F3F11
:1030800009F070E0872F1F910895A2E0B0E0EBE413
:10309000F8E10C94453D7C018A0179836A83CE0175
:1030A000019662E040E050E020E00E94D3178230B9
:1030B00039F48091FA058093FB0540E050E06DC043
:1030C0008091F8058093F90540E050E06AC0809156
:1030D000FB059091FA05891B8770B9F00115110560
:1030E00009F45BC0015010404F5F5F4F8091FA05BB
:1030F000E82FF0E0ED53F84F90818F5F8770809359
:10310000FA05F70191937F01E2CF0115110509F44A
:1031100044C08091C2078823E1F78091CB07C801A2
:103120000132110510F080E290E0282F3091F70570
:103130008091FA059091FB058150891B87702817B3
:1031400040F02091FA058091FB052150281B277043
:1031500021508091C207882399F48FEF8093CB0789
:1031600082E08093C207330F316A30938107109257
:1031700080072093CC078091BC0080628093BC00C4
:103180008091C2078823E1F78091CB078F3F29F018
:10319000C801841B950BAC0104C00115110509F091
:1031A00096CFCA012296E6E00C94613D8F929F92E1
:1031B000AF92BF92CF92DF92EF92FF921F93DF9375
:1031C000CF9300D0CDB7DEB74C016B017A01AA24B2
:1031D000BB242EC02C2D8C2D8F7110E2181B812F3B
:1031E00090E0E816F90608F41E2DD9822A83CE0154
:1031F000019662E0A401212F0E94D31790E0412F95
:1032000050E09A012E5F3F4F8217930729F080917B
:10321000F8058093F9050FC088EA91E60197F1F768
:10322000A40EB51EC40ED51E840E951EE41AF50A12
:10323000E114F10479F6C5010F900F90CF91DF9161
:103240001F91FF90EF90DF90CF90BF90AF909F9035
:103250008F900895A2E0B0E0E0E3F9E10C94453DE1
:103260008091B9008E7F8093B9008091B9008D7FE5
:103270008093B90081E18093B8008091BC008460A4
:103280008093BC008091BC0081608093BC008091E1
:10329000BC0080648093BC001092C2078EE999E163
:1032A0009093100180930F01FEEFEF2EFFEFFF2EA2
:1032B00008ED1AEF1A830983CE010196B70142E0A7
:1032C00050E00E94D61880E090EEE80EF91E015002
:1032D00010409AEF003D190769F788E08093F605E2
:1032E0000EEF1FEF17C0CE010196B80142E050E08B
:1032F0000E9445184091F605842F90E08053954038
:1033000029813A812817390749F041504093F60541
:10331000005010428091F605882329F72296E6E0B6
:103320000C94613D8091BC0080618093BC008091D1
:10333000BC0084FDFCCF1092C20708958091B900B3
:1033400090E0887F907088329105B1F189329105C3
:10335000A4F48031910559F1813191053CF4009735
:1033600009F482C0089709F084C021C08831910512
:1033700019F1809709F07DC035C08034910509F4BA
:1033800052C0813491053CF48033910559F1C897BE
:1033900009F06FC02DC08035910599F188359105F0
:1033A00009F44DC08834910509F063C05AC080917A
:1033B00081078093BB003DC08091F9059091F8058D
:1033C000891B8F7309F44DC08091F805E82FF0E058
:1033D000EE57F84F90818F5F8F738093F80590932D
:1033E000BB0027C08091B900887F8093CB0739C08C
:1033F00080E38093CB0785EC8093BC001092C207DA
:1034000008959091BB008091FB05E82FF0E0ED530B
:10341000F84F90838F5F87708093FB0580918007C2
:103420008F5F80938007909180078091CC079817D9
:1034300010F485EC01C085E88093BC00089590915C
:10344000BB008091FB05E82FF0E0ED53F84F90832F
:103450008F5F87708093FB05809180078F5F8093DB
:1034600080070E94921908958EEF8093CB070E94E7
:103470009219089508951F938091900620919106C6
:10348000309192064091930660919406E0919506E2
:10349000A091960610919706B82FBF5F91E0B817DC
:1034A00008F090E0F92FF20F81E0F21708F080E0C9
:1034B000782F730F81E0731708F080E0582F540FB6
:1034C00081E0541708F080E0382F360F81E036177E
:1034D00008F080E0282F2E0F81E02E1708F080E002
:1034E000982F9A0F81E09A1708F080E0810FB0932F
:1034F0009006F09391067093920650939306309342
:1035000094062093950690939606809397061F91B4
:1035100008950F931F93082F80913E068530C1F4C4
:1035200080913F06882389F410E006C0E35BFE4FDC
:1035300084910E9428121F5FE12FF0E08091FC052A
:103540009091FD05E817F90788F3802F0E94281253
:1035500080913E0680933F061F910F91089587EF5B
:103560000E94281288EE93E0E4EFF1E03197F1F742
:103570000197D1F708951F93182F812F82958F708F
:103580000E942812812F8F700E9428121F91089587
:10359000EF92FF920F931F93CF93DF937C018B01E8
:1035A000C0E0D0E007C0F701EC0FFD1F80810E9452
:1035B000BB1A2196C017D107B0F3CDB7DEB7E6E04E
:1035C0000C94613D0F931F93CF93DF93182F062F19
:1035D000CDE4D1E0FE0184910E9428122196F1E011
:1035E000C335DF07B9F7812F0E942812802F0E9470
:1035F0002812DF91CF911F910F910895CF93DF9300
:10360000482F792F662311F120914206309143060D
:10361000C62FD0E0CE01820F931F8158934020F037
:1036200084E080933E0612C02C593E4FC901642F9E
:103630004C2F50E00E94353C809142069091430609
:103640008C0F9D1F9093430680934206DF91CF918C
:103650000895FF920F93DF93CF93CDB7DEB7A09776
:103660000FB6F894DEBF0FBECDBFF82E882309F445
:103670005DC08091FC059091FD05969587952F2D55
:1036800030E02817390708F445C0809140068130A2
:1036900021F0813109F0BCC03DC00091FE05F0165B
:1036A00008F4B6C080E2FE013196DF01982F1D922A
:1036B0009A95E9F78983CF010E94E916003218F044
:1036C000E0E2F0E002C0E02FF0E02EEF35E0CE01C6
:1036D0000196B901AF010E94353CCE0101960E94CE
:1036E0008F0E10925D0110925C0110925F0110929A
:1036F0005E011092610110926001109263011092BC
:103700006201F01A1092430610924206FF2071F0F7
:10371000902F01C090E080914006813039F4892FCC
:1037200090E082509A4F6F2D0E94FE1A80913E06C3
:10373000833009F070C080914006813021F08131E2
:1037400009F066C04FC06091420670914306109226
:103750005D0110925C011092610110926001709302
:1037600063016093620120E030E080E090E00AC0F5
:10377000F901E45AFE4F80858F70880F8F5F280F04
:10378000311DCA01AC014F5F5F4F2617370780F329
:1037900090935F0180935E01009141060E943B106F
:1037A0008436910518F024E630E003C00E943B10F7
:1037B0009C01802F90E08217930720F480914106AE
:1037C0000E94060F2AE0222F2295207F22608091FE
:1037D0004805E82FF0E0EE0FFF1FE75EF84F20836B
:1037E000118211C0909141062AE0222F2295207F5C
:1037F000236080914805E82FF0E0EE0FFF1FE75EA1
:10380000F84F208391838F5F8F718093480503C0A9
:1038100084E080933E06A0960FB6F894DEBF0FBEFC
:10382000CDBFCF91DF910F91FF900895482F803F3A
:1038300031F41092FD051092FC0510923E06809125
:103840003E068130E1F0813020F0823009F06EC018
:103850002EC08091FC059091FD05FC01E35BFE4FBD
:10386000E491E41751F401969093FD058093FC05D3
:10387000069708F45BC081E013C085E04BC08091DF
:10388000FC059091FD05FC01E05CF94F4083019639
:103890009093FD058093FC05029709F047C082E0F4
:1038A00080933E061092FD051092FC05089520912C
:1038B000FC053091FD05473F01F1C90196958795BB
:1038C000582F5F73C90101969093FD058093FC0505
:1038D000E52FF0E080FF07C0842F8295807FE250C3
:1038E000FA4F80830895E250FA4F4F708081842B05
:1038F00080835F33D9F480E407C02115310539F4A2
:1039000083E080933E0680E00E94291B089520FFFB
:1039100004C084E080933E06089583E080933E06D1
:1039200036952795822F8F730E94291B0895A0E258
:10393000B0E0EDE9FCE10C94463DF82E0E943B100E
:103940008436910518F024E630E003C00E943B1055
:103950009C018F2D90E08217930718F48F2D0E9401
:103960002E0F80E28E010F5F1F4FF801982F1192EA
:103970009A95E9F78983C8010E94440E81E06F2D72
:103980000E94E21AC80160E270E00E94C81A6091C9
:1039900062017091630184E691E00E94C81A0E945E
:1039A000AF1AA096E5E00C94623DFF920F931F932F
:1039B000F09021010E943B108436910510F004E63E
:1039C00003C00E943B10082F10E004C0812F0E940A
:1039D000971C1F5F1017D0F38F2D0E942E0F1F9181
:1039E0000F91FF9008958FE70E94971C08952091F2
:1039F000170830E083B1220F90E044E09695879558
:103A00004A95E1F78170282B88E893E10197F1F757
:103A10003F5F383079F72093170880E0222309F4BC
:103A200081E0089583B190E074E0969587957A954A
:103A3000E1F7817090911708990F982B90931708D0
:103A40009038A1F423E0222F2295207F21608091DD
:103A50004805E82FF0E0EE0FFF1FE75EF84F2083E8
:103A600011828F5F8F718093480508959F37D1F43D
:103A700080915B06882319F010925B06089523E07D
:103A8000222F2295207F236080914805E82FF0E0C7
:103A9000EE0FFF1FE75EF84F208311828F5F8F715B
:103AA000809348050895CF93DF93EC01262F862F4E
:103AB0006CE00E94BC3C482F822F0E94BC3C963098
:103AC00059F0973028F4913039F0933031F404C034
:103AD000983011F09A3009F42196990F292F30E08F
:103AE000215A3E4FF9018491DE018D939F5FE92FAA
:103AF000F0E0E15AFE4FE491E983E42FF0E0ED5A63
:103B0000FE4FE4911196EC93DF91CF910895482FE9
:103B1000882331F490916106809162069817F1F044
:103B2000909161069093620638E021E0239FF001B6
:103B30001124E559F84F442319F0878180936306D7
:103B400080912F01882341F090FD06C081E002C0E2
:103B500080916306878308954423D1F308958823D1
:103B600021F01092600610926106809162068095A5
:103B7000809362062AE0222F2295207F2260809186
:103B80004805E82FF0E0EE0FFF1FE75EF84F2083B7
:103B900011828F5F8F718093480508958091600630
:103BA0008F5F809360068C3038F0809161068F5F64
:103BB00080936106109260060895CF93DF939C0175
:103BC000EA01662329F1009719F480E3888320C075
:103BD00040E0E42FF0E0EF5EF74FC9016AE070E0EB
:103BE0000E94D53C80834F5FC9016AE070E00E946B
:103BF000D53C9B016115710561F708C04150E42F68
:103C0000F0E0EF5EF74F8081805D89934423B1F748
:103C1000DF91CF910895FC01CB016A30710510F05E
:103C200020E002C0408321E062E0621BE20FF11D50
:103C3000AF010E94DD1D0895982F84FD5A9A8BB123
:103C40009295907F8F70892B8BB95B9A88E893E16E
:103C50000197F1F75B985A9888E99AE30197F1F791
:103C600008951F93182F82958F700E941C1E812F1C
:103C70008F700E941C1E1F910895282F809164064A
:103C8000909165068150891B8F73823010F480E01B
:103C9000089590916506E92FF0E0EF52F84F822FDA
:103CA00082958F70806180832F70206121839E5F59
:103CB0009F739093650608951F9380916406909179
:103CC00065068150891B8F73843008F48FC09091F2
:103CD0001E088091CF07981710F41092CE0780919C
:103CE0001E088093CF0790917C0780917E079817DC
:103CF00039F480917F0787FF03C01091080117C036
:103D00002091CE07222371F0992311F0973051F4BE
:103D1000E92FF0E0E559F84F8081803219F4122F35
:103D2000115005C0E92FF0E0E559F84F1081292F17
:103D300030E0F901E75AF84F80811817F1F18091CE
:103D4000690790E001962817390721F480916A07E6
:103D5000882339F520917D0730916A0780916406A8
:103D6000909165068150891B8F738230D0F0229527
:103D7000220F220F207C3068232B30916506E32F21
:103D8000F0E0EF52F84F822F90E0B4E095958795E0
:103D9000BA95E1F780832F7021833E5F3F733093A4
:103DA0006506812F0E943D1E80917C07E82FF0E080
:103DB000E75AF84F10838093690790916A079F5FD5
:103DC00090936A0780917C078F5F80937C0798307F
:103DD00069F410926A0780917D078F5F80937D0759
:103DE000823021F410927D0710927C071F91089574
:103DF0001F9310E00E945C1E1F5F1031D9F71F91C6
:103E000008951F938091900620919106309192061B
:103E10004091930660919406E0919506A0919606D4
:103E200010919706B82FBF5F91E0B81708F090E0A7
:103E3000F92FF20F81E0F21708F080E0782F730F6E
:103E400081E0731708F080E0582F540F81E0541779
:103E500008F080E0382F360F81E0361708F080E058
:103E6000282F2E0F81E02E1708F080E0982F9A0F50
:103E700081E09A1708F080E0810FB0939006F093EC
:103E80009106709392065093930630939406209374
:103E9000950690939606809397061F9108958BE65A
:103EA00097E060E270E040E150E00E94503C80E228
:103EB0008093630608950E944F1FE0915206F0918F
:103EC0005306099508950F931F9328E001E0029F80
:103ED000800111240559184F60912101C80170E03B
:103EE00040E30E940B1EC801029668E771E046E0BD
:103EF00050E00E942C3C0E94F81E809121010E94FB
:103F0000060F88E893E1E4EFF1E03197F1F70197CC
:103F1000D1F70E945B1F1F910F910895FC018181D1
:103F2000882339F48281823021F410928D060E9418
:103F3000631F08950F931F930E944F1F28E040E0D6
:103F4000429FA001112401E0029F80011124CA01B7
:103F50008559984F6CED71E048E050E00E942C3C90
:103F6000C8018459984F66ED71E045E050E00E9429
:103F70002C3C0E94F81E20E02D9A2B9A8CED95E0A7
:103F8000E4EFF1E03197F1F70197D1F72D982B98F5
:103F90008CED95E0E4EFF1E03197F1F70197D1F77F
:103FA0002F5F233049F71F910F9108950F931F93AF
:103FB000182F80916606809348050E94E90260935D
:103FC0001A0870931B0880931C0890931D08E091B9
:103FD0004806F0914906309711F0812F099500911C
:103FE00044060D3110F4009345061093440663E037
:103FF000169FB001112461587E4F86E596E043E09C
:1040000050E00E942C3C609157067091580686E45F
:1040100096E040E150E00E942C3CE0914606F09191
:10402000470686E596E0602F09950E945B1F1F9169
:104030000F910895FC018181882379F480914406D1
:104040009281191624F48C3130F48F5F04C09923C7
:1040500011F0811181500E94D61F08950F931F9374
:1040600083B1817030911808330F382B30931808C2
:1040700083B190E09695879596958795817020916C
:10408000CD07220F282B2093CD0783B190E0969582
:104090008795817090911908990F982B9093190822
:1040A000203829F4892F807F11F491E005C09038E1
:1040B000A9F4207F99F49FEF21E0222F2295207F01
:1040C00080914805E82FF0E0EE0FFF1FE75EF84F04
:1040D000208391838F5F8F7180934805303809F07A
:1040E0003BC00E94E902AB01BC0180915C0690914B
:1040F0005D06A0915E06B0915F068A019B01081BD8
:10410000190B2A0B3B0B0A3F11052105310510F055
:1041100090E001C092E020E080911708882309F424
:1041200021E0920F22E0222F2295207F80914805E6
:10413000E82FF0E0EE0FFF1FE75EF84F208391833A
:104140008F5F8F718093480540935C0650935D06A6
:1041500060935E0670935F061F910F9108958091A2
:1041600059068F5F809359060E942E208091590630
:1041700090E083709070892B11F40E94121D809141
:104180001E088F5F80931E088091D007882329F036
:104190005B985A981092D007089580916506909187
:1041A0006406891B8F73B9F081E08093D0078091FA
:1041B0006406E82FF0E0EF52F84FE0818F5F8F73D5
:1041C00080936406E4FD5A9A8BB1E295E07F8F708C
:1041D000E82BEBB95B9A0895FC018181823069F08C
:1041E000833071F0813079F492818091440689178F
:1041F00021F0892F0E94D61F08950E945B1F089509
:1042000082810E94971C0895FC018181813011F404
:104210000E94CF080895CF93DF93EC01888182300C
:10422000B9F0833018F4813081F505C08330E9F0AE
:104230008A3059F527C0E0914A06F0914B068981F2
:104240006A810995882309F5CE010E941A201DC0B4
:10425000E0914C06F0914D0689816A810995882389
:10426000A1F4CE010E948E1F10C0E0914E06F09185
:104270004F0689816A810995882339F4CE010E940D
:10428000042103C0CE010E94EC20DF91CF9108955C
:10429000A3E0B0E0EEE4F1E20C94483D0E945C1E25
:1042A00010915A0610925A0624C080916606E82F93
:1042B000F0E0EE0FFF1FE75EF84F208191818F5FE6
:1042C0008F7180936606822F82958F709B832F70EB
:1042D0002A8389830E94E90260931A0870931B085D
:1042E00080931C0890931D08CE0101960E940B211B
:1042F00011E08091480590916606891B8F71A9F69F
:104300000E94E90220911A0830911B08621B730B6E
:10431000695E734098F00E94E90260931A087093F6
:104320001B0880931C0890931D08E0915006F091A3
:1043300051060995882311F011E002C0112339F0CC
:104340000E944F1FE0915206F09153060995E091AB
:104350005406F09155060995812F0E94871D2396DA
:10436000E3E00C94643D0E944F1F48E020E0249F4E
:1043700090011124C9018559984F65EE71E048E01C
:1043800050E00E942C3C0E94F81E0E94DD0F089510
:10439000FF920F931F9322982A9A8FEF8093CD0755
:1043A0002198299A809319082098289A80931808B0
:1043B00024982C9A80931708529A539A8AB1806F46
:1043C0008AB95A985B9888EE93E0E4EFF1E0319770
:1043D000F1F70197D1F783E00E941C1E00E117E27C
:1043E000C8010197F1F783E00E941C1EC8010197E4
:1043F000F1F783E00E941C1EC8010197F1F782E0EB
:104400000E941C1E88E20E94311E8CE00E94311E18
:1044100086E00E94311E81E00E94311E82E00E94EF
:10442000311E1092D0078BE697E060E270E040E129
:1044300050E00E94503C89E597E06FE370E040E176
:1044400050E00E94503C10927C0710927D07109221
:104450006A078FEF8093690780937E0710927F072A
:1044600088E40E94311EFF2412C00F2D10E00B5B68
:104470001E4FF8010491802F82958F7080610E94F9
:104480001C1E0F70802F80610E941C1EF394F8E0A8
:10449000FF1659F78FEA9DE190933F0580933E0503
:1044A0008EEC9DE190934505809344050E94F71C96
:1044B000882311F00E94B3210E949A1F80E00E947D
:1044C000D61F1F910F91FF9008958091070180934F
:1044D000670608950895662311F080E0089590E03E
:1044E00080918D06882309F491E090938D0681E0F8
:1044F0000895813091F480918D06882371F0809128
:104500000701803221F08093670680E202C080912B
:1045100067068093070181E0089580E0089580E0B8
:1045200008950895382FDA01662309F1882319F4D4
:1045300080E38C93089520E0E22FF0E0E15EF74FF6
:10454000832F6AE00E94BC3C90832F5F832F0E94E0
:10455000BC3C382F882381F708C02150E22FF0E0BF
:10456000E15EF74F8081805D8D932223B1F708953E
:104570001F93809190062091910630919206409170
:10458000930660919406E0919506A091960610918D
:104590009706B82FBF5F91E0B81708F090E0F92FA9
:1045A000F20F81E0F21708F080E0782F730F81E0BE
:1045B000731708F080E0582F540F81E0541708F06B
:1045C00080E0382F360F81E0361708F080E0282F82
:1045D0002E0F81E02E1708F080E0982F9A0F81E0CF
:1045E0009A1708F080E0810FB0939006F09391063F
:1045F00070939206509393063093940620939506F9
:1046000090939606809397061F910895CF93DF931A
:1046100058E020E0259F9001112441E0459FE001F2
:104620001124C559D84FC9018559984F6EEF71E0D3
:1046300046E050E00E942C3CAE014F5F5F4F8091FE
:10464000070163E00E94922280918D06882321F069
:10465000CE0163E00E94B63ADF91CF910895809138
:104660008D06882379F0862F992787FD90952091D4
:104670000701820F911D61E04FE70E94C63A8093C7
:10468000070181E0089589EB93E290933D058093C3
:104690003C056A3119F06C3139F403C01092680698
:1046A00008958AE080936806089510923D0510925F
:1046B0003C050895662311F080E0089590E0809114
:1046C0008D06882309F491E090938D0681E008958A
:1046D00080E0089508951F9380919006209191069F
:1046E000309192064091930660919406E091950670
:1046F000A091960610919706B82FBF5F91E0B8176A
:1047000008F090E0F92FF20F81E0F21708F080E056
:10471000782F730F81E0731708F080E0582F540F43
:1047200081E0541708F080E0382F360F81E036170B
:1047300008F080E0282F2E0F81E02E1708F080E08F
:10474000982F9A0F81E09A1708F080E0810FB093BC
:104750009006F093910670939206509393063093CF
:1047600094062093950690939606809397061F9142
:104770000895982F80918D068823B9F080912601A5
:10478000981799F490916806E92FF0E0EF5BFE4FDF
:104790008081681751F0662341F06083892F0E9461
:1047A000501081E080935A06089580E0089581308A
:1047B00069F580918D06882349F180916806E82F7C
:1047C000F0E0EB30F10510F5E75BFF4F0C94703D26
:1047D00063E713C062E711C064E70FC065E70DC06F
:1047E00060E70BC06EE609C061E707C06FE605C071
:1047F00066E703C06DE601C067E7E82FF0E0EF5B16
:10480000FE4F60830E94501081E0089580E008957B
:10481000CF93DF9358E020E0259F9001112441E0E1
:10482000459FE0011124C559D84FC9018559984FBA
:104830006091680649E152E028E00E94303BCE01D9
:10484000019665E172E043E050E00E942C3CE0916B
:104850006806F0E0EF5BFE4FAE014C5F5F4F80817A
:1048600063E00E94922280918D06882329F0CE0178
:10487000039663E00E94B63ADF91CF910895FF92CC
:104880000F931F9380918D068823C9F0F0906806DE
:104890000F2D10E0862F992787FD90950F5B1E4FF7
:1048A000F8012081820F911D60E04FE70E94C63A17
:1048B000682FF80180838F2D0E94501011C067FF70
:1048C00006C080916806882369F0815007C066237E
:1048D00049F0809168068A3028F48F5F80936806DB
:1048E00081E001C080E01F910F91FF9008958091B9
:1048F0002C018093690608950895662311F080E0E5
:10490000089590E080918D06882309F491E09093BA
:104910008D0681E00895813099F480918D06882379
:1049200079F080912C01882329F0809369061092F8
:104930002C0104C08091690680932C0181E00895C8
:1049400080E0089580E0089508951F938091900677
:1049500020919106309192064091930660919406C1
:10496000E0919506A091960610919706B82FBF5F2B
:1049700091E0B81708F090E0F92FF20F81E0F217FC
:1049800008F080E0782F730F81E0731708F080E063
:10499000582F540F81E0541708F080E0382F360F5D
:1049A00081E0361708F080E0282F2E0F81E02E17C7
:1049B00008F080E0982F9A0F81E09A1708F080E0C5
:1049C000810FB0939006F0939106709392065093E6
:1049D00093063093940620939506909396068093C1
:1049E00097061F910895CF93DF9358E020E0259F0D
:1049F0009001112441E0459FE0011124C559D84F91
:104A0000C9018559984F6BE972E045E050E00E947A
:104A10002C3CCE01019660912C0142E852E026E048
:104A20000E94303B80918D06882321F0CE0166E004
:104A30000E94B63ADF91CF91089580918D06882328
:104A400079F0862F992787FD909520912C01820F70
:104A5000911D60E043E00E94C63A80932C0181E002
:104A600008958091270180936A060895089566232A
:104A700011F080E0089590E080918D06882309F47C
:104A800091E090938D0681E00895813099F48091B2
:104A90008D06882379F080912701882329F080935F
:104AA0006A061092270104C080916A06809327014C
:104AB00081E0089580E0089580E0089508951F93AF
:104AC0008091900620919106309192064091930634
:104AD00060919406E0919506A09196061091970634
:104AE000B82FBF5F91E0B81708F090E0F92FF20FF0
:104AF00081E0F21708F080E0782F730F81E07317E0
:104B000008F080E0582F540F81E0541708F080E03F
:104B1000382F360F81E0361708F080E0282F2E0F4F
:104B200081E02E1708F080E0982F9A0F81E09A1705
:104B300008F080E0810FB0939006F0939106709397
:104B40009206509393063093940620939506909383
:104B50009606809397061F910895CF93DF9328E0E0
:104B600040E0429FA001112431E0329FE001112476
:104B7000C559D84FCA018559984F66EB72E044E099
:104B800050E00E942C3C60912701CE0101966623E3
:104B900039F0615040EE50E025E00E94303B06C005
:104BA00061EB72E044E050E00E942C3C80918D0665
:104BB000882321F0CE0165E00E94B63ADF91CF91C3
:104BC000089580918D06882379F0862F992787FD97
:104BD000909520912701820F911D60E044E10E9491
:104BE000C63A8093270181E0089580912A0180933D
:104BF0006B0608950895662311F080E0089590E013
:104C000080918D06882309F491E090938D0681E0D0
:104C10000895813099F480918D06882379F08091F0
:104C20002A01882329F080936B0610922A0104C080
:104C300080916B0680932A0181E0089580E00895B9
:104C400080E0089508951F93809190062091910629
:104C5000309192064091930660919406E0919506FA
:104C6000A091960610919706B82FBF5F91E0B817F4
:104C700008F090E0F92FF20F81E0F21708F080E0E1
:104C8000782F730F81E0731708F080E0582F540FCE
:104C900081E0541708F080E0382F360F81E0361796
:104CA00008F080E0282F2E0F81E02E1708F080E01A
:104CB000982F9A0F81E09A1708F080E0810FB09347
:104CC0009006F0939106709392065093930630935A
:104CD00094062093950690939606809397061F91CD
:104CE0000895CF93DF9358E020E0259F9001112491
:104CF00041E0459FE0011124C559D84FC9018559AC
:104D0000984F64ED72E048E050E00E942C3CCE01E8
:104D1000019660912A014BEC52E00E943A3B80914F
:104D20008D06882321F0CE0163E00E94B63ADF9120
:104D3000CF91089580918D06882379F0862F992749
:104D400087FD909520912A01820F911D60E041E03E
:104D50000E94C63A80932A0181E00895809129013A
:104D600080936C0608950895662311F080E00895FD
:104D700090E080918D06882309F491E090938D0650
:104D800081E00895813099F480918D06882379F02F
:104D900080912901882329F080936C0610922901C3
:104DA00004C080916C068093290181E0089580E021
:104DB000089580E0089508951F93809190062091B2
:104DC0009106309192064091930660919406E0918D
:104DD0009506A091960610919706B82FBF5F91E0B7
:104DE000B81708F090E0F92FF20F81E0F21708F001
:104DF00080E0782F730F81E0731708F080E0582F60
:104E0000540F81E0541708F080E0382F360F81E00E
:104E1000361708F080E0282F2E0F81E02E1708F0BB
:104E200080E0982F9A0F81E09A1708F080E0810FB8
:104E3000B0939006F0939106709392065093930668
:104E40003093940620939506909396068093970648
:104E50001F910895CF93DF9358E020E0259F9001A4
:104E6000112441E0459FE0011124C559D84FC901E3
:104E70008559984F6AEF72E048E050E00E942C3C60
:104E8000CE010196609129014DEE52E00E943A3B1D
:104E900080918D06882321F0CE0164E00E94B63A0D
:104EA000DF91CF91089580918D06882379F0862F28
:104EB000992787FD909520912901820F911D60E02F
:104EC00042E00E94C63A8093290181E00895089546
:104ED00081E080935A0608950F931F93CF93DF9339
:104EE0009C01162FEA01662311F480E036C000977A
:104EF00021F480E3888361502EC097FD02C0062F05
:104F000007C08DE28993062F0150309521953F4FC0
:104F100040E0E42FF0E0ED5DF74FC9016AE070E09A
:104F20000E94E93C80834F5FC9016AE070E00E9403
:104F3000E93C9B016115710561F7942F08C0415050
:104F4000E42FF0E0ED5DF74F8081805D899344238D
:104F5000B1F7602F691B812F861BDF91CF911F91C5
:104F60000F9108951F9380919006209191063091A2
:104F700092064091930660919406E0919506A09167
:104F8000960610919706B82FBF5F91E0B81708F00A
:104F900090E0F92FF20F81E0F21708F080E0782F0F
:104FA000730F81E0731708F080E0582F540F81E0F1
:104FB000541708F080E0382F360F81E0361708F0DC
:104FC00080E0282F2E0F81E02E1708F080E0982F28
:104FD0009A0F81E09A1708F080E0810FB093900655
:104FE000F093910670939206509393063093940633
:104FF0002093950690939606809397061F910895A7
:10500000FC018091220190912301A0912401B09193
:10501000250180839183A283B383089580E796E07E
:105020000E9400288091210180936D0681E0809389
:105030005A06089580E796E00E9400288091210199
:1050400080936D0610928D06089510926E068091E1
:10505000210180936D0680E796E00E94002888E693
:1050600097E290934305809342058EE098E29093F7
:10507000470580934605089580916F068823B9F00F
:1050800010926F0610928D068FEF80937E078091AD
:10509000700690917106A0917206B091730680938C
:1050A000220190932301A0932401B0932501089538
:1050B0000E943C2880916D060E94060F10928D067A
:1050C00010926E0680E796E00E9400280895909165
:1050D0006D06809121019817B1F0892F0E942E0F43
:1050E00080E796E00E94002880916D060E9456108D
:1050F00080912D0181FF07C080912601806C609115
:105100006D060E94EC0608950E94672881E0809356
:105110008D0680936F061092740608951F93182FC2
:1051200080918D06882341F1113091F480916E06B3
:10513000882319F010926E0606C090916D0680913A
:1051400021019817C1F00E941A2810935B0613C022
:10515000133089F480916F06882319F40E94842803
:105160000AC080917406833020F48F5F80937406A8
:1051700002C01092740681E01F9108956623E1F445
:1051800080916E06882319F00E94582813C08091E0
:105190006F06882319F00E943C280CC090E0809193
:1051A0008D06882309F491E090938D06992311F4DC
:1051B0000E94672881E00895623011F080E0089530
:1051C0000E9467280E943C2881E080938D0680938E
:1051D0006E0608950E9467280E943C28109243059D
:1051E00010924205109247051092460508951F93AC
:1051F000182F60E776E00E94AB1610936D061F91A2
:1052000008950F931F93CF93DF9338E020E0239FFF
:10521000E0011124C559D84F21E0239F80011124BA
:105220000559184F60916D0670E06F5F7F4FCE019A
:1052300040E30E940B1E8091700690917106A09130
:105240007206B09173068B839C83AD83BE8380917D
:105250008D06882321F08BE58A838DE58F838091ED
:105260006F06882329F0809174068D5F80937E07F6
:1052700080916E06882321F0C80164E273E009C0C2
:1052800090916D0680912101981731F0C8016BE172
:1052900073E048E050E02EC080915E0190915F0184
:1052A000892B19F180912F01882329F080913F01EA
:1052B0009091400104C080915C0190915D01019644
:1052C00063E0A8010E946C27F801E80FF11D9FE23E
:1052D00090838F5FA801480F511D80915E019091CE
:1052E0005F0163E00E94DD1D07C0C80163E173E058
:1052F00047E050E00E942C3CDF91CF911F910F912D
:1053000008950E94A13A882319F00E94842881E020
:1053100008950F931F93162F80918D06882309F40B
:1053200044C080916F06882339F180911708262F99
:10533000332727FD3095909174068823C9F5A9017C
:10534000490F511DCA0160E043E00E94C63A8093B4
:10535000740681E080935B0628C08F37910554F076
:105360008EE790E007C01123F9F08032910514F424
:1053700080E290E0808318C000916D060E943B108F
:105380008436910510F043E604C00E943B10482F7C
:105390004150812F992787FD9095800F911D60E0E6
:1053A0000E94C63A0E94F72881E01F910F9108954C
:1053B000E92FF0E0E059F94F8081A901480F511D14
:1053C000CA01161654F2CFCF88E89AE290933B05B3
:1053D00080933A0580912601809375060895109276
:1053E0003B0510923A050895662311F080E0089578
:1053F00090E080918D06882309F491E090938D06CA
:1054000081E0089580E008950895CF93DF939C0193
:10541000EA01662361F1009719F480E3888327C0CD
:1054200097FF05C08DE28993309521953F4F40E06D
:10543000E42FF0E0E65DF74FC9016AE070E00E94FA
:10544000E93C80834F5FC9016AE070E00E94E93C5B
:105450009B016115710561F708C04150E42FF0E030
:10546000E65DF74F8081805D89934423B1F7DF913A
:10547000CF9108951F9380919006209191063091CD
:1054800092064091930660919406E0919506A09152
:10549000960610919706B82FBF5F91E0B81708F0F5
:1054A00090E0F92FF20F81E0F21708F080E0782FFA
:1054B000730F81E0731708F080E0582F540F81E0DC
:1054C000541708F080E0382F360F81E0361708F0C7
:1054D00080E0282F2E0F81E02E1708F080E0982F13
:1054E0009A0F81E09A1708F080E0810FB093900640
:1054F000F09391067093920650939306309394061E
:105500002093950690939606809397061F91089591
:10551000982F80918D068823D1F0809126019817CD
:10552000B1F0892F0E9456062AE0222F2295207F73
:10553000226080914805E82FF0E0EE0FFF1FE75E44
:10554000F84F208311828F5F8F718093480580E030
:105550000895813091F480918D06882371F08091B7
:105560002601882321F08093750680E002C0809197
:1055700075060E94560681E0089580E00895CF9355
:10558000DF9358E020E0259F9001112441E0459FE2
:10559000E0011124C559D84FC9018559984F6DE3D1
:1055A00073E047E050E00E942C3C8091260190E09F
:1055B000AE014F5F5F4F019662E00E94052A809125
:1055C0008D06882321F0CE0164E00E94B63ADF9177
:1055D000CF91089580918D06882379F0862F9927A1
:1055E00087FD909520912601820F911D60E04FE08C
:1055F0000E94C63A0E94560681E00895FC0189E5A2
:105600009BE290933D0580933C05E081E13119F0E8
:10561000E73139F403C01092770603C081E080932C
:105620007706E0917706F0E083E0EE0FFF1F8A95A2
:10563000E1F7E45BFE4F8581809376060895109232
:105640003D0510923C050895662311F080E0089511
:1056500090E080918D06882309F491E090938D0667
:1056600081E00895813001F580918D068823E1F075
:1056700080917706813011F091E001C09AE0E82F27
:10568000F0E023E0EE0FFF1F2A95E1F7E45BFE4F09
:105690008581891721F080937606958303C08091D8
:1056A0007606858381E0089580E0089580E008957E
:1056B0000895982F80918D06882331F180912601DD
:1056C000981711F580917706E82FF0E043E0EE0F90
:1056D000FF1F4A95E1F7E45BFE4F85816817A1F053
:1056E00065832AE0222F2295207F22608091480541
:1056F000E82FF0E0EE0FFF1FE75EF84F20831182E6
:105700008F5F8F718093480580E008951F9380918B
:1057100090062091910630919206409193066091F7
:105720009406E0919506A091960610919706B82FE1
:10573000BF5F91E0B81708F090E0F92FF20F81E019
:10574000F21708F080E0782F730F81E0731708F0EC
:1057500080E0582F540F81E0541708F080E0382F74
:10576000360F81E0361708F080E0282F2E0F81E0F9
:105770002E1708F080E0982F9A0F81E09A1708F012
:1057800080E0810FB0939006F0939106709392069B
:105790005093930630939406209395069093960623
:1057A000809397061F9108950F931F93CF93DF93D4
:1057B00038E020E0239F800111240559184F21E093
:1057C000239FE0011124C559D84FC80165E573E056
:1057D00047E050E00E942C3CE0917706EF5CD80156
:1057E0001396EC93E153F0E053E0EE0FFF1F5A9550
:1057F000E1F7E45BFE4FAE014F5F5F4F858163E0F1
:105800000E94922280918D06882321F0CE0166E0CD
:105810000E94B63ADF91CF911F910F910895CF93D7
:10582000DF9380918D068823C1F080917706C82F81
:10583000D0E0862F992787FD909563E0CC0FDD1F80
:105840006A95E1F7C45BDE4F2D81820F911D60E008
:1058500047E70E94C63A8D8381E0DF91CF9108959A
:10586000FC01E081E031A9F0E13128F4EE3051F0A3
:10587000EF3011F50AC0E531A9F0E631B9F0E431B5
:10588000D9F40AC0109279060AC01092790681E014
:1058900011C0109279060DC081E0809379061092B4
:1058A0007A060AC081E08093790604C081E0809383
:1058B000790682E080937A0680917A06813099F0A9
:1058C000813018F0823071F51EC0E0917906FF2713
:1058D000E7FDF09523E0EE0FFF1F2A95E1F7E25B6D
:1058E000FE4F80810DC0E0917906FF27E7FDF0951E
:1058F00093E0EE0FFF1F9A95E1F7E45BFE4F838183
:10590000809378060895E0917906FF27E7FDF095EA
:1059100083E0EE0FFF1F8A95E1F7E05BFE4F808189
:105920008093780608950895662311F080E0089525
:1059300090E080918D06882309F491E090938D0684
:1059400081E00895813009F04DC080918D06882353
:1059500009F448C080917A06813099F0813018F0BE
:105960008230F1F526C080917906E82FFF27E7FD08
:10597000F09553E0EE0FFF1F5A95E1F7E25BFE4F03
:1059800025C080917906E82FFF27E7FDF09543E0D9
:10599000EE0FFF1F4A95E1F7E45BFE4F83818823FA
:1059A00021F08093780613821BC080917806838350
:1059B00017C080917906E82FFF27E7FDF09533E0C7
:1059C000EE0FFF1F3A95E1F7E05BFE4F80818823E1
:1059D00021F080937806108203C08091780680833E
:1059E00081E0089580E0089580E008950895282FCB
:1059F000DA01662339F1882319F480E38C93089542
:105A000087FF03C08DE28D93219530E0E32FF0E016
:105A1000EF5CF74F822F6AE00E94C83C90833F5FA3
:105A2000822F6AE00E94C83C282F882379F708C09B
:105A30003150E32FF0E0EF5CF74F8081805D8D9374
:105A40003323B1F708951F9380919006209191061A
:105A5000309192064091930660919406E0919506EC
:105A6000A091960610919706B82FBF5F91E0B817E6
:105A700008F090E0F92FF20F81E0F21708F080E0D3
:105A8000782F730F81E0731708F080E0582F540FC0
:105A900081E0541708F080E0382F360F81E0361788
:105AA00008F080E0282F2E0F81E02E1708F080E00C
:105AB000982F9A0F81E09A1708F080E0810FB09339
:105AC0009006F0939106709392065093930630934C
:105AD00094062093950690939606809397061F91BF
