:100000000C9471010C9499010C9499010C94990130
:100010000C9499010C9499010C9499010C949901F8
:100020000C9499010C94E4040C9499010C941D0314
:100030000C9499010C9492100C9499010C949901D0
:100040000C94780A0C9499010C94FE030C94990179
:100050000C9499010C9499010C9499010C949901B8
:100060000C94A9010C949901010203040608090CDF
:100070001012182024304048608090C0312F363450
:1000800054312F333254312F333220312F31365403
:10009000312F313620312F385420312F31362E3147
:1000A0002F382020312F345420312F382E20312F5B
:1000B000342020312F325420312F342E20312F3252
:1000C00020203154202020312F322E20312020209A
:1000D000203254202020312E2020203220202020A9
:1000E00000080C0E0F0E0C080002030302020E1E85
:1000F0000C0000001C1414170000000E1511110E46
:1001000000050A0F14192D303132333435363738A3
:1001100039002043432320444423204520464623DE
:10012000204747232041412320420000A401000032
:1001300000000000019401000000000000024002E5
:10014000000000000000035902000000000000044D
:10015000D001000000000000051E020000000000A9
:1001600000069E0200000000000007FC01000000E5
:1001700000000008720200000000000009C0010039
:10018000000000000076302E3937004D49444920E8
:10019000436C6B00FD0F5E0A980F5F0A480E5A0F02
:1001A000990E6E0C421338137510191377108F10B7
:1001B0005F1191103E203130302500576169740085
:1001C0006B137013711373137B138413D51386137E
:1001D00034143514C2143614BF1444149514461440
:1001E0006E6F6E6520207374617274207374727305
:1001F000747000486F6C644D6F646500D614D7143A
:100200006315D8146015E6143715E8146F66662078
:100210006F6E2020005061737354687275007715FB
:1002200078150416791501168715D81589156F6686
:1002300066206F6E202000526F756E6442504D0034
:1002400018161916A6161A16A316281679162A169F
:10025000537465704C656E6700BA16BB166D17BC9B
:10026000166A17CA164117CC16537465704E756D11
:100270006200811782171818831715189117EB174A
:100280009317316D7320326D7320336D7320346D8D
:100290007320356D7320005374726F6265003118DE
:1002A0003218BE183318BB184118921843185468F6
:1002B000726573686C640000D201F301F40173038A
:1002C000E103FD033F044A04C7055A07390BD81060
:1002D00087134714E9148A152B16F316941744183C
:1002E000621911241FBECFEFD8E0DEBFCDBF11E0F1
:1002F000A0E0B1E0E0EEFBE302C005900D92A43077
:10030000B107D9F713E0A4E0B1E001C01D92A03A13
:10031000B107E1F712E0C2EED2E004C02297FE017D
:100320000E94EA1DC83BD107C9F70E94D6040C946D
:10033000161A0C9400008FB7F894209104013091A4
:10034000050140910601509107018FBFB901CA0113
:1003500008951F920F920FB60F9211242F933F937F
:100360004F935F936F937F938F939F93AF93BF93BD
:10037000EF93FF93E0910901F0910A01309709F0A2
:100380000995FF91EF91BF91AF919F918F917F91CF
:100390006F915F914F913F912F910F900FBE0F90F2
:1003A0001F90189508951F93162FA0E0B0E0BC0190
:1003B000CD012AE030E040E050E00E943D1D9B016D
:1003C000AC01210F311D411D511D64E975E387E723
:1003D00090E00E948F1D21503040309311012093F6
:1003E00010011F91089508950895682F8EE090E000
:1003F0000E940E1D0895682F8DE090E00E940E1D52
:100400000895682F8CE090E00E940E1D0895682FDB
:100410008BE090E00E940E1D0895682F8AE090E026
:100420000E940E1D0895682F89E090E00E940E1D25
:100430000895682F88E090E00E940E1D0895682FAF
:1004400085E090E00E940E1D0895682F84E090E002
:100450000E940E1D08958EE090E00E94001D8530E0
:1004600008F080E008958DE090E00E94001D8A3140
:1004700008F087E008958CE090E00E94001D823033
:1004800008F080E008958BE090E00E94001D81114B
:1004900081E008958AE090E00E94001D833008F01A
:1004A00080E0089589E090E00E94001D982F81501F
:1004B000803608F094E0892F089588E090E00E944B
:1004C000001D843108F08AE0089585E090E00E94E4
:1004D000001D089584E090E00E94001D823008F025
:1004E00080E00895BC0186E090E00E94201D089500
:1004F00086E090E00E94081D9C018A5F90408B5C22
:10050000984010F020EB34E0C9010895CF93DF93B9
:1005100080E090E00E94081D805F9E4D19F0C0E0D1
:10052000D0E009C082E090E00E94081DEC018F300D
:10053000910509F46CC080E090E060EF7EED0E94D0
:10054000201DC330D10518F4C0E0D0E001C02297CF
:1005500082E090E06FE070E00E94201DC330D10582
:1005600028F0CE010297029728F407C080E00E948D
:10057000250203C0CE01039721F480E00E941F02F0
:1005800007C0029728F0CE0104978230910528F425
:1005900080EB94E00E94720205C0039718F0CE0130
:1005A000069721F48AE00E94190205C0029718F00C
:1005B000CE01079721F484E00E94130208C0823024
:1005C000910528F001978230910528F409C080E058
:1005D0000E940D0205C001978230910528F409C0E0
:1005E00081E00E94070205C001978230910528F43E
:1005F00008C080E00E94010204C00197029738F40D
:1006000003C087E00E94FB0180E00E94F501DF91BA
:10061000CF910895EFE6F0E08081826080830895B5
:100620002FB73091120140911301909313018093E1
:1006300012012FBF832F942F08951F920F920FB690
:100640000F9211242F933F934F935F936F937F9358
:100650008F939F93AF93BF93EF93FF9320911001DC
:10066000309111012F5F3F4FA90160E070E02150F0
:10067000304080910C0190910D01A0910E01B0913C
:100680000F01840F951FA61FB71F80930C01909335
:100690000D01A0930E01B0930F01309389002093B8
:1006A00088003695279530938B0020938A0080919F
:1006B0000B01882339F0E0911201F091130130977A
:1006C00009F00995FF91EF91BF91AF919F918F91A3
:1006D0007F916F915F914F913F912F910F900FBE3E
:1006E0000F901F901895089588E790E060E00E94B1
:1006F000D30110920B01109280008BE08093810057
:1007000020911001309111012F5F3F4FA90160E04E
:1007100070E02150304080910C0190910D01A0912A
:100720000E01B0910F01840F951FA61FB71F809374
:100730000C0190930D01A0930E01B0930F01309323
:100740008900209388003695279530938B0020935D
:100750008A000895E8E6F0E0E80FF11DE4918E2F9D
:100760000895259A2D9810921501239A2B9810928E
:100770001401089580911501882351F0809115018D
:1007800081508093150180911501882309F42D98DB
:1007900080911401882351F080911401815080933D
:1007A000140180911401882309F42B9808952D9A3F
:1007B00082E08093150108952B9A82E080931401C2
:1007C000089508951092C00088E98093C10086E0E2
:1007D0008093C2001092C50087E28093C400089500
:1007E0002FB7309116014091170190931701809314
:1007F00016012FBF832F942F089508951F920F92F3
:100800000FB60F9211242F933F934F935F936F93E3
:100810007F938F939F93AF93BF93EF93FF938091B9
:10082000C0008C7159F40E94D7038091C600E091FA
:100830001601F0911701309709F00995FF91EF919A
:10084000BF91AF919F918F917F916F915F914F91E8
:100850003F912F910F900FBE0F901F901895E0ECD5
:10086000F0E080818D7F80831092C50087E28093C5
:10087000C400E1ECF0E080818860808308950895F1
:10088000982F8091C00085FFFCCF9093C6000E94F6
:10089000DC0308951F938091C2022091C30230911E
:1008A000C4024091C5026091C602E091C702A091C6
:1008B000C8021091C902B82FBF5F91E0B81708F0C5
:1008C00090E0F92FF20F81E0F21708F080E0782F26
:1008D000730F81E0731708F080E0582F540F81E008
:1008E000541708F080E0382F360F81E0361708F0F3
:1008F00080E0282F2E0F81E02E1708F080E0982F3F
:100900009A0F81E09A1708F080E0810FB093C2023D
:10091000F093C3027093C4025093C5023093C60291
:100920002093C7029093C8028093C9021F91089533
:1009300078941092C100E1EBF0E08081887F8260C2
:100940008083E0EBF0E080818C7F81608083E0E752
:10095000F0E08081816080838DED92E060E270E064
:1009600040E150E00E94361A8AEC92E06FE370E0BA
:1009700040E150E00E94361A1092EE021092EF020F
:100980001092DB028FEF8093DA028093F0021092D4
:10099000F1020E9486020E94B1030E94C8050E94D3
:1009A000F6090E942F040E94E203089584B714BE42
:1009B00080916000886180936000109260000E94C6
:1009C00098040E943309FDCF78941F920F920FB6BE
:1009D0000F9211242F933F934F935F936F937F93C5
:1009E0008F939F93AF93BF93EF93FF930E944A051A
:1009F000809118018F5F8093180180FD3AC00E949A
:100A00003A088091180190E083709070892B89F5E5
:100A100090910801892F8A59809308018D37D8F069
:100A200097519093080180910401909105010196DE
:100A30009093050180930401809104019091050138
:100A4000892B49F4809106019091070101969093BA
:100A50000701809306010E94BA038091180190E07B
:100A600087709070892B29F48091F1028F5F8093B9
:100A7000F102FF91EF91BF91AF919F918F917F9183
:100A80006F915F914F913F912F910F900FBE0F90FB
:100A90001F9018956091190180911A01681749F00B
:100AA00098B1907F809121018627982B98B9609307
:100AB0001A0150912001552309F1EBE1F1E041E0E9
:100AC000852F90E0242F30E082239323892B59F047
:100AD0008081882321F081508083882321F4842F12
:100AE000809558236823319681E0EF31F80711F0A3
:100AF000440FE6CF6093190150932001089521E03F
:100B000030E002C0220F331F8A95E2F7809119016D
:100B1000662311F0822B02C0209582238093190155
:100B20000895E82FF0E081E090E00E2E02C0880FDB
:100B3000991F0A94E2F720911901282B209319019B
:100B400020912001282B20932001E55EFE4F80910B
:100B50001F0180830895853038F4E82FF0E0EF5FBF
:100B6000FE4FE491E0931F01089590911F0120E052
:100B700030E0822FF901EF5FFE4FE491E91731F089
:100B80002F5F3F4F25303105A1F780E0089508958C
:100B900087B18F6087B988B1807F90911A01892BC6
:100BA00088B90E942B02853038F4E82FF0E0EF5F1F
:100BB000FE4FE491E0931F01089583B190E044E07B
:100BC000969587954A95E1F7817090913C03990F2E
:100BD000982B90933C039038A1F423E0222F229588
:100BE000207F216080914601E82FF0E0EE0FFF1F8B
:100BF000EC5BFC4F208311828F5F8F7180934601E5
:100C000008959F37D1F480913E01882319F0109206
:100C10003E01089523E0222F2295207F23608091BA
:100C20004601E82FF0E0EE0FFF1FEC5BFC4F208346
:100C300011828F5F8F71809346010895CF93DF9368
:100C40009C01EA01662329F1009719F480E3888367
:100C500020C040E0E42FF0E0EA5CFC4FC9016AE00C
:100C600070E00E94681D80834F5FC9016AE070E0F8
:100C70000E94681D9B016115710561F708C0415014
:100C8000E42FF0E0EA5CFC4F8081805D899344238F
:100C9000B1F7DF91CF910895FC01CB016A30710566
:100CA00020F44083418322E007C06436710510F0D0
:100CB00020E002C0408321E063E0621BE20FF11DEF
:100CC000AF010E941E060895FC01CB016A30710538
:100CD00010F020E002C0408321E062E0621BE20FDE
:100CE000F11DAF010E941E060895982F84FD5A9AA7
:100CF0008BB19295907F8F70892B8BB95B9A88E826
:100D000093E10197F1F75B985A9888E99AE3019784
:100D1000F1F708951F93182F82958F700E94750622
:100D2000812F8F700E9475061F910895282F809142
:100D30004301909144018150891B8F73823010F4DC
:100D400080E0089590914401E92FF0E0EA50FD4FD2
:100D5000822F82958F70806180832F702061218324
:100D60009E5F9F739093440108951F938091430168
:100D7000909144018150891B8F73843008F48FC097
:100D8000909143038091F402981710F41092F302AB
:100D9000809143038093F4029091EE028091F002DF
:100DA000981739F48091F10287FF03C01091010177
:100DB00017C02091F302222371F0992311F097308C
:100DC00051F4E92FF0E0E352FD4F8081803219F4B5
:100DD000122F115005C0E92FF0E0E352FD4F1081B2
:100DE000292F30E0F901E653FD4F80811817F1F10A
:100DF0008091DA0290E001962817390721F480915A
:100E0000DB02882339F52091EF023091DB028091DB
:100E10004301909144018150891B8F738230D0F03F
:100E20002295220F220F207C3068232B3091440121
:100E3000E32FF0E0EA50FD4F822F90E054E09595CB
:100E400087955A95E1F780832F7021833E5F3F732A
:100E500030934401812F0E9496068091EE02E82F84
:100E6000F0E0E653FD4F10838093DA029091DB02AD
:100E70009F5F9093DB028091EE028F5F8093EE0282
:100E8000983069F41092DB028091EF028F5F8093BB
:100E9000EF02823021F41092EF021092EE021F91C5
:100EA00008951F9310E00E94B5061F5F1031D9F717
:100EB0001F9108951F938091C2022091C302309127
:100EC000C4024091C5026091C602E091C702A091A0
:100ED000C8021091C902B82FBF5F91E0B81708F09F
:100EE00090E0F92FF20F81E0F21708F080E0782F00
:100EF000730F81E0731708F080E0582F540F81E0E2
:100F0000541708F080E0382F360F81E0361708F0CC
:100F100080E0282F2E0F81E02E1708F080E0982F18
:100F20009A0F81E09A1708F080E0810FB093C20217
:100F3000F093C3027093C4025093C5023093C6026B
:100F40002093C7029093C8028093C9021F9108950D
:100F50008DED92E060E270E040E150E00E94361AD0
:100F600008950E94A807E0912F01F09130010995A2
:100F700008950F931F9383B1817030913D03330F18
:100F8000382B30933D0383B190E0969587959695E5
:100F9000879581702091F202220F282B2093F20274
:100FA00083B190E096958795817090913E03990F5B
:100FB000982B90933E03203829F4892F807F11F4D9
:100FC00091E005C09038A9F4207F99F49FEF21E0CB
:100FD000222F2295207F80914601E82FF0E0EE0F2E
:100FE000FF1FEC5BFC4F208391838F5F8F71809399
:100FF00046013F3709F03BC00E949B01AB01BC0199
:1010000080913F0190914001A0914101B091420136
:101010008A019B01081B190B2A0B3B0B0A3F110588
:101020002105310510F090E001C092E020E08091B0
:101030003C03882309F421E0920F22E0222F22951D
:10104000207F80914601E82FF0E0EE0FFF1FEC5B60
:10105000FC4F208391838F5F8F7180934601409373
:101060003F015093400160934101709342011F91F1
:101070000F91089580913C018F5F80933C010E9405
:10108000B90780913C0190E083709070892B11F436
:101090000E94DD05809143038F5F8093430380911D
:1010A000F502882329F05B985A981092F50208956A
:1010B0008091440190914301891B8F73B9F081E0C5
:1010C0008093F50280914301E82FF0E0EA50FD4F54
:1010D000E0818F5F8F7380934301E4FD5A9A8BB157
:1010E000E295E07F8F70E82BEBB95B9A08950F9340
:1010F0001F93182F80914501809346010E949B0108
:1011000060933F03709340038093410390934203A5
:10111000E0912501F0912601309711F0812F09957A
:1011200000910001802F8150883010F4009322013B
:101130001093000169E0169FB0011124655D7E4F98
:1011400083E391E049E050E00E94191A6091340174
:101150007091350183E291E040E150E00E94191A5C
:10116000E0912301F091240183E391E0602F099540
:101170000E94B1071F910F910895FC018181813078
:1011800019F08230A9F412C04281809100019927A0
:1011900087FD9095242F30E08217930721F0842F4C
:1011A0000E94770808950E94B10708950E94B10730
:1011B0000895FC018181882341F48281823029F4E1
:1011C0001092C10281E00E9477080895FC0181819C
:1011D000882381F4809100019281191624F48830CB
:1011E00038F48F5F05C0992319F0823008F08150E0
:1011F0000E9477080895CF93DF93EC0188818230B5
:10120000B9F0833018F4813059F505C08330E9F026
:101210008A3031F522C0E0912701F09128018981BF
:101220006A8109958823E1F4CE010E94E60818C07E
:10123000E0912901F0912A0189816A810995882329
:1012400079F4CE010E94D9080BC0E0912B01F091F6
:101250002C0189816A81099503C0CE010E94BD08D5
:10126000DF91CF910895A3E0B0E0E9E3F9E00C94B9
:10127000C01D0E94B50610913D0110923D0124C091
:1012800080914501E82FF0E0EE0FFF1FEC5BFC4F73
:10129000208191818F5F8F7180934501822F82958C
:1012A0008F709B832F702A8389830E949B01609398
:1012B0003F03709340038093410390934203CE0118
:1012C00001960E94FB0811E0809146019091450132
:1012D000891B8F71A9F60E949B0120913F033091D9
:1012E0004003621B730B695E734088F00E949B0190
:1012F00060933F03709340038093410390934203B4
:10130000E0912D01F0912E010995882311F411230C
:1013100039F00E94A807E0912F01F0913001099562
:10132000E0913101F091320109952396E3E00C94AC
:10133000DC1D0F931F930E94A80728E040E0429F06
:10134000A001112401E0029F80011124CA018352EF
:101350009D4F6BE871E048E050E00E94191AC80107
:1013600082529D4F65E871E045E050E00E94191AF5
:101370000E94510720E02D9A2B9A8CED95E0E4EF26
:10138000F1E03197F1F70197D1F72D982B988CED7B
:1013900095E0E4EFF1E03197F1F70197D1F72F5F96
:1013A000233049F71F910F9108950E946A02982FE8
:1013B00080913C03882369F4992319F0913049F412
:1013C00004C081E00E9425020DC080E00E94250239
:1013D00005C0992319F0913041F404C080E00E94C7
:1013E0007708089581E00E94770808950F931F936E
:1013F00022982A9A8FEF8093F2022198299A80935B
:101400003E032098289A80933D0324982C9A809339
:101410003C03529A539A8AB1806F8AB95A985B9862
:1014200088EE93E0E4EFF1E03197F1F70197D1F71F
:1014300083E00E94750600E117E2C8010197F1F709
:1014400083E00E947506C8010197F1F783E00E94CE
:101450007506C8010197F1F782E00E94750688E2DF
:101460000E948A068CE00E948A0686E00E948A0614
:1014700081E00E948A0682E00E948A061092F502AC
:101480000E94A8078AEC92E06FE370E040E150E030
:101490000E94361A1092EE021092EF021092DB02B6
:1014A0008FEF8093DA028093F0021092F1020E9493
:1014B00099090E94D5091F910F91089508956623F7
:1014C00011F0623099F490E08091C102882309F410
:1014D00091E09093C102992349F410928401809184
:1014E0008301882319F481E08093840181E00895C9
:1014F0001F920F920FB60F9211248F938091950136
:101500008F5F809395018F910F900FBE0F901F906A
:1015100018951F93CF93DF939C01162FEA01662342
:1015200011F480E02BC0009721F480E388836150A0
:1015300023C040E0E42FF0E0E857FC4FC9016AE027
:1015400070E00E94681D80834F5FC9016AE070E00F
:101550000E94681D9B016115710561F7942F08C0F9
:101560004150E42FF0E0E857FC4F8081805D899383
:101570004423B1F7612F691B812F861BDF91CF9127
:101580001F9108950F931F93CF93DF939C01162F04
:10159000EA01662311F480E036C0009721F480E36D
:1015A000888361502EC097FD02C0062F07C08DE2D0
:1015B0008993062F0150309521953F4F40E0E42F4D
:1015C000F0E0E257FC4FC9016AE070E00E947C1D28
:1015D00080834F5FC9016AE070E00E947C1D9B011F
:1015E0006115710561F7942F08C04150E42FF0E0B8
:1015F000E257FC4F8081805D89934423B1F7602FCF
:10160000691B812F861BDF91CF911F910F91089548
:101610001F93382F162FDA01662311F480E027C0BC
:10162000882321F480E38C9361501FC020E0E22FD7
:10163000F0E0EC57FC4F832F6AE00E945C1D908322
:101640002F5F832F0E945C1D382F882381F7922FF4
:1016500008C02150E22FF0E0EC57FC4F8081805D04
:101660008D932223B1F7612F691B812F861B1F9158
:1016700008951F9310927B0110927C0110924701F4
:10168000109248011092490110924A018091C202C1
:101690002091C3023091C4024091C5026091C602FC
:1016A000E091C702A091C8021091C902B82FBF5F94
:1016B00091E0B81708F090E0F92FF20F81E0F217EF
:1016C00008F080E0782F730F81E0731708F080E056
:1016D000582F540F81E0541708F080E0382F360F50
:1016E00081E0361708F080E0282F2E0F81E02E17BA
:1016F00008F080E0982F9A0F81E09A1708F080E0B8
:10170000810FB093C202F093C3027093C40250934E
:10171000C5023093C6022093C7029093C8028093FB
:10172000C9021F910895A6E6B0E0E9E9FBE00C9438
:10173000BB1D80918301882309F487C080917C01BF
:10174000882309F482C089C0F801619171918F01E9
:1017500080E090E00E94521B9B01AC0169EF72E0B7
:1017600085E99BE40E94B91A0E94261BF701619348
:1017700071937F01CE018B599F4F0817190721F7ED
:101780000F2EF0E0EF2EF0E0FF2EF0E00F2FF0E054
:101790001F2FF02DF601619171916F0180E090E0B3
:1017A0000E94521B9B01AC01C801B7010E943E1A66
:1017B0007B018C01CE01C196C816D90659F7C80124
:1017C000B70120E030E040E753E40E94B91A0E94DC
:1017D000B0199C018A3F910518F42AEF30E037C018
:1017E000F9E0853C9F0718F024EC39E030C0809187
:1017F0009301882361F1C9016AE070E00E94681DCD
:10180000069790F0C9016AE070E00E94681D6F5F62
:101810007F4F9B01F3E0220F331FFA95E1F7660F2C
:10182000771F260F371F13C0C9016AE070E00E94BE
:10183000681DCB019B0153E0220F331F5A95E1F73E
:10184000880F991F280F391F02C020E030E0C9011E
:10185000CA59DF4FE8E00C94D71D9FB7DE01D1963F
:10186000E7E4F1E086E301900D928150E1F79FBF3C
:101870008E010B5C1F4F6E010894C11CD11C7601B8
:1018800063CF20910201822F909103016AE070E002
:101890000E94681D862F66EF7FEF869F602D1124C2
:1018A000620F90E00E94D30108950E94930B9C0167
:1018B000009799F080910201909103012817390750
:1018C00049F030930301209302010E94410C81E012
:1018D00080937E0181E0809380010895909183013F
:1018E00080918401981789F09093840181E080931E
:1018F0003D0180918201882341F0992331F080914C
:10190000C102882311F40E94550C08958CEF0E94A7
:10191000400483E060E00E947F0508958BEF0E9401
:10192000400483E061E00E947F0508958AEF0E94F1
:10193000400483E061E00E947F0508958091880162
:101940008F5F8093880190918701891748F181E02A
:101950000E94910510928801809189018F5F809388
:101960008901909190018917C0F082E00E94910551
:101970001092890180917D01882379F0813019F0DE
:10198000833059F406C00E94960C82E080937D015A
:1019900004C00E94860C10927D0181E080933D017D
:1019A00090918701943040F4809196018F5F8093ED
:1019B0009601282F217007C020E09695809188011C
:1019C000891708F421E080918A01281729F02093D3
:1019D0008A0181E080933D01089588EF0E944004D0
:1019E00080E00E9491050E949E0C089580918101E3
:1019F000882341F480918201882321F08091C102E3
:101A0000882311F00E94ED0C0895EF92FF920F933E
:101A10001F93982F8A3F09F4D6C08B3F20F4883F4C
:101A200009F0F5C007C08B3F09F4D8C08C3F09F01E
:101A3000EEC0E1C0809185018F5F8093850181E0D8
:101A4000809382012091950136B5922F80E0632F1B
:101A500070E0682B792B1092950116BC80917C0167
:101A60008823F9F0E0917B01F0E0EE0FFF1FE55BCA
:101A7000FE4F2081318140E050E0809147019091FC
:101A80004801A0914901B0914A01821B930BA40B1C
:101A9000B50B8093470190934801A0934901B093FF
:101AA0004A0180917B01E82FF0E0EE0FFF1FE55B1C
:101AB000FE4F718360837B0100E010E020914701BD
:101AC000309148014091490150914A01E20EF31EC4
:101AD000041F151FE0924701F0924801009349014D
:101AE00010934A018F5F80937B01883128F081E059
:101AF00080937C0110927B018091C102882309F0C0
:101B00008DC080917C01882311F440E036C0C8016B
:101B1000B70128E130E040E050E00E948F1DC9018C
:101B2000EBE4F1E020E030E06081718186179707F7
:101B300018F4681B790B04C0AC01461B570BBA01A3
:101B40002617370708F49B01329651E0EB37F5076B
:101B500059F740E064E670E00E94681D80919401AE
:101B600090E0FC016E9FC0016F9F900D7E9F900DD5
:101B700011242817390708F441E0409383014423D6
:101B800039F40E94ED0C10928101109280013DC049
:101B90008091800190918101882381F0992311F433
:101BA0000E94ED0C1092800110928500109284002A
:101BB00081E08093810180933D0130C0992371F5CC
:101BC0000E94ED0C2BC00E94960C10928501109281
:101BD0008601109288011092890102C00E948E0C29
:101BE00091E09093820190937F0182E080937D0148
:101BF00090933D0113C00E94860C10927F011092B9
:101C000088011092890110927D0181E0D4CF8091EA
:101C10009201882319F0892F0E9440041F910F918F
:101C2000FF90EF90089580917D01813051F18130D6
:101C300090F0823019F0833051F526C080919101E7
:101C4000823031F480918901882311F083E00CC047
:101C50000E94860C16C080919101882341F08091EA
:101C60008901882321F081E080937D0108950E94FD
:101C7000960C82E080937D01109288011092890178
:101C8000089510927D01089582E080937D0108956A
:101C9000813011F080E008950E94130E81E00895D4
:101CA000982F80919401981729F090939401892F8F
:101CB0000E94FB010895982F80919301981729F0B5
:101CC00090939301892F0E9401020895982F80918B
:101CD0009201981729F090939201892F0E94070290
:101CE0000895982F80919101981729F09093910170
:101CF000892F0E940D020895982F809190019817C6
:101D000029F090939001892F0E94130208951F9348
:101D1000182F80918F01181751F010938F01812F88
:101D20000E941902812F0E94AA03809387011F91AC
:101D30000895EF92FF920F931F93CF93DF9338E0B4
:101D400020E0239FE0011124C352DD4F21E0239FB7
:101D5000700111246DED72E0E60EF71E8091820194
:101D6000882341F080918301882311F48EE301C020
:101D700081E0888380910201909103016AE070E024
:101D80000E94681D162F072FAE014F5F5F4F862FF1
:101D9000972F63E00E94890A482F4F5FFE01E40FEE
:101DA000F11D8EE28083812F902F9C0153E0220F42
:101DB000331F5A95E1F7880F991F280F391F80911B
:101DC0000201909103014F5FFE01E40FF11DAF018D
:101DD000821B930B61E00E941E068091C102882342
:101DE00021F0CE0165E00E94D21880917D018250E1
:101DF000823010F48EE78F8380917D01813059F01D
:101E0000813028F0823029F0833039F404C000E0BA
:101E100004C001E002C000918A01809190018A30E3
:101E200008F5002319F08BE5F70181838091890182
:101E300090E0A7014E5F5F4F019661E00E94C20AE9
:101E4000182F1E5FF701E10FF11D8AE380831F5FEA
:101E5000A701410F511D8091900161E00E94080B84
:101E6000180F1CC0002319F08BE5F70180836091E7
:101E7000890170E06F5F7F4FC701019640E30E94C8
:101E800064068AE3F7018383A7014C5F5F4F80916B
:101E9000900162E00E94080B182F1C5F002329F0BC
:101EA000F701E10FF11D8DE58083CDB7DEB7E6E0E8
:101EB0000C94D91D80917E01882341F0809102010C
:101EC000909103010E94720210927E01909185010F
:101ED000992311F420E005C020E080918601891348
:101EE00021E02093820190938601222311F4109225
:101EF0007F018091C1028823C9F4809183018823E6
:101F0000A9F0222399F00E94930B9C018091020179
:101F1000909103012817390749F03093030120936A
:101F200002010E94410C81E080937E0181E00895CE
:101F30001F93162F8091C102882309F45CC00E9470
:101F40009B0120918B0130918C01AB01421B530B03
:101F50009A0160938B0170938C0180938D01909313
:101F60008E0140910201509103012233310598F412
:101F700084E6189F102D1124CA0164E670E00E94C7
:101F8000681D24E630E0629FA001639F500D729FA0
:101F9000500D11241BC02A3F310520F08091930180
:101FA0008823A1F08AE0189F102D1124CA016AE04D
:101FB00070E00E94681DCB01AB0173E0440F551F18
:101FC0007A95E1F7880F991F480F591F812F99279C
:101FD00087FD9095840F951F6AEF70E044EC59E0FF
:101FE0000E94F21890930301809302010E94410C19
:101FF00081E080937E011F910895FF920F931F93BC
:102000006F3F09F06EC00E945D020E94870E0E9421
:1020100052020E947C0E0E944A020E94710E0E948F
:102020003B020E945B0E0E9443020E94660E0E94C9
:1020300033020E94500E10927B0110927C0110928C
:102040004701109248011092490110924A010E94E2
:10205000740386EF9CE00E9410030E947802909324
:102060000301809302010E94410C10927E010E94A4
:102070000A0310920C0110920D0110920E011092A1
:102080000F0181E080930B0185B5887F846085BD59
:1020900084B58C7F84BD80916E00816080936E00DA
:1020A00085E09DE00E94F00384E00E94750688E0D0
:1020B0000E947506FF2412C00F2D10E00F511F4F14
:1020C000F8010491802F82958F7080610E947506BF
:1020D0000F70802F80610E947506F394F8E0FF1660
:1020E00059F71F910F91FF90089581E00895813075
:1020F00011F080E008952FB71092B9021092980164
:1021000080E090E0A0E0B0E08093BB029093BC023E
:10211000A093BD02B093BE022FBF81E0089581E07D
:10212000089508951F920F920FB60F9211248F9366
:10213000809197018F5F809397018F910F900FBED1
:102140000F901F901895CF93DF939C01EA016623AF
:1021500061F1009719F480E3888327C097FF05C0D9
:102160008DE28993309521953F4F40E0E42FF0E0D8
:10217000EB56FC4FC9016AE070E00E947C1D808331
:102180004F5FC9016AE070E00E947C1D9B016115F0
:10219000710561F708C04150E42FF0E0EB56FC4FA9
:1021A0008081805D89934423B1F7DF91CF910895B9
:1021B0001F938091C2022091C3023091C4024091CA
:1021C000C5026091C602E091C702A091C8021091B9
:1021D000C902B82FBF5F91E0B81708F090E0F92F5F
:1021E000F20F81E0F21708F080E0782F730F81E0A2
:1021F000731708F080E0582F540F81E0541708F04F
:1022000080E0382F360F81E0361708F080E0282F65
:102210002E0F81E02E1708F080E0982F9A0F81E0B2
:102220009A1708F080E0810FB093C202F093C302C6
:102230007093C4025093C5023093C6022093C70224
:102240009093C8028093C9021F9108951F93182F7D
:102250000E944004183F89F58091980120919701D0
:1022600090E0FC01EE0FFF1FE80FF91FE756FE4F4D
:1022700020831092970180919801209184003091E1
:10228000850090E0FC01EE0FFF1FE80FF91FE756F5
:10229000FE4F32832183109285001092840080913A
:1022A00098018F5F8093980180919801803629F47E
:1022B00081E08093B902109298011F910895A2EED7
:1022C000B1E0E5E6F1E10C94B11D38E020E0239F98
:1022D000600111244DED52E0C40ED51E21E0239F74
:1022E000C0011124840F951FCF51DE4F998388833D
:1022F000C15ED1408091B9028823D1F4C601029613
:102300006BEB71E044E050E00E94191A20919801B3
:10231000CF51DE4F48815981C15ED1404D5F5F4F43
:1023200080E690E0821B910965E00E941E067CC158
:102330002FB7DE01AF53BF4FE9E9F1E080E291E052
:1023400001900D920197E1F72FBF8E010F531F4FA0
:102350001E010894211C311C7101F801608170E09C
:1023600080E090E0CB01772766272181328140E031
:1023700050E0620F731F841F951F0E94521B9B0128
:10238000AC0169EF72E085E99FE40E94B91A0E94EE
:10239000261BF701619371937F010D5F1F4FCE01E3
:1023A0008F519E4F08171907C1F621010F2EF0E03B
:1023B000EF2EF0E0FF2EF0E00F2FF0E01F2FF02DBA
:1023C000F201619171912F0180E090E00E94521B17
:1023D0009B01AC01C801B7010E943E1A7B018C0130
:1023E000CE018F539F4F4816590651F7C801B701C8
:1023F00020E030E040EC52E40E94B91A3B014C016D
:102400000E94B019F82E64E670E00E94681D8B01EE
:10241000A6014F5F5F4FCB0163E00E94890A382F0E
:102420003F5FF601E30FF11D8EE2808384E690E0CA
:10243000AC01049FC001059F900D149F900D1124C5
:102440002F2D281B822F6AE00E945C1D963008F019
:10245000265F822F6AE00E945C1D3F5FA601430F4A
:10246000511D90E061E00E94A3100F2EF0E0AF2E0E
:10247000F0E0BF2EF0E0CF2EF0E0DF2EF02DF101E6
:10248000619171911F0180E090E00E94521BA401B4
:1024900093010E943D1A9B01AC010E945B1C9B01B1
:1024A000AC01C601B5010E943E1A5B016C01241407
:1024B000350429F720E030E040EC52E40E94B91ADC
:1024C0000E94C21C00D000D020E030E543EC57E46D
:1024D000EDB7FEB7218332834383548320E030E09D
:1024E00040E050E08401730159016A010E94FE1826
:1024F0000F900F900F900F900E94B019AA2797FD90
:10250000A095BA2FBC01CD010E94541B7B018C0108
:102510008091BA02882329F1C801B70120E030E098
:102520004AE754E40E94B91A0E94261B64367105DA
:10253000C0F4A090BB02B090BC02C090BD02D0908D
:10254000BE02C801B701A60195010E94571C1816CA
:1025500054F4E092BB02F092BC020093BD021093CF
:10256000BE0257016801C601B50120E030E04AE72C
:1025700054E40E94B91A0E94261B7B01CF51DE4F02
:1025800048815981C15ED1404F5F5F4F653671050B
:1025900040F0CA0164EB71E046E050E00E94191A75
:1025A00037C0CB0163E00E94890A8F5FCF51DE4FB5
:1025B000E881F981C15ED140E80FF11D9EE2908370
:1025C0008F5FCF51DE4F08811981C15ED140080F66
:1025D000111D88EE93E0E89EB001E99E700DF89E13
:1025E000700D112480E090E00E94521B9B01AC0111
:1025F000C601B5010E943D1A0E94261B9B01AC0139
:10260000C801B90140E30E944C0685E2F8018383CA
:102610008091BA02882341F08CE3CF51DE4FE881EC
:10262000F981C15ED1408083CE51DE4FE2E10C944E
:10263000CD1D662319F06230C9F40DC080E090E032
:10264000A0E0B0E08093BB029093BC02A093BD02D7
:10265000B093BE020BC090E08091BA02882309F4C7
:1026600091E09093BA02892F0E941F0281E00895A1
:1026700080E090E00E94F003EFE6F0E080818E7F42
:1026800080830895109298011092B90280E090E042
:10269000A0E0B0E08093BB029093BC02A093BD0287
:1026A000B093BE020E9465028093BA02E1E8F0E0B6
:1026B0008081887F81608083E0E8F0E080818C7F8A
:1026C0008083EFE6F0E080818160808386E291E1A3
:1026D0000E94F00308959093C0028093BF02089572
:1026E000089581E00895E091BF02F091C0028EEF5D
:1026F000808781E00895813029F4E091BF02F09154
:10270000C002608781E0089580E0089508951F93D6
:102710008091C2022091C3023091C4024091C5024F
:102720006091C602E091C702A091C8021091C9024F
:10273000B82FBF5F91E0B81708F090E0F92FF20FC3
:1027400081E0F21708F080E0782F730F81E07317B3
:1027500008F080E0582F540F81E0541708F080E013
:10276000382F360F81E0361708F080E0282F2E0F23
:1027700081E02E1708F080E0982F9A0F81E09A17D9
:1027800008F080E0810FB093C202F093C30270930F
:10279000C4025093C5023093C6022093C70290939F
:1027A000C8028093C9021F910895A0E0B0E0EBED4C
:1027B000F3E10C94BB1D38E020E0239F700111244D
:1027C0008DED92E0E80EF91E21E0239F60011124B7
:1027D000C80ED91EE091BF02F091C002C381D4811E
:1027E000CE016AE070E00E94221A0097F9F08C0195
:1027F0000C1B1D0BC701BE01A8010E94191AE09114
:10280000BF02F091C002E380F480C7010E942D1A3C
:102810000F5F1F4FE00EF11E01501040AC01415000
:102820005040401B510BC601B70106C0CE010E94AB
:102830002D1AAC01C701BE010E94191AE091BF0216
:10284000F091C00205811681C8010E942D1AAC01C9
:10285000C601841B950B0896B8010E94191ACDB7C2
:10286000DEB7E8E00C94D71D08950895662311F0B3
:1028700080E0089590E08091C102882309F491E0FE
:102880009093C10281E0089580E0089508951F9318
:102890008091C2022091C3023091C4024091C502CE
:1028A0006091C602E091C702A091C8021091C902CE
:1028B000B82FBF5F91E0B81708F090E0F92FF20F42
:1028C00081E0F21708F080E0782F730F81E0731732
:1028D00008F080E0582F540F81E0541708F080E092
:1028E000382F360F81E0361708F080E0282F2E0FA2
:1028F00081E02E1708F080E0982F9A0F81E09A1758
:1029000008F080E0810FB093C202F093C30270938D
:10291000C4025093C5023093C6022093C70290931D
:10292000C8028093C9021F910895CF93DF9358E0A6
:1029300020E0259F9001112441E0459FE0011124F2
:10294000C352DD4FC90183529D4F63EF71E048E0F0
:1029500050E00E94191ACE0101966091910140EE5B
:1029600051E026E00E94001A8091C102882321F0E4
:10297000CE0166E00E94D218DF91CF9108950E94A7
:10298000480E08958091C102882379F0862F9927F7
:1029900087FD909520919101820F911D60E042E0AA
:1029A0000E94E2180E94710E81E008950895089532
:1029B000662311F080E0089590E08091C1028823A1
:1029C00009F491E09093C10281E0089580E00895B8
:1029D00008951F938091C2022091C3023091C402D6
:1029E0004091C5026091C602E091C702A091C80261
:1029F0001091C902B82FBF5F91E0B81708F090E0BE
:102A0000F92FF20F81E0F21708F080E0782F730FB2
:102A100081E0731708F080E0582F540F81E05417BD
:102A200008F080E0382F360F81E0361708F080E09C
:102A3000282F2E0F81E02E1708F080E0982F9A0F94
:102A400081E09A1708F080E0810FB093C202F09302
:102A5000C3027093C4025093C5023093C602209300
:102A6000C7029093C8028093C9021F910895CF9323
:102A7000DF9358E020E0259F9001112441E0459F1D
:102A8000E0011124C352DD4FC90183529D4F65E11E
:102A900072E048E050E00E94191ACE010196609160
:102AA00092014CE052E00E940A1A8091C1028823F0
:102AB00021F0CE0163E00E94D218DF91CF910895FA
:102AC0000E94480E08958091C102882379F0862FD4
:102AD000992787FD909520919201820F911D60E0CA
:102AE00041E00E94E2180E94660E81E00895089578
:102AF0000895662311F080E0089590E08091C1026E
:102B0000882309F491E09093C10281E0089580E068
:102B1000089508951F938091C2022091C3023091BD
:102B2000C4024091C5026091C602E091C702A09123
:102B3000C8021091C902B82FBF5F91E0B81708F022
:102B400090E0F92FF20F81E0F21708F080E0782F83
:102B5000730F81E0731708F080E0582F540F81E065
:102B6000541708F080E0382F360F81E0361708F050
:102B700080E0282F2E0F81E02E1708F080E0982F9C
:102B80009A0F81E09A1708F080E0810FB093C2029B
:102B9000F093C3027093C4025093C5023093C602EF
:102BA0002093C7029093C8028093C9021F91089591
:102BB000CF93DF9358E020E0259F9001112441E05E
:102BC000459FE0011124C352DD4FC90183529D4F3F
:102BD00067E372E048E050E00E94191ACE010196C6
:102BE000609193014EE252E00E940A1A8091C10264
:102BF000882321F0CE0163E00E94D218DF91CF91AB
:102C000008950E94480E08958091C102882379F0AA
:102C1000862F992787FD909520919301820F911D12
:102C200060E041E00E94E2180E945B0E81E008959E
:102C300008950895662311F080E0089590E0809152
:102C4000C102882309F491E09093C10281E00895C4
:102C500080E0089508951F938091C2022091C302DD
:102C60003091C4024091C5026091C602E091C70252
:102C7000A091C8021091C902B82FBF5F91E0B817A8
:102C800008F090E0F92FF20F81E0F21708F080E0F1
:102C9000782F730F81E0731708F080E0582F540FDE
:102CA00081E0541708F080E0382F360F81E03617A6
:102CB00008F080E0282F2E0F81E02E1708F080E02A
:102CC000982F9A0F81E09A1708F080E0810FB09357
:102CD000C202F093C3027093C4025093C5023093B2
:102CE000C6022093C7029093C8028093C9021F9125
:102CF0000895CF93DF9358E020E0259F90011124A1
:102D000041E0459FE0011124C352DD4FC9018352C8
:102D10009D4F60E572E048E050E00E94191ACE0134
:102D2000019660918F014CE750E025E00E94001A67
:102D30008091C102882321F0CE0165E00E94D21863
:102D4000DF91CF9108950E94480E08958091C102AD
:102D5000882379F0862F992787FD909520918F0100
:102D6000820F911D60E043E10E94E2180E94870EED
:102D700081E0089508950895662311F080E0089594
:102D800090E08091C102882309F491E09093C10200
:102D900081E0089580E008950895382FDA016623D0
:102DA00009F1882319F480E38C93089520E0E22F41
:102DB000F0E0E456FC4F832F6AE00E945C1D908394
:102DC0002F5F832F0E945C1D382F882381F708C056
:102DD0002150E22FF0E0E456FC4F8081805D8D931E
:102DE0002223B1F708951F938091C2022091C3025C
:102DF0003091C4024091C5026091C602E091C702C1
:102E0000A091C8021091C902B82FBF5F91E0B81716
:102E100008F090E0F92FF20F81E0F21708F080E05F
:102E2000782F730F81E0731708F080E0582F540F4C
:102E300081E0541708F080E0382F360F81E0361714
:102E400008F080E0282F2E0F81E02E1708F080E098
:102E5000982F9A0F81E09A1708F080E0810FB093C5
:102E6000C202F093C3027093C4025093C502309320
:102E7000C6022093C7029093C8028093C9021F9193
:102E80000895CF93DF9358E020E0259F900111240F
:102E900041E0459FE0011124C352DD4FC901835237
:102EA0009D4F69E672E048E050E00E94191AAE01B9
:102EB0004F5F5F4F8091900163E00E94CD1680913B
:102EC000C102882321F0CE0165E00E94D218DF9173
:102ED000CF9108950E94480E08958091C1028823E1
:102EE00079F0862F992787FD909520919001820F88
:102EF000911D61E040E60E94E2180E947C0E81E094
:102F0000089508950895662311F080E0089590E0F3
:102F10008091C102882309F491E09093C10281E07D
:102F2000089580E0089508951F938091C202209132
:102F3000C3023091C4024091C5026091C602E09183
:102F4000C702A091C8021091C902B82FBF5F91E0DB
:102F5000B81708F090E0F92FF20F81E0F21708F0AF
:102F600080E0782F730F81E0731708F080E0582F0E
:102F7000540F81E0541708F080E0382F360F81E0BD
:102F8000361708F080E0282F2E0F81E02E1708F06A
:102F900080E0982F9A0F81E09A1708F080E0810F67
:102FA000B093C202F093C3027093C4025093C5025F
:102FB0003093C6022093C7029093C8028093C9023F
:102FC0001F9108951F93182F0E94AB05812F0E9417
:102FD000F5011F910895CF93DF9358E020E0259FDE
:102FE0009001112441E0459FE0011124C352DD4FBF
:102FF000C90183529D4F67E972E046E050E00E94AC
:10300000191A0E94B505682FCE01019642E852E0D8
:103010000E940A1A8091C102882321F0CE0163E048
:103020000E94D218DF91CF9108950E94480E089512
:103030001F93162F8091C102882389F00E94B50545
:10304000212F332727FD3095A901480F511DCA01B3
:1030500060E044E00E94E2180E94E21781E01F91C4
:10306000089508950895662311F080E0089590E092
:103070008091C102882309F491E09093C10281E01C
:10308000089580E0089508951F938091C2022091D1
:10309000C3023091C4024091C5026091C602E09122
:1030A000C702A091C8021091C902B82FBF5F91E07A
:1030B000B81708F090E0F92FF20F81E0F21708F04E
:1030C00080E0782F730F81E0731708F080E0582FAD
:1030D000540F81E0541708F080E0382F360F81E05C
:1030E000361708F080E0282F2E0F81E02E1708F009
:1030F00080E0982F9A0F81E09A1708F080E0810F06
:10310000B093C202F093C3027093C4025093C502FD
:103110003093C6022093C7029093C8028093C902DD
:103120001F910895CF93DF9358E020E0259F9001F1
:10313000112441E0459FE0011124C352DD4FC90134
:1031400083529D4F6EEA72E048E050E00E94191AE7
:10315000AE014F5F5F4F8091940163E00E94CD16F6
:103160008091C102882321F0CE0165E00E94D2182F
:10317000DF91CF9108950E94480E08958091C10279
:10318000882379F0862F992787FD909520919401C7
:10319000820F911D60E049E10E94E2180E94500EEA
:1031A00081E00895FC018BE5819390E008C03196A1
:1031B0008081803219F48DE5808308959F5F961792
:1031C000B0F308959C01862F90E02817390744F04A
:1031D000842F90E08217930714F4642F01C0622FAC
:1031E000862F0895FC019B01861797072CF09A0102
:1031F000E417F5070CF49F01C9010895A8E0B0E0B9
:10320000E4E0F9E10C94B11D69837A838B839C839C
:1032100039014A01ED82FE820F83188715012601CC
:10322000AD8CBE8CCF8CD8A0C801B7010E94B51A56
:10323000882309F441C069817A818B819C81A40132
:1032400093010E943D1A7B018C01C601B501A201C8
:1032500091010E943D1A9B01AC01C801B7010E9477
:103260005B1C7B018C016D817E818F819885A4011F
:1032700093010E943D1A9B01AC01C801B7010E9455
:10328000B91A9B01AC01C201B1010E943E1A7B0137
:103290008C01A20191010E94B51A88231CF46201DD
:1032A00051010AC0C801B701A60195010E94571C2F
:1032B000181614F057016801B501C6012896E2E11D
:1032C0000C94CD1D1F938091C2022091C3023091B6
:1032D000C4024091C5026091C602E091C702A0916C
:1032E000C8021091C902B82FBF5F91E0B81708F06B
:1032F00090E0F92FF20F81E0F21708F080E0782FCC
:10330000730F81E0731708F080E0582F540F81E0AD
:10331000541708F080E0382F360F81E0361708F098
:1033200080E0282F2E0F81E02E1708F080E0982FE4
:103330009A0F81E09A1708F080E0810FB093C202E3
:10334000F093C3027093C4025093C5023093C60237
:103350002093C7029093C8028093C9021F910895D9
:10336000AF92BF92CF92DF92EF92FF920F931F9393
:103370007B018C010E94211B882777FD8095982F67
:103380000E94541B9B01AC01C801B7010E943D1A69
:103390005B016C01E894D7F8C801B70120E030E088
:1033A00040E050E00E94B51A88235CF4C601B501E4
:1033B00020E030E040E05FE30E94B51A882384F407
:1033C0000AC0C601B50120E030E040E05FE30E94A2
:1033D000571C18162CF4C801B7010E94A21A04C089
:1033E000C801B7010E948F1B0E94211BCB011F91B6
:1033F0000F91FF90EF90DF90CF90BF90AF90089526
:10340000269FB0011124640F751F422F50E00E94C7
:10341000191A089570E0660F771F660F771F640F03
:10342000751F44E050E00E94191A0895F8940C9416
:10343000EE1DFB01DC0102C005900D924150504091
:10344000D8F70895FC010590061621F00020D9F761
:10345000C00108953197CF010895FC010590002027
:10346000E9F7809590958E0F9F1F0895DC0101C0AC
:103470006D9341505040E0F708955058BB27AA275C
:103480000ED0C4C1B5D130F0BAD120F031F49F3F95
:1034900011F41EF4AAC10EF4E095E7FB77C1E92F01
:1034A000C6D180F3BA17620773078407950718F02F
:1034B00071F49EF5F5C10EF4E0950B2EBA2FA02DF8
:1034C0000B01B90190010C01CA01A0011124FF27D1
:1034D000591B99F0593F50F4503E68F11A16F040CC
:1034E000A22F232F342F4427585FF3CF46953795CB
:1034F0002795A795F0405395C9F77EF41F16BA0B90
:10350000620B730B840BBAF09150A1F0FF0FBB1F3D
:10351000661F771F881FC2F70EC0BA0F621F731F86
:10352000841F48F4879577956795B795F7959E3FE3
:1035300008F0B3CF9395880F08F09927EE0F979571
:103540008795089596D180F09F3740F491110EF43D
:10355000A8C160E070E080E89FE3089526F01B16A4
:10356000611D711D811D18C132C1ECD008F481E0CC
:1035700008950CD04BC143D140F03AD130F021F442
:103580005F3F19F003C151118CC12FC150D198F385
:103590009923C9F35523B1F3951B550BBB27AA27D4
:1035A00062177307840738F09F5F5F4F220F331F46
:1035B000441FAA1FA9F333D00E2E3AF0E0E830D012
:1035C00091505040E695001CCAF729D0FE2F27D015
:1035D000660F771F881FBB1F261737074807AB07E3
:1035E000B0E809F0BB0B802DBF01FF2793585F4F58
:1035F0002AF09E3F510568F0C9C053C15F3FECF30C
:10360000983EDCF3869577956795B795F7959F5F1C
:10361000C9F7880F911D9695879597F90895E1E070
:10362000660F771F881FBB1F621773078407BA07CF
:1036300020F0621B730B840BBA0BEE1F88F7E0952A
:10364000089504D06894B1112CC10895F8D088F081
:103650009F5790F0B92F9927B751A0F0D1F0660F7E
:10366000771F881F991F1AF0BA95C9F712C0B13099
:1036700081F016D1B1E0089513C1672F782F882704
:10368000B85F39F0B93FCCF3869577956795B395D8
:10369000D9F73EF490958095709561957F4F8F4F47
:1036A0009F4F0895E89409C097FB3EF4909580954C
:1036B000709561957F4F8F4F9F4F9923A9F0F92FF8
:1036C00096E9BB279395F695879577956795B79576
:1036D000F111F8CFFAF4BB0F11F460FF1BC06F5F5C
:1036E0007F4F8F4F9F4F16C0882311F096E911C06E
:1036F000772321F09EE8872F762F05C0662371F08F
:1037000096E8862F70E060E02AF09A95660F771FA2
:10371000881FDAF7880F9695879597F90895A9D0AD
:1037200080F09F3740F491110EF0BBC060E070E074
:1037300080E89FEB089526F41B16611D711D811D05
:103740002BC045C0990F0008550FAA0BE0E8FEEF0B
:1037500016161706E807F907C0F012161306E40755
:10376000F50798F0621B730B840B950B39F40A264E
:1037700061F0232B242B252B21F408950A2609F42C
:10378000A140A6958FEF811D811D089597F99F6730
:1037900080E870E060E00895882371F4772321F0D9
:1037A0009850872B762F07C0662311F499270DC0F8
:1037B0009051862B70E060E02AF09A95660F771F93
:1037C000881FDAF7880F9695879597F908959F3F98
:1037D00031F0915020F4879577956795B795880FCC
:1037E000911D9695879597F908959FEF80EC089520
:1037F00000240A94161617061806090608950024D0
:103800000A9412161306140605060895092E039449
:10381000000C11F4882352F0BB0F40F4BF2B11F4BD
:1038200060FF04C06F5F7F4F8F4F9F4F089557FD1C
:103830009058440F551F59F05F3F71F04795880F1E
:1038400097FB991F61F09F3F79F0879508951216B5
:1038500013061406551FF2CF4695F1DF08C0161661
:1038600017061806991FF1CF869571056105089412
:103870000895E5DFA0F0BEE7B91788F4BB279F38AD
:1038800060F41616B11D672F782F8827985FF7CF41
:10389000869577956795B11D93959639C8F30895E8
:1038A000E894BB2766277727CB0197F908954ADF6D
:1038B00008F48FEF08950BD0A9CF9ADF28F09FDF8F
:1038C00018F0952309F062CF90CF1124EACFAFDF33
:1038D000A0F3959FD1F3950F50E0551F629FF00123
:1038E000729FBB27F00DB11D639FAA27F00DB11D7C
:1038F000AA1F649F6627B00DA11D661F829F222705
:10390000B00DA11D621F739FB00DA11D621F839F8B
:10391000A00D611D221F749F3327A00D611D231F61
:10392000849F600D211D822F762F6A2F11249F57AF
:1039300050408AF0E1F088234AF0EE0FFF1FBB1FD2
:10394000661F771F881F91505040A9F79E3F510571
:1039500070F01CCFA6CF5F3FECF3983EDCF386956A
:1039600077956795B795F795E7959F5FC1F7FE2B1C
:10397000880F911D9695879597F9089511F40EF487
:1039800034CF25CF5CDFD0F39923D9F3CEF39F5703
:10399000550B87FF5BD00024A0E640EA90018058D9
:1039A0005695979528F4805C660F771F881F20F046
:1039B00026173707480730F4621B730B840B202946
:1039C00031294A2BA69517940794202531254A279B
:1039D00058F7660F771F881F20F02617370748070C
:1039E00030F4620B730B840B200D311D411DA0952B
:1039F00081F7B901842F9158880F9695879508957E
:103A0000F999FECF92BD81BDF89A992780B50895A6
:103A1000A8E1B0E042E050E00C942F1D262FF99968
:103A2000FECF92BD81BDF89A019700B4021639F01D
:103A30001FBA20BD0FB6F894FA9AF99A0FBE0895EE
:103A40000196272F0E940F1D0C940E1D915050407F
:103A5000660F771F881FD2F70895DC01CB01FC01A8
:103A6000F999FECF06C0F2BDE1BDF89A319600B4D7
:103A70000D9241505040B8F70895629FD001739F56
:103A8000F001829FE00DF11D649FE00DF11D929FFA
:103A9000F00D839FF00D749FF00D659FF00D992739
:103AA000729FB00DE11DF91F639FB00DE11DF91F5D
:103AB000BD01CF0111240895991B79E004C0991F1D
:103AC000961708F0961B881F7A95C9F78095089578
:103AD000AA1BBB1B51E107C0AA1FBB1FA617B70734
:103AE00010F0A61BB70B881F991F5A95A9F7809550
:103AF0009095BC01CD01089597FB092E07260AD0A9
:103B000077FD04D0E5DF06D000201AF470956195AA
:103B10007F4F0895F6F7909581959F4F0895A1E204
:103B20001A2EAA1BBB1BFD010DC0AA1FBB1FEE1F37
:103B3000FF1FA217B307E407F50720F0A21BB30B82
:103B4000E40BF50B661F771F881F991F1A9469F7FE
:103B500060957095809590959B01AC01BD01CF015A
:103B600008952F923F924F925F926F927F928F9221
:103B70009F92AF92BF92CF92DF92EF92FF920F93FC
:103B80001F93CF93DF93CDB7DEB7CA1BDB0B0FB606
:103B9000F894DEBF0FBECDBF09942A8839884888C3
:103BA0005F846E847D848C849B84AA84B984C88459
:103BB000DF80EE80FD800C811B81AA81B981CE0F50
:103BC000D11D0FB6F894DEBF0FBECDBFED01089535
:103BD000EE0FFF1F0590F491E02D0994F894FFCFAC
:043BE000FFFFB0042F
:00000001FF
