:100000000C9429030C9451030C9451030C94510348
:100010000C9451030C9451030C9451030C94510310
:100020000C9451030C94B0120C9451030C94A9112C
:100030000C9451030C9451030C9451030C945103F0
:100040000C9451030C9451030C9451030C945103E0
:100050000C9451030C9451030C9451030C945103D0
:100060000C9461030C9451039F0995096609930947
:100070007409680972099C0970096C096E0976098E
:100080006A0978098009D50BF60B180C500C690C1D
:10009000A30CD30B3C0D250D250D230D230D080DB1
:1000A000080D0E0D350D0C0D0A0D0A0D100D100D5D
:1000B000120D120D7E0D7E0D7C0D7C0D660D660DF4
:1000C0006C0D6E0D6A0D680D680D710D710D730D5F
:1000D000730DF913E213F213DD13EA13D913D613D8
:1000E0000814D613D913EA13DD13F213E213F9132C
:1000F000010203040608090C10121820243040489D
:10010000608090C0312F363454312F333254312F28
:10011000333220312F313654312F313620312F38C0
:100120005420312F31362E312F382020312F3454A6
:1001300020312F382E20312F342020312F325420DF
:10014000312F342E20312F322020315420202031E5
:100150002F322E2031202020203254202020312EFA
:1001600020202032202020200002030302020E1E45
:100170000C000000000000001F0000000000001F35
:100180001F00000000001F1F1F000000001F1F1F96
:100190001F0000001F1F1F1F1F00001F1F1F1F1F0A
:1001A0001F001F1F1F1F1F1F1F2D303132333435FB
:1001B0003637383900204343232044442320452048
:1001C00046462320474723204141232042002073F5
:1001D0006176656400007604000000000000011EE6
:1001E00003000000000000026403000000000000A3
:1001F0000304030000000000000474050000000078
:10020000000005490500000000000006F903000099
:1002100000000000075E0500000000000008570411
:100220000000000000000935040000000000000A82
:1002300013040000000000000BF4050000000000A3
:10024000000CDB050000000000000DBE05000000F2
:100250000000000E17050000000000000FF304006E
:10026000000000000010C80400000000000011C8D9
:100270000400000000000012C8040000000000009C
:1002800013B0040000000000001417050000000077
:10029000000015F30400000000000016C804000070
:1002A0000000000017C80400000000000018C80487
:1002B00000000000000019B0040000000000001A57
:1002C00098040000000000001BA8030000000000CC
:1002D000001CC7030000000000001D8A050000008C
:1002E0000000001DE90300000000000076302E39F8
:1002F00035004D4944492041727000496E69746966
:100300006E672100C11DC61D961EC71DD51DEC1DA3
:10031000631EEE1D2D2D004C656E67746800AA1ECD
:10032000AF1E501FB01EBE1ED51E261FD71E7570D5
:1003300020202020646F776E20206175746F20204C
:100340007570646F776E7570646E32206F7264655D
:10035000722063686F72642072616E646F6D004D0D
:100360006F646500641F691F09206A1F781F8E1F54
:10037000DF1F901F2D34782D34202D33782D33201E
:100380002D32782D32202D31203020202B31202B82
:1003900032202B32782B33202B33782B34202B3404
:1003A000780052616E6765001D202220C220232044
:1003B0003120482099204A20696E74206578742085
:1003C00000436C6F636B00D620DB207B21DC20EACE
:1003D000200121522103216F6666206F6E202000CC
:1003E000436C6F636B4F7574008F21942195219737
:1003F000219F21A821F921AA2158225D2208235EEC
:10040000226C228322D42285226175746F00476199
:100410007465001C232123C22322233023482399FF
:10042000234A236F6666206F6E2020004B65795348
:100430007461727400D623DB237B24DC23EA23015E
:1004400024522403246F6666206F6E2020004B65C3
:10045000792073796E63008F249424332595241DAD
:1004600025A324F424A5246F6666206F6E20200047
:100470004C6174636800D2258E262A2762263226B4
:100480002227A1264725636C6B326C6F6164006381
:100490006C6B327361766500752780277A28852713
:1004A000392893274F2895274368616E6E656C0045
:1004B0008E28AF289E29B428C228E6286329E82878
:1004C0004D6F642043432300BF29222A692B232A2E
:1004D000312A832A002B852A4D6F64204374726C65
:1004E000004D6F642041746368004D6F6420566551
:1004F0006C6F00CD2BE82BB62CE92BF72B162C6755
:100500002C182C6F637461766500617270004D6FFA
:1005100064204C656E6700D72CF22CAD2DF32C01B6
:100520002D202D712D222D7361772020207472696A
:1005300020202073717561726572616E646F6D0049
:100540004D6F64205761766500CE2DD32D752ED466
:100550002D5D2EE22D332EE42D53746570008B2E0D
:10056000942EB72F952E942FA32E3A2FA52E537786
:10057000696E6700D32FDE2FDB30DF2FA330ED2F26
:10058000B230EF2F54656D706F00F130F830F930F4
:1005900001310A311331643115314C696E65320015
:1005A0004C696E65310076616C3A0053777449642A
:1005B0003A0076616C3A00456E6349643A006832ED
:1005C00073323733783286329D3204339F326B6513
:1005D000790056656C6F63697479004B3356331933
:1005E000345B3369337F33F33381335A6F6E65483D
:1005F000696768002D343834FC343D344B34623440
:10060000D63464345A6F6E65206C6F7700008A03AD
:10061000A105420F430F5B10A010B110BC1055187C
:100620005F1A151ED81E911F4B200421AB21862274
:100630004B230424A6245125CB271529B22A192C93
:10064000232DE52DEC2EF02F16310432B632A533D2
:10065000883411241FBECFEFD8E0DEBFCDBF11E03C
:10066000A0E0B1E0E0E9FCE602C005900D92AC30FC
:10067000B107D9F715E0ACE0B1E001C01D92A63595
:10068000B107E1F716E0C2E5D6E004C02297FE010B
:100690000E944236CE30D107C9F70E949B110C94BC
:1006A00010350C9400008FB7F89420910C01309114
:1006B0000D0140910E0150910F018FBFB901CA0188
:1006C00008951F920F920FB60F9211242F933F930C
:1006D0004F935F936F937F938F939F93AF93BF934A
:1006E000EF93FF93E0911101F0911201309709F01F
:1006F0000995FF91EF91BF91AF919F918F917F915C
:100700006F915F914F913F912F910F900FBE0F907E
:100710001F90189508950F931F93CF93DF93162F73
:10072000EA01A0E0B0E0BC01CD012AE030E040E009
:1007300050E00E946D359B01AC01210F311D411D20
:10074000511D64E975E387E790E00E94CC35CA014A
:10075000B9016150704080409040C45FD140E1F0E9
:100760008B019E01442737FD4095542F0E946D3523
:1007700024EF31E040E050E00E94EE35C801821BDA
:10078000930B90931C0180931B01200F311F30931A
:100790001E0120931D0108C070931C0160931B0172
:1007A00070931E0160931D01DF91CF911F910F91F6
:1007B00008950F931F938C01E0910001F0910101C6
:1007C0009F0121703070309521953F4F2070347B10
:1007D000F695E7952E273F273093010120930001DE
:1007E000601B710B6F5F7F4F882777FD8095982F77
:1007F00040E050E00E946D3520E030E041E050E004
:100800000E94EE35020F131FC8011F910F9108952A
:1008100080912C01813011F4809332010895089564
:1008200080910301E0EFF0E0E80FF11DE491E09327
:100830003301E093190110921A010895CF93DF93C9
:10084000EC01CB57DF4F4881C558D04090E023C022
:10085000242F30E0F901EE0FFF1FEE0FFF1FEC0F0A
:10086000FD1F8181861761F4F901EE0FFF1FEE0F66
:10087000FF1F3296EC0FFD1F8181882399F00EC077
:100880002F5F3F4F220F331F220F331F2C0F3D1FAF
:10089000942FF90140814423D9F602C0815081830D
:1008A00080E05DC0D90111969923B9F0E92FF0E0FD
:1008B0003196EE0FFF1FEE0FFF1FEC0FFD1FAA0F6B
:1008C000BB1FAA0FBB1FAC0FBD1F8C91808358812B
:1008D000FE01EA57FF4F90E024C0AA0FBB1FAA0FEA
:1008E000BB1FAC0FBD1F8C91CB57DF4F8883C55802
:1008F000D040EDCF8191841799F4692F08C0FE0193
:10090000E40FF51FE957FF4F808182936F5F462FF9
:1009100050E0888190E001974817590784F303C09D
:100920009F5F951738F3F9013196EE0FFF1FEE0F19
:10093000FF1FEC0FFD1F1082220F331F220F331FEA
:10094000FE01E20FF31F8FEF8183F9013296EC0F66
:10095000FD1F1082118288818150888381E0DF91A0
:10096000CF910895FF920F931F93CF93DF93EC01E4
:10097000062FF42ECB57DF4FE881C558D04017C063
:10098000AE2FB0E0FD01EE0FFF1FEE0FFF1FEC0FCB
:10099000FD1F8181801719F413811F5F0BC0119611
:1009A000AA0FBB1FAA0FBB1FAC0FBD1FEC91EE23FC
:1009B00039F710E0CE01602F0E941E04888180323A
:1009C00069F4FE0191E08085882309F465819F5FC9
:1009D00034969132C1F7CE010E941E04DE01E1E09F
:1009E00015968C9115978F3F11F46E2F04C0EF5F11
:1009F0001496E132A9F7462F50E0DA011196AA0FBA
:100A0000BB1FAA0FBB1FAC0FBD1F9E012B573F4F33
:100A1000F90180818C93440F551F440F551FDE014F
:100A2000A40FB51F11960C93FA013296EC0FFD1F1F
:100A3000F0821183F90160839881AE014A575F4FBC
:100A400020E030E022C0D901FA018191AF01E82F06
:100A5000F0E0EE0FFF1FEE0FFF1FEC0FFD1F818177
:100A60002F5F3F4F081788F408C0FE01E90FF11D02
:100A7000EB57FF4F8191808391507917B0F3AC0F02
:100A8000BD1FAA57BF4F6C930BC0722F2917D8F206
:100A9000662331F0FE01E90FF11DEA57FF4F608335
:100AA00088818F5F8883CDB7DEB7E5E00C9432365E
:100AB000282F8091A7029091A6028150891B8F77E1
:100AC000C1F38091A602E82FF0E0E854FC4F2083A8
:100AD0008F5F8F778093A60208950F931F938C01E9
:100AE00080960E94A013C80188960E94A01380E3FC
:100AF000F80180831F910F910895CF93DF93DC015C
:100B00001C920596FC0180E8EF0119928A95E9F79D
:100B1000CD0189579F4FFC0180E2EF0119928A9520
:100B2000E9F7AB57BF4F1C92A558B040FD0190E0CC
:100B30008FEF81839F5F34969132D1F7DF91CF9110
:100B400008951F9380E491E00E94A01388E491E04F
:100B50000E94A01380E591E00E947D0587EF91E05F
:100B60000E947D058091B0032091B1033091B203C2
:100B70004091B3036091B403E091B503A091B60333
:100B80001091B703B82FBF5F91E0B81708F090E05D
:100B9000F92FF20F81E0F21708F080E0782F730F41
:100BA00081E0731708F080E0582F540F81E054174C
:100BB00008F080E0382F360F81E0361708F080E02B
:100BC000282F2E0F81E02E1708F080E0982F9A0F23
:100BD00081E09A1708F080E0810FB093B003F093A2
:100BE000B1037093B2035093B3033093B4032093D3
:100BF000B5039093B6038093B7031F9108951F9395
:100C000087EF91E00E947D0510E02FC04091D50153
:100C1000982F9150911B80E008C0AA0FBB1FAA0F0C
:100C2000BB1FAC5ABE4F4C918F5FA42FB0E0891709
:100C3000A0F3FD01EE0FFF1FEE0FFF1FE05BFE4F65
:100C4000618180913001681778F0809109018617E1
:100C500058F0AA0FBB1FAA0FBB1FAE5ABE4F87EF9B
:100C600091E04C910E94B2041F5F809150011817CF
:100C700068F21F9108950E94EB0F80912201882352
:100C8000D9F41092130110921401109215011092D0
:100C900016018FEF9FEF9093180180931701109228
:100CA000210181E08093220180911B0190911C0120
:100CB0009093200180931F0108951F93182F14C053
:100CC0008091A6029091A702891B8F77C9F390911A
:100CD000A702E92FF0E0E854FC4F80819F5F9F77E7
:100CE0009093A7020E94B2108091A7029091A60251
:100CF0008150891B8F77811718F31F9108950F93E7
:100D00001F93CF93DF93182FEB01042F842F8F5F56
:100D10000E945D06812F0E94580504C089910E949F
:100D2000580501500023D1F7DF91CF911F910F910A
:100D30000895582F282F30E02F70307080912801AF
:100D400090E02817390719F0852F0E947F06089533
:100D5000FF920F931F93182F062FF42E83E00E940B
:100D60005D06812F0E945805802F0E9458058F2D07
:100D70000E9458051F910F91FF9008951F93CF93E4
:100D8000DF9310E02AC020917C02982F9150911B94
:100D900080E008C0EE0FFF1FEE0FFF1FE550FE4F73
:100DA00020818F5FE22FF0E08917A0F3EF01CC0FD5
:100DB000DD1FCC0FDD1FC950DE4F898160E04091FF
:100DC00028010E94C10F882339F080912801806892
:100DD000698140E00E94A8061F5F8091F701181703
:100DE00090F287EF91E00E947D05DF91CF911F91F6
:100DF0000895982F80910601981751F0909306015D
:100E0000992331F480913201882311F00E94BE06AB
:100E1000089580912801806B68E740E00E94A80651
:100E200080912801806B6BE740E00E94A80608953E
:100E3000982F80912801981761F0909328010E94C3
:100E4000090780E591E00E947D0587EF91E00E940F
:100E50007D050895CF93DF93E091490326C0CE2FFF
:100E6000D0E0FE01EE0FFF1FEE0FFF1FEC0FFD1F86
:100E7000E755FD4F83818823D1F460816E3F59F09F
:100E80004181442319F08281806903C08281806896
:100E900040E00E94A806FE01EE0FFF1FEE0FFF1FAD
:100EA000EC0FFD1FE755FD4FE481EE23C1F60E94D4
:100EB0008A0FDF91CF91089502C00E942A07809186
:100EC000A8028823D1F70895982FAB0180912801BB
:100ED000981751F46F77440F452F441F550B5195C8
:100EE000892F806E0E94A8060895FF920F931F938A
:100EF000F82E062F142FE091A002F091A102309756
:100F000079F00995882361F01CC010933801109383
:100F10003A01892F806B602F412F0E94A80611C0D3
:100F200090912801F91669F480914501801721F408
:100F3000109337011093390180914D01801749F7C3
:100F4000E4CF1F910F91FF900895982F8091280171
:100F5000981721F4892F806A0E94A8060895EF92BD
:100F6000FF920F931F93F82E062FE42EE0919E021E
:100F7000F0919F02309791F140E00995882371F13B
:100F800031C080913001081710F410E006C010E065
:100F900080910901801708F011E080E591E0602F51
:100FA0000E941E04112369F080910601882321F01C
:100FB00081E08093340105C087EF91E0602F0E94AB
:100FC0001E0480913201882311F0112359F48F2DD2
:100FD0008068602F4E2D0E94A80604C080912801D1
:100FE000F81679F21F910F91FF90EF9008950F93EB
:100FF0001F93182F062F82E00E945D06812F0E940A
:101000005805802F0E9458051F910F910895982F21
:1010100080912801981721F4892F806C0E94F7078E
:101020000895982F80912801981741F46093350115
:1010300060933601892F806D0E94F7070895809193
:1010400032018823B9F00E945C0780912C0188232B
:1010500039F480912D01882319F08CEF0E94B21091
:1010600010923201E091A202F091A302309711F0A8
:1010700080E00995089580912C01813011F40E943F
:101080001F0808950E94B2100895EF92FF920F93E7
:101090001F93CF93DF93E62EC82FD0E0FE01A3E08D
:1010A000EE0FFF1FAA95E1F7E05CFE4F909145011E
:1010B00085819817B1F410914401112331F460E057
:1010C000062F112707FD10950EC080E491E00E94C5
:1010D0000F148102C00111246FE770E00E94B9353E
:1010E000EFCF00E010E0F3E0CC0FDD1FFA95E1F761
:1010F000C05CDE4F90914D018D819817C1F4F09046
:101100004C01FF2011F460E00CC088E491E00E94E3
:101110000F142F2D8202C00111246FE770E00E948E
:10112000B935862F992787FD9095080F191F01154E
:10113000110569F0B8016E0D711D6038710514F06C
:101140006FE770E077FF02C060E070E0E62E8E2D62
:10115000CDB7DEB7E6E00C9431360F931F93CF93F3
:10116000DF93082F10914301112311F460E00BC0AD
:1011700080E491E00E940F148102C00111246FE706
:1011800070E00E94B935C62FDD27C7FDD0951091BC
:101190004B01112311F460E00BC088E491E00E9440
:1011A0000F148102C00111246FE770E00E94B9356D
:1011B000772767FD70956C0F7D1F6115710561F0D4
:1011C000600F711D6038710514F06FE770E077FFF4
:1011D00002C060E070E0062F802FDF91CF911F9159
:1011E0000F9108950F931F93CF93DF93082F1091C2
:1011F0004201112311F460E00BC080E491E00E94F1
:101200000F148102C00111246FE770E00E94B9350C
:10121000C62FDD27C7FDD09510914A01112311F487
:1012200060E00BC088E491E00E940F148102C001CD
:1012300011246FE770E00E94B935772767FD70953C
:101240006C0F7D1F6115710571F0600F711D161611
:1012500017061CF061E070E005C06038710514F0FD
:101260006FE770E0062F802FDF91CF911F910F91D4
:101270000895FF920F931F93F82E00E411E0C80128
:101280006F2D0E94AF13C80108966F2D0E94AF13F7
:101290001F910F91FF90089520913F01822F8C5F45
:1012A000893040F010923F0110923E0181E00E948F
:1012B0003909089580910801E82FF0E0EF30F10539
:1012C00008F057C0EC5CFF4F0C9440369DEF38C0DF
:1012D0009EEF2CC093E015C092E00BC092E011C0CD
:1012E00091E007C09FEF22C09EEF2AC093E001C0AB
:1012F00094E0822F8F5F80933F019817F4F51CC014
:1013000094E080913E01882311F481E001C08FEFC9
:10131000820F80933F0187FF02C081E01EC09817B3
:1013200064F5915020C09DEF01C09CEF822F815049
:1013300080933F0189170CF510923F011EC09CEF6E
:1013400080913E01882311F48FEF01C081E0820F6C
:1013500080933F01181624F48FEF80933F010BC058
:1013600089175CF49F5F90933F0181E080933E0179
:1013700004C010923F0110923E0180913F018823EA
:1013800019F481E00E94390908950F931F9300E436
:1013900011E0C8010E947B14C80108960E947B14CA
:1013A0001F910F9108950F931F9300E411E0C8015E
:1013B0000E94AB13C80108960E94AB131F910F91B6
:1013C00008958EEF80933C018FEF80933D01109242
:1013D0003E0188EF80933F0110923B010E94D309A8
:1013E000089580913301815080933101109234012E
:1013F00081E0809332010E94E109089580913201D9
:10140000882309F044C080915001882321F487EF9C
:1014100091E00E947D0580912C01882311F51092A6
:1014200013011092140110921501109216018FEF02
:101430009FEF90931801809317011092210181E092
:101440008093220180911B0190911C0190932001B7
:1014500080931F0180912D01882319F08AEF0E944B
:10146000B210E0910301F0E0E051FF4FE491E0930E
:101470003301E093190110921A010E94F109E091E1
:10148000A202F091A302309711F081E0099508952E
:1014900080913201882319F40E94FE0908958091F9
:1014A0000601882339F08091F701882319F00E9402
:1014B000BE0608950E941F08089580912C01813076
:1014C00011F40E94FE090895EF92FF920F931F936B
:1014D000E82E062FF42EE0919E02F0919F023097A5
:1014E00009F4A7C00995882309F4A3C0A7C0809177
:1014F0003001081710F410E006C010E080910901D7
:10150000801708F011E080910701882341F0112332
:1015100031F080913201882311F40E94FE098091FC
:101520000601882351F0112341F080913401882372
:1015300021F00E94FF051092340180E591E0602FB8
:101540004F2D0E94B204112331F087EF91E0602FFC
:101550004F2D0E94B20480913201882311F0112393
:1015600039F48E2D8069602F4F2D0E94A80666C029
:1015700080912A01882309F461C080915001813053
:1015800009F05CC00E94F10980912C01882309F0C8
:1015900055C020911F01309120012F5F3F4F40E047
:1015A00050E08091130190911401A0911501B09128
:1015B0001601820F931FA41FB51F809313019093F0
:1015C0001401A0931501B093160180911701909119
:1015D0001801019690931801809317012091190129
:1015E00030911A018217930760F01092180110923F
:1015F000170190E080912101882309F491E09093F4
:101600002101E0912101F0E0EE0FFF1FE55EFE4FAA
:10161000808191819093200180931F019093890094
:10162000809388009695879590938B0080938A008D
:1016300005C080912801E81609F459CF1F910F9138
:10164000FF90EF9008954091040150910501809121
:10165000020190E060E00E948B030895A0E0B0E0FA
:10166000E4E3FBE00C940A36882E362E60E04091CD
:1016700028010E94C10F882339F0809128018068D9
:10168000682D40E00E94A806809135010E94AD08B7
:10169000182F80913601181741F080912801806D34
:1016A000612F0E94F7071093360189E3A82E81E08D
:1016B000B82E05E4C02E01E0D02E44244A94542CC8
:1016C00000E010E0F801E95CFE4F802F60810E948D
:1016D0004508982EF50180819816D1F0F6016081B9
:1016E000692C7724F62EEE24C3018E299F294816F3
:1016F000590671F080912801806B492D0E94A8063F
:10170000F5019082F601D081C0E023014C2A5D2AC8
:101710000F5F1F4F0894A11CB11C88E090E0C80E19
:10172000D91E0230110571F6109128011069832D20
:101730000E94F208482F812F682D0E94A8068091F0
:101740002901882329F081500E946910482F08C080
:10175000809103010E946910482F469509F441E0E9
:101760004150882D60E0209128010E943B06CDB7B2
:10177000DEB7E1E10C942636A1E0B0E0E2ECFBE05C
:101780000C9414364091F701442309F402C280916D
:101790002E01E82FF0E0E830F10508F0FAC1ED5B2A
:1017A000FF4F0C944036DD2461C180913C018417C9
:1017B00038F010923C0180E00E9439090E944C09E7
:1017C00080913C01E82FF0E0E358FD4FE081F0E02C
:1017D000EE0FFF1FEE0FFF1FDF01A950BE4F119646
:1017E0003C91E750FE4FE0818F5FAAC080913C01A1
:1017F000841740F0415040933C0180E00E94390939
:101800000E944C0980913C01E82FF0E0E358FD4F25
:10181000E081F0E0EE0FFF1FEE0FFF1FDF01A95088
:10182000BE4F11963C91E750FE4FE081815088C039
:10183000423008F4BACF20917C02342F3150922FDD
:1018400080E008C0EE0FFF1FEE0FFF1FE550FE4FB8
:1018500090818F5FE92FF0E08317A0F3EE0FFF1F59
:10186000EE0FFF1FE950FE4F3181942F925080E020
:1018700008C0EE0FFF1FEE0FFF1FE550FE4F208147
:101880008F5FE22FF0E08917A0F3EE0FFF1FEE0F3E
:10189000FF1FE950FE4F8181381708F486CFA6CF8D
:1018A00020913C01241780F190E080913D01882334
:1018B00009F491E090933D01423008F467C12E3F56
:1018C00009F464C1992311F481E015C0842F82507A
:1018D00012C080913C018417B8F090E080913D01E6
:1018E000882309F491E090933D01992311F480E05D
:1018F00002C0842F815080933C01992329F480E019
:101900000E9439090E944C0990913C01E92FF0E0B6
:10191000E358FD4FE081F0E0EE0FFF1FEE0FFF1FD9
:10192000DF01A950BE4F11963C91E750FE4FE08178
:1019300080913D01882311F481E001C08FEF890F70
:1019400080933C01F9C080913C01841738F01092DB
:101950003C0180E00E9439090E944C0920913C0121
:10196000E0917C028091F7018150821B90E008C0D9
:10197000AA0FBB1FAA0FBB1FA550BE4FEC919F5FC4
:10198000AE2FB0E09817A0F3AA0FBB1FAA0FBB1F82
:10199000FD01E950FE4F3181A750BE4FEC912F5F02
:1019A00020933C01C9C0E0917C02982F91509D1971
:1019B00080E008C0AA0FBB1FAA0FBB1FA550BE4FD7
:1019C000EC918F5FAE2FB0E08917A0F3FD01EE0F11
:1019D000FF1FEE0FFF1FE950FE4FE180F0902B013B
:1019E000FF2039F4AA0FBB1FAA0FBB1FA750BE4F81
:1019F000FC908E2D6F2D0E942E0B80910801E82FF8
:101A0000F0E0EF30F10588F5E55BFF4F0C944036D0
:101A100092E01CC092E007C091E005C091E016C0C2
:101A200093E001C094E01E2D145F00E01F37E8F43E
:101A3000812F6F2D99830E942E0B0F5F145F998168
:101A40000917A0F312C093E001C094E000E01CE08D
:101A50001E1558F48E2D811B6F2D99830E942E0B1D
:101A60000F5F145F9981091798F3D3948091F70160
:101A7000D81608F498CF8DC0209100013091010153
:101A8000C90181709070909581959F4F8070947B73
:101A90003695279582279327909301018093000123
:101AA0009F71342F3195292F930F892F840F84171D
:101AB000D0F720933C0180910801E82FF0E0EF304F
:101AC000F10538F5E65AFF4F0C94403662E017C036
:101AD00062E00AC061E008C061E011C010923F01FD
:101AE00018C063E001C064E0772767FD709580E06F
:101AF00090E00E94D9030BC063E001C064E0772747
:101B000067FD709580E090E00E94D90381958093F5
:101B10003F01E0913C01F0E0E358FD4FE081F0E04F
:101B2000EE0FFF1FEE0FFF1FDF01A950BE4F1196F2
:101B30003C91E750FE4FE08190913F01992381F065
:101B40008CE09802C0011124830F911D01C00C97F5
:101B500080389105E4F701C00C9697FDFDCF382F32
:101B600060912B01662309F46E2F832F0E942E0BA8
:101B700090912F01992369F080913B018F5F8093B1
:101B80003B01891730F00E94E10903C010923C012B
:101B9000B4CE2196E7E00C9430360E942A0780915B
:101BA00032018823B1F0E091A402F091A5023097B0
:101BB00009F00995809131018F5F809331019091F7
:101BC0003301891730F0109231010E94BC0B0E9442
:101BD000C509089580912C01882371F48091320108
:101BE000882351F080912D01882319F088EF0E94FD
:101BF000B2100E94CD0D089580913201882331F4F6
:101C00008091A802882311F00E942A0708958091EC
:101C10002C01813031F480913201882311F00E942F
:101C2000CD0D0895A0E3B0E0E8E1FEE00C940E369F
:101C3000C82E80932301CE0101960E946D058091EC
:101C4000240190912501A0912601B09127018A835A
:101C50009B83AC83BD83709028018090020190909B
:101C60000301A09029014091040150910501B09019
:101C70000601D0902A01E0900701F0902B0100911D
:101C80002C0110912D0170912E016091080130916D
:101C90002F012091300190910901DE019196E0E43D
:101CA000F1E088E001900D928150E1F7DE01999614
:101CB000E8E4F1E088E001900D928150E1F79E8B1D
:101CC0002D8B3C8B6B8B7A8B198B088BFF86EE866A
:101CD000DD86BC865B874A87A98698868F827E824E
:101CE000CE0101966C2D0E949F14E096EDE00C94BD
:101CF0002A36A0E3B0E0EFE7FEE00C941636F82EAB
:101D0000809323018E010F5F1F4FC8010E946D0554
:101D1000C8016F2D0E9495158A819B81AC81BD8180
:101D20008093240190932501A0932601B09327016D
:101D30008E81809328018F81809302010E94230B62
:101D4000E885E0930301F0E0E051FF4FE491E09378
:101D50003301E093190110921A01898580932901BA
:101D60008A859B8590930501809304010E94230B33
:101D70008C85809306018D8580932A018E858093C2
:101D800007018F8580932B01888980932C01898995
:101D900080932D018A8980932E018B89809308017D
:101DA0008C8980932F018D89809330018E89809357
:101DB0000901A0E4B1E0FE01B19688E001900D9226
:101DC0008150E1F7A8E4B1E0FE01B99688E0019006
:101DD0000D928150E1F7E096E5E00C943236A0E3F5
:101DE000B0E0E5EFFEE00C9417368E010F5F1F4F59
:101DF000C8010E946D05C8010E94F01400E0CE01E8
:101E00000196602F0E949F140F5F0436C1F7E09681
:101E1000E4E00C9433360E94810F0E94EF0E80E0C4
:101E20000E94790E08950E94230B109213011092C4
:101E3000140110921501109216018FEF9FEF9093ED
:101E40001801809317011092210181E080932201F3
:101E500080911B0190911C019093200180931F01A0
:101E600080910301E0EFF0E0E80FF11DE491E093D1
:101E70003301E093190110921A010E944A0F0E9447
:101E8000790E089508950895682F84E090E00E94E7
:101E90004535089584E090E00E943735843608F097
:101EA00080E00895CF93DF9380E090E00E943F357B
:101EB000805F9E4D19F0C0E0D0E008C082E090E065
:101EC0000E943F35EC0185309105C1F080E090E043
:101ED00060EF7EED0E945735C330D10518F4C0E0A5
:101EE000D0E001C0229782E090E065E070E00E94BF
:101EF0005735239718F480E00E94440FDF91CF916B
:101F0000089580E090E06FE071E20E9457350E94F2
:101F1000520F08953091A8022091490304C08FEF19
:101F200080832481392F822F90E0FC01EE0FFF1F68
:101F3000EE0FFF1FE80FF91FE755FD4F8381882340
:101F400029F03093A8022093490318C0932F915091
:101F5000222329F73093A802109249030895822F73
:101F600090E0FC01EE0FFF1FEE0FFF1FE80FF91FBF
:101F7000E755FD4F8381815083832481222379F7A4
:101F80000895582FE091490390E021C02E2F30E0B2
:101F9000F901EE0FFF1FEE0FFF1FE20FF31FE755D2
:101FA000FD4F8081851749F48181861731F4828144
:101FB000841719F48EEF80839F5FF901EE0FFF1FE6
:101FC000EE0FFF1FE20FF31FE755FD4FE481EE23F5
:101FD000E9F6892F0895982FEEEAF2E071E080810A
:101FE0008F3F29F07F5F35967032C9F70895809151
:101FF000A8028F5F8093A802A72FB0E0FD01EE0F2B
:10200000FF1FEE0FFF1FEA0FFB1FE755FD4F9083E9
:1020100061832283438350914903552371F0852FB7
:1020200090E0FC01EE0FFF1FEE0FFF1FE80FF91FFE
:10203000E755FD4F8381481768F4FD01EE0FFF1F40
:10204000EE0FFF1FEA0FFB1FE755FD4F5483709300
:1020500049030895252F30E0F901EE0FFF1FEE0F21
:10206000FF1FE20FF31FE755FD4F5481552371F019
:10207000852F90E0FC01EE0FFF1FEE0FFF1FE80F12
:10208000F91FE755FD4F8381481720F7FD01EE0F3B
:10209000FF1FEE0FFF1FEA0FFB1FE755FD4F548395
:1020A000F901EE0FFF1FEE0FFF1FE20FF31FE755C1
:1020B000FD4F74830895089589EA92E06FEF70E010
:1020C00040EA50E00E943035109249031092A80275
:1020D0000895E0EFF0E0E80FF11DE4918E2F0895F0
:1020E000259A2D9810924B03239A2B9810924A030D
:1020F000089580914B03882351F080914B038150C8
:1021000080934B0380914B03882309F42D98809191
:102110004A03882351F080914A03815080934A03F7
:1021200080914A03882309F42B9808952D9A82E020
:1021300080934B0308952B9A82E080934A0308957D
:102140000895E0ECF0E080818D7F80831092C500DF
:1021500087E28093C400E1ECF0E0808188608083B6
:1021600008950895982F8091C00085FFFCCF90932B
:10217000C6000E949B1008951F9310924C0310926A
:102180005003109251038091B0032091B10330911C
:10219000B2034091B3036091B403E091B503A09101
:1021A000B6031091B703B82FBF5F91E0B81708F0DE
:1021B00090E0F92FF20F81E0F21708F080E0782F1D
:1021C000730F81E0731708F080E0582F540F81E0FF
:1021D000541708F080E0382F360F81E0361708F0EA
:1021E00080E0282F2E0F81E02E1708F080E0982F36
:1021F0009A0F81E09A1708F080E0810FB093B00346
:10220000F093B1037093B2035093B3033093B403CC
:102210002093B5039093B6038093B7031F9108955D
:102220000F931F93789401EC10E0F80110820E9444
:102230005C10E1E8F0E08081887F8160808310920B
:1022400080008BE080838EE699E1909389008093F3
:10225000880087EB9CE090938B0080938A00EFE6E8
:10226000F0E0808182608083E1EBF0E08081887F14
:1022700082608083E0EBF0E080818C7F81608083EE
:10228000E0E7F0E0808181608083389A399A3A9A59
:102290003B9A8BE494E060E270E040E150E00E9401
:1022A000303589E394E06FE370E040E150E00E9454
:1022B000303510925C0410925D0410924A048FEF46
:1022C0008093490480935E0410925F040E94451736
:1022D000E0ECF0E080818D7F80831092C50087E282
:1022E0008093C400F8018081886080838081806150
:1022F00080830E94A11088E790E060E044EF51E005
:102300000E948B038CE090E090931A018093190156
:102310008FEF9FEF90931801809317011092210186
:10232000109222010E9470100E94130F0E94241D1F
:102330001F910F91089584B714BE80916000886149
:1023400080936000109260000E9410110E94A41CF3
:10235000FDCF1F920F920FB60F9211242F933F9330
:102360004F935F936F937F938F939F93AF93BF939D
:10237000EF93FF9320911F01309120012F5F3F4F7A
:1023800040E050E08091130190911401A09115015B
:10239000B0911601820F931FA41FB51F80931301E4
:1023A00090931401A0931501B09316018091170129
:1023B0009091180101969093180180931701209134
:1023C000190130911A018217930760F010921801D9
:1023D0001092170190E080912101882309F491E087
:1023E00090932101E0912101F0E0EE0FFF1FE55EE7
:1023F000FE4F808191819093200180931F019093E3
:102400008900809388009695879590938B008093A0
:102410008A0080912201882311F00E94EA0DFF9129
:10242000EF91BF91AF919F918F917F916F915F914C
:102430004F913F912F910F900FBE0F901F901895C5
:102440000F931F93CF93DF93EC01062F162F1F706E
:10245000603F51F0673F41F0BC016F5F7F4F802FBD
:102460004C8121E00E949906602F607F603B81F1E2
:10247000613B40F46039C1F0603A21F1603809F005
:102480006AC00EC0603D99F1613D20F4603C09F0E6
:1024900062C028C0603E81F1603F09F05CC03AC074
:1024A000812F69814A810BC04A81442329F0812F01
:1024B00069810E94640A4FC0812F698140E00E94B7
:1024C000AF0749C0812F69814A810E94A50743C097
:1024D0006981862F88578830F0F1812F4A810E94C8
:1024E000750739C0812F69810E94070834C0812F88
:1024F00069810E9411082FC06A8170E07695762F5D
:102500006627779567958981680F711D812F0E94D5
:10251000640721C01830A1F0193028F4112351F0BC
:102520001730C9F409C01B3089F01C3091F01A3003
:1025300091F409C0898101C087EF0E9442080BC055
:102540000E94070E08C00E945D0A05C00E94080490
:1025500002C00E943B08DF91CF911F910F91089517
:1025600078941F920F920FB60F9211241F932F93FE
:102570003F934F935F936F937F938F939F93AF930B
:10258000BF93EF93FF938091C00087FF6AC01091C3
:10259000C6001E3F09F465C0183F11F00E94961056
:1025A000812F0E940F04183F30F08CE493E0612FDC
:1025B0000E94201256C017FF34C01092500381E0D1
:1025C00080935103812F807F803AA1F0813A28F4D3
:1025D000803881F08039B1F40DC0803E59F0803FE1
:1025E00019F0803B79F406C0912F9F70892F81509C
:1025F000823020F482E08093510304C0943010F0C4
:102600001092510380914C03803F19F487EF0E9490
:10261000420810934C03103F71F480EF0E9442086F
:102620000AC080915003E82FF0E0E45BFC4F118377
:102630008F5F8093500390915003809151039817BE
:1026400080F08CE493E060914C030E942012109281
:10265000500380914C03813F20F01092510310925F
:102660004C038091A6029091A702891B8F77A9F055
:102670008091C00085FF11C08091A702E82FF0E093
:10268000E854FC4F10818F5F8F778093A702183F2B
:1026900011F00E949B101093C600809152038F5F2F
:1026A0008093520380FD3AC00E94231C8091520304
:1026B00090E083709070892B89F590911001892F9B
:1026C0008A59809310018D37D8F09751909310015B
:1026D00080910C0190910D01019690930D018093D2
:1026E0000C0180910C0190910D01892B49F480918E
:1026F0000E0190910F01019690930F0180930E01AE
:102700000E9479108091520390E087709070892B1D
:1027100029F480915F048F5F80935F04FF91EF91B4
:10272000BF91AF919F918F917F916F915F914F91E9
:102730003F912F911F910F900FBE0F901F901895F2
:10274000FC011082118212821382148281E085833F
:10275000178216820895FC01178216820895FC01E3
:10276000623028F48181681711F417821682089567
:10277000FC018181882321F0813009F044C003C02D
:102780008091F70140C08091F701282F30E021159A
:10279000310509F440C080910801E82FF0E0EF30E6
:1027A000F105B0F5E759FF4F0C944036220F331F67
:1027B0002FC0C901880F991F0AC0220F331F220F93
:1027C000331F26C0C901880F991F880F991F280F32
:1027D000391F1EC0C901880F991F280F391F2F5F8D
:1027E0003F4F16C0220F331F220F331F2E5F3F4F64
:1027F0000FC0C901880F991F880F991F280F391F13
:102800002D5F3F4F05C0282F30E02115310519F00D
:102810002150304002C020E030E0C9010895CF933C
:10282000DF93EC010E94B813BC0188818130C9F0AC
:10283000813030F08230A1F1833009F055C03DC0C5
:102840006115710509F450C02E813F81C90196952B
:10285000982F882797958795821B930B0E94A53503
:1028600046C06330710520F48E8180FF3DC03EC0BC
:102870004E818F8160FD05C0242F382F922F88272D
:1028800006C0242F382F922F88276F5F7F4F220F8B
:10289000331F821B930B0E94A53567FD619527C0EE
:1028A0006115710509F16F5F7F4F769567958E8190
:1028B0009F8186179707D0F417C0209100013091AF
:1028C0000101C90181709070909581959F4F807032
:1028D000947B3695279582279327909301018093C7
:1028E0000001692F6F7703C060E001C06FE7862F9A
:1028F000DF91CF9108950F931F93CF93DF93EC0156
:102900000E811F810F5F1F4F1F830E830E94B8131C
:102910008017910710F41F821E82DF91CF911F91C3
:102920000F910895FC0190E0808180528F3510F066
:102930008FE580839F5F31969430B1F70895CF93F0
:10294000DF93EC01862F0E94C815BC018FEF6F3F0B
:10295000780729F0CE0140E350E00E94F116DF91A4
:10296000CF910895A1E0B0E0E8EBF4E10C941136CA
:102970007B019FE5A92E9FE5B92E9FE5C92E9FE516
:10298000D92EFB01A082B182C282D3820E94C815D7
:102990008C01FFEF8F3F9F07F9F0CE010196B80140
:1029A00041E050E00E9458160197B1F489818133CB
:1029B00098F40F5F1F4FC701B80144E050E00E9438
:1029C0005816049731F0F701A082B182C282D382F7
:1029D00003C0C7010E9492142196EAE00C942D36A0
:1029E000EF92FF920F931F938C0180E3D8018C9399
:1029F0008FE59FE5AFE5BFE5F80181839283A3836F
:102A0000B483158288E7868327E02783108684EFC6
:102A100091E092878187FF24F394F3861486F586EC
:102A200016861786108A118A228B138A148A8FE7DA
:102A3000858BC80146962AE0E22EDC018E2D1D9280
:102A40008A95E9F7C80180960E94A013C80188966C
:102A50000E94A013D8019596FC9295979D96EC92B2
:102A60001F910F91FF90EF900895CF93DF93EC01AA
:102A700001960E9492148D81803120F0CE010E9437
:102A8000F01450C08E818951823E10F088E78E8309
:102A900089859A850197875E934020F084EF91E0C5
:102AA0009A8789878F81843110F087E08F838885AA
:102AB000853108F018868E8587FD1E8689898830C5
:102AC00008F0198A8A898F3010F087E08A8B8B8909
:102AD000813F08F01B8A8C8987FD1C8A8D8987FFBE
:102AE00002C08FE78D8BFE01B09690E0808184302C
:102AF00008F01082818187FD11828281803809F47B
:102B000012828381803809F413828481803809F429
:102B10001482858187FF02C081E085839F5F38969C
:102B2000923021F7DF91CF910895A1E0B0E0EBE979
:102B3000F5E10C9415367C01162F0E94F014812FBC
:102B40000E94C8158C018FEF0F3F1807E9F0CE01E6
:102B50000196B80141E050E00E9458160197A1F497
:102B60004981413388F4C701B80150E00E945816EA
:102B7000298130E08217930721F0C7010E94F014E9
:102B800003C0C7010E9435152196E6E00C9431364A
:102B9000782F60E060507F4F9B0140E050E0605034
:102BA00071408091530390E0A0E0B0E0EDE0880F29
:102BB000991FAA1FBB1FEA95D1F782179307A40795
:102BC000B50710F46FEF7FEFCB0108951F93382FF7
:102BD000E92F142F422F722F760F703408F064C043
:102BE00080915503909156038150891B8F738717ED
:102BF000B8F3832F9E2F9C01D90120E00DC0809156
:102C00005603E82FF0E0EE59FB4F9D9190838F5FC4
:102C10008F73809356032F5F261788F3812F952F8C
:102C20009C01D90120E00DC080915603E82FF0E00F
:102C3000EE59FB4F9D9190838F5F8F738093560366
:102C40002F5F241788F38091A2048823E1F78091F5
:102C5000AB04209154038091560390915503891B36
:102C60008F7311F18091A2048823F1F48FEF809388
:102C7000AB0482E08093A2042065220F20936104BC
:102C800090915603209155038091BC0080628093FF
:102C9000BC00921B9F7341F08091A2048823E1F74E
:102CA0008091AB048F3F09F070E0872F1F9108954A
:102CB000EF92FF921F93DF93CF9300D0CDB7DEB793
:102CC0007C01142F79836A83CE01019662E040E093
:102CD00050E020E00E94E615823049F480915703CD
:102CE00080935803412F50E060E070E06CC0809109
:102CF00055038093560380E06BC0809158039091F8
:102D00005703891B8770B9F04115510509F45BC061
:102D1000415050406F5F7F4F80915703E82FF0E0A4
:102D2000ED55FB4F90818F5F877080935703F701BC
:102D300091937F01E2CF4115510509F444C0809180
:102D4000A2048823E1F78091AB04CA014132510506
:102D500010F080E290E0282F3091540380915703C7
:102D6000909158038150891B8770281740F020915B
:102D70005703809158032150281B277021508091C0
:102D8000A204882399F48FEF8093AB0482E08093B0
:102D9000A204330F316A30936104109260042093CF
:102DA000AC048091BC0080628093BC008091A2043E
:102DB0008823E1F78091AB048F3F29F0CA01861B7D
:102DC000970BBC0104C04115510509F096CF862F21
:102DD00090E00F900F90CF91DF911F91FF90EF90B7
:102DE00008958F929F92AF92BF92CF92DF92EF920F
:102DF000FF921F93DF93CF9300D0CDB7DEB74C0186
:102E00006B017A01AA24BB242EC02C2D8C2D8F712E
:102E100010E2181B812F90E0E816F90608F41E2D29
:102E2000D9822A83CE01019662E0A401212F0E945B
:102E3000E61590E0412F50E09A012E5F3F4F821738
:102E4000930729F080915503809356030FC088EAB9
:102E500091E60197F1F7A40EB51EC40ED51E840E9F
:102E6000951EE41AF50AE114F10479F6C5010F90F4
:102E70000F90CF91DF911F91FF90EF90DF90CF9057
:102E8000BF90AF909F908F900895A2E0B0E0EBE4E8
:102E9000F7E10C9415368091B9008E7F8093B900CC
:102EA0008091B9008D7F8093B90081E18093B80053
:102EB0008091BC0084608093BC008091BC008160E4
:102EC0008093BC008091BC0080648093BC00109211
:102ED000A20489EB97E19093120180931101FEEF18
:102EE000EF2EFFEFFF2E08ED1AEF1A830983CE01B4
:102EF0000196B70142E050E00E94F11680E090EEAA
:102F0000E80EF91E015010409AEF003D190769F7CD
:102F100088E0809353030EEF1FEF17C0CE01019698
:102F2000B80142E050E00E94581640915303842FAC
:102F300090E08053954029813A812817390749F05C
:102F40004150409353030050104280915303882313
:102F500029F72296E6E00C9431368091BC0080611E
:102F60008093BC008091BC0084FDFCCF1092A20431
:102F700008958091B90090E0887F90708832910523
:102F8000B1F189329105A4F48031910559F1813173
:102F900091053CF4009709F482C0089709F084C0B9
:102FA00021C08831910519F1809709F07DC035C0A5
:102FB0008034910509F452C0813491053CF480338A
:102FC000910559F1C89709F06FC02DC08035910562
:102FD00099F18835910509F44DC08834910509F0BF
:102FE00063C05AC0809161048093BB003DC0809152
:102FF000560390915503891B8F7309F44DC080913E
:103000005503E82FF0E0EE59FB4F90818F5F8F73EF
:10301000809355039093BB0027C08091B900887FAF
:103020008093AB0439C080E38093AB0485EC80933C
:10303000BC001092A20408959091BB0080915803A7
:10304000E82FF0E0ED55FB4F90838F5F8770809302
:103050005803809160048F5F8093600490916004B6
:103060008091AC04981710F485EC01C085E880933A
:10307000BC0008959091BB0080915803E82FF0E0C8
:10308000ED55FB4F90838F5F87708093580380913D
:1030900060048F5F809360040E94AD1708958EEFE7
:1030A0008093AB040E94AD17089508952091F70412
:1030B00030E083B1220F90E044E0969587954A95E1
:1030C000E1F78170282B88E893E10197F1F73F5FE2
:1030D000383079F72093F70480E0222309F481E067
:1030E000089583B190E074E0969587957A95E1F71D
:1030F00081709091F704990F982B9093F704903872
:10310000A1F423E0222F2295207F216080917F036C
:10311000E82FF0E0EE0FFF1FE150FB4F20831182FC
:103120008F5F8F7180937F0308959F37D1F48091D3
:103130007603882319F010927603089523E0222F56
:103140002295207F236080917F03E82FF0E0EE0F2F
:10315000FF1FE150FB4F208311828F5F8F7180939F
:103160007F030895CF93DF93EC01262F862F6CE029
:103170000E948C35482F822F0E948C35963059F052
:10318000973028F4913039F0933031F404C09830FE
:1031900011F09A3009F42196990F292F30E02B5421
:1031A0003E4FF9018491DE018D939F5FE92FF0E09E
:1031B000EB54FE4FE491E983E42FF0E0E755FE4F36
:1031C000E4911196EC93DF91CF910895482F8823D5
:1031D00031F490917C0380917D039817F1F09091E8
:1031E0007C0390937D0338E021E0239FF0011124BC
:1031F000E55BFB4F442319F0878180937E03809128
:103200003201882341F090FD06C081E002C0809128
:103210007E03878308954423D1F30895882321F002
:1032200010927B0310927C0380917D0380958093A4
:103230007D032FEF222F2295207F80917F03E82F9F
:10324000F0E0EE0FFF1FE150FB4F208311828F5FF4
:103250008F7180937F03089580917B038F5F8093AC
:103260007B038C3038F080917C038F5F80937C03EC
:1032700010927B030895CF93DF939C01EA016623AC
:1032800029F1009719F480E3888320C040E0E42FFF
:10329000F0E0EF50FB4FC9016AE070E00E94A535F5
:1032A00080834F5FC9016AE070E00E94A5359B01F1
:1032B0006115710561F708C04150E42FF0E0EF504F
:1032C000FB4F8081805D89934423B1F7DF91CF91DB
:1032D0000895FC01CB016A30710510F020E002C0B6
:1032E000408321E062E0621BE20FF11DAF010E940A
:1032F0003B190895982F84FD5A9A8BB19295907F2F
:103300008F70892B8BB95B9A88E893E10197F1F76D
:103310005B985A9888E99AE30197F1F708951F930B
:10332000182F82958F700E947A19812F8F700E94BA
:103330007A191F910895282F80918003909181031D
:103340008150891B8F73823010F480E00895909132
:103350008103E92FF0E0EF54FB4F822F82958F70AD
:10336000806180832F70206121839E5F9F73909383
:10337000810308951F938091800390918103815070
:10338000891B8F73843008F48FC09091FE04809164
:10339000AF04981710F41092AE048091FE0480934D
:1033A000AF0490915C0480915E04981739F4809189
:1033B0005F0487FF03C010910A0117C02091AE047B
:1033C000222371F0992311F0973051F4E92FF0E0A6
:1033D000E55BFB4F8081803219F4122F115005C03C
:1033E000E92FF0E0E55BFB4F1081292F30E0F90178
:1033F000E75CFB4F80811817F1F18091490490E060
:1034000001962817390721F480914A04882339F559
:1034100020915D0430914A04809180039091810352
:103420008150891B8F738230D0F02295220F220F9A
:10343000207C3068232B30918103E32FF0E0EF54A0
:10344000FB4F822F90E0B4E095958795BA95E1F710
:1034500080832F7021833E5F3F7330938103812FE0
:103460000E949B1980915C04E82FF0E0E75CFB4F21
:1034700010838093490490914A049F5F90934A047B
:1034800080915C048F5F80935C04983069F41092A3
:103490004A0480915D048F5F80935D04823021F443
:1034A00010925D0410925C041F9108951F9310E028
:1034B0000E94BA191F5F1031D9F71F9108951F9309
:1034C0008091B0032091B1033091B2034091B303D6
:1034D0006091B403E091B503A091B6031091B703D6
:1034E000B82FBF5F91E0B81708F090E0F92FF20F06
:1034F00081E0F21708F080E0782F730F81E07317F6
:1035000008F080E0582F540F81E0541708F080E055
:10351000382F360F81E0361708F080E0282F2E0F65
:1035200081E02E1708F080E0982F9A0F81E09A171B
:1035300008F080E0810FB093B003F093B103709373
:10354000B2035093B3033093B4032093B503909325
:10355000B6038093B7031F9108958BE494E060E273
:1035600070E040E150E00E94303580E280937E03BD
:1035700008950E94AD1AE0916703F09168030995E0
:1035800008950F931F9328E001E0029F800111240A
:10359000055B1B4F60912301C80170E040E30E946E
:1035A0006919C80102966EEC71E046E050E00E9495
:1035B00013350E94561A809123010E94120E88E84A
:1035C00093E1E4EFF1E03197F1F70197D1F70E9431
:1035D000B91A1F910F910895FC018181882339F454
:1035E0008281823021F41092AB030E94C11A0895A7
:1035F0000F931F930E94AD1A28E040E0429FA00164
:10360000112401E0029F80011124CA01855B9B4FB8
:1036100062EF72E048E050E00E941335C801845B1D
:103620009B4F6CEE72E045E050E00E9413350E9423
:10363000561A20E02D9A2B9A8CED95E0E4EFF1E0FC
:103640003197F1F70197D1F72D982B988CED95E0F4
:10365000E4EFF1E03197F1F70197D1F72F5F2330D5
:1036600049F71F910F9108950F931F93182F809181
:10367000820380937F030E9453036093FA04709344
:10368000FB048093FC049093FD04E0915D03F091B2
:103690005E03309711F0812F0995009159030D3188
:1036A00010F400935A031093590369E0169FB00178
:1036B00011246B527E4F8BE693E049E050E00E946C
:1036C000133560916C0370916D038BE593E040E1DD
:1036D00050E00E941335E0915B03F0915C038BE6B0
:1036E00093E0602F09950E94B91A1F910F910895D8
:1036F000FC018181813019F0823079F40CC0928113
:1037000080915903891721F0892F0E94341B089555
:103710000E94B91A08950E94B91A0895FC01818186
:10372000882379F4809159039281191624F48C31FD
:1037300030F48F5F04C0992311F0811181500E94F1
:10374000341B08950F931F9383B181703091F80457
:10375000330F382B3093F80483B190E0969587951A
:103760009695879581702091AD04220F282B209388
:10377000AD0483B190E09695879581709091F9049E
:10378000990F982B9093F904203829F4892F807F82
:1037900011F491E005C09038A9F4207F99F49FEFCF
:1037A00021E0222F2295207F80917F03E82FF0E0F7
:1037B000EE0FFF1FE150FB4F208391838F5F8F71CE
:1037C00080937F03303809F03BC00E945303AB0164
:1037D000BC018091770390917803A0917903B09117
:1037E0007A038A019B01081B190B2A0B3B0B0A3F2A
:1037F00011052105310510F090E001C092E020E0B4
:103800008091F704882309F421E0920F22E0222F0F
:103810002295207F80917F03E82FF0E0EE0FFF1FBD
:10382000E150FB4F208391838F5F8F7180937F03E3
:1038300040937703509378036093790370937A03EE
:103840001F910F910895809174038F5F809374038B
:103850000E94A21B8091740390E083709070892B6A
:1038600011F40E9471188091FE048F5F8093FE0412
:103870008091B004882329F05B985A981092B00484
:1038800008958091810390918003891B8F73B9F013
:1038900081E08093B00480918003E82FF0E0EF5442
:1038A000FB4FE0818F5F8F7380938003E4FD5A9A12
:1038B0008BB1E295E07F8F70E82BEBB95B9A0895AE
:1038C000FC018181813011F40E94480A0895CF9350
:1038D000DF93EC0188818230B9F0833018F48130B5
:1038E00081F505C08330E9F08A3059F527C0E091B1
:1038F0005F03F091600389816A810995882309F546
:10390000CE010E948E1B1DC0E0916103F091620305
:1039100089816A8109958823A1F4CE010E94EC1A5D
:1039200010C0E0916303F091640389816A81099575
:10393000882339F4CE010E94601C03C0CE010E948E
:10394000781BDF91CF910895A3E0B0E0EAEAFCE1B3
:103950000C9418360E94BA191091750310927503D1
:1039600024C080918203E82FF0E0EE0FFF1FE150AA
:10397000FB4F208191818F5F8F7180938203822F13
:1039800082958F709B832F702A8389830E945303B3
:103990006093FA047093FB048093FC049093FD04FD
:1039A000CE0101960E94671C11E080917F039091E7
:1039B0008203891B8F71A9F60E9453032091FA0498
:1039C0003091FB04621B730B695E734098F00E9498
:1039D00053036093FA047093FB048093FC04909368
:1039E000FD04E0916503F09166030995882311F0C9
:1039F00011E002C0112339F00E94AD1AE091670373
:103A0000F09168030995E0916903F0916A030995C3
:103A1000812F0E94E6182396E3E00C9434360E942E
:103A2000AD1A48E020E0249F90011124C901855B74
:103A30009B4F6BEF72E048E050E00E9413350E940C
:103A4000561A0E940B0F0895FF920F931F9322980E
:103A50002A9A8FEF8093AD042198299A8093F904D4
:103A60002098289A8093F80424982C9A8093F7043D
:103A7000529A539A8AB1806F8AB95A985B9888EEA5
:103A800093E0E4EFF1E03197F1F70197D1F783E0AC
:103A90000E947A1900E117E2C8010197F1F783E06B
:103AA0000E947A19C8010197F1F783E00E947A1900
:103AB000C8010197F1F782E00E947A1988E20E941A
:103AC0008F198CE00E948F1986E00E948F1981E087
:103AD0000E948F1982E00E948F191092B0048BE42B
:103AE00094E060E270E040E150E00E94303589E30C
:103AF00094E06FE370E040E150E00E9430351092B6
:103B00005C0410925D0410924A048FEF8093490484
:103B100080935E0410925F0488E40E948F19FF2452
:103B200012C00F2D10E007591E4FF8010491802F8D
:103B300082958F7080610E947A190F70802F80614A
:103B40000E947A19F394F0E4FF1659F78EE099E198
:103B50009093A3028093A2028CE299E19093A50234
:103B60008093A4020E945618882311F00E940F1D12
:103B70000E94F81A80E00E94341B1F910F91FF9061
:103B8000089580912F0180938303089508956623FB
:103B900011F080E0089590E08091AB03882309F450
:103BA00091E09093AB0381E00895813099F4809186
:103BB000AB03882379F080912F01882329F080932B
:103BC000830310922F0104C08091830380932F01FF
:103BD00081E0089580E0089580E008950895382FE9
:103BE000DA01662309F1882319F480E38C930895A0
:103BF00020E0E22FF0E0E15CFA4F832F6AE00E94C0
:103C00008C3590832F5F832F0E948C35382F88232B
:103C100081F708C02150E22FF0E0E15CFA4F80818B
:103C2000805D8D932223B1F708951F938091B00397
:103C30002091B1033091B2034091B3036091B4037A
:103C4000E091B503A091B6031091B703B82FBF5F01
:103C500091E0B81708F090E0F92FF20F81E0F21729
:103C600008F080E0782F730F81E0731708F080E090
:103C7000582F540F81E0541708F080E0382F360F8A
:103C800081E0361708F080E0282F2E0F81E02E17F4
:103C900008F080E0982F9A0F81E09A1708F080E0F2
:103CA000810FB093B003F093B1037093B2035093BC
:103CB000B3033093B4032093B5039093B60380937A
:103CC000B7031F910895CF93DF9328E040E0429F10
:103CD000A001112431E0329FE0011124C55BDB4FCC
:103CE000CA01855B9B4F67E173E046E050E00E94AC
:103CF000133580912F01AE014F5F5F4F882321F074
:103D000063E00E94EF1D07C0CA0164E173E042E076
:103D100050E00E9413358091AB03882321F0CE013F
:103D200064E00E94D831DF91CF9108958091AB0378
:103D3000882379F0862F992787FD909520912F0170
:103D4000820F911D60E040EF0E94E83180932F01C7
:103D500081E0089580912E01809384030895089551
:103D6000662311F080E0089590E08091AB038823F2
:103D700009F491E09093AB0381E00895813099F4C8
:103D80008091AB03882379F080912E01882329F05C
:103D90008093840310922E0104C080918403809349
:103DA0002E0181E0089580E0089580E0089508954F
:103DB0001F938091B0032091B1033091B2034091E1
:103DC000B3036091B403E091B503A091B6031091E1
:103DD000B703B82FBF5F91E0B81708F090E0F92F54
:103DE000F20F81E0F21708F080E0782F730F81E086
:103DF000731708F080E0582F540F81E0541708F033
:103E000080E0382F360F81E0361708F080E0282F49
:103E10002E0F81E02E1708F080E0982F9A0F81E096
:103E20009A1708F080E0810FB093B003F093B103CC
:103E30007093B2035093B3033093B4032093B5034C
:103E40009093B6038093B7031F910895CF93DF93A8
:103E500058E020E0259F9001112441E0459FE001BA
:103E60001124C55BDB4FC901855B9B4F6FE573E098
:103E700044E050E00E941335CE01019660912E017E
:103E80004EE253E026E00E9452328091AB03882339
:103E900021F0CE0168E00E94D831DF91CF910895E2
:103EA0008091AB03882379F0862F992787FD909521
:103EB00020912E01820F911D60E047E00E94E831C1
:103EC00080932E0181E008958091080180938503FD
:103ED00008950895662311F080E0089590E08091A0
:103EE000AB03882309F491E09093AB0381E008953C
:103EF000813091F48091AB03882371F080910801A7
:103F0000873021F08093850387E002C0809185038C
:103F10008093080181E0089580E0089580E008958D
:103F200008951F938091B0032091B1033091B203A3
:103F30004091B3036091B403E091B503A091B6033F
:103F40001091B703B82FBF5F91E0B81708F090E069
:103F5000F92FF20F81E0F21708F080E0782F730F4D
:103F600081E0731708F080E0582F540F81E0541758
:103F700008F080E0382F360F81E0361708F080E037
:103F8000282F2E0F81E02E1708F080E0982F9A0F2F
:103F900081E09A1708F080E0810FB093B003F093AE
:103FA000B1037093B2035093B3033093B4032093DF
:103FB000B5039093B6038093B7031F910895CF93F1
:103FC000DF9358E020E0259F9001112441E0459FB8
:103FD000E0011124C55BDB4FC901855B9B4F62EAA1
:103FE00073E045E050E00E941335CE0101966091E8
:103FF000080144E753E023E00E9452328091AB0372
:10400000882321F0CE0163E00E94D831DF91CF9167
:1040100008958091AB03882379F0862F992787FD37
:10402000909520910801820F911D60E04EE00E9462
:10403000E8318093080181E0089580912C018093FC
:10404000860308950895662311F080E0089590E0B6
:104050008091AB03882309F491E09093AB0381E056
:104060000895813099F48091AB03882379F0809191
:104070002C01882329F08093860310922C0104C020
:104080008091860380932C0181E0089580E008955B
:1040900080E0089508951F938091B0032091B103AB
:1040A0003091B2034091B3036091B403E091B50342
:1040B000A091B6031091B703B82FBF5F91E0B81776
:1040C00008F090E0F92FF20F81E0F21708F080E09D
:1040D000782F730F81E0731708F080E0582F540F8A
:1040E00081E0541708F080E0382F360F81E0361752
:1040F00008F080E0282F2E0F81E02E1708F080E0D6
:10410000982F9A0F81E09A1708F080E0810FB09302
:10411000B003F093B1037093B2035093B3033093A1
:10412000B4032093B5039093B6038093B7031F9114
:104130000895CF93DF9358E020E0259F900111244C
:1041400041E0459FE0011124C55BDB4FC901855B60
:104150009B4F61EC73E045E050E00E941335CE01C7
:10416000019660912C0148EB53E00E945C328091F3
:10417000AB03882321F0CE0163E00E94D831DF91A8
:10418000CF9108958091AB03882379F0862F9927EA
:1041900087FD909520912C01820F911D60E041E0F8
:1041A0000E94E83180932C0181E0089580912D01D7
:1041B0008093870308950895662311F080E00895A1
:1041C00090E08091AB03882309F491E09093AB03D6
:1041D00081E00895813099F48091AB03882379F0D0
:1041E00080912D01882329F08093870310922D015F
:1041F00004C08091870380932D0181E0089580E0C1
:10420000089580E0089508951F938091B003209150
:10421000B1033091B2034091B3036091B403E091D4
:10422000B503A091B6031091B703B82FBF5F91E01B
:10423000B81708F090E0F92FF20F81E0F21708F0BC
:1042400080E0782F730F81E0731708F080E0582F1B
:10425000540F81E0541708F080E0382F360F81E0CA
:10426000361708F080E0282F2E0F81E02E1708F077
:1042700080E0982F9A0F81E09A1708F080E0810F74
:10428000B093B003F093B1037093B2035093B303B0
:104290003093B4032093B5039093B6038093B70390
:1042A0001F910895CF93DF9358E020E0259F900160
:1042B000112441E0459FE0011124C55BDB4FC9019A
:1042C000855B9B4F60EE73E048E050E00E94133541
:1042D000CE01019660912D0147ED53E00E945C32C2
:1042E0008091AB03882321F0CE0163E00E94D83196
:1042F000DF91CF9108958091AB03882379F0862FC9
:10430000992787FD909520912D01820F911D60E0E6
:1043100041E00E94E83180932D0181E0089590935F
:104320008903809388030895089581E00895E091BA
:104330008803F09189038EEF808781E008958130B2
:1043400029F4E0918803F0918903608781E0089562
:1043500080E0089508951F938091B0032091B103E8
:104360003091B2034091B3036091B403E091B5037F
:10437000A091B6031091B703B82FBF5F91E0B817B3
:1043800008F090E0F92FF20F81E0F21708F080E0DA
:10439000782F730F81E0731708F080E0582F540FC7
:1043A00081E0541708F080E0382F360F81E036178F
:1043B00008F080E0282F2E0F81E02E1708F080E013
:1043C000982F9A0F81E09A1708F080E0810FB09340
:1043D000B003F093B1037093B2035093B3033093DF
:1043E000B4032093B5039093B6038093B7031F9152
:1043F0000895A0E0B0E0EFEFF1E20C94133638E05E
:1044000020E0239F700111248BE494E0E80EF91E54
:1044100021E0239F60011124C80ED91EE09188037A
:10442000F0918903C381D481CE016AE070E00E94DB
:104430001C350097F9F08C010C1B1D0BC701BE0148
:10444000A8010E941335E0918803F0918903E3806D
:10445000F480C7010E9427350F5F1F4FE00EF11E49
:1044600001501040AC0141505040401B510BC6015F
:10447000B70106C0CE010E942735AC01C701BE01BD
:104480000E941335E0918803F0918903058116811C
:10449000C8010E942735AC01C601841B950B089604
:1044A000B8010E941335CDB7DEB7E8E00C942F3683
:1044B0008091290180938A0308950895662311F05D
:1044C00080E0089590E08091AB03882309F491E0A7
:1044D0009093AB0381E00895813099F48091AB0310
:1044E000882379F080912901882329F080938A0319
:1044F0001092290104C080918A038093290181E0F0
:10450000089580E0089580E0089508951F938091B4
:10451000B0032091B1033091B2034091B303609195
:10452000B403E091B503A091B6031091B703B82F7F
:10453000BF5F91E0B81708F090E0F92FF20F81E02B
:10454000F21708F080E0782F730F81E0731708F0FE
:1045500080E0582F540F81E0541708F080E0382F86
:10456000360F81E0361708F080E0282F2E0F81E00B
:104570002E1708F080E0982F9A0F81E09A1708F024
:1045800080E0810FB093B003F093B1037093B20356
:104590005093B3033093B4032093B5039093B603C1
:1045A0008093B7031F910895CF93DF9328E040E0F5
:1045B000429FA001112431E0329FE0011124C55B2C
:1045C000DB4FCA01855B9B4F6EE074E044E050E036
:1045D0000E94133560912901CE010196662339F0BE
:1045E000615044E051E025E00E94523206C069E08B
:1045F00074E044E050E00E9413358091AB038823BF
:1046000021F0CE0165E00E94D831DF91CF9108956D
:104610008091AB03882379F0862F992787FD9095A9
:1046200020912901820F911D60E044E10E94E83150
:104630008093290181E008958091070180938B0385
:1046400008950895662311F080E0089590E0809128
:10465000AB03882309F491E09093AB0381E00895C4
:10466000982F813099F48091AB03882379F0809161
:104670000701813029F080938B039093070104C0D8
:1046800080918B038093070181E0089580E0089575
:1046900080E0089508951F938091B0032091B103A5
:1046A0003091B2034091B3036091B403E091B5033C
:1046B000A091B6031091B703B82FBF5F91E0B81770
:1046C00008F090E0F92FF20F81E0F21708F080E097
:1046D000782F730F81E0731708F080E0582F540F84
:1046E00081E0541708F080E0382F360F81E036174C
:1046F00008F080E0282F2E0F81E02E1708F080E0D0
:10470000982F9A0F81E09A1708F080E0810FB093FC
:10471000B003F093B1037093B2035093B30330939B
:10472000B4032093B5039093B6038093B7031F910E
:104730000895CF93DF9358E020E0259F9001112446
:1047400041E0459FE0011124C55BDB4FC901855B5A
:104750009B4F6CE274E048E050E00E941335CE01BC
:1047600001966091070143E254E00E945C3280911F
:10477000AB03882321F0CE0163E00E94D831DF91A2
:10478000CF9108958091AB03882379F0862F9927E4
:1047900087FD909520910701820F911D60E041E017
:1047A0000E94E8318093070181E0089580912A01F9
:1047B00080938C0308950895662311F080E0089596
:1047C00090E08091AB03882309F491E09093AB03D0
:1047D00081E00895813099F48091AB03882379F0CA
:1047E00080912A01882329F080938C0310922A015A
:1047F00004C080918C0380932A0181E0089580E0B9
:10480000089580E0089508951F938091B00320914A
:10481000B1033091B2034091B3036091B403E091CE
:10482000B503A091B6031091B703B82FBF5F91E015
:10483000B81708F090E0F92FF20F81E0F21708F0B6
:1048400080E0782F730F81E0731708F080E0582F15
:10485000540F81E0541708F080E0382F360F81E0C4
:10486000361708F080E0282F2E0F81E02E1708F071
:1048700080E0982F9A0F81E09A1708F080E0810F6E
:10488000B093B003F093B1037093B2035093B303AA
:104890003093B4032093B5039093B6038093B7038A
:1048A0001F910895CF93DF9358E020E0259F90015A
:1048B000112441E0459FE0011124C55BDB4FC90194
:1048C000855B9B4F6EE474E048E050E00E94133536
:1048D000CE01019660912A0145E454E00E945C32C9
:1048E0008091AB03882321F0CE0163E00E94D83190
:1048F000DF91CF9108958091AB03882379F0862FC3
:10490000992787FD909520912A01820F911D60E0E3
:1049100041E00E94E83180932A0181E0089580916E
:10492000060180938D0308950895662311F080E0B9
:10493000089590E08091AB03882309F491E090936F
:10494000AB0381E0089580E0089508951F9380915E
:10495000B0032091B1033091B2034091B303609151
:10496000B403E091B503A091B6031091B703B82F3B
:10497000BF5F91E0B81708F090E0F92FF20F81E0E7
:10498000F21708F080E0782F730F81E0731708F0BA
:1049900080E0582F540F81E0541708F080E0382F42
:1049A000360F81E0361708F080E0282F2E0F81E0C7
:1049B0002E1708F080E0982F9A0F81E09A1708F0E0
:1049C00080E0810FB093B003F093B1037093B20312
:1049D0005093B3033093B4032093B5039093B6037D
:1049E0008093B7031F910895CF93DF9358E020E0A1
:1049F000259F9001112441E0459FE0011124C55BF2
:104A0000DB4FC901855B9B4F60E774E045E050E0F8
:104A10000E941335CE0101966091060147E654E0ED
:104A20000E945C328091AB03882321F0CE0163E0C9
:104A30000E94D831DF91CF910895813091F4809117
:104A4000AB03882371F080910601813021F08093BF
:104A50008D0381E002C080918D030E94F90681E000
:104A6000089580E008958091AB03882379F0862F24
:104A7000992787FD909520910601820F911D60E096
:104A800041E00E94E8310E94F90681E0089508950E
:104A900090912801891719F481E08093750380E0D3
:104AA00008951F938091B0032091B1033091B20318
:104AB0004091B3036091B403E091B503A091B603B4
:104AC0001091B703B82FBF5F91E0B81708F090E0DE
:104AD000F92FF20F81E0F21708F080E0782F730FC2
:104AE00081E0731708F080E0582F540F81E05417CD
:104AF00008F080E0382F360F81E0361708F080E0AC
:104B0000282F2E0F81E02E1708F080E0982F9A0FA3
:104B100081E09A1708F080E0810FB093B003F09322
:104B2000B1037093B2035093B3033093B403209353
:104B3000B5039093B6038093B7031F9108958091B6
:104B400090038823B9F0109290031092AB038FEF7B
:104B500080935E048091910390919203A0919303BE
:104B6000B09194038093240190932501A093260192
:104B7000B093270108958091240190912501A0917F
:104B80002601B09127018093910390939203A09303
:104B90009303B09394038091230180938E0310922A
:104BA000AB03089510928F038091230180938E03AD
:104BB0008091240190912501A0912601B0912701B7
:104BC0008093910390939203A0939303B0939403E3
:104BD00088E495E290939F0280939E0208950E943C
:104BE0009F2580918E030E94120E1092AB031092AB
:104BF0008F038091240190912501A0912601B0910D
:104C000027018093910390939203A0939303B09311
:104C10009403089590918E03809123019817B9F021
:104C2000892F0E94790E8091240190912501A091F5
:104C30002601B09127018093910390939203A09352
:104C40009303B093940380918E030E94440F0895C0
:104C50000E940A2681E08093AB0380939003109218
:104C6000950308951F93182F8091AB03882341F17A
:104C7000113091F480918F03882319F010928F03E3
:104C800006C090918E03809123019817C1F00E9475
:104C9000BB251093760313C0133089F480919003E1
:104CA000882319F40E9428260AC080919503833036
:104CB00020F48F5F8093950302C01092950381E0EA
:104CC0001F9108956623E1F480918F03882319F0E2
:104CD0000E94EF2513C080919003882319F00E9451
:104CE0009F250CC090E08091AB03882309F491E0EC
:104CF0009093AB03992311F40E940A2681E0089552
:104D0000623011F080E008950E940A260E949F25DB
:104D100081E08093AB0380938F0308950E940A265D
:104D20000E949F2510929F0210929E0208951F9349
:104D3000182F61E973E00E94B21410938E031F9143
:104D40000895EF92FF920F931F93CF93DF9338E074
:104D500020E0239FE0011124C55BDB4F21E0239F6E
:104D600080011124055B1B4FF02EE12E60918E0314
:104D7000CE0170E040E30E94691980919103909107
:104D80009203A0919303B09194038B839C83AD8392
:104D9000BE838091AB03882321F08BE58A838DE568
:104DA0008F8380919003882329F0809195038D5FF4
:104DB00080935E0480918F03882329F08F2D9E2D90
:104DC0006FE874E00DC090918E03809123019817D5
:104DD00019F4D80120E026C08F2D9E2D66E874E0DE
:104DE00048E050E00E94133528C0EE0FFF1FEE0F81
:104DF000FF1FE550FE4F30818F5FE32FF0E08917F2
:104E0000A0F3EE0FFF1FEE0FFF1FE750FE4F808154
:104E100082958F70873008F086E08E5F8D932F5FCC
:104E2000273059F08091F701281738F430917C022F
:104E3000982F9150921B80E0E0CFCDB7DEB7E6E02F
:104E40000C9431360E94C331882319F00E94282621
:104E500081E008958091AB038823E1F18091900374
:104E6000882349F18091F704262F332727FD3095B9
:104E700040919503882379F5C901840F911D60E065
:104E800043E00E94E8318093950381E080937603AC
:104E90000895C9012F3731055CF08EE790E008C016
:104EA000662339F0C9012032310514F480E290E024
:104EB000808381E00895862F992787FD9095209122
:104EC0008E03820F911D60E043E60E94E8310E944C
:104ED000972681E00895E42FF0E0EF56FC4F8081A3
:104EE000280F311D1616ACF2DBCF89E198E29093C2
:104EF0009F0280939E0280912801809396030895DB
:104F000010929F0210929E020895662311F080E095
:104F1000089590E08091AB03882309F491E0909389
:104F2000AB0381E0089580E008950895CF93DF9367
:104F30009C01EA01662361F1009719F480E38883FC
:104F400027C097FF05C08DE28993309521953F4F8B
:104F500040E0E42FF0E0ED5BFA4FC9016AE070E059
:104F60000E94B93580834F5FC9016AE070E00E94FA
:104F7000B9359B016115710561F708C04150E42FF7
:104F8000F0E0ED5BFA4F8081805D89934423B1F7B7
:104F9000DF91CF9108951F938091B0032091B103C9
:104FA0003091B2034091B3036091B403E091B50333
:104FB000A091B6031091B703B82FBF5F91E0B81767
:104FC00008F090E0F92FF20F81E0F21708F080E08E
:104FD000782F730F81E0731708F080E0582F540F7B
:104FE00081E0541708F080E0382F360F81E0361743
:104FF00008F080E0282F2E0F81E02E1708F080E0C7
:10500000982F9A0F81E09A1708F080E0810FB093F3
:10501000B003F093B1037093B2035093B303309392
:10502000B4032093B5039093B6038093B7031F9105
:105030000895982F8091AB038823C9F080912801AF
:105040009817A9F0892F0E9418072FEF222F229579
:10505000207F80917F03E82FF0E0EE0FFF1FE150EB
:10506000FB4F208311828F5F8F7180937F0380E0DD
:105070000895813091F48091AB03882371F0809181
:105080002801882321F08093960380E002C080915C
:1050900096030E94180781E0089580E00895CF9359
:1050A000DF9358E020E0259F9001112441E0459FC7
:1050B000E0011124C55BDB4FC901855B9B4F68EAAA
:1050C00074E047E050E00E9413358091280190E0A1
:1050D000AE014F5F5F4F019662E00E94962780917C
:1050E000AB03882321F0CE0164E00E94D831DF9128
:1050F000CF9108958091AB03882379F0862F99276B
:1051000087FD909520912801820F911D60E04FE06E
:105110000E94E8310E94180781E00895FC0189EEA1
:1051200098E29093A1028093A002E081E33119F00C
:10513000E93139F403C01092980303C081E08093F1
:105140009803E0919803F0E083E0EE0FFF1F8A954B
:10515000E1F7E05CFE4F85818093970308951092FC
:10516000A1021092A0020895662311F080E0089534
:1051700090E08091AB03882309F491E09093AB0316
:1051800081E00895813001F58091AB038823E1F03F
:1051900080919803813011F091E001C09AE0E82FEE
:1051A000F0E023E0EE0FFF1F2A95E1F7E05CFE4FF1
:1051B0008581891721F080939703958303C080919F
:1051C0009703858381E0089580E0089580E0089545
:1051D0000895982F8091AB03882329F180912801AD
:1051E000981709F580919803E82FF0E043E0EE0F5F
:1051F000FF1F4A95E1F7E05CFE4F8581681799F043
:1052000065832FEF222F2295207F80917F03E82F47
:10521000F0E0EE0FFF1FE150FB4F208311828F5F04
:105220008F7180937F0380E008951F938091B00376
:105230002091B1033091B2034091B3036091B40364
:10524000E091B503A091B6031091B703B82FBF5FEB
:1052500091E0B81708F090E0F92FF20F81E0F21713
:1052600008F080E0782F730F81E0731708F080E07A
:10527000582F540F81E0541708F080E0382F360F74
:1052800081E0361708F080E0282F2E0F81E02E17DE
:1052900008F080E0982F9A0F81E09A1708F080E0DC
:1052A000810FB093B003F093B1037093B2035093A6
:1052B000B3033093B4032093B5039093B603809364
:1052C000B7031F9108950F931F93CF93DF9338E097
:1052D00020E0239F80011124055B1B4F21E0239FC9
:1052E000E0011124C55BDB4FC80160EC74E047E0CE
:1052F00050E00E941335E0919803EF5CD8011396BB
:10530000EC93E153F0E053E0EE0FFF1F5A95E1F705
:10531000E05CFE4FAE014F5F5F4F858163E00E940E
:10532000EF1D8091AB03882321F0CE0166E00E943F
:10533000D831DF91CF911F910F910895CF93DF93D3
:105340008091AB038823C1F080919803C82FD0E0EF
:10535000862F992787FD909563E0CC0FDD1F6A9516
:10536000E1F7C05CDE4F2D81820F911D60E04FE7B9
:105370000E94E8318D8381E0DF91CF910895FC0197
:10538000E081E231A9F0E33128F4E03151F0E1317C
:1053900011F50AC0E731A9F0E831B9F0E631D9F4E6
:1053A0000AC010929A030AC010929A0381E011C0B9
:1053B00010929A030DC081E080939A0310929B0390
:1053C0000AC081E080939A0304C081E080939A032D
:1053D00082E080939B0380919B03813099F0813020
:1053E00018F0823071F51EC0E0919A03FF27E7FDA7
:1053F000F09523E0EE0FFF1F2A95E1F7EE5BFE4FDD
:1054000080810DC0E0919A03FF27E7FDF09593E0BE
:10541000EE0FFF1F9A95E1F7E05CFE4F83818093CA
:1054200099030895E0919A03FF27E7FDF09583E043
:10543000EE0FFF1F8A95E1F7EC5BFE4F80818093B2
:10544000990308950895662311F080E0089590E08F
:105450008091AB03882309F491E09093AB0381E042
:105460000895813009F04DC08091AB03882309F481
:1054700048C080919B03813099F0813018F08230D0
:10548000F1F526C080919A03E82FFF27E7FDF095FC
:1054900053E0EE0FFF1F5A95E1F7EE5BFE4F25C07C
:1054A00080919A03E82FFF27E7FDF09543E0EE0F88
:1054B000FF1F4A95E1F7E05CFE4F8381882321F0CE
:1054C0008093990313821BC080919903838317C033
:1054D00080919A03E82FFF27E7FDF09533E0EE0F68
:1054E000FF1F3A95E1F7EC5BFE4F8081882321F0A6
:1054F00080939903108203C080919903808381E097
:10550000089580E0089580E008950895282FDA0135
:10551000662339F1882319F480E38C93089587FF7B
:1055200003C08DE28D93219530E0E32FF0E0E65B40
:10553000FA4F822F6AE00E94983590833F5F822F56
:105540006AE00E949835282F882379F708C03150E7
:10555000E32FF0E0E65BFA4F8081805D8D9333238B
:10556000B1F708951F938091B0032091B10330915A
:10557000B2034091B3036091B403E091B503A091ED
:10558000B6031091B703B82FBF5F91E0B81708F0CA
:1055900090E0F92FF20F81E0F21708F080E0782F09
:1055A000730F81E0731708F080E0582F540F81E0EB
:1055B000541708F080E0382F360F81E0361708F0D6
:1055C00080E0282F2E0F81E02E1708F080E0982F22
:1055D0009A0F81E09A1708F080E0810FB093B00332
:1055E000F093B1037093B2035093B3033093B403B9
:1055F0002093B5039093B6038093B7031F9108954A
:10560000FF920F931F93CF93DF9328E030E0329FF8
:10561000E0011124C55BDB4F31E0329F8001112492
:10562000055B1B4F80919B038130B1F0813018F0F6
:105630008230B9F522C0E0919A03FF27E7FDF0958B
:10564000A3E0EE0FFF1FAA95E1F7EE5BFE4FF0809F
:10565000CE016AEE74E021C0E0919A03FF27E7FDD6
:10566000F09573E0EE0FFF1F7A95E1F7E05CFE4FD7
:10567000F380CE0161EE74E010C0E0919A03FF2741
:10568000E7FDF09563E0EE0FFF1F6A95E1F7EC5B35
:10569000FE4FF080CE0168ED74E048E050E00E94DB
:1056A000133580919A038F5C8B83A8014F5F5F4F06
:1056B0008F2D63E00E94862A8091AB03882321F01E
:1056C000C80164E00E94D831CDB7DEB7E5E00C94A4
:1056D0003236CF93DF938091AB03882309F45AC00D
:1056E00080919B038130C1F0813020F0823009F03D
:1056F00050C031C020919A03C22FDD27C7FDD0953D
:10570000862F992787FD909533E0CC0FDD1F3A95C2
:10571000E1F7CE5BDE4F30C080919A03C82FDD27C2
:10572000C7FDD095862F992787FD909523E0CC0F54
:10573000DD1F2A95E1F7C05CDE4F2B81332727FD63
:105740003095820F931F61E87FEF4FE750E00E9492
:10575000F8318B831EC020919A03C22FDD27C7FD2D
:10576000D095862F992787FD9095B3E0CC0FDD1F4C
:10577000BA95E1F7CC5BDE4F2881332727FD3095C2
:10578000820F931F61E87FEF4FE750E00E94F831EE
:10579000888381E0DF91CF910895FC01E081EF30B3
:1057A00019F0E53139F403C010929D0303C081E084
:1057B00080939D03E0919D03F0E083E0EE0FFF1FD7
:1057C0008A95E1F7E05CFE4F818180939C03089508
:1057D0000895662311F080E0089590E08091AB0376
:1057E000882309F491E09093AB0381E00895813020
:1057F000D9F48091AB038823B9F080919D03E82F01
:10580000F0E093E0EE0FFF1F9A95E1F7E05CFE4FAA
:105810008181882321F080939C03118203C08091B1
:105820009C03818381E0089580E0089580E00895DD
:1058300008951F938091B0032091B1033091B2037A
:105840004091B3036091B403E091B503A091B60316
:105850001091B703B82FBF5F91E0B81708F090E040
:10586000F92FF20F81E0F21708F080E0782F730F24
:1058700081E0731708F080E0582F540F81E054172F
:1058800008F080E0382F360F81E0361708F080E00E
:10589000282F2E0F81E02E1708F080E0982F9A0F06
:1058A00081E09A1708F080E0810FB093B003F09385
:1058B000B1037093B2035093B3033093B4032093B6
:1058C000B5039093B6038093B7031F9108950F9388
:1058D0001F93CF93DF9338E020E0239F80011124B2
:1058E000055B1B4F21E0239FE0011124C55BDB4FCB
:1058F000C8016EE075E048E050E00E941335E09189
:105900009D03EF5CD8011396EC93E153F0E023E0A4
:10591000EE0FFF1F2A95E1F7E05CFE4F818188239F
:1059200031F0AE014F5F5F4F813081F407C0CE018F
:1059300001966AE075E043E050E005C0CA0163E00B
:1059400075E046E050E00E94133503C063E00E941A
:10595000EF1D8091AB03882321F0CE0166E00E9409
:10596000D831DF91CF911F910F910895CF93DF939D
:105970008091AB038823C1F080919D03C82FD0E0B4
:10598000862F992787FD909533E0CC0FDD1F3A9540
:10599000E1F7C05CDE4F2981820F911D60E04FE787
:1059A0000E94E831898381E0DF91CF910895FC0165
:1059B000E081EE3019F0E43139F403C010929F0316
:1059C00003C081E080939F03E0919F03F0E083E0B8
:1059D000EE0FFF1F8A95E1F7E05CFE4F8081809318
:1059E0009E0308950895662311F080E0089590E0E5
:1059F0008091AB03882309F491E09093AB0381E09D
:105A000008958130D9F48091AB038823B9F0809157
:105A10009F03E82FF0E093E0EE0FFF1F9A95E1F768
:105A2000E05CFE4F8081882321F080939E031082EA
:105A300003C080919E03808381E0089580E00895F3
:105A400080E0089508951F938091B0032091B103E1
:105A50003091B2034091B3036091B403E091B50378
:105A6000A091B6031091B703B82FBF5F91E0B817AC
:105A700008F090E0F92FF20F81E0F21708F080E0D3
:105A8000782F730F81E0731708F080E0582F540FC0
:105A900081E0541708F080E0382F360F81E0361788
:105AA00008F080E0282F2E0F81E02E1708F080E00C
:105AB000982F9A0F81E09A1708F080E0810FB09339
:105AC000B003F093B1037093B2035093B3033093D8
:105AD000B4032093B5039093B6038093B7031F914B
