:100000000C949C0D0C94C40D0C94C40D0C94C40D54
:100010000C94C40D0C94C40D0C94C40D0C94C40D1C
:100020000C94C40D0C946A1C0C94C40D0C94641BA9
:100030000C94C40D0C94C40D0C94C40D0C94C40DFC
:100040000C94C40D0C94C40D0C94C40D0C94C40DEC
:100050000C94C40D0C94C40D0C94C40D0C94C40DDC
:100060000C94D40D0C94C40D010203040608090C71
:100070001012182024304048608090C0363454203C
:100080003332542033327468313654203136746838
:1000900038542020313644203874682034542020CD
:1000A00038442020347468203254202034442020E6
:1000B000326E6420315420203244202031422020EE
:1000C000325420203144202032422020007F007F03
:1000D0000081FF81FF7F007F0081FF81FF7F007F24
:1000E0000081FF81FF7F007F0081FF81FF7F008112
:1000F000FF7F0081FF7F0081FF7F0081FF7F008104
:10010000FF7F0081FF7F0081FF7F0081FFC1FFC172
:10011000FF7F00000081FF00000000580000000089
:10012000005800CEFFA8FF00005800000013002C6C
:10013000005D00FCFF2000CBFFA6FF81FF750020C3
:10014000009AFFCBFF6900CBFF5D00CBFF58009BFF
:10015000FF6B00A1FF5800A8FF3200DAFF4100A8A2
:10016000FF6500A1FF650081FF3F00E1FF4600AC95
:10017000FF540090FF54009EFF70009EFF3600BAAF
:10018000FF7F00ACFF7F0090FF5400ACFFCD00ED7F
:10019000000D012D014D016D010001030507080A45
:1001A0000C0D0F1112141517181A1B1D1E202123D8
:1001B000242627282A2B2C2E2F303133343536385D
:1001C000393A3B3C3D3F404142434445464748491C
:1001D0004A4B4C4D4E4F505152525354555657580E
:1001E00059595A5B5C5D5D5E5F6061616263636427
:1001F000656666676868696A6B6B6C6D6D6E6E6F5D
:1002000070707172727374747575767777787879A7
:100210007A7A7B7C7C7D7D7E7F000205070A0C0F4D
:10022000111316181A1C1E20222426282A2C2E30C0
:100230003133353638393B3C3E3F414243454647F2
:10024000484A4B4C4D4E4F505152535455565758A7
:1002500058595A5B5C5C5D5E5E5F606061626263C0
:10026000636464656666676767686869696A6A6B1C
:100270006B6C6C6C6D6D6E6E6F6F6F707071717199
:100280007272737374747575767676777778797918
:100290007A7A7B7B7C7D7D7E7F00010203040506EC
:1002A0000708090A0B0D0E0F101113141516181953
:1002B0001A1B1D1E1F212223242627282A2B2C2E01
:1002C0002F303233353637393A3B3D3E3F4142439A
:1002D000454647484A4B4C4E4F505153545556583B
:1002E000595A5B5C5D5F60616263646566676869FB
:1002F0006A6B6C6D6E6F6F707172737374757676F6
:1003000077787879797A7A7B7B7C7C7C7D7D7D7E41
:100310007E7E7E7E7E7E7E7F7E0000010102020365
:10032000040405060607070809090A0A0B0C0C0D48
:100330000E0E0F1010111112131314151616171894
:1003400018191A1B1B1C1D1D1E1F202121222324CE
:100350002525262728292A2B2C2C2D2E2F303132EB
:10036000333435363738393A3B3C3D3E3F414243E2
:1003700044454648494A4B4D4E4F505253545657A8
:10038000585A5B5D5E606163646667696A6C6D6F35
:100390007172747677797B7D7F000001010203031F
:1003A0000404050506070708080809090A0A0B0BD3
:1003B0000C0C0D0D0D0E0E0F0F0F1010111112124F
:1003C0001213131414151516161717171818191ACF
:1003D0001A1B1B1C1C1D1E1E1F2020212222232431
:1003E0002526262728292A2B2C2D2E2F3031323353
:1003F00034363738393B3C3D3F4042434546484917
:100400004B4D4E50525456585A5C5E60626466685A
:100410006B6D6F727477797C7F00000000000000C4
:1004200000000001010102020203030404050506A5
:1004300006070808090A0B0B0C0D0E0F0F101112FE
:10044000131415161718191A1B1C1D1E1F21222301
:1004500024252628292A2B2D2E2F303233343637C7
:1004600038393B3C3D3F40414344454748494B4C6C
:100470004E4F505253545657585A5B5C5D5F606103
:100480006364656668696A6B6D6E6F7071737475AD
:10049000767778797A7B7C7D7F0002040507090BEB
:1004A0000D0E101213151618191B1C1D1F202122CA
:1004B000232425272829292A2B2C2D2E2F2F303194
:1004C00032323334343536363737383839393A3AC8
:1004D0003B3B3C3C3D3D3E3E3F3F40404141424234
:1004E000434344444545464647474848494A4A4BA2
:1004F0004C4C4D4E4F4F50515253545555565759E1
:100500005A5B5C5D5E5F616263656668696B6C6EB9
:100510007071737577797A7C7F00020407090B0D7F
:100520000F11131517181A1C1D1F2022232426270C
:1005300028292A2B2C2D2E2F3031323233343535C9
:1005400036363737383839393A3A3B3B3B3C3C3C16
:100550003D3D3D3D3E3E3E3F3F3F3F4040404141AF
:10056000414142424243434344444545464647474E
:10057000484849494A4B4C4C4D4E4F5051525354A8
:10058000555657585A5B5C5E5F6162646667696B7B
:100590006D6F717375777A7C7F10101016090909D9
:1005A000061010101602020207101010160902049D
:1005B0000F101010160102010610101012040A0F7D
:1005C000021010101704060106101010130407057E
:1005D000072042547799BB4D616A6F72202020201A
:1005E000202020202020202020202000203253778F
:1005F00088BB4861726D6F6E69635F4D696E6F7223
:10060000202020202020002032537799BB4D656C9C
:100610006F6469635F4D696E6F7220202020202017
:1006200020002032537788AA4E61747572616C5F26
:100630004D696E6F7220202020202020001032543F
:100640007698BA4368726F6D6174696320202020C8
:10065000202020202020200020426486A8AA57685D
:100660006F6C655F546F6E65202020202020202055
:1006700020200020427477999950656E7461746FE0
:100680006E69634D616A6F72202020202000003364
:100690005377A7AA50656E7461746F6E69634D6974
:1006A0006E6F7220202020200000335376A7AA50BE
:1006B000656E7461746F6E6963426C75657320203A
:1006C0002020200020225577A7AA50656E746174FF
:1006D0006F6E69634E65757472616C202020001026
:1006E00031647699AA4F637461746F6E69635F2891
:1006F000482D57292020202020002032536698BB07
:100700004F637461746F6E69635F28572D482920A9
:1007100020202020002042547799BB496F6E6961E8
:100720006E2020202020202020202020202020009B
:100730002032537799AA446F7269616E202020207D
:1007400020202020202020202020001031537788D6
:10075000AA506872796769616E20202020202020CD
:100760002020202020002042647699BB4C796469C7
:10077000616E2020202020202020202020202020EA
:10078000002042547799AA4D69786F6C7964696149
:100790006E2020202020202020202000203253778F
:1007A00088AA41656F6C69616E202020202020207E
:1007B000202020202020001031536688AA4C6F632F
:1007C0007269616E202020202020202020202020FF
:1007D00020002032537688BB416C67657269616E78
:1007E00020202020202020202020202000203253E4
:1007F0008698BB4172616269616E5F284129202041
:10080000202020202020200020425486A8AA4172C7
:10081000616269616E5F284229202020202020200B
:1008200020200030336486B8BB4175676D656E74F7
:10083000656420202020202020202020200020323D
:10084000538698BB4175785F44696D696E697368BA
:1008500065642020202020200020426486A8AA4130
:1008600075785F4175676D656E7465642020202022
:10087000202020001031647699AA4175785F446980
:100880006D696E6973686564202020202020001047
:10089000317377888842616C696E657365202020AA
:1008A0002020202020202020200000335376A7AADB
:1008B000426C7565732020202020202020202020DD
:1008C00020202020001041547788BB42797A616E45
:1008D00074696E6520202020202020202020200008
:1008E00000446476B7BB4368696E65736520202059
:1008F00020202020202020202020002042747799D2
:10090000994368696E6573655F4D6F6E676F6C695B
:10091000616E2020200020427477999944696174A7
:100920006F6E69632020202020202020202020209E
:10093000002032536698BB44696D696E69736865BF
:1009400064202020202020202020200010316476E8
:1009500099AA44696D696E69736865645F48616CE2
:10096000662020202020002032536698BB44696D09
:10097000696E697368656457686F6C652020202014
:1009800020001031646688AA44696D696E5F5768FB
:100990006F6C65546F6E652020202020002042542B
:1009A0007799AA446F6D696E616E745F37746820C1
:1009B00020202020202020001041547788BB446F45
:1009C00075626C655F4861726D6F6E69632020208F
:1009D00020200020225577A7AA45677970746961A5
:1009E0006E202020202020202020202020001031D8
:1009F000546688AA4569676874546F6E655F537062
:100A0000616E6973682020200010416486A8BA4591
:100A10006E69676D6174696320202020202020208A
:100A2000202020002042547799BB457468696F707C
:100A300069616E28415F726172617929202000200E
:100A400032537788AA457468696F7069616E284768
:100A500065657A5F457A656C29001031536688AA0E
:100A600048616C6644696D284C6F637269616E29D8
:100A700020202020002032536688AA48616C6644FA
:100A8000696D32284C6F637269616E2920202000E5
:100A90002032537799BB486177616969616E202084
:100AA0002020202020202020202000204254778851
:100AB000AA48696E64752020202020202020202054
:100AC0002020202020002042547788AA48696E64A4
:100AD000757374616E20202020202020202020208B
:100AE00000203273778888486972616A6F73686919
:100AF0002020202020202020202020003033647659
:100B000099AA48756E67617269616E5F4D616A6F1F
:100B1000722020202020002032637688BB48756E2A
:100B200067617269616E5F47797073792020202058
:100B300020001041547788BB48756E676172696107
:100B40006E5F472E5065727369616E2000203263BC
:100B50007688BB48756E67617269616E5F4D696EBC
:100B60006F722020202020001011557788884A615C
:100B700070616E6573655F28412920202020202048
:100B80002020002022557788884A6170616E657345
:100B9000655F28422920202020202020200020429C
:100BA000547699BB4A6170616E2E28496368696BFF
:100BB0006F737563686F2920002042547699BA4A92
:100BC0006170616E2E285461697368696B6963682E
:100BD0006F2920001031537799AA4A6176616E65BA
:100BE000736520202020202020202020202000109D
:100BF00032537799AA4A65776973682841646F6EA2
:100C000061694D616C616B6829001041547788AA55
:100C10004A65776973682841686162615F52616201
:100C2000626129200010316486A8BA4A6577697329
:100C300068284D6167656E5F41626F7429202000EE
:100C40002032737799994B756D6F69202020202091
:100C5000202020202020202020200020426486A860
:100C6000BA4C656164696E675F57686F6C65546FF5
:100C70006E65202020002042648698BB4C79646910
:100C8000616E5F4175676D656E746564202020201C
:100C9000002042647688AA4C796469616E5F4D6970
:100CA0006E6F7220202020202020200020326376CA
:100CB00099BB4C796469616E5F44696D696E697353
:100CC000686564202020002042546688AA4D616A2D
:100CD0006F725F4C6F637269616E2020202020204C
:100CE00020002032537788BB4D6F68616D6D65645D
:100CF000616E202020202020202020200010315351
:100D00007788BB4E656F706F6C6974616E202020B0
:100D100020202020202020001031537799BB4E65E1
:100D20006F706C6F6974616E5F4D616A6F722020C5
:100D30002020001031537788AA4E656F706F6C6960
:100D400074616E5F4D696E6F72202020200020322A
:100D5000647698BB4E696E655F546F6E655F5363D2
:100D6000616C652020202020001041546688AA4F25
:100D70007269656E74616C5F2841292020202020F3
:100D8000202020001041546699AA4F7269656E7444
:100D9000616C5F2842292020202020202020002074
:100DA00042647699AA4F766572746F6E6520202032
:100DB000202020202020202020002042647699AA94
:100DC0004F766572746F6E655F446F6D696E616EAC
:100DD000742020200010317377888850656C6F670D
:100DE0002020202020202020202020202020200023
:100DF0001041546688BB5065727369616E20202073
:100E000020202020202020202020002042646699DD
:100E1000AA50726F6D65746865757320202020205C
:100E20002020202020001041646699AA50726F6D26
:100E30006574686575734E656F706F6C6974616E0B
:100E4000002032537788AA507572655F4D696E6FC6
:100E500072202020202020202020200010416476B5
:100E600088BB50757276695F546865746120202074
:100E7000202020202020002032637699AA526F750E
:100E80006D616E69616E5F4D696E6F72202020200A
:100E900020001041548898995369785F546F6E65AB
:100EA0005F53796D6D6574726963616C00104154B4
:100EB0007788AA5370616E6973685F477970737938
:100EC000202020202020200010316486A8AA5375FD
:100ED0007065725F4C6F637269616E202020202004
:100EE0002020002032537788AA54686574612C5FF3
:100EF0004173617661726920202020202000204209
:100F0000547799BB54686574612C5F42696C617653
:100F1000616C202020202020001041547788BB5491
:100F2000686574612C5F4268616972617620202077
:100F3000202020001031537788AA54686574612CF2
:100F40005F4268616972617669202020202000205C
:100F500032537799AA54686574612C5F4B61666956
:100F6000202020202020202020002042647699BBD1
:100F700054686574612C5F4B616C79616E20202030
:100F800020202020002042547799AA54686574617B
:100F90002C5F4B68616D616A20202020202020009A
:100FA0001041647699BB54686574612C5F4D617221
:100FB00076612020202020202020001031637688B8
:100FC000BB546F64695F54686574612020202020E1
:100FD0002020202020001022557798994D2E42681D
:100FE00061766170726979615F343420202020203D
:100FF000001041547799AA4D2E4368616B72617657
:10100000616B616D5F3136202020200030335477D2
:10101000AABA4D2E4368616C616E6174615F3336AC
:10102000202020202020002042547788AA4D2E43E3
:10103000686172756B6573695F32362020202020ED
:10104000200020426476AABA4D2E4368697472610A
:101050006D626172695F3636202020200020326385
:101060007699BB4D2E446861726D61766174695FDB
:1010700035392020202020003033647688BB4D2E67
:1010800044686174757661726468616E695F36394F
:101090002020001041647698994D2E446861766155
:1010A0006C616D626172695F3439202020001031FB
:1010B000537788BB4D2E4468656E756B615F392030
:1010C0002020202020202020002042547799BB4D52
:1010D0002E446869726173616E6B617261626861EE
:1010E0007261200010316376AABA4D2E4469767978
:1010F000616D616E695F343820202020202000104F
:1011000041647699BB4D2E47616D616E617372616A
:101110006D615F353320202020001022557788BB79
:101120004D2E47616E616D757274695F33202020AA
:1011300020202020003033547788BB4D2E47616E2D
:101140006765796162687573616E695F333320002A
:101150002032537799BB4D2E47617572696D616E70
:101160006F686172695F32332020001031637698B6
:10117000994D2E476176616D626F6468695F3433A3
:101180002020202020001041547798994D2E47614F
:1011900079616B6170726979615F31332020202041
:1011A000001031537788AA4D2E48616E756D6174B9
:1011B000746F64695F38202020202000204254771B
:1011C00099AA4D2E486172696B616D62686F6A6998
:1011D0005F32382020200010415477AABA4D2E48A3
:1011E0006174616B616D626172695F3138202020CA
:1011F00020002032637699AA4D2E48656D61766194
:1012000074695F35382020202020202000102266BD
:101210007688AA4D2E4A616C61726E6176616D5F4F
:1012200033382020202020001022667699AA4D2EE7
:101230004A68616C61766172616C695F3339202044
:101240002020002032537799AA4D2E4A68616E6B98
:10125000617261646876616E695F31392000303394
:10126000647688AA4D2E4A796F74697376617275B7
:1012700070696E695F363820001041647688BB4D16
:101280002E4B616D617661726468616E695F3531A4
:10129000202020001022557798994D2E4B616E61C9
:1012A0006B616E67695F31202020202020200020A4
:1012B00042647698994D2E4B616E74616D616E69D2
:1012C0005F3631202020202020002032537799AA39
:1012D0004D2E4B68617261686172617072697961EB
:1012E0005F323220002032537788BB4D2E4B69721B
:1012F0006176616E695F323120202020202020003D
:101300001031537799BB4D2E4B6F6B696C617072C6
:101310006979615F31312020202000303364769973
:10132000BB4D2E4B6F73616C616D5F373120202098
:101330002020202020002042647688BB4D2E4C6166
:1013400074616E67695F36332020202020202020C2
:10135000001022557799BB4D2E4D616E61766174F8
:10136000695F352020202020202020002042547753
:1013700098994D2E4D61726172616E6A616E695FFE
:10138000323520202020001041547798994D2E4D61
:101390006179616D616C6176616761756C615F3106
:1013A00020002042647699BB4D2E4D656368616BC9
:1013B000616C79616E695F363520202000204254CF
:1013C00077AABA4D2E4E6167616E616E64696E696F
:1013D0005F333020202020001041647688AA4D2EF3
:1013E0004E616D616E61726179616E695F35302049
:1013F0002020003033647699AA4D2E4E6173696BBC
:101400006162687573616E695F3730202000203239
:10141000537788AA4D2E4E6174616268616972616A
:1014200076695F3230202020001031537799AA4D21
:101430002E4E6174616B6170726979615F31302029
:10144000202020001022667699AA4D2E4E617661EA
:101450006E6974616D5F34302020202020200020D0
:10146000326376AABA4D2E4E6974696D6174695FF4
:10147000363020202020202020001022667699BBC4
:101480004D2E506176616E695F343120202020201E
:1014900020202020003033547788AA4D2E526167D7
:1014A000617661726468616E695F3332202020006A
:1014B00010226676AABA4D2E5261676875707269FD
:1014C00079615F3432202020202000104164769919
:1014D000AA4D2E52616D6170726979615F3532205B
:1014E00020202020200030336476AABA4D2E52618D
:1014F00073696B6170726979615F373220202020D7
:10150000001022557788AA4D2E5261746E616E6765
:10151000695F322020202020202020002042647695
:1015200088AA4D2E5269736162686170726979612F
:101530005F36322020200010315377AABA4D2E5248
:10154000757061766174695F31322020202020201F
:1015500020001031637699AA4D2E53616476696438
:1015600068616D617267696E695F34200010226680
:101570007698994D2E53616C6167616D5F333720AA
:1015800020202020202020002032637688AA4D2EA3
:1015900053616E6D756B686170726979615F353624
:1015A0002020002042547788BB4D2E536172617316
:1015B000616E67695F3237202020202020001031C3
:1015C000537798994D2E53656E61766174695F37D4
:1015D0002020202020202020002032637688BB4D50
:1015E0002E53696D68656E6472616D6164687961BE
:1015F0006D6120001031637688BB4D2E5375626893
:101600006170616E7475766172616C692020003062
:1016100033647698994D2E5375636861726974725C
:10162000615F36372020202020003033547799BB6B
:101630004D2E53756C696E695F3335202020202054
:1016400020202020001041547799BB4D2E537572F5
:1016500079616B616E74616D5F31372020202000ED
:101660001022667699BB4D2E53757661726E616E4F
:1016700067695F343720202020200020326376986D
:10168000994D2E5379616D616C616E67695F353577
:1016900020202020200010225577AABA4D2E546118
:1016A0006E61727570695F36202020202020202016
:1016B000002042647699AA4D2E5661736368617367
:1016C000706174695F3634202020200030335477F5
:1016D00099AA4D2E56616761646869737661726973
:1016E0005F3334202020003033547788AA4D2E56A3
:1016F000616B756C6162686172616E616D5F3134DE
:1017000020001022557799AA4D2E56616E61737094
:101710006174695F34202020202020200020325373
:1017200077AABA4D2E566172756E617072697961D1
:101730005F3234202020200030336476AABA4D2E48
:1017400056697376616D626172695F35342020205D
:101750002020003033547798994D2E59616761707D
:10176000726979615F3331202020202020002D30E4
:10177000313233343536373839002043432320445F
:101780004423204520464623204747232041412328
:101790002042003C736176696E6720736C6F742021
:1017A0004E4E3E0000591800000000000001D519FF
:1017B00000000000000002781A0000000000000392
:1017C000621900000000000004B71A0000000000C9
:1017D00000050F1900000000000006351A00000087
:1017E00000000007081B00000000000008551A0058
:1017F000000000000009A3190000000000000AFA20
:10180000190000000000000B8A1800000000000012
:101810000CAA180000000000000DD71800000000FE
:1018200000000E49180000000000004D6964694284
:1018300055442076302E393300496E697469616CE5
:10184000697A696E672E2E2E009227972798279A1D
:1018500027A227AB27AE27AD270D280E283729232F
:1018600028E028C12856280F287878006F6E005B82
:101870005965735D205B4E6F5D00496E697420741D
:1018800068697320736C6F743F006F297029F829A1
:1018900071297F299529CD2997294D4944492052FD
:1018A00058206368616E6E656C000C2A0D2A0E2A42
:1018B0001C2A2A2A432A462A452A65787465726EAC
:1018C000616C00696E7465726E616C004D494449CB
:1018D00020636C6F636B007B2A7C2AEB2A7D2A8B4A
:1018E0002AA32AA62AA52A626F74680073656E640B
:1018F0000072656365697665006E6F6E65004D49BF
:101900004449206374726C206368616E676500FFF0
:101910002A002B532C012B112CEA2B8E2B0F2B2D55
:101920002D733173327333683168326833773177AE
:1019300032005363656E65206166746572746F75FD
:101940006368005B536176655D205B4C6F61645D2D
:101950000044656661756C742061667465727463B9
:101960006800792C7A2C962D7B2CCE2C6F2D212D76
:10197000892C2D2D005363656E65206368616E6E42
:10198000656C73005B536176655D205B4C6F6164D1
:101990005D0044656661756C74206368616E6E6598
:1019A0006C7300BC2DC82DC92DDE2DE02D652E14C5
:1019B0002E132E50434343415450420070636363DF
:1019C00061747062005363656E65204E2066696CB9
:1019D0007465727300712E722E732E752EBE2EB624
:1019E0002E782E772E2D2D006F6E005363656E6559
:1019F000206B657920686F6C6400EC2E002FAF308F
:101A0000032F502FA030E12FDE2F6F666600706726
:101A10006D3A006F6666202000626E6B3A00626B62
:101A20003A00623A005363656E65204E2070726F13
:101A30006772616D000C311331D831183196318CD9
:101A4000314D3126315363656E6520726F6F74209E
:101A50006E6F74650000320C32BF320F3288327CF8
:101A6000321E321D326E6F6E65005363656E6520E7
:101A70004E207363616C6500003301331934023307
:101A80005B33F233B03310335363656E6520747289
:101A9000616E73706F7365005B536176655D205B8B
:101AA0004C6F61645D0044656661756C742074728E
:101AB000616E73706F7300483449344D354A347722
:101AC000342635CA3458342D2D733173327333684C
:101AD000316832683377317732005363656E652041
:101AE00076656C6F63697479005B536176655D2020
:101AF0005B4C6F61645D0044656661756C74207653
:101B0000656C6F6369747900733585359F368C35E4
:101B1000EC35933634369A355363656E65204E2026
:101B20007A6F6E650000FD0DDC10ED18EE18951A49
:101B3000D31AD41A26218B2311241FBECFEFD8E04D
:101B4000DEBFCDBF11E0A0E0B1E0E8E1F1E702C007
:101B500005900D92A431B107D9F716E0A4E1B1E0E8
:101B600001C01D92A331B107E1F71BE1C8E3DBE13E
:101B700004C02297FE010E948638C632D107C9F7F9
:101B80000E94561B0C944C370C9400008FB7F894AD
:101B900020911401309115014091160150911701C7
:101BA0008FBFB901CA0108951F920F920FB60F920D
:101BB00011242F933F934F935F936F937F938F9352
:101BC0009F93AF93BF93EF93FF93E0911901F0912F
:101BD0001A01309709F00995FF91EF91BF91AF91EC
:101BE0009F918F917F916F915F914F913F912F9135
:101BF0000F900FBE0F901F9018950895A0E0B0E0D1
:101C0000E4E0FEE00C944F38D62EC42EE22EA0E085
:101C1000B0E0BC01CD012AE030E040E050E00E949D
:101C2000CC379B01AC012D0D311D411D511D64E9C7
:101C300075E387E790E00E942B3849015A01089428
:101C400081089108A108B108DD24CC0CDD1C8DE8C9
:101C500091E0C80ED91EFF2400E010E0C501B401D8
:101C6000A80197010E94CC372B013C01C0E0D0E0D5
:101C7000F601259134912C0F3D1FF9016591749166
:101C8000882777FD8095982F8E01005E1E4FA30157
:101C900092010E94CC37BC01992777FD9095892F3E
:101CA000680D791DF801718360832296C032D105D9
:101CB000F9F6CDB7DEB7E0E10C946B38089580916A
:101CC0005201813011F480935601089508950895CA
:101CD00090E0FC01EE0FFF1FE80FF91FEE0FFF1F52
:101CE000EE0FFF1FE55AFE4FE081EE2311F06E2F3D
:101CF0006150862F089590E0FC01EE0FFF1FE80F62
:101D0000F91FEE0FFF1FEE0FFF1FE55AFE4FE38195
:101D1000EE2399F0E93078F4F0E0EE0FFF1FEF5F6B
:101D2000FE4F0190F081E02DE60FF11D64916623D6
:101D300021F461E002C06E2F6850862F089590E074
:101D4000FC01EE0FFF1FE80FF91FEE0FFF1FEE0F54
:101D5000FF1FE15AFE4FE081EE2391F0E93060F47D
:101D6000F0E0EE0FFF1FEF5FFE4F0190F081E02DDE
:101D7000E60FF11D649104C0662311F06E2F6850C8
:101D8000862F0895E4E6F1E090E0808184FD9F5F76
:101D90003C9681E0E439F807C1F7892F0895109245
:101DA0005F0110926B0110927701109283010895E8
:101DB0008CE3809365018093710180937D01809312
:101DC0008901089590E0FC01EE0FFF1FE80FF91F55
:101DD000EE0FFF1FEE0FFF1FE55AFE4F83818613A4
:101DE0006383089590E0FC01EE0FFF1FE80FF91FD9
:101DF000EE0FFF1FEE0FFF1FE15AFE4F808186138B
:101E0000608308951F93182FA0918B01B091E10179
:101E10006A2F615070E050E037C00196FC01EE0F70
:101E2000FF1FEE0FFF1FE80FF91FE557FE4F8081E0
:101E30002F5F90E0261788F3FC01EE0FFF1FEE0FD7
:101E4000FF1FE80FF91FE557FE4F4181812F90E0FA
:101E50009C01220F331F280F391FF901EE0FFF1FBE
:101E6000EE0FFF1FE55AFE4F8181481758F0F90128
:101E7000EE0FFF1FEE0FFF1FE35AFE4F8081841706
:101E800008F07F5F5F5F61505A1718F48B2F20E0D6
:101E9000D0CF872F1F910895CF93DF93EC01242F8C
:101EA000CA5ADF4F7881C655D04090E022C0472FF4
:101EB00050E0FA01EE0FFF1FEE0FFF1FE40FF51FBA
:101EC000EC0FFD1F8181861739F48381821721F47D
:101ED00084818823A9F010C0CA010196FC01EE0F8D
:101EE000FF1FEE0FFF1FE80FF91FEC0FFD1F972FCD
:101EF00070817723E1F602C08150848380E069C05D
:101F00009A012F5F3F4F9923E9F0892F90E00196C6
:101F1000DC01AA0FBB1FAA0FBB1FA80FB91FAC0F74
:101F2000BD1FF901EE0FFF1FEE0FFF1FE20FF31FA2
:101F3000EC0FFD1F80818C932881FE01E95AFF4F31
:101F400090E027C0F901EE0FFF1FEE0FFF1FE20F19
:101F5000F31FEC0FFD1F8081CA5ADF4F8883C655DF
:101F6000D040EACF8191871799F4692F08C0FE010C
:101F7000E20FF31FE85AFF4F808182936F5F262F95
:101F800030E0888190E001972817390784F303C077
:101F90009F5F921738F3CA010196FC01EE0FFF1FF5
:101FA000EE0FFF1FE80FF91FEC0FFD1F1082FA0163
:101FB000EE0FFF1FEE0FFF1FE40FF51FEC0FFD1FCD
:101FC0008FEF8183128213821482888181508883EB
:101FD00081E0DF91CF910895EF92FF920F931F93CD
:101FE000CF93DF93EC01F62EE42E022FCA5ADF4F77
:101FF0008881C655D04025C0E82FF0E0DF01AA0F48
:10200000BB1FAA0FBB1FAE0FBF1FAC0FBD1F11968A
:102010008C9111978F1549F413968C911397801713
:1020200021F414961C911F5F0FC0CF010196FC0193
:10203000EE0FFF1FEE0FFF1FE80FF91FEC0FFD1F44
:1020400080818823C9F610E0CE016F2D402F0E94B9
:102050004C0F8881803171F4FE0191E082858823E4
:1020600011F4668140859F5F35969131B9F7CE01B5
:102070000E944C0FFE0121E086818F3F11F4522F08
:1020800004C02F5F35962131B9F7252F30E0C90103
:102090000196FC01EE0FFF1FEE0FFF1FE80FF91F67
:1020A000EC0FFD1FDE01AA5ABF4F8C918083F9010E
:1020B000EE0FFF1FEE0FFF1FE20FF31FEC0FFD1FD0
:1020C000F182E282038314835C934881BE01695AE2
:1020D0007F4F20E030E024C0D901FB018191BF0196
:1020E00090E0FC01EE0FFF1FEE0FFF1FE80FF91F3E
:1020F000EC0FFD1F81812F5F3F4FF81688F408C059
:10210000FE01E40FF11DEA5AFF4F81918083415097
:102110001417B0F3AC0FBD1FA95ABF4F5C930BC08F
:10212000122F2417C8F2552331F0FE01E40FF11DE0
:10213000E95AFF4F508388818F5F8883CDB7DEB720
:10214000E6E00C947538282F8091980390919703BE
:102150008150891B8F77C1F380919703E82FF0E0BE
:10216000EC5BFB4F20838F5F8F77809397030895FD
:10217000CF93DF93DC011C920696FC0180E5EF0112
:1021800019928A95E9F7CD01885A9F4FFC0180E1A9
:10219000EF0119928A95E9F7AA5ABF4F1C92A655EA
:1021A000B040FD0190E08FEF81839F5F35969131C4
:1021B000D1F7DF91CF9108958BE891E00E94B8109C
:1021C00083EF91E00E94B8108BE592E00E94B81076
:1021D00083EC92E00E94B8108BE293E00E94B8106A
:1021E00008950E94251A80911B018823B9F410924A
:1021F0001C0110921D0110921E0110921F0181E01E
:1022000080931B01109242011092430180912001A2
:1022100090912101909341018093400108950F9383
:102220001F93082F1CC08091970390919803891BDE
:102230008F77C9F380919803E82FF0E0EC5BFB4FB8
:1022400010818F5F8F7780939803183F11F00E9461
:10225000CE1A8091C00085FFFCCF1093C6008091FC
:102260009803909197038150891B8F778017D8F23C
:102270001F910F9108950F931F93CF93DF93182F02
:10228000EB01042F842F0E940F11812F0E94A310B5
:10229000002341F088810E94A310013019F0898148
:1022A0000E94A310DF91CF911F910F910895582F95
:1022B000282F30E02F7030708091510190E0281766
:1022C000390719F0852F0E943B110895FF920F9353
:1022D0001F93182F062FF42E83E00E940F11812FD9
:1022E0000E94A310802F0E94A3108F2D0E94A31084
:1022F0001F910F91FF9008950F931F9300E0102FEF
:10230000106B812F68E740E00E946611812F6BE718
:1023100040E00E9466110F5F003189F71F910F9115
:1023200008951F93CF93DF93C82FD0E088E690E005
:10233000C89FF001C99FF00DD89FF00D1124ED50FA
:10234000FE4F8081882309F453C010E03FC0EA5A51
:10235000FF4F8081322F3150311B20E018C0019691
:10236000FC01EE0FFF1FEE0FFF1FE80FF91F88E6BD
:1023700090E0AC01C49FC001C59F900DD49F900D0B
:102380001124E80FF91FED50FE4F80812F5F90E080
:10239000231728F3FC01EE0FFF1FEE0FFF1FE80FBE
:1023A000F91F88E690E09C01C29FC001C39F900D79
:1023B000D29F900D1124E80FF91FED50FE4F83813D
:1023C0008068618142810E9466111F5F88E690E00B
:1023D000C89FF001C99FF00DD89FF00D1124ED505A
:1023E000FE4F2081121708F4B2CFCF010E94B8101F
:1023F000DF91CF911F9108951F9310E0812F0E94CC
:1024000091111F5F1430D1F71F9108951F93CF933F
:10241000DF93282F162F90E0EC01CC0FDD1FC80FA3
:10242000D91FCC0FDD1FCC0FDD1FC55ADE4F8B85AA
:10243000861721F0822F0E9491111B87DF91CF9187
:102440001F91089560E00E94061208951F93CF9394
:10245000DF93282F162F90E0EC01CC0FDD1FC80F63
:10246000D91FCC0FDD1FCC0FDD1FC55ADE4F8A856B
:10247000861721F0822F0E9491111A87DF91CF9148
:102480001F910895CF93DF93282F90E0EC01CC0F9C
:10249000DD1FC80FD91FCC0FDD1FCC0FDD1FC55AA4
:1024A000DE4F9985892F8072861759F0662339F49B
:1024B000822F0E94911189858F7D898702C0906249
:1024C0009987DF91CF9108951F93CF93DF93282FA2
:1024D000162F90E0EC01CC0FDD1FC80FD91FCC0FD9
:1024E000DD1FCC0FDD1FC35ADE4F8881861721F018
:1024F000822F0E9491111883DF91CF911F9108952F
:102500001F93CF93DF93282F162F90E0EC01CC0F71
:10251000DD1FC80FD91FCC0FDD1FCC0FDD1FC55A23
:10252000DE4F8981861721F0822F0E949111198335
:10253000DF91CF911F9108951F93CF93DF93282FA1
:10254000162F992787FD9095EC01CC0FDD1FC80F42
:10255000D91FCC0FDD1FCC0FDD1FC55ADE4F8D817B
:10256000861721F0822F0E9491111D83DF91CF9158
:102570001F9108951F93CF93DF93282F162F90E07C
:10258000EC01CC0FDD1FC80FD91FCC0FDD1FCC0F06
:10259000DD1FC55ADE4F8881811721F0822F0E94EE
:1025A00091111883DF91CF911F9108951F93CF93BD
:1025B000DF93C4E6D1E010E088818F7D8883812F8E
:1025C0000E9491111F5F2C961430B1F7DF91CF91CB
:1025D0001F910895282F30E0F901EE0FFF1FE20F41
:1025E000F31FEE0FFF1FEE0FFF1FE55AFE4F918501
:1025F000907F91870E9491110895482F50E0ABE59C
:10260000B1E09A01220F331F240F351F220F331F11
:10261000220F331FFD01E20FF31F1182A20FB31F20
:102620009FE712969C930E94911108951F93CF9358
:10263000DF9380935A0190E0FC01EE0FFF1FE80F3B
:10264000F91FEE0FFF1FEE0FFF1FE55AFE4F8185AA
:10265000806181876623B1F0C4E6D1E010E080910B
:102660005A01181759F0988194FF08C0892F8F7E5E
:10267000888395FD03C0812F0E9491111F5F2C96C6
:10268000143069F7DF91CF911F9108950F931F9335
:10269000CF93DF93182F062FC82FD0E0FE01EE0F47
:1026A000FF1FEC0FFD1FEE0FFF1FEE0FFF1FE55A80
:1026B000FE4F818584FF19C00E94C20E813021F037
:1026C00080914304882389F410935A01FE01EE0F90
:1026D000FF1FEC0FFD1FEE0FFF1FEE0FFF1FE55A50
:1026E000FE4F81858F7E818704C0812F602F0E94DD
:1026F0001613DF91CF911F910F910895962F682F98
:102700006F779F77842F8069492F0E946611089503
:10271000FF920F931F93CF93DF93E091EA035EC084
:102720000E2F10E0F801EE0FFF1FEE0FFF1FE00F5E
:10273000F11FE656FC4F8381882309F052C0608167
:102740006E3F09F441C0F0905101828190E0FC019C
:10275000EE0FFF1FE80FF91FEE0FFF1FEE0FFF1F19
:10276000E55AFE4FE081EE2311F0FE2EFA94E801C7
:10277000CC0FDD1FCC0FDD1FC00FD11FC656DC4FA5
:102780004981442389F08F2D80690E9466118A81D6
:1027900028E6829FC00111248D509E4F6881498197
:1027A0002F2D0E94EC0F10C08F2D806840E00E94FA
:1027B00066118A8128E6829FC00111248D509E4FA8
:1027C00068814F2D0E944C0FF801EE0FFF1FEE0F96
:1027D000FF1FE00FF11FE656FC4FE481EE2309F0E6
:1027E0009FCF0E94EE19CDB7DEB7E5E00C947638A6
:1027F00002C00E948813809199038823D1F708951D
:102800000E94881380915601882359F080915501C8
:102810008F5F8093550190915801891710F01092A5
:102820005501089580915201813031F48091560113
:10283000882311F00E9400140895EF92FF920F93E5
:102840001F93CF93DF93F82E8B0180915101F816DF
:1028500039F5CB01880F892F881F990B9195E82EA8
:10286000CBE5D1E0898584FF16C083FD14C090912B
:1028700057018981981778F08A81891760F08881DB
:10288000882311F48F2D01C08150602F6F77806EE7
:102890004E2D0E9466112C9681E0CB38D80711F797
:1028A000CDB7DEB7E6E00C9475380F931F93182F61
:1028B000062F82E00E940F11812F0E94A310802F0B
:1028C0000E94A3101F910F910895EF92FF920F9312
:1028D0001F93CF93DF93E0905101C82FD0E0FE010A
:1028E000EE0FFF1FEC0FFD1FEE0FFF1FEE0FFF1F80
:1028F000E55AFE4FE081EE2311F0EE2EEA9490E0CF
:10290000FC01EE0FFF1FE80FF91FEE0FFF1FEE0F88
:10291000FF1FE55AFE4F868197810097B9F08C0121
:102920000150104090EBF92EFE28A801440F452FCE
:10293000441F550B51954F778F2D60E00E94661113
:102940000F778F2D60E2402F0E946611FE01EE0F7F
:10295000FF1FEC0FFD1FEE0FFF1FEE0FFF1FE55ACD
:10296000FE4F6085662331F061506F778E2D806C4D
:102970000E945514CDB7DEB7E6E00C9475381F936E
:1029800010E0812F0E9465141F5F1430D1F71F9152
:1029900008950F931F93CF93DF93182F062F8091E5
:1029A00051011817F1F4CBE5D1E0898584FF14C0FB
:1029B00080FD12C0909157018981981768F08A8133
:1029C000891750F08881882311F4812F01C081502C
:1029D000806C602F0E9455142C9681E0CB38D8076C
:1029E00021F7DF91CF911F910F910895EF92FF9200
:1029F0000F931F93CF93DF93F82EE62E8091510112
:102A0000F81621F5CBE5D1E000E0898584FF1AC0F6
:102A100082FD18C0909157018981981798F08A819A
:102A2000891780F08881882311F41F2D02C0182F88
:102A30001150802F6E2D0E949F0E682F812F806D68
:102A40000E9455140F5F2C960430F9F6CDB7DEB70F
:102A5000E6E00C947538982F8091C00085FFFCCF7C
:102A60009093C600983F11F00E94CE1A089580916D
:102A70005601882361F5809152018823D1F4109288
:102A80001C0110921D0110921E0110921F0181E085
:102A900080931B011092420110924301809120010A
:102AA0009091210190934101809340018AEF0E940F
:102AB0002B15E0910101F0E0E859FF4FE491E0931C
:102AC0005801E150E093550181E08093560108954B
:102AD00080915201813011F40E9437150895809140
:102AE0005601882359F00E94F813809152018823DF
:102AF00019F48CEF0E942B1510925601089582371D
:102B000021F0833739F080E00895662349F00E9470
:102B10006F1504C0662321F00E94371581E00895E7
:102B200081E00895FF920F931F93CF93DF93F82EC8
:102B3000062F142F80915101F816B9F5E0919503F5
:102B4000F0919603309751F18F2D0995882331F13B
:102B50002CC0802F612F0E947F15882319F125C07A
:102B6000898584FF15C081FD13C09091570189812B
:102B7000981770F08A81891758F08881882311F49A
:102B80008F2D01C08150806B602F412F0E946611F4
:102B90002C9681E0CB38D80719F707C080915901EE
:102BA00080FDD7CFCBE5D1E0DBCFCDB7DEB7E5E019
:102BB0000C94763880915201813011F40E946F1587
:102BC000089580915201882351F480915601882301
:102BD00031F088EF0E942B150E9400140895809117
:102BE0005601882331F480919903882311F00E94C3
:102BF000881308958091000190E060E040915301B6
:102C0000209154010E94FE0D08950E94FA15109221
:102C10001C0110921D0110921E0110921F0181E0F3
:102C200080931B0110924201109243018091200178
:102C3000909121019093410180934001109256019F
:102C4000109294031092930310929603109295039E
:102C500080910101E8E6F0E0E80FF11DE491E093D6
:102C600058010895A0E5B0E0E8E3F6E10C945D3882
:102C7000682F8093440180E58983DE011296E5E4A4
:102C8000F1E08CE001900D928150E1F780915101CB
:102C90008E87809100018F8780910101888B8091C0
:102CA0005201898B809153018A8B809154018B8BC7
:102CB000809159018C8BDE019196EBE5F1E080E388
:102CC00001900D928150E1F7CE0101960E94B41D52
:102CD000C05BDF4FE2E00C947938A0E5B0E0E3E7B9
:102CE000F6E10C945C38182F809344010E94FC118B
:102CF00080E58983CE010196612F0E94661EA5E4BE
:102D0000B1E0FE0132968CE001900D928150E1F726
:102D10008E85809351018F85809300010E94FA1562
:102D2000E889E0930101F0E0E859FF4FE491E09376
:102D300058018989809352018A89809353010E94A6
:102D4000FA158B89809354010E94FA158C8980931F
:102D50005901ABE5B1E0FE01B19680E301900D921F
:102D60008150E1F70E94BF14C05BDF4FE3E00C9499
:102D700078380E94051680E00E946D160895A0E53F
:102D8000B0E0E5ECF6E10C945B3880E589838E01D8
:102D90000F5F1F4FC8010E94C71DC8016091440109
:102DA0000E94B41D809144010E946D16C05BDF4FEC
:102DB000E4E00C947738A0E5B0E0E1EEF6E10C94A5
:102DC0005C3880E58983CE0101960E94C71D10E022
:102DD000CE010196612F0E94B41D1F5F1436C1F70A
:102DE000C05BDF4FE3E00C9478380E94E5190E9445
:102DF000DB1680E00E946D1608951F93182F90E057
:102E0000FC01EE0FFF1FE80FF91FEE0FFF1FEE0F83
:102E1000FF1FE55AFE4F8385882329F081504285A4
:102E20000E945C1D682F812F992787FD9095FC01DA
:102E3000EE0FFF1FE80FF91FEE0FFF1FEE0FFF1F32
:102E4000E55AFE4F8581882379F0992787FD909573
:102E5000860F911D8038910514F08FE790E0BC013A
:102E600097FF02C060E070E0862F1F910895AF9237
:102E7000BF92DF92EF92FF920F931F93DF93CF9356
:102E80000F92CDB7DEB7F82ED62EE42E80915101E9
:102E9000F81681F53BE5A32E31E0B32E00E0F501F5
:102EA000818584FF20C082FD1EC0909157018181E1
:102EB0009817C8F082818917B0F08081882311F4B7
:102EC0001F2D02C0182F1150802F6D2D0E94FD164E
:102ED0008983802F6E2D0E949F0E482F812F806A3C
:102EE00069810E9466110F5F8CE090E0A80EB91E08
:102EF0000430A9F60F90CF91DF911F910F91FF90B1
:102F0000EF90DF90BF90AF900895A0E0B0E0EBE8C5
:102F1000F7E10C945338982EA62E842E80915101FF
:102F2000981609F094C08BE891E0492D0E944C0F4F
:102F30000BE511E069E4E62E62E0F62EC0E0D0E099
:102F4000BC2EF801818584FF77C08181A81608F422
:102F500073C082818A1508F46FC04081442311F444
:102F6000D92C02C0D42EDA948B2D6A2D0E94FD1626
:102F7000C82E8B2D682D0E947B0EB82EF8018185FE
:102F800085FD1AC088E690E09C01C29FC001C39FE6
:102F9000900DD29F900D11248D509E4F6C2D4D2D74
:102FA0000E944C0F882309F447C08D2D80686C2D3A
:102FB0004B2D0E94661140C0F7013BC0E82FF0E0A6
:102FC000DF01AA0FBB1FAA0FBB1FAE0FBF1F88E6F2
:102FD00090E09C01C29FC001C39F900DD29F900DB5
:102FE0001124A80FB91FAD50BE4F11968C911197A7
:102FF0008C1541F413968C9113978D1519F4129634
:10300000BC921AC0CF010196FC01EE0FFF1FEE0F1C
:10301000FF1FE80FF91F88E690E09C01C29FC001E6
:10302000C39F900DD29F900D1124E80FF91FED5012
:10303000FE4F8081882311F62196045F1F4F88E69A
:1030400090E0E80EF91EC430D10509F079CFCDB774
:10305000DEB7ECE00C946F38A0E0B0E0E2E3F8E11A
:103060000C945338982EA62E842E809151019816D8
:1030700009F0AEC0E0919303F0919403309709F406
:1030800095C0892D0995882309F490C0A1C0BC2E54
:10309000F801918594FF7EC08181A81608F47AC05A
:1030A00082818A1508F476C095FF08C08C2F0E9493
:1030B000020F813019F48C2F0E949111F8012081A8
:1030C000222311F4F92C02C0F22EFA948B2D6A2DD2
:1030D0000E94FD16E82E8B2D682D0E947B0EB82EC7
:1030E000F60137C0E82FF0E0DF01AA0FBB1FAA0FDF
:1030F000BB1FAE0FBF1F88E690E09C01C29FC001BE
:10310000C39F900DD29F900D1124A80FB91FAD50F1
:10311000BE4F11968C9111978E1521F413968C91B8
:103120008F15D9F0CF010196FC01EE0FFF1FEE0FB6
:10313000FF1FE80FF91F88E690E09C01C29FC001C5
:10314000C39F900DD29F900D1124E80FF91FED50F1
:10315000FE4F8081882331F606C08F2D80686E2D4A
:103160004B2D0E9466118F2D80696E2D4B2D0E9474
:10317000661188E690E0FC01CE9FC001CF9F900DC4
:10318000DE9F900D11248D509E4F6E2D4B2D2F2DB7
:103190000E94EC0F2196045F1F4F28E630E0C20E1C
:1031A000D31EC430D10509F072CF12C0A0925701CE
:1031B0008BE891E06A2D482D292D0E94EC0F0BE53C
:1031C00011E079E4C72E72E0D72EC0E0D0E05FCFE7
:1031D000CDB7DEB7ECE00C946F380895089560E148
:1031E00070E044E050E00E949B3708956CE070E08E
:1031F00044E050E00E949B37089568E070E044E0AE
:1032000050E00E949B37089564E070E044E050E095
:103210000E949B3708950F931F93182F092F60E189
:1032200070E044E050E00E948537212F302FC90123
:10323000FC0190E08081883808F010829F5F319611
:103240009430C1F71F910F9108950F931F93182F7A
:10325000092F6CE070E044E050E00E948537212F98
:10326000302FC901FC0190E08081883808F010827D
:103270009F5F31969430C1F71F910F9108950F937E
:103280001F93182F092F68E070E044E050E00E947F
:103290008537212F302FC901FC0190E08081805DAE
:1032A000813608F010829F5F31969430B9F71F91F4
:1032B0000F9108950F931F93182F092F64E070E06A
:1032C00044E050E00E948537212F302FC901FC01D6
:1032D00090E08081813108F010829F5F31969430B8
:1032E000C1F71F910F910895A8E0B0E0EAE7F9E176
:1032F0000C945B3880E090E00E949537805F9E4D93
:1033000019F000E010E009C082E090E00E949537DB
:103310008C018431910509F454C080E090E060EFA5
:103320007EED0E94BD370330110518F400E010E077
:1033300002C00250104082E090E064E170E00E9420
:10334000BD370330110528F0C8010297843091057C
:1033500048F41D821E821F821886CE0105960E94A7
:10336000041907C0059728F0C80106978430910515
:1033700048F419821A821B821C82CE0101960E9497
:10338000FD1807C0059728F0C8010A9784309105F9
:1033900048F41D821E821F821886CE0105960E9467
:1033A000F61807C0059728F00E501040043011059C
:1033B00040F41D821E821F821886CE0105960E944F
:1033C000EF182896E4E00C94773880E090E06FE006
:1033D00071E20E94BD370E947419089530919903DB
:1033E0002091EA0304C08FEF80832481392F822F3C
:1033F00090E0FC01EE0FFF1FEE0FFF1FE80FF91F1B
:10340000E656FC4F8381882329F03093990320935B
:10341000EA0318C0932F9150222329F73093990380
:103420001092EA030895822F90E0FC01EE0FFF1F37
:10343000EE0FFF1FE80FF91FE656FC4F8381815006
:1034400083832481222379F70895982FEFE9F3E00D
:1034500071E080818F3F29F07F5F35967031C9F729
:103460000895809199038F5F80939903A72FB0E00F
:10347000FD01EE0FFF1FEE0FFF1FEA0FFB1FE656C9
:10348000FC4F90836183228343835091EA03552349
:1034900071F0852F90E0FC01EE0FFF1FEE0FFF1F74
:1034A000E80FF91FE656FC4F8381481768F4FD01C9
:1034B000EE0FFF1FEE0FFF1FEA0FFB1FE656FC4F3C
:1034C00054837093EA030895252F30E0F901EE0F3D
:1034D000FF1FEE0FFF1FE20FF31FE656FC4F548154
:1034E000552371F0852F90E0FC01EE0FFF1FEE0FCA
:1034F000FF1FE80FF91FE656FC4F8381481720F79E
:10350000FD01EE0FFF1FEE0FFF1FEA0FFB1FE65638
:10351000FC4F5483F901EE0FFF1FEE0FFF1FE20F68
:10352000F31FE656FC4F7483089508958AE993E0EB
:103530006FEF70E040E550E00E947E371092EA03A2
:10354000109299030895259A2D981092EC03239ACE
:103550002B981092EB0308958091EC03882351F08F
:103560008091EC0381508093EC038091EC038823DD
:1035700009F42D988091EB03882351F08091EB039F
:1035800081508093EB038091EB03882309F42B98FF
:1035900008952D9A82E08093EC0308952B9A82E09F
:1035A0008093EB03089508951092ED031092F103B8
:1035B0001092F20308950F931F93789401EC10E09A
:1035C000F80110820E94961AE1E8F0E08081887F7D
:1035D00081608083109280008BE080838EE699E189
:1035E000909389008093880087EB9CE090938B00F8
:1035F00080938A00EFE6F0E0808182608083E1EBD7
:10360000F0E08081887F82608083E0EBF0E0808161
:103610008C7F81608083E0E7F0E08081816080833F
:103620008AEE94E060E270E040E250E00E947E3773
:1036300087EC94E06FE370E040E250E00E947E3758
:103640001092C6041092E7041092C5048FEF809385
:10365000E8048093C4041092E9040E941620E0EC70
:10366000F0E080818D7F80831092C50087E2809397
:10367000C400F801808188608083808180618083BC
:1036800088E790E060E040E020E00E94FE0D1092AC
:1036900042011092430110921B010E94A31A0E9442
:1036A000B9160E9411271F910F91089584B714BE77
:1036B00080916000886180936000109260000E9499
:1036C000DB1A0E941726FDCF1F920F920FB60F92A2
:1036D00011242F933F934F935F936F937F938F9317
:1036E0009F93AF93BF93EF93FF938091400190918D
:1036F00041010196A0E0B0E020911C0130911D0134
:1037000040911E0150911F01280F391F4A1F5B1F56
:1037100020931C0130931D0140931E0150931F0103
:10372000809142018F5F809342018630C1F41092F4
:103730004201809143018F5F80934301803111F4F6
:1037400010924301E0914301F0E0EE0FFF1FE05EB5
:10375000FE4F80819181909341018093400180913F
:103760004001909141019093890080938800969543
:10377000879590938B0080938A0080911B0188230A
:1037800041F00E94E11580914201882311F40E94CA
:10379000670EFF91EF91BF91AF919F918F917F91B4
:1037A0006F915F914F913F912F910F900FBE0F90AE
:1037B0001F9018950F931F93CF93DF93EC01062F63
:1037C000162F1F70603F51F0673F41F0BC016F5FE3
:1037D0007F4F802F4C8121E00E945711602F607F26
:1037E000603B81F1613B40F46039C1F0603A21F106
:1037F000603809F06AC00EC0603D99F1613D20F467
:10380000603C09F062C028C0603E81F1603F09F071
:103810005CC03AC0812F69814A810BC04A81442330
:1038200029F0812F69810E942C184FC0812F698156
:1038300040E00E94851749C0812F69814A810E941A
:10384000371743C06981862F88578830F0F1812F60
:103850004A810E94921539C0812F69810E94C91442
:1038600034C0812F69810E94F6142FC06A8170E0F4
:103870007695762F6627779567958981680F711DF4
:10388000812F0E941D1421C01830A1F0193028F496
:10389000112351F01730C9F409C01B3089F01C30D6
:1038A00091F01A3091F409C0898101C087EF0E941C
:1038B0005E0E0BC00E94121408C00E94681505C05D
:1038C0000E945F0E02C00E94DA15DF91CF911F9116
:1038D0000F91089578941F920F920FB60F921124B2
:1038E0001F932F933F934F935F936F937F938F9388
:1038F0009F93AF93BF93EF93FF938091C00087FF97
:103900006AC01091C6001E3F09F465C0183F11F04F
:103910000E94C91A812F0E94660E183F30F08DEE6A
:1039200093E0612F0E94DA1B56C017FF34C010923B
:10393000F10381E08093F203812F807F803AA1F030
:10394000813A28F4803881F08039B1F40DC0803E8E
:1039500059F0803F19F0803B79F406C0912F9F7099
:10396000892F8150823020F482E08093F20304C0DA
:10397000943010F01092F2038091ED03803F19F41F
:1039800087EF0E945E0E1093ED03103F71F480EFFD
:103990000E945E0E0AC08091F103E82FF0E0E3512F
:1039A000FC4F11838F5F8093F1039091F10380911D
:1039B000F203981780F08DEE93E06091ED030E9482
:1039C000DA1B1092F1038091ED03813F20F01092F9
:1039D000F2031092ED038091970390919803891B55
:1039E0008F77A9F08091C00085FF11C08091980366
:1039F000E82FF0E0EC5BFB4F10818F5F8F778093B7
:103A00009803183F11F00E94CE1A1093C6008091BF
:103A1000F3038F5F8093F30380FD3AC00E947B2500
:103A20008091F30390E083709070892B89F59091D9
:103A30001801892F8A59809318018D37D8F0975132
:103A40009093180180911401909115010196909323
:103A50001501809314018091140190911501892B17
:103A600049F48091160190911701019690931701E6
:103A7000809316010E94AC1A8091F30390E0877046
:103A80009070892B29F48091E9048F5F8093E90479
:103A9000FF91EF91BF91AF919F918F917F916F9126
:103AA0005F914F913F912F911F910F900FBE0F90FB
:103AB0001F90189587EA0895A82F262F842F6CE071
:103AC0000E94EB37492F992319F0291B27FD245F0A
:103AD000822F6CE00E94EB37582F822F0E94EB3729
:103AE000292F30E0F901F595E7958BE1A89FC001FA
:103AF0001124E80FF91FEF52FA4F349120FF0CC048
:103B0000932F92959F708CE0589F202D1124892F20
:103B1000820F442321F40895932F9F70F4CF822FB6
:103B2000840F890F87FD8C5008959B019BE1899F2D
:103B3000B001112469527A4F453108F044E1C901BE
:103B400050E00E944F370895FC01108211828FE7E8
:103B50008283138214821582178216821086118640
:103B60008CE3828713860895CF93DF93EC01862F31
:103B70000E94991EBC018FEF6F3F780729F0CE019C
:103B800040E550E00E94C21FDF91CF910895A4E06C
:103B9000B0E0EDECFDE10C945B388C01FC0180E5BC
:103BA0008193CF016FE570E04CE050E00E947E37DA
:103BB000D8011D961C921D9788E71E968C931E9720
:103BC00087E01F968C931F9750961C9250975196A2
:103BD0001C92519752961C92529753961C92C80170
:103BE0004496FC018CE0DF011D928A95E9F7CE0135
:103BF00001960E945A19C80180960E94A41D8981CD
:103C0000F80180A3C8018C960E94A41D8A81D80166
:103C10009C968C93C801C8960E94A41D8B81F801C4
:103C200080AF0C5B1F4FC8010E94A41D8C81D8017E
:103C30008C932496E4E00C947738FC01DC0190E04E
:103C400011968C91119780528F3520F08FE5119647
:103C50008C9311979F5F11969C3091F785858031E9
:103C600020F0CF010E94C71D089586858951823EAC
:103C700010F088E786878785843110F087E0878792
:103C80008189863008F0118AB09690E08081813178
:103C900008F01082818187FD03C0828187FF03C005
:103CA00011828FE782838381883808F013828481B0
:103CB000883808F014828581803D14F081330CF03F
:103CC00015829F5F3C96943009F70895A1E0B0E01B
:103CD000ECE6FEE10C9459387C01162F0E94C71DBA
:103CE000812F0E94991E8C018FEF0F3F1807E9F07A
:103CF000CE010196B80141E050E00E94291F0197D2
:103D0000A1F44981413588F4C701B80150E00E940F
:103D1000291F298130E08217930721F0C7010E94F3
:103D2000C71D03C0C7010E941D1E2196E6E00C942A
:103D30007538782F60E060507F4F9B0140E050E085
:103D4000605071408091F40390E0A0E0B0E0EDE0BD
:103D5000880F991FAA1FBB1FEA95D1F782179307F7
:103D6000A407B50710F46FEF7FEFCB0108951F9301
:103D7000382FE92F142F422F722F760F703408F04E
:103D800064C08091F6039091F7038150891B8F7373
:103D90008717B8F3832F9E2F9C01D90120E00DC017
:103DA0008091F703E82FF0E0E35FFA4F9D91908355
:103DB0008F5F8F738093F7032F5F261788F3812F10
:103DC000952F9C01D90120E00DC08091F703E82FC9
:103DD000F0E0E35FFA4F9D9190838F5F8F73809344
:103DE000F7032F5F241788F380914D058823E1F7AF
:103DF000809156052091F5038091F7039091F60389
:103E0000891B8F7311F180914D058823F1F48FEF99
:103E10008093560582E080934D052065220F209304
:103E20000C059091F7032091F6038091BC0080620D
:103E30008093BC00921B9F7341F080914D058823B5
:103E4000E1F7809156058F3F09F070E0872F1F91B1
:103E50000895EF92FF921F93DF93CF9300D0CDB7D9
:103E6000DEB77C01142F79836A83CE01019662E06C
:103E700040E050E020E00E94B71E823049F480917B
:103E8000F8038093F903412F50E060E070E06CC0CC
:103E90008091F6038093F70380E06BC08091F90373
:103EA0009091F803891B8770B9F04115510509F409
:103EB0005BC0415050406F5F7F4F8091F803E82F07
:103EC000F0E0E25BFA4F90818F5F87708093F80398
:103ED000F70191937F01E2CF4115510509F444C0E8
:103EE00080914D058823E1F780915605CA01413242
:103EF000510510F080E290E0282F3091F503809179
:103F0000F8039091F9038150891B8770281740F0BE
:103F10002091F8038091F9032150281B277021502C
:103F200080914D05882399F48FEF8093560582E0A8
:103F300080934D05330F316A30930C0510920B05B9
:103F4000209357058091BC0080628093BC008091D3
:103F50004D058823E1F7809156058F3F29F0CA016E
:103F6000861B970BBC0104C04115510509F096CF83
:103F7000862F90E00F900F90CF91DF911F91FF90CF
:103F8000EF9008958F929F92AF92BF92CF92DF925F
:103F9000EF92FF921F93DF93CF9300D0CDB7DEB7A0
:103FA0004C016B017A01AA24BB242EC02C2D8C2D30
:103FB0008F7110E2181B812F90E0E816F90608F4C3
:103FC0001E2DD9822A83CE01019662E0A401212F01
:103FD0000E94B71E90E0412F50E09A012E5F3F4FA4
:103FE0008217930729F08091F6038093F7030FC09F
:103FF00088EA91E60197F1F7A40EB51EC40ED51E0E
:10400000840E951EE41AF50AE114F10479F6C5014F
:104010000F900F90CF91DF911F91FF90EF90DF9065
:10402000CF90BF90AF909F908F900895A2E0B0E0A6
:10403000ECE1F0E20C9459388091B9008E7F8093C6
:10404000B9008091B9008D7F8093B90081E18093A0
:10405000B8008091BC0084608093BC008091BC005B
:1040600081608093BC008091BC0080648093BC0020
:1040700010924D058AE890E290931A0180931901FD
:10408000FEEFEF2EFFEFFF2E08ED1AEF1A830983E4
:10409000CE010196B70142E050E00E94C21F80E0CD
:1040A00090EEE80EF91E015010409AEF003D1907FE
:1040B00069F788E08093F4030EEF1FEF17C0CE017D
:1040C0000196B80142E050E00E94291F4091F4039C
:1040D000842F90E08053954029813A812817390731
:1040E00049F041504093F403005010428091F40392
:1040F000882329F72296E6E00C9475388091BC005D
:1041000080618093BC008091BC0084FDFCCF109244
:104110004D0508958091B90090E0887F90708832B5
:104120009105B1F189329105A4F48031910559F1DD
:10413000813191053CF4009709F482C0089709F099
:1041400084C021C08831910519F1809709F07DC0A4
:1041500035C08034910509F452C0813491053CF496
:104160008033910559F1C89709F06FC02DC0803593
:10417000910599F18835910509F44DC08834910570
:1041800009F063C05AC080910C058093BB003DC00C
:104190008091F7039091F603891B8F7309F44DC04A
:1041A0008091F603E82FF0E0E35FFA4F90818F5F94
:1041B0008F738093F6039093BB0027C08091B90062
:1041C000887F8093560539C080E38093560585EC3F
:1041D0008093BC0010924D0508959091BB00809192
:1041E000F903E82FF0E0E25BFA4F90838F5F87706E
:1041F0008093F90380910B058F5F80930B0590915D
:104200000B0580915705981710F485EC01C085E8DF
:104210008093BC0008959091BB008091F903E82F32
:10422000F0E0E25BFA4F90838F5F87708093F90331
:1042300080910B058F5F80930B050E947E2008956F
:104240008EEF809356050E947E2008950895282FB2
:10425000922F9295907F6F70962B80911C04E82F7F
:10426000F0E0EE0FFF1FE454FA4F908341838F5F1D
:104270008F7180931C042A3038F480914304882382
:1042800019F481E080931704089590E08091B205BD
:10429000882309F491E08091B305882309F49F5F96
:1042A0008091B405882309F49F5F8091B505882328
:1042B00009F49F5F892F0895823014F08CE00895EF
:1042C0008F3F0CF484EF0895CF93DF93EC01262FFA
:1042D000862F6CE00E94EB37482F822F0E94EB372D
:1042E000963059F0973028F4913039F0933031F40A
:1042F00004C0983011F09A3009F42196990F292FB3
:1043000030E02658384EF9018491DE018D939F5F8D
:10431000E92FF0E0E658F84EE491E983E42FF0E06D
:10432000E259F84EE4911196EC93DF91CF91089504
:1043300066B16F70E2EBF5E051E04081440F4083DD
:10434000852F90E0262F30E082239323892B11F0D4
:1043500041604083319685E0E63BF80711F0550F48
:10436000ECCF0895CF93DF930E94982183B190E022
:1043700044E0969587954A95E1F781702091430432
:10438000220F282B20934304C0E0D0E04C2FFE01E5
:10439000EE54FA4FE081E03841F460E0809143044C
:1043A000882309F461E06F5F09C0EF3751F460E0E2
:1043B00080914304882309F461E06D5F83E00E94EB
:1043C00027212196C430D10509F780914304803814
:1043D00019F483E061E00BC08F3761F4809117041A
:1043E000882319F01092170405C083E063E044E0CD
:1043F0000E942721DF91CF9108951F9310E00E9422
:10440000982183B190E054E0969587955A95E1F70D
:10441000817020914304220F282B2093430488E8C5
:1044200093E10197F1F71F5F183049F78091B205CA
:10443000882389F48091B305882369F08091B405BD
:10444000882349F48091B505882329F080E0222350
:1044500019F481E001C080E01F9108951F93CF936C
:10446000DF939C01162FEA01662311F480E02BC034
:10447000009721F480E38883615023C040E0E42F5B
:10448000F0E0EA54FA4FC9016AE070E00E94043893
:1044900080834F5FC9016AE070E00E9404389B018D
:1044A0006115710561F7942F08C04150E42FF0E0C9
:1044B000EA54FA4F8081805D89934423B1F7612FDC
:1044C000691B812F861BDF91CF911F910895CF9398
:1044D000DF939C01EA01662329F1009719F480E338
:1044E000888320C040E0E42FF0E0EE59FA4FC90184
:1044F0006AE070E00E94043880834F5FC9016AE07F
:1045000070E00E9404389B016115710561F708C0D5
:104510004150E42FF0E0EE59FA4F8081805D89939D
:104520004423B1F7DF91CF910895FC01CB016A30AC
:10453000710510F020E002C0408321E062E0621BC0
:10454000E20FF11DAF010E9467220895982F84FDAC
:104550005A9A8BB19295907F8F70892B8BB95B9A09
:1045600088E893E10197F1F75B985A9888E99AE314
:104570000197F1F708951F93182F82958F700E946D
:10458000A622812F8F700E94A6221F910895282FA6
:1045900080911D0490911E048150891B8F7382307D
:1045A00010F480E0089590911E04E92FF0E0E8599E
:1045B000FA4F822F82958F70806180832F702061E7
:1045C00021839E5F9F7390931E0408951F93809193
:1045D0001D0490911E048150891B8F73843008F450
:1045E0008FC0909161058091B105981710F41092D9
:1045F000B005809161058093B1059091C6048091CA
:10460000C404981739F48091E90487FF03C010911E
:10461000020117C02091B005222371F0992311F0F7
:104620009F3051F4E92FF0E0E651FB4F808180325A
:1046300019F4122F115005C0E92FF0E0E651FB4F9D
:104640001081292F30E0F901E953FB4F80811817C1
:10465000F1F18091E80490E001962817390721F4E0
:104660008091C504882339F52091E7043091C50471
:1046700080911D0490911E048150891B8F7382309C
:10468000D0F02295220F220F207C3068232B30910E
:104690001E04E32FF0E0E859FA4F822F90E064E027
:1046A000959587956A95E1F780832F7021833E5F0A
:1046B0003F7330931E04812F0E94C7228091C6044D
:1046C000E82FF0E0E953FB4F10838093E8049091CA
:1046D000C5049F5F9093C5048091C6048F5F80934B
:1046E000C604903169F41092C5048091E7048F5F8D
:1046F0008093E704823021F41092E7041092C604FC
:104700001F9108951F9310E00E94E6221F5F103250
:10471000D9F71F9108951F938091590520915A054B
:1047200030915B0540915C0560915D05E0915E050F
:10473000A0915F0510916005B82FBF5F91E0B81799
:1047400008F090E0F92FF20F81E0F21708F080E016
:10475000782F730F81E0731708F080E0582F540F03
:1047600081E0541708F080E0382F360F81E03617CB
:1047700008F080E0282F2E0F81E02E1708F080E04F
:10478000982F9A0F81E09A1708F080E0810FB0937C
:104790005905F0935A0570935B0550935C0530936F
:1047A0005D0520935E0590935F05809360051F91E2
:1047B00008958AEE94E060E270E040E250E00E94EA
:1047C0007E3708950E94D923E0910804F0910904EE
:1047D000099508950F931F9320E101E0029F800146
:1047E000112406511B4FC80163E977E140E150E015
:1047F0000E944F3760914401C8010D9670E040E37C
:104800000E9495220E948223809144010E943216C8
:1048100088E893E1E4EFF1E03197F1F70197D1F700
:104820000E94E2231F910F910895FF920F931F930F
:10483000CF93DF930E94D92340E120E0249F900191
:10484000112451E0549FE0011124C651DB4FC901EE
:1048500086519B4F6BE278E14DE050E00E944F376C
:1048600080E590E062E0AE010E942E22082F10E069
:10487000FE01E00FF11FAFE2FA2EF0820F5F1F4F33
:10488000AE01400F511F80E290E062E00E942E22B4
:10489000080F111DFE01E00FF11FF0820F5F1F4F87
:1048A000AE01400F511F8CE090E063E00E942E2289
:1048B000080F111DFE01E00FF11FF0828091F4033B
:1048C00090E0A0E0B0E075E0880F991FAA1FBB1F21
:1048D0007A95D1F70F5F1F4FC00FD11F63E0AE0174
:1048E0000E942E220E94822380E197E2E4EFF1E011
:1048F0003197F1F70197D1F7CDB7DEB7E5E00C942A
:1049000076380F931F93182F80911F0480931C04F7
:104910000E94C60D6093AB057093AC058093AD0506
:104920009093AE05E091FE03F091FF03309711F0F4
:10493000812F09950091FA030E3010F40093FB03C8
:104940001093FA0369E0169FB00111246C55784E5C
:104950008CE094E049E050E00E944F3760910D04F4
:1049600070910E048CEF93E040E150E00E944F37CD
:10497000E091FC03F091FD038CE094E0602F099539
:104980000E94E2231F910F910895FC0181818130E3
:1049900019F0823079F40CC092818091FA03891762
:1049A00021F0892F0E94812408950E94E223089516
:1049B0000E94E2230895FC018181882381F4828191
:1049C000813019F0823059F405C0109241040E94E0
:1049D000EA2308951092410480E00E948124089502
:1049E000FC0181818823A1F48091FA039281191638
:1049F00034F48D3010F080E009C08F5F07C0992338
:104A000029F0882311F48DE001C081500E94812497
:104A10000895EF92FF920F931F9393B1917080913D
:104A2000A905880F892B8093A90583B190E09695FD
:104A3000879596958795817020915805220F282B90
:104A40002093580583B190E0969587958170909159
:104A5000AA05990F982B9093AA05203829F4892F3D
:104A6000807F11F441E005C0903879F4207F69F42B
:104A70004FEF80914304882321F48AE0489F402D22
:104A8000112481E060E00E9427218091A9058F37E1
:104A900069F50E94C60D7B018C01809118049091EC
:104AA0001904A0911A04B0911B04A8019701281BB6
:104AB000390B4A0B5B0B2A3F31054105510510F0BC
:104AC00040E001C042E090E080914304882309F473
:104AD00091E0490F82E060E00E942721E0921804F3
:104AE000F092190400931A0410931B041F910F9164
:104AF000FF90EF900895809115048F5F80931504C7
:104B00000E9409258091150490E083709070892B94
:104B100011F40E94B221809161058F5F809361053D
:104B20008091AF05882329F05B985A981092AF05C1
:104B3000089580911E0490911D04891B8F73B9F014
:104B400081E08093AF0580911D04E82FF0E0E859E3
:104B5000FA4FE0818F5F8F7380931D04E4FD5A9AB2
:104B60008BB1E295E07F8F70E82BEBB95B9A0895EB
:104B70001F93FC018181813059F412811430C0F4FB
:104B80000E94452160E0882309F461E0812F06C07E
:104B9000823039F48281843058F460E00E944613F8
:104BA00007C0833029F48281843011F40E947C1183
:104BB0001F910895CF93DF93EC0188818230B9F083
:104BC000833018F4813081F505C08330E9F08A30F4
:104BD00059F527C0E0910004F091010489816A81B0
:104BE0000995882309F5CE010E94F0241DC0E091AB
:104BF0000204F091030489816A8109958823A1F454
:104C0000CE010E94DB2410C0E0910404F091050461
:104C100089816A810995882339F4CE010E94B825DB
:104C200003C0CE010E94C524DF91CF910895A3E077
:104C3000B0E0EDE1F6E20C945C380E94E62210E070
:104C400027C080911F04E82FF0E0EE0FFF1FE4540F
:104C5000FA4F208191818F5F8F7180931F04822F83
:104C600082958F709B832F702A8389830E94C60D43
:104C70006093AB057093AC058093AD059093AE0542
:104C8000CE0101960E94DA2581E08093160411E09E
:104C900080911C0490911F04891B8F7191F60E94D2
:104CA000C60D2091AB053091AC05621B730B695E9C
:104CB0007340D8F00E94C60D6093AB057093AC05AD
:104CC0008093AD059093AE05E0910604F091070442
:104CD0000995811111E080911604882331F08091AB
:104CE0005601882311F410921604112339F00E9402
:104CF000D923E0910804F09109040995E0910A0490
:104D0000F0910B0409952396E3E00C947838CF9347
:104D1000DF93EC0180911F0480931C040E94C60D58
:104D20006093AB057093AC058093AD059093AE0591
:104D30008CE094E062E278E149E050E00E944F3775
:104D400060910D0470910E048CEF93E040E150E00F
:104D50000E944F37AFE0B4E0FE0186E001900D9273
:104D60008150E1F7E091FC03F091FD038CE094E0C9
:104D70006091FA0309950E94E2238FEF8093140457
:104D800002C00E941726809114048F3FD1F38D83B7
:104D900080911F0480931C040E94C60D6093AB0594
:104DA0007093AC058093AD059093AE056091FA03C6
:104DB00089E0689FB00111246C55784E8CE094E036
:104DC00049E050E00E944F3760910D0470910E044D
:104DD0008CEF93E040E150E00E944F370E94E223C5
:104DE000DF91CF910895FC017183608353834283E7
:104DF00024830E94872608950E94D92340E120E061
:104E0000249F90011124C90186519B4F69E378E1E9
:104E10004FE050E00E944F370E9482230E94F51617
:104E200008950F931F9322982A9A2FEF20935805E5
:104E30002198299A2093AA052098289A2093A905B9
:104E40008FEF9FEFAFEFBFEF8093B2059093B30565
:104E5000A093B405B093B50587B1807F87B988B1B9
:104E60008F6088B924982C9A20934304529A539ABD
:104E70008AB1806F8AB95A985B9888EE93E0E4EF24
:104E8000F1E03197F1F70197D1F783E00E94A62274
:104E900000E117E2C8010197F1F783E00E94A62222
:104EA000C8010197F1F783E00E94A622C80101978B
:104EB000F1F782E00E94A62288E20E94BB228CE0E9
:104EC0000E94BB2286E00E94BB2281E00E94BB229E
:104ED00082E00E94BB221092AF050E94D92387EC8A
:104EE00094E06FE370E040E250E00E947E37109261
:104EF000C6041092E7041092C5048FEF8093E80473
:104F00008093C4041092E9040E94FD21882311F0CB
:104F10000E94FC260E94152480E00E9481241F919B
:104F20000F9108959093210480932004089508958B
:104F300081E00895E0912004F09121048EEF8087B4
:104F400081E00895813029F4E0912004F09121045A
:104F5000608781E0089580E008950895A0E0B0E0C2
:104F6000E4EBF7E20C94573830E120E0239F700126
:104F700011248AEE94E0E80EF91E21E0239F6001DF
:104F80001124C80ED91EE0912004F0912104C381A0
:104F9000D481CE016AE070E00E9458370097F9F0A2
:104FA0008C010C1B1D0BC701BE01A8010E944F37CD
:104FB000E0912004F0912104E380F480C7010E9475
:104FC00063370F5F1F4FE00EF11E01501040AC0120
:104FD00041505040401B510BC601B70106C0CE01E5
:104FE0000E946337AC01C701BE010E944F37E091B8
:104FF0002004F091210405811681C8010E946337C5
:10500000AC01C601841B950B4096B8010E944F3736
:10501000CDB7DEB7E8E00C9473380895089508958D
:1050200080912204882371F0109222048FEF8093E4
:10503000C404A5E4B1E0E3E2F4E08CE001900D9259
:105040008150E1F70895662369F490E0809141046E
:10505000882309F491E0909341049923B1F40E94CC
:1050600010280FC0613079F480914104882359F0F1
:1050700080912204882349F0109222048FEF8093BC
:10508000C40481E0089580E0089581E0089581E0FE
:105090008093220410922F04A3E2B4E0E5E4F1E04F
:1050A0008CE001900D928150E1F70895A1E0B0E00D
:1050B000ECE5F8E20C94573830E120E0239F7001D2
:1050C00011248AEE94E0E80EF91E21E0239F60018E
:1050D0001124C80ED91E60914401C70170E040E35D
:1050E0000E9495228091220497012D5F3F4F8823D3
:1050F00049F0D901E3E2F4E08CE001900D92815097
:10510000E1F708C0D901E5E4F1E08CE001900D92EF
:105110008150E1F704E611E00894C11CD11C91E034
:105120009983F801808184FF04C0C6016CE678E1B0
:1051300003C0C60169E678E142E050E00E944F37C3
:10514000045F1F4F84E090E0C80ED91E99819D3006
:1051500011F09C5FE5CF80914104882329F08BE515
:10516000F70182838DE5878780912204882329F0C7
:1051700080912F048D5F8093C4042196E8E00C9405
:105180007338A6E0B0E0E7ECF8E20C945D380E94DA
:105190000137882381F0CE0101966AE778E14FE676
:1051A00058E122E00E94F3268E81823021F40E9491
:1051B000BF1681E001C080E02696E2E00C947938C9
:1051C000982F80914104882309F44DC0913009F053
:1051D0004AC080912204882309F43FC0613069F0FD
:1051E000613028F0623089F06330E9F524C08091A5
:1051F0002F048823D1F1815005C080912F048B307A
:10520000A0F58F5F80932F042CC080912F04682F0E
:1052100070E04BE0481BCB018C5D9B4F6D5D7B4F7D
:1052200050E00E946C37E0912F04F0E0ED5DFB4F01
:1052300080E2808316C080912F04682F70E04BE0DD
:10524000481BCB018D5D9B4F6C5D7B4F50E00E94F6
:105250006C3780E280932E0404C0643020F40E94F6
:10526000472881E0089580E0089581E008958091C5
:105270004104882399F180912204262F332727FDAA
:1052800030958823F1F080912F04A82FB0E0FD0124
:10529000ED5DFB4F8081A901480F511DCA01161613
:1052A0002CF44F37510544F080E206C0662339F0F4
:1052B000403251050CF48EE7AD5DBB4F8C9381E01D
:1052C000089580914401A901480F511DCA0160E071
:1052D00043E60E9426370E946D1681E008950895E6
:1052E0000895662311F080E0089590E080914104D4
:1052F000882309F491E09093410481E00895982F68
:10530000813089F4643078F480914104882339F045
:10531000809151018F5F8F708093510102C09093F3
:10532000410481E0089580E0089580E008950895A3
:10533000CF93DF939C01EA01662361F1009719F492
:1053400080E3888327C097FF05C08DE2899330955D
:1053500021953F4F40E0E42FF0E0E450FA4FC901BF
:105360006AE070E00E94183880834F5FC9016AE0EC
:1053700070E00E9418389B016115710561F708C043
:105380004150E42FF0E0E450FA4F8081805D899332
:105390004423B1F7DF91CF910895CF93DF9350E18C
:1053A00020E0259F9001112441E0459FE001112458
:1053B000C651DB4FC90186519B4F6AE978E14FE046
:1053C00050E00E944F378091510190E0AE014F5F55
:1053D0005F4F019662E00E949829809141048823E2
:1053E00021F0CE0164E00E941637DF91CF9108953D
:1053F00080914104882379F0862F992787FD909525
:1054000020915101820F911D60E04FE00E942637EC
:105410008093510181E00895089508958091410499
:10542000882349F067FF04C01092520181E008957B
:1054300081E0809352010895662311F080E0089581
:1054400090E080914104882309F491E09093410415
:1054500081E00895982F8130A1F4643090F4809118
:105460004104882351F080915201882319F49093CC
:10547000520105C01092520102C09093410481E094
:10548000089580E0089580E008950895CF93DF9314
:1054900020E140E0429FA001112431E0329FE00171
:1054A0001124C651DB4FCA0186519B4F6CEC78E149
:1054B0004AE050E00E944F3780915201882319F052
:1054C000813071F405C0CE01019663EC78E104C02F
:1054D000CE0101966AEB78E148E050E00E944F3738
:1054E00080914104882321F0CE0168E00E941637A4
:1054F000DF91CF91089508950895662311F080E01B
:10550000089590E080914104882309F491E09093FC
:10551000410481E00895982F813099F4643088F433
:1055200080914104882349F0809159018F5F843034
:1055300008F080E08093590102C09093410481E01B
:10554000089580E0089580E008950895CF93DF9353
:1055500020E140E0429FA001112431E0329FE001B0
:105560001124C651DB4FCA0186519B4F6EEF78E183
:1055700040E150E00E944F3780915901813061F045
:10558000813028F0823079F08330D1F411C0CE011F
:10559000019669EF78E110C0CE01019661EF78E1E4
:1055A00047E050E00BC0CE0101966CEE78E104C0FC
:1055B000CE01019667EE78E144E050E00E944F375B
:1055C00080914104882321F0CE0168E00E941637C3
:1055D000DF91CF91089580914104882379F0862F3F
:1055E000992787FD909520915901820F911D60E0C8
:1055F00043E00E9426378093590181E00895089581
:105600000895662311F080E0089590E080914104B0
:10561000882309F491E09093410481E0089508956E
:105620000F931F93CF93DF939C01162FEA016623FC
:1056300011F480E036C0009721F480E38883615044
:105640002EC097FD02C0062F07C08DE28993062F5A
:105650000150309521953F4F40E0E42FF0E0ED5FA1
:10566000F94FC9016AE070E00E94183880834F5FEB
:10567000C9016AE070E00E9418389B01611571054C
:1056800061F7942F08C04150E42FF0E0ED5FF94F2F
:105690008081805D89934423B1F7602F691B812F3E
:1056A000861BDF91CF911F910F910895A4E0B0E088
:1056B000ECE5FBE20C945D38CE0101960E940B19DB
:1056C00080E069810E94F20E81E06A810E94F20E00
:1056D00082E06B810E94F20E83E06C810E94F20EE8
:1056E0002496E2E00C947938A4E0B0E0EAE7FBE22B
:1056F0000C945D3880915F01898380916B018A836E
:10570000809177018B83809183018C83CE010196F8
:105710000E94EF182496E2E00C947938A0E0B0E003
:10572000E4E9FBE20C94573820E140E0429FA001FD
:10573000112431E0329F600111248AEE94E0C80EFA
:10574000D91ECA0186519B4F62E379E140E150E0E6
:105750000E944F373FE5E32E31E0F32E86010F5FC5
:105760001F4FC0E0D0E0F7016081693030F4C8011C
:105770004FE159E10E9442370EC0862F90E0089712
:1057800063E0A8010E94102BF601EC0FFD1FE80F4B
:10579000F11D80E281838CE090E0E80EF91E0C5F41
:1057A0001F4F2496C031D105F1F680914104882322
:1057B00061F08091300490E0880F991F880F991F45
:1057C0008C0D9D1D63E00E941637CDB7DEB7E8E073
:1057D0000C947338A6E0B0E0E0EFFBE20C945D3887
:1057E0000E9401378823C1F0CE01019661E579E17D
:1057F00043E459E122E00E94F3268E81833018F0C1
:10580000833051F403C00E94742B04C00E94562BB5
:105810001092410481E001C080E02696E2E00C9401
:105820007938813071F5613039F0613038F06230AB
:1058300039F0633081F506C091E005C090E003C007
:1058400092E001C093E080914104882331F12091DE
:105850003004291711F5892F90E0FC01EE0FFF1F8E
:10586000E80FF91FEE0FFF1FEE0FFF1FE15AFE4F6B
:1058700060816F5F683808F060E0822F0E94F20E4E
:1058800008C0833041F4643031F40E94CF0E10928E
:10589000410481E0089580E008959093300481E010
:1058A0008093410408951F93809141048823F9F067
:1058B00010913004862F992787FD9095212F30E095
:1058C000F901EE0FFF1FE20FF31FEE0FFF1FEE0FA8
:1058D000FF1FE15AFE4F2081820F911D60E047E8D3
:1058E0000E942637682F812F0E94F20E81E01F91BF
:1058F000089508950895662311F080E0089590E0DA
:1059000080914104882309F491E09093410481E05F
:1059100008950895382FDA01662309F1882319F4D0
:1059200080E38C93089520E0E22FF0E0E65FF94FEA
:10593000832F6AE00E94EB3790832F5F832F0E94B2
:10594000EB37382F882381F708C02150E22FF0E091
:10595000E65FF94F8081805D8D932223B1F7089532
:10596000A4E0B0E0E6EBFCE20C945D38CE010196D9
:105970000E945A1980E069810E94BA1281E06A810E
:105980000E94BA1282E06B810E94BA1283E06C819D
:105990000E94BA122496E2E00C947938813079F5AD
:1059A000613039F0613038F0623039F0633039F508
:1059B00006C091E005C090E003C092E001C093E012
:1059C000809141048823E9F0209131042917C9F41A
:1059D000892F90E0FC01EE0FFF1FE80FF91FEE0F7B
:1059E000FF1FEE0FFF1FE55AFE4F60816F5F6131B1
:1059F00008F060E0822F0E94BA1281E0089580E0F2
:105A000008959093310481E0809341040895A4E0C7
:105A1000B0E0EDE0FDE20C945D3880915B0189839C
:105A2000809167018A83809173018B8380917F01CC
:105A30008C83CE0101960E9404192496E2E00C9416
:105A40007938EF92FF920F931F93CF93DF9320E16A
:105A500040E0429FA001112431E0329F70011124E7
:105A60008AEE94E0E80EF91ECA0186519B4F65E765
:105A700079E14EE050E00E944F3787010F5F1F4FE2
:105A8000C0E0D0E0FE01E55AFE4F8081882329F076
:105A900062E0A8010E948A2C07C0C80162E779E190
:105AA00042E050E00E944F372C960C5F1F4FC033EE
:105AB000D10541F780914104882361F08091310440
:105AC00090E0880F991F880F991F8E0D9F1D63E02E
:105AD0000E941637CDB7DEB7E6E00C947538A6E025
