:107C000033C000004CC000004AC0000048C0000063
:107C100046C0000044C0000042C0000040C0000058
:107C20003EC000003CC000003AC0000038C0000068
:107C300036C0000034C0000032C0000030C0000078
:107C40002EC000002CC000002AC0000028C0000088
:107C500026C0000024C0000022C0000020C0000098
:107C60001EC000001CC0000011241FBECFEFD8E0D2
:107C7000DEBFCDBF11E0A0E0B1E0E0E7FFE702C06A
:107C800005900D92A830B107D9F712E0A8E0B1E055
:107C900001C01D92AE30B107E1F76CD02EC1B0CF5C
:107CA000CF93DF93F999FECFA0910801B09109011C
:107CB00083E0FD0180935700E89507B600FCFDCFF7
:107CC000BD01CAE0D1E0888190E0598140E0842B79
:107CD000952B229621E0FB010C0120935700E8959B
:107CE00011246E5F7F4FF1E0CA38DF0761F785E04E
:107CF000FD0180935700E89507B600FCFDCF81E1B8
:107D000080935700E895DF91CF91089520E015C04A
:107D1000E4EFF1E03197F1F70197D1F72D982B9A25
:107D200084EC99E0E4EFF1E03197F1F70197D1F7B6
:107D30002D9A2B982F5F233019F084EC99E0E8CF2F
:107D4000089584EC99E005C0E4EFF1E03197F1F794
:107D500001970097C9F72D9A2B9A84EC99E0E4EFEC
:107D6000F1E03197F1F70197D1F72D982B9884EC3A
:107D700099E0EACFA2E0B0E0EFEBFEE3CCC084B73D
:107D800014BE809160008861809360001092600052
:107D9000F8942098289A259A2D98239A2B982AE0CF
:107DA00006C088E893E10197F1F7189981C0215046
:107DB000C0F788C08091C00087FFFCCF9091C600BB
:107DC000913F10F0973FB1F74130B9F0413020F0CA
:107DD000423009F067C022C0F901E050FF4F8081B6
:107DE000981711F0102F58C02F5F3F4F27303105E3
:107DF00009F058C0102F41E04FC097FD51C0FE015F
:107E0000E20FF31F91832F5F3F4F2230310509F0BE
:107E100049C010E042E0EE24FF243EC097FD18C0A8
:107E2000F701E65FFE4F20FF0DC09F708081982B09
:107E3000908380E8E816F10408F4090F0894E11C27
:107E4000F11C03C09295907F90832F5F3F4F2AC013
:107E5000973F41F599819F3729F48A81882311F44E
:107E6000232B29F181E8E816F104C9F49E37B9F40F
:107E70008A818823A1F410918A01101781F42D9A28
:107E80000FDF809108019091090180589F4F9093D6
:107E900009018093080140E020E030E004C051DF98
:107EA000102FF9CF102F2D982B98012F83CF2EDF75
:107EB000E0910C02F0910D02099580E090E022968D
:107EC000E6E045C023DF8091C0008D7F8093C00035
:107ED0001092C50087E28093C4008091C100806148
:107EE0008093C100109209011092080100E040E067
:107EF000EE24FF2420E030E05DCFF89437C02F92CD
:107F00003F924F925F926F927F928F929F92AF9229
:107F1000BF92CF92DF92EF92FF920F931F93CF9376
:107F2000DF93CDB7DEB7CA1BDB0B0FB6F894DEBF0D
:107F30000FBECDBF09942A88398848885F846E8433
:107F40007D848C849B84AA84B984C884DF80EE807D
:107F5000FD800C811B81AA81B981CE0FD11D0FB686
:107F6000F894DEBF0FBECDBFED010895F894FFCFAA
:087F7000F02947414C0000001C
:0400000300007C007D
:00000001FF
