:100000000C942D0D0C94550D0C94550D0C94550D10
:100010000C94550D0C94550D0C94550D0C94550DD8
:100020000C94550D0C947C130C94550D0C94CB1022
:100030000C94550D0C94550D0C94550D0C94550DB8
:100040000C94550D0C94550D0C94550D0C94550DA8
:100050000C94550D0C94550D0C94550D0C94550D98
:100060000C94C50D0C94550DC09060484030242070
:1000700018100C0806040302015010591061106A90
:100080001073107B1084108A1092109B10A410AD76
:1000900010B610BC10C410CD10D610DF10E510EB58
:1000A00010F410FB1003110C1115111E1126112F45
:1000B0001136113D1144114B115211591160116744
:1000C000116E1175117C11821187118D1193119789
:1000D000119B119F11A311A711AC11B011B511B94A
:1000E00011BC11BF11C311C711CB11CF11D311AC6A
:1000F00011D711DB11DF11E311E711EB11EF11F350
:1001000011F711FB11FF11031207120B120F12133B
:100110001217121B121F12231227122B122F123327
:100120001237123B123F12431247124B124F125317
:100130001257125B125F12631267126B126F127307
:100140001277127B127F12E3113712831287128B00
:10015000128F12931297129B1283129F12A312A650
:1001600012AA129712AE12B212B612BA12BE12C26E
:1001700012C612CA12CE12D212D612DA12DE12E24F
:1001800012E612EA12EE12F212F612FA12FE12023F
:100190001306130A130E13121316131A131E132227
:1001A0001327132B132F139712331337133B133FBC
:1001B00013431347134B134F13531357135B135F1F
:1001C00013631367136B136F13731377137B137F0F
:1001D00013831387138B138F13931397139B139FFF
:1001E00013A313A713AB13AC13B013B213B413B60A
:1001F00013B813BC13C013C413C813CC13D013D437
:1002000013D813DC13E013E413E813EC13F013F426
:1002100013F813FC130014041408140C1410141411
:100220001418141C142014241428142C14301434FE
:100230001438143C144014441448144C14501453EF
:1002400014561459145C1460143712B21264145505
:1002500055F5F5B5B5D5D555AB5559959509094918
:10026000924952494919D56B6B5B5B7777B76D57EC
:10027000576F6FDF7611A9C16F01D10000114911CD
:100280001149490105010149520501412941044132
:10029000A441410000924010101012501090909014
:1002A0001210120C491040104810900000494911DA
:1002B000115C5C555544441F5F4545D5D577774261
:1002C00064FFFF000048480155004910F084A4482D
:1002D000101141491455555858A5627F007F00817F
:1002E000FF81FF7F007F0081FF81FF7F007F008112
:1002F000FF81FF7F007F0081FF81FF7F0081FF7F03
:100300000081FF7F0081FF7F0081FF7F0081FF7FF1
:100310000081FF7F0081FF7F0081FFC1FFC1FF7F60
:1003200000000081FF00000000580000000000589D
:1003300000CEFFA8FF00005800000013002C005D55
:1003400000FCFF2000CBFFA6FF81FF750020009A74
:10035000FFCBFF6900CBFF5D00CBFF58009BFF6B1D
:1003600000A1FF5800A8FF3200DAFF4100A8FF6596
:1003700000A1FF650081FF3F00E1FF4600ACFF5494
:100380000090FF54009EFF70009EFF3600BAFF7F72
:1003900000ACFF7F0090FF5400ACFF0000010003A1
:1003A0000007000F003F007F00FF00FF03FF0FFF6B
:1003B0003FFFFF00000100030007000F003F007F28
:1003C00000FF00FF03FF0FFF3FFFFF0000010003DE
:1003D0000007000F003F007F00FF00FF03FF0FFF3B
:1003E0003FFFFF00000100050007000F003F007FF6
:1003F00000FF00FF03FF0FFF3FFFFF0000010005AC
:10040000000D000F003F007F00FF00FF03FF0FFF04
:100410003FFFFF00000100090015002D003F007F95
:1004200000FF00FF03FF0FFF3FFFFF00000100116F
:100430000029002D007D007F00FF00FF03FF0FFF5C
:100440003FFFFF00000100110029005500DD00FD05
:1004500000FF00FF03FF0FFF3FFFFF00000100212F
:100460000091002901AD01DD02BD03FF03FF0FFF75
:100470003FFFFF000001004100110149025505AD99
:10048000066D0B7D0FFF0FFF3FFFFF000001008196
:100490000021029108A9145515AD16DD2EFD3EFF71
:1004A0003FFFFF000001000101410811112929A9A6
:1004B000525555ADADDDDDFDFDFFFF000001000231
:1004C0000003000400050006000700080009000AF8
:1004D000000B0000000000020002000400050005FF
:1004E0000007000700090009000B000000000002DF
:1004F0000003000300050005000700070009000ACB
:10050000000A0000000100010003000300050005CF
:10051000000700080008000A000A000000000002AE
:10052000000200040004000600070007000900099B
:10053000000B00000000000200020004000500059E
:10054000000700070009000A000A0000000000027E
:100550000003000300050005000700080008000A6A
:10056000000A00000001000100030003000500066E
:10057000000600080008000A000A0000000000034E
:100580000003000400040007000700070009000A38
:10059000000A00000000000300030003000500063D
:1005A00000070007000A000A000A0000000000021D
:1005B000000200040004000700070007000900090A
:1005C000000900000000000300030003000500050F
:1005D00000070007000A000A000A000000010001ED
:1005E0000004000400050005000700080008000BD7
:1005F000000B0000000100010004000400040006DC
:10060000000700080008000B000B000000010001BB
:10061000000300030005000500070007000A000AA8
:10062000000B0000000100010003000300060006AB
:10063000000700080008000B000B0000000000028B
:100640000002000400050005000500090009000A79
:10065000000B00000000000200020005000500057C
:10066000000700070009000900090000000000035E
:100670000003000300050005000800080008000A48
:10068000000A00000000000300030004000400064C
:10069000000600080008000A000A0000000100012E
:1006A0000003000400050005000700080008000A18
:1006B000000A00000001000100010005000500051E
:1006C0000007000800080008000800000001000101
:1006D00000030003000300070007000800080008EB
:1006E00000080000000000020002000400040006F0
:1006F000000600080008000A000A00AA00E30055EE
:1007000001C701AA028E03000455051C070008AAB0
:100710000A001055150020AA2A004055550080FFF8
:10072000FF4F027B02DB02FB021B033B035B037BED
:10073000039B03BB04D304EB0403051B0533054BE8
:100740000563057B059305AB05C305DB05F3050BC9
:100750000623063B06EB0453066B0683069B06B393
:1007600006CB06E306FB0610101016090909061051
:1007700010101602020207101010160902040F10C2
:100780001010160102010610101012040A0F0210B8
:1007900010101704060106101010130407050702B5
:1007A000030302020E1E0C0000001C1414170000AC
:1007B0000103070F1F1F0000000E1511110E00018D
:1007C00005090D1115191D2125292C3034383C40FF
:1007D00044484C5054585C6064686C7074787C80F9
:1007E00083878B8F93979B9FA3A7ABAFB3B7BBBFF9
:1007F000C3C7CBCFD3D6DADEE2E6EAEEF2F6FAFEF4
:10080000FAF6F2EEEAE6E2DEDAD6D3CFCBC7C3BF22
:10081000BBB7B3AFABA7A39F9B97938F8B87838007
:100820007C7874706C6864605C5854504C484440E8
:100830003C3834302C2925211D1915110D090501CD
:10084000FEFEFEFEFEFEFEFEFEFEFEFEFEFEFEFEC8
:10085000FEFEFEFEFEFEFEFEFEFEFEFEFEFEFEFEB8
:10086000FEFEFEFEFEFEFEFEFEFEFEFEFEFEFEFEA8
:10087000FEFEFEFEFEFEFEFEFEFEFEFEFEFEFEFE98
:100880000101010101010101010101010101010158
:100890000101010101010101010101010101010148
:1008A0000101010101010101010101010101010138
:1008B0000101010101010101010101010101010128
:1008C000FE01030507090B0D0F11131517191B1D49
:1008D0001F21232527292B2D2F31333537393B3D38
:1008E0003F41434547494B4D4F51535557595B5D28
:1008F0005F61636567696B6D6F71737577797B7D18
:100900007F80828486888A8C8E90929496989A9C16
:100910009EA0A2A4A6A8AAACAEB0B2B4B6B8BABC07
:10092000BEC0C2C4C6C8CACCCED0D2D4D6D8DADCF7
:10093000DEE0E2E4E6E8EAECEEF0F2F4F6F8FAFCE7
:10094000FE0180868C92989EA4AAB0B6BBC1C6CB8D
:10095000D0D4D9DDE1E5E9ECEFF2F4F7F9FAFCFDEA
:10096000FDFEFEFEFDFDFCFAF9F7F4F2EFECE9E521
:10097000E1DDD9D4D0CBC6C1BBB6B0AAA49E9892B3
:100980008C868079736D67615B554F49443E39347D
:100990002F2B26221E1A1613100D0B080605030214
:1009A000020101010202030506080B0D1013161ABD
:1009B0001E22262B2F34393E44494F555B61676D0B
:1009C000737980808A949DA7B1BAC2CBD2DAE0E66F
:1009D000ECF1F5F8FBFCFEFEFEFDFBF9F6F3EFEAA9
:1009E000E6E0DBD5CFC9C3BDB6B0AAA49F99948F6A
:1009F0008B8783807D7B7978777676767677787942
:100A00007B7C7E80818384868788898989898887A1
:100A10008684827F7C7874706B66605B554F494238
:100A20003C36302A241F1915100C09060402010156
:100A3000010304070A0E13191F252D343D454E5896
:100A4000626B7580808F9EACBAC7D3DEE7EFF5FA94
:100A5000FDFEFEFCF9F4EFE8E1D9D1C9C2BAB3ADAD
:100A6000A8A3A09E9E9EA0A3A8ADB3BAC2C9D1D987
:100A7000E1E8EFF4F9FCFEFEFDFAF5EFE7DED3C79F
:100A8000BAAC9E8F8070615345382C2118100A052E
:100A900002010103060B10171E262E363D454C524F
:100AA000575C5F6161615F5C57524C453D362E2655
:100AB0001E17100B0603010102050A1018212C381D
:100AC000455361708080909FADB9C3C9CCCCC9C477
:100AD000BCB3A9A0978F8A87878A9099A4B0BECC0F
:100AE000D9E5F0F7FCFEFCF7F0E5D9CCBEB0A4994F
:100AF000908A87878A8F97A0A9B3BCC4C9CCCCC978
:100B0000C3B9AD9F90806F6052463C363333363B5D
:100B1000434C565F6870757878756F665B4F4133EC
:100B2000261A0F08030103080F1A2633414F5B668C
:100B30006F7578787570685F564C433B3633333643
:100B40003C4652606F800101010305080D131B250F
:100B5000313E4D5D6E8091A3B4C4D3E0EBF3FAFD5A
:100B6000FEFCF8F1E7DCCEBFB09F8E7D6C5C4C3EA6
:100B700031251B130C0602010101010101010101D4
:100B80000101010101010101010102020303040548
:100B90000607070605030101010101010101010129
:100BA0000101010101010101010101010101010135
:100BB0000101010101010101010101010101010125
:100BC000010101010101010101020509111B293A7D
:100BD0004D637A92A9BFD3E4F1FAFEFEF9F0E3D4B3
:100BE000C4B2A192857B7472747B8592A1B2C4D485
:100BF000E3F0F9FEFEFAF1E4D3BFA9927A634D3A2D
:100C0000291B110905020101010101010101010175
:100C100001010101010101010101010101010101C4
:100C200001010101010101010101010101010101B4
:100C300001010101010101010101010101010101A4
:100C400001010101010101013F39332D27211B154C
:100C50000F090301070D13191F252B31373D434998
:100C60004F555B61676D737980868C92989EA4AABC
:100C7000B0B6BCC2C8CED4DAE0E6ECF2F8FEFCF6C0
:100C8000F0EAE4DED8D2CCC6C0C6CCD2D8DEE4EAE4
:100C9000F0F6FCFEF8F2ECE6E0DAD4CEC8C2BCB660
:100CA000B0AAA49E98928C868079736D67615B551B
:100CB0004F49433D37312B251F19130D07010309F8
:100CC0000F151B21272D33393F80787068605850ED
:100CD00048403830292119110901091119212930F9
:100CE00038404850586068707880878F979FA7AFCA
:100CF000B7BFC7CFD6DEE6EEF6FEF6EEE6DED6CF1F
:100D0000C7BFB7AFA79F978F8780878F979FA7AFE2
:100D1000B7BFC7CFD6DEE6EEF6FEF6EEE6DED6CFFE
:100D2000C7BFB7AFA79F978F87807870686058500C
:100D30004840383029211911090109111921293098
:100D400038404850586068707880010203030405F9
:100D5000060708090A0B0C0E0F1012131517181AA4
:100D60001C1E20222426292B2E3134373A3D4044A4
:100D7000484C5054585D62676C71777D838A9198B6
:100D80009FA7AFB7C0C9D3DDE8F3FEF3E8DDD3C951
:100D9000C0B7AFA79F98918A837D77716C67625DBA
:100DA0005854504C4844403D3A3734312E2B292674
:100DB0002422201E1C1A1817151312100F0E0C0BCC
:100DC0000A09080706050403030201010C1620297D
:100DD00030383E444A4F54585C606366696C6E70AC
:100DE00072747677787A7B7C7D7E7F808081828347
:100DF00084858788898B8D8F919396999C9FA3A7D3
:100E0000ABB0B5BBC1C7CFD6DFE9F3FEF3E9DFD6A0
:100E1000CFC7C1BBB5B0ABA7A39F9C999693918F49
:100E20008D8B898887858483828180807F7E7D7C8D
:100E30007B7A7877767472706E6C696663605C58E2
:100E4000544F4A443E38302920160C01E5CDB8A451
:100E5000938274665A4F453C332C26201A16120E84
:100E60000B09070504020201010101020203040546
:100E70000608090B0D0E10121416191B1D1F222433
:100E800027292C2E313336393B3E414446494C4FBD
:100E90005254575A5D606366686B6E7174777A7DE1
:100EA000808285888B8E9194979A9DA0A3A6A9ABEA
:100EB000AEB1B4B7BABDC0C3C6C9CCCFD2D5D8DBEA
:100EC000DEE1E3E6E9ECEFF2F5F8FBFEE5142636A9
:100ED0004553606C77828B949CA3AAB1B7BCC1C602
:100EE000CACED2D5D9DCDEE1E3E5E7E9EBECEEEF03
:100EF000F0F2F3F4F5F5F6F7F8F8F9F9FAFAFBFB86
:100F0000FBFCFCFCFDFDFDFDFDFEFEFEFEEBD9C97C
:100F1000BAAC9F93887D746B635C554E48433E39F1
:100F200035312D2A2623211E1C1A181614131110D0
:100F30000F0D0C0B0A0A090807070606050504042D
:100F40000403030302020202020101010114FEE68E
:100F5000BD8B582D0F0102112946637C8E98999400
:100F6000897B6E625B58595E666F7981878B8C8B4B
:100F70008986838180808183878A8E9194969798D1
:100F800098989999999A9C9D9FA1A3A5A7A8AAAB67
:100F9000ACADAEAFB0B1B3B4B6B7B9BABCBDBEC0FC
:100FA000C1C2C3C5C6C7C8CACBCDCECFD1D2D3D597
:100FB000D6D7D9DADBDDDEDFE1E2E3E5E6E7E9EA31
:100FC000EBEDEEEFF1F2F3F5F6F7F9FAFBFDFE4388
:100FD000557398BDDDF3FEFEF4E4D0BDACA09A9A43
:100FE0009FA8B2BDC6CCCFCFCDC8C2BDB8B5B3B334
:100FF000B4B7BABDBFC1C2C2C1C0BEBDBBBABABA26
:10100000BABBBCBDBEBEBEBEBEBEBDBDBCBCBCBC14
:10101000AA8C6742220C01010B1B2F42535F6565AE
:1010200060574D423933303032373D42474A4C4C9D
:101030004B484542403E3D3D3E3F4142444545458B
:10104000454443424141414141414242434343437C
:1010500073796E636C74636800706F6C797365711B
:1010600000617270656767696F0062706D20636E02
:101070007472006363206B6E6F620063686F7264EA
:101080006D656D00636C6F636B00646976696465A0
:10109000720063686E66696C74720063686E6D6579
:1010A000726772007573657220707267006469738D
:1010B0007061746368006472756D73006D6F6E6942
:1010C000746F720072616E646F6D697A00636F6E27
:1010D00074726C6C720073706C6974746572006405
:1010E000656C6179007363616C650073657175652A
:1010F0006E6372006363206C666F0074616E70755E
:1011000072610073657474696E6773006E6F7465E5
:101110006E756B65007379737864756D70002172FC
:10112000657365742100A52076312E3420A50073E7
:101130006E644F666600727374437472006C636C05
:10114000437472006E6F744F6666006F6D6E4F660B
:1011500066006F6D6E694F6E006D6F6E6F4F6E0043
:10116000706F6C794F6E00737973782E2E002E732A
:101170007973782E002E2E737973780073746172F0
:10118000740073746F7000636F6E742E00726573F9
:1011900065740063686E0063636300636C6300637F
:1011A0006C6E00616C6C007265737400746965002C
:1011B00065786974006F6666006F6E006E6F007907
:1011C000657300784645006C657400666C74007247
:1011D0006563006475620072756E0062706D006711
:1011E000727600616D7400746170007377670073CC
:1011F000686600707368006C61670068756D006DEB
:101200006E6B0076616C006E756D007479700063B2
:101210006323006E7270006D696E006D6178006D01
:101220006F640070746E006C656E006575630069B4
:101230006E7400657874006E6F7400636C6B007080
:101240007431007074320070743300707434006351
:1012500063310063633200636333006363340063AC
:101260006335006363360063633700636338006986
:101270006E70006F75740073706C006C6F77007522
:1012800070700076656C0023633100236332006365
:10129000796300706F6C00726E640073746B00642D
:1012A00069720075700064776E0075266400706C5A
:1012B0006100636864006F637400647572006C6140
:1012C00074006469760064656E00342F3100332F3A
:1012D0003100322F3100332F3200312F3100332FC4
:1012E0003400322F3300312F3200332F3800312FAA
:1012F0003300312F3400312F3600312F38002F3199
:1013000032002F3136002F3234002F3332002F3489
:1013100038002F3936007265700074727300647083
:101320006C006F66665F006D697200616C740074BA
:10133000726B00726F6F0073636C00766F69006888
:10134000726D0063687200696F6E00646F72007086
:101350006872006C7964006D69780061656F006C7B
:101360006F6300626D6A00626D6E00706D6A00707E
:101370006D6E00626872007368720072757000743E
:101380006F6400726167006B6161006D6567006D7D
:101390006C6B0064706B00666C6B006A6170006758
:1013A000616D0077686C006B657900007374700084
:1013B0000100020003000400616D3100616D320024
:1013C000616D3300616D3400636531006365320027
:1013D00063653300636534007766310077663200F9
:1013E00077663300776634007274310072743200AD
:1013F000727433007274340073793100737932007F
:1014000073793300737934007472690073717200F8
:10141000726D700073696E00736932007369330016
:1014200073693500676731006767320062743100A5
:101430006274320073703100737032006C7031006E
:101440006C70320072733100727332007326680060
:101450007061006D61006E690073610072657300F8
:101460006672650070726700F0002102000320437D
:10147000446220444562204520464762204741623D
:101480002041426220420020434323204444232041
:101490004520464623204747232041412320420040
:1014A0002D30313233343536373800F81E00000025
:1014B000000000000000000000000000000000002C
:1014C00000000000000000A91F0000021F4F1F00C5
:1014D000001D1F0000000000000100F0032A0500AD
:1014E0000000016122F721C32100000000742000E8
:1014F0000000000000B321D11FAC1FBE200000007F
:10150000004A2200000000000000008820000000C7
:10151000000C00D0002D051B150200007800000013
:10152000000100100C0E00CA2400000000000000A2
:10153000000000000000000000C322F72229231051
:10154000230000AA240000B8234223AD2342240034
:101550000000000000000000000000000003016720
:101560002500000000000000000000000000000056
:1015700000000000000000000000000000642500E2
:1015800000000000000000F724D924000006001825
:10159000004D05971504013F000007007F54260801
:1015A00026E925CA25000000000000000000000018
:1015B0000000000000000000000000492600003E7E
:1015C00026000000000000000000000C0090005306
:1015D00005D515050100043C3F434630303030301E
:1015E000309A26000000000000000000000000000B
:1015F000000000000000000000000000005B26006A
:1016000000000000000000000000000000000002D8
:101610000040025F0519160701010098270000002D
:1016200000000000000000000000000000F226E0C2
:1016300026DD26EF260000F8260000B6262C27001F
:101640000000000927AD26000004001000640553C7
:1016500016060100780000FF2700000000000000CF
:10166000000000000000000000000000000000007A
:101670000000000000C5270000000000000000007E
:1016800000000000000300C0006D058F1609010076
:101690000300692924290829000000000000000037
:1016A00000000000F5281A28122822280000000057
:1016B000432900000000000000002928000000006D
:1016C0000A0000017105DA1611001F3C5770869B55
:1016D000AEBFCEDBE6EFF6FBFDFF007800000008B2
:1016E000040A0000FA2A5A2A432A362A0000000077
:1016F00000000000000000000000000000000000EA
:101700000000C62A000000000000000000000000E9
:1017100000000500B0007C051C170B010000000351
:1017200001552D8E2C752C000000000000000000DB
:10173000000000652C272B1F2B6F2B00000000479B
:101740002D00000000000000003D2B000000000AFA
:10175000004000830565170C010001020304050623
:10176000080A0C0E1000007800000924282A38C34B
:101770002D0000000000000000000000000000003C
:1017800000000000000000000000000000AE2D007E
:101790000000000000000000000000000010002019
:1017A00002AE05A7170801010000000000000000BC
:1017B00000000000000000E32F0000000000000017
:1017C0000000000000000000000000000000000019
:1017D00000000000004F2E00000000DB2F0000CAB8
:1017E0002F0000000001004402FE05EF170A01006F
:1017F000B4311031F730000000000000000000009C
:101800000000E730CB30EF2FE030000000008E31D9
:1018100000000000000000004331000000001F0035
:101820000002FF05281814010000780000100007CE
:101830003F3F0002000A003F0004004A003F000250
:101840000047003F0004007833453374336E332281
:1018500033FF32DC32B732A8325232A3329E329991
:101860003220328632000000004C32000036320056
:1018700000000000000100000030067F180D01008C
:10188000BF3418340F34063400000000000000009C
:101890000000000000000000000000000000B43460
:1018A0000000000000000000000000000000080030
:1018B00088003206B8180E01007F0C200000070ACD
:1018C000A936743661365936000000000000000069
:1018D000000000000000000000000000000097363B
:1018E00000000000000000000000000000000600F2
:1018F00010013A06F818120100000100F400D53674
:1019000000000000000000000000000000000000D7
:1019100000000000000000000000D23600000000BF
:101920000000000000000000000000000500F403BB
:10193000440636191600000010540C033AA3387EF2
:10194000380000000021370000473700006E38459E
:10195000383E38673800000000F5394039FD38203E
:10196000395939AB3900000000870020014906735E
:101970001913010000007800000C000830FF30FF50
:101980003CFF3CFF00893A0000000000000000001E
:101990000000000000000000000000000000000047
:1019A000000000483A0000000000000000000000B5
:1019B00000000004008000D706BD191001003000AF
:1019C000015C3B000000000000000000000000007F
:1019D0000000001F3BA23A0000AA3A0000593B0059
:1019E000000000AD3A0000C23A0000000000000212
:1019F000000A00DB06F91900010408763C7F3B0071
:101A0000000000000000000000000000001C3C1569
:101A10003C773B453C00000000733C0000000000A8
:101A20000000004C3C0000000008003000E0063FD1
:101A30001A15010500000000010102FBF9FF00007A
:101A4000007808003C000500EE0DE70EEE0FBD101B
:101A50004B11DD144915701AE91E11241FBECFEF7A
:101A6000D8E0DEBFCDBF11E0A0E0B1E0E8EDFBE7DC
:101A700002C005900D92A033B107D9F718E0A0E39A
:101A8000B1E001C01D92A633B107E1F71AE1CAE542
:101A9000DAE104C02297FE010E94E63DC834D10776
:101AA000C9F70E94E2110C94CD3C0C9400000F93F6
:101AB0001F93CF93DF938C01EB0160E070E0AE01E8
:101AC0000E94E83C009719F0EC01C01BD10BCE013D
:101AD000DF91CF911F910F9108951F93CF93DF93C3
:101AE000EC01162F70E00E94570D982F06C0FE01E2
:101AF000E90FF11D80E280839F5F9117C0F3DF91B2
:101B0000CF911F910895EF92FF920F931F93CF9360
:101B1000DF93EC01F62EE42E062F10E0B8010E94B0
:101B2000570D282F8F15D1F0DE01A00FB11F12978E
:101B3000E82FF0E03197EC0FFD1F90E00DC09217F9
:101B400028F4808111968C93119703C01196EC9222
:101B500011979F5F119731979F1588F3CDB7DEB727
:101B6000E6E00C94D53D40E20E94830D08958FB7C6
:101B7000F89420913001309131014091320150911F
:101B800033018FBFB901CA0108951F920F920FB69A
:101B90000F9211242F933F934F935F936F937F93F3
:101BA0008F939F93AF93BF93EF93FF93E091350192
:101BB000F0913601309709F00995FF91EF91BF91AF
:101BC000AF919F918F917F916F915F914F913F91D5
:101BD0002F910F900FBE0F901F9018950895982F7A
:101BE0002B9A8091C00085FFFCCF9093C60008958A
:101BF000382F2091EB0619C080916F0190917001F0
:101C0000891B8F77C9F380917001E82FF0E0E451D0
:101C1000F94FE0818F5F8F77809370018091C000D2
:101C200085FFFCCFE093C60022E280917001909185
:101C30006F018150891B8F778317F0F22093EB0699
:101C4000089586E1089520914506222309F444C0B1
:101C5000603508F441C030E090E00196281739075C
:101C600009F03AC0262F30E080916501909166011D
:101C7000805B9F4F2817390778F5962F9055209154
:101C8000E1048091E404E92F01C0E81BE21720F091
:101C9000222311F08823C9F7F0E0EE0FFF1FEE0FAB
:101CA000FF1FEF5DFB4F828123812F5F281B440FB5
:101CB000249F612D1124680FE0915F01F091600174
:101CC000309719F0892F09950895E0916901F091F5
:101CD0006A01E90FF11D608308950F931F93382F58
:101CE0002091470670E06F5F7F4F8091460690E03D
:101CF0006817790701F54217F1F43323D1F0E09129
:101D00004806F0E0E859FF4F0491E0914B01F09153
:101D10004C01309709F0099510E009C0E0914901A4
:101D2000F0914A01309711F082E009951F5F10177A
:101D3000A8F381E001C080E01F910F910895282F42
:101D40008091700190916F018150891B8F77C1F351
:101D500080916F01E82FF0E0E451F94F20838F5F0D
:101D60008F7780936F0108950F931F93CF93DF9325
:101D7000182FEB01042F842F8F5F0E94F80D812F05
:101D80000E949F0E002341F088810E949F0E013027
:101D900019F089810E949F0EDF91CF911F910F91C1
:101DA0000895FF920F931F93182F062FF42E83E0B0
:101DB0000E94F80D812F0E949F0E802F0E949F0E7F
:101DC0008F2D0E949F0E1F910F91FF9008950895EF
:101DD0001F93CF93DF93182FE091660325C0CE2F7A
:101DE000D0E0FE01EE0FFF1FEE0FFF1FEC0FFD1FF7
:101DF000EC55FE4F82818823C9F460816E3F51F01B
:101E00004181442319F4812F806802C0812F8069A9
:101E10000E94D10EFE01EE0FFF1FEE0FFF1FEC0F11
:101E2000FD1FEC55FE4FE381EE23C9F60E94EF0F34
:101E3000DF91CF911F9108951F93182F03C0812F19
:101E40000E94E80E8091A3018823C9F71F9108958D
:101E50000E944D100895E82FF0E0EE0FFF1FEE5F97
:101E6000FE4F6081718187E391E048E350E00E947A
:101E7000D03C08952091670130916801E09169019B
:101E8000F0916A01E80FF91F820F931F60810E9491
:101E90001E3D089560916701709168014091650150
:101EA000509166018091690190916A010E94FC3C09
:101EB00008950E944A0FE0915701F0915801309720
:101EC00011F080E00995E0913701F09138013097E9
:101ED00009F009950895609167017091680140913A
:101EE0006501509166018091690190916A010E949B
:101EF000143D089560916B0170916C0140916501F2
:101F0000509166018091690190916A010E94D03CD4
:101F10000E946B0F0895A0E0B0E0E1E9FFE00C94AF
:101F2000AF3DC62ED42EE22EA0E0B0E0BC01CD0124
:101F30002AE030E040E050E00E942C3D9B01AC01E3
:101F40002C0D311D411D511D64E975E387E790E0BB
:101F50000E948B3D49015A01089481089108A1080B
:101F6000B10882E0D80ECD2CDD24CC0CDD1CE1E2E2
:101F7000F7E0CE0EDF1EFF2400E010E0C501B40143
:101F8000A80197010E942C3D2B013C01C0E0D0E04C
:101F9000F601259134912C0F3D1FF9016591749143
:101FA000882777FD8095982F8E010A581E4FA30130
:101FB00092010E942C3DBC01992777FD9095892FB5
:101FC000680D791DF801718360832296C032D105B6
:101FD000F9F6CDB7DEB7E0E10C94CB3D0895309132
:101FE000A3012091660304C08FEF80832381392FE2
:101FF000822F90E0FC01EE0FFF1FEE0FFF1FE80F96
:10200000F91FEC55FE4F8281882329F03093A301FC
:102010002093660318C0932F9150222329F7309301
:10202000A301109266030895822F90E0FC01EE0F49
:10203000FF1FEE0FFF1FE80FF91FEC55FE4F8281C7
:10204000815082832381222379F70895482FE091DC
:10205000660390E01EC02E2F30E0F901EE0FFF1F47
:10206000EE0FFF1FE20FF31FEC55FE4F8081841728
:1020700031F48181861719F48EEF80839F5FF90117
:10208000EE0FFF1FEE0FFF1FE20FF31FEC55FE4F89
:10209000E381EE2301F7892F0895982FE9EAF1E013
:1020A00071E080818F3F29F07F5F35967A35C9F7DF
:1020B00008958091A3018F5F8093A301A72FB0E0C3
:1020C000FD01EE0FFF1FEE0FFF1FEA0FFB1FEC5588
:1020D000FE4F90836183428324835091660355238E
:1020E00071F0852F90E0FC01EE0FFF1FEE0FFF1F38
:1020F000E80FF91FEC55FE4F8281481768F4FD0187
:10210000EE0FFF1FEE0FFF1FEA0FFB1FEC55FE4FF8
:102110005383709366030895252F30E0F901EE0F85
:10212000FF1FEE0FFF1FE20FF31FEC55FE4F538111
:10213000552371F0852F90E0FC01EE0FFF1FEE0F8D
:10214000FF1FE80FF91FEC55FE4F8281481720F75B
:10215000FD01EE0FFF1FEE0FFF1FEA0FFB1FEC55F7
:10216000FE4F5383F901EE0FFF1FEE0FFF1FE20F2B
:10217000F31FEC55FE4F73830895089584EA91E0B0
:102180006FEF70E042EC51E00E94F53C1092660364
:102190001092A30108951F920F920FB60F9211246F
:1021A0002F933F934F935F936F937F938F939F935F
:1021B000AF93BF93EF93FF93809196019091970116
:1021C0000196A0E0B0E0209172013091730140913E
:1021D000740150917501280F391F4A1F5B1F20930E
:1021E0007201309373014093740150937501809193
:1021F00098018F5F809398018630C1F41092980106
:10220000809199018F5F80939901803111F4109230
:102210009901E0919901F0E0EE0FFF1FEA58FE4F9F
:10222000808191819093970180939601809196018E
:102230009091970190938900809388009695879557
:1022400090938B0080938A0080917101882391F094
:1022500080916E01882349F0E0914901F0914A0193
:10226000309741F080E0099505C080916D038F5F44
:1022700080936D03FF91EF91BF91AF919F918F91EB
:102280007F916F915F914F913F912F910F900FBE72
:102290000F901F9018951092670310926B03109285
:1022A0006C0308951F9378941092C100239A259A85
:1022B0000E94DE140E94BE100E94210E81500E94D6
:1022C0002B0F0E944A0F80E00E942B0F0E94590F93
:1022D000E0916101F0916201309721F080E0099571
:1022E000182F05C0E0916901F0916A0110810E94E8
:1022F000210E181780F0E0915F01F0916001309796
:1023000021F080E060E0099505C0E0916901F0915D
:102310006A01108210E0812F0E942B0F0E94C71AC1
:1023200088E790E060E040E020E00E948B0F109290
:102330009801109299011092710180918100887F1B
:10234000816080938100109280008BE080938100F7
:102350008EE699E1909389008093880087EB9CE05A
:1023600090938B0080938A0080916F0082608093AD
:102370006F008091B100887F82608093B10080916E
:10238000B0008C7F81608093B0008091700081608C
:10239000809370000E94590F8091C0008D7F8093C0
:1023A000C0001092C50087E28093C4008091C100F4
:1023B00088608093C1008091C10080618093C100DA
:1023C0001F91089584B714BE809160008861809346
:1023D0006000109260000E9452110E94731CFDCF99
:1023E0001F93182FE0914701F0914801309709F0B1
:1023F00009958091530190915401892B19F4812FF3
:102400000E94EF0D1F910895CF92DF92FF920F93DC
:102410001F93DF93CF930F92CDB7DEB76C01962F4A
:10242000162F107F062F0F70103F09F4EFC0E091B8
:102430005101F0915201309709F4E8C0802F69836F
:1024400009959981882309F0E1C0D60114964C9131
:10245000E0915501F0915601309709F4DBC00894E2
:10246000C11CD11C892FB60120E00995D3C0973F2C
:1024700071F0F6014481E0915501F09156013097D9
:1024800031F0B6016F5F7F4F892F21E00995103B36
:1024900009F449C0113B40F4103909F1103AA1F197
:1024A000103809F0B7C010C0103D09F457C0113DF5
:1024B00020F4103C09F0AEC049C0103E09F45AC0E7
:1024C000103F09F0A7C06EC0D60111966C9111970C
:1024D00012964C91E0913B01F0913C011FC0F60136
:1024E00042816181442329F0E0913901F0913A0160
:1024F00015C0E0913B01F0913C01309709F48AC08E
:10250000802F40E0099586C0D60111966C911197F5
:1025100012964C91E0913D01F0913E01309709F403
:1025200079C0802FEFCFF601F1801281802F6F2DBF
:10253000412F0E94230EE0914101F091420130971A
:1025400009F468C0802F6F2D412FDCCFD601119682
:102550006C91E0914301F091440106C0F601618164
:10256000E0913F01F0914001309709F453C0802F72
:10257000099550C0D60112966C91129711964C9104
:10258000E0914501F0914601309709F443C070E0B5
:102590007695762F662777956795640F711D802F46
:1025A000099538C00830B9F0093018F4002351F00B
:1025B00031C00A30C9F00A3068F10B30D1F00C306C
:1025C00049F51CC0F6011181812F0E94F011812F65
:1025D0000E9491161FC0E0914901F0914A01309785
:1025E000C9F081E0099516C0E0914B01F0914C01D2
:1025F00009C0E0914D01F0914E0104C0E0914F01FE
:10260000F0915001309731F0099504C0903F09F0E6
:102610002ECF3DCF0F90CF91DF911F910F91FF9063
:10262000DF90CF9008951F93CF93DF93EC01162F87
:10263000E0915301F0915401309711F0862F0995E4
:10264000183F28F0CE01612F0E94041251C017FFDD
:102650003AC01C8281E08D83812F807F803AA1F077
:10266000813A28F4803881F08039A1F40DC0803E91
:1026700059F0803F19F0803B69F406C0912F9F709C
:10268000892F8150823018F482E08D8303C094300A
:1026900008F01D82173F59F48881803F31F487EF9D
:1026A0000E94F01187EF0E949116188213C0103F0C
:1026B00041F4188380EF0E94F01180EF0E94911680
:1026C00009C0188307C08C81FE01E80FF11D11833A
:1026D0008F5F8C839C818D81981750F0CE0168812B
:1026E0000E9404121C828881813F10F01D82188292
:1026F000DF91CF911F91089578941F920F920FB69A
:102700000F9211242F933F934F935F936F937F9377
:102710008F939F93AF93BF93EF93FF938091C000EC
:1027200087FF0DC06091C6006E3F21F48091440682
:10273000882329F42D9A87E693E00E941313809151
:102740006F0190917001891B8F77E1F08091C0003B
:1027500085FF18C02B9A80917001E82FF0E0E451BA
:10276000F94F90818F5F8F77809370019093C600AF
:1027700009C080916D03815080936D03309731F0D3
:1027800080E00995E0914901F0914A0180916D0343
:10279000882379F780916E038F5F837080936E0337
:1027A00080FD2EC00E94F41780916E0390E083702C
:1027B0009070892B29F590913401892F8A59809343
:1027C00034018D37D8F097519093340180913001C6
:1027D0009091310101969093310180933001809165
:1027E000300190913101892B49F48091320190910F
:1027F0003301019690933301809332012B982D98E9
:10280000FF91EF91BF91AF919F918F917F916F91C8
:102810005F914F913F912F910F900FBE0F901F909E
:102820001895382F4091A30320E012C0842F90E028
:10283000DC01AA0FBB1FA80FB91FA059BC4F8C9178
:10284000831719F4222339F418C0242F12964C91BF
:10285000442361F70895822F90E0FC01EE0FFF1FE3
:10286000E80FF91FE059FC4F12968C91828330914A
:102870006F03E4EAF3E090E019C012968C91809324
:10288000A303F5CF8191841781F4292F05C0EC555E
:10289000FC4F818180832F5FE22FF0E0832F90E057
:1028A0000197E817F9079CF303C09F5F931750F354
:1028B000842F90E0FC01EE0FFF1FE80FF91FE05995
:1028C000FC4F12828FEF80831182315030936F035F
:1028D00008950F931F93182F062F0E9411148091B3
:1028E0006F038031C1F4E5E7F3E021E030E080815F
:1028F000882349F4F901EE0FFF1FE20FF31FE0599F
:10290000FC4F808106C02F5F3F4F33962131310548
:1029100071F70E941114E3E7F3E091E080818F3FAB
:1029200009F4592F9F5F33969131C1F7852F90E0BD
:10293000FC01EE0FFF1FE80FF91FE059FC4F8091DB
:10294000A3038283108301835093A30340916F03F9
:1029500020E030E022C0D901F901EC55FC4F808124
:1029600090E0FC01EE0FFF1FE80FF91FE059FC4F4C
:1029700080812F5F3F4F181780F4942F08C0E92FF4
:10298000F0E0EC55FC4F82913196808391506917AD
:10299000B0F3AC55BC4F5C930AC0622F2417D8F239
:1029A000552329F0E42FF0E0EC55FC4F50834F5FA6
:1029B00040936F031F910F9108950895CF93DF9374
:1029C00010926F03A3E7B3E080E3ED0119928A95BB
:1029D000E9F780E1E5EAF3E0EF0119928A95E9F77A
:1029E0001092A303FD0133978FEF8083339683E02A
:1029F000E33AF807C9F7DF91CF910895282F6CE0EB
:102A0000822F0E944B3D0895482FE82FF0E0262F9B
:102A1000332727FD309567FF08C088279927821B39
:102A2000930BE817F9074CF007C08FE790E0821B83
:102A3000930BE817F9070CF4460F842F08950F93B2
:102A40001F93062F142F6C3008F00C50801B87FD4D
:102A5000845F0E94FE14175FE12FF0E0EE0FFF1F6E
:102A6000EF5DF84F65917491292F30E0220F331FED
:102A7000620F731FFB01459154912CE0382F329F58
:102A8000C0011124840F800F87FD8C501F910F917E
:102A9000089585EB93E06FEF70E040E450E00E9412
:102AA000F53C089510921A041092190482E0809364
:102AB0001D0480911F048230B1F0833018F48130FE
:102AC000B9F405C0813141F0833791F40CC0809195
:102AD000200490E0029602C082E090E090931C04F3
:102AE00080931B04089510921C0410921B040895F7
:102AF00083E080931D040895A0E0B0E0E2E8F5E1F2
:102B00000C94B83DC62FD0E0209721F4C0E0D4E06B
:102B1000C81BD90B7C0173C0CE01C132D10510F0A6
:102B200080E290E0D82EE8E6F4E194918091C00034
:102B300085FFFCCF9093C600319684E1EE36F8070E
:102B4000A1F78091C00085FFFCCF81E08093C60093
:102B50008091C00085FFFCCFD092C600E092F503C3
:102B6000F092F6030D2D10E087EF93E0B701A80176
:102B70000E94FC3C30E040E015C0EB50FC4F20814F
:102B8000922F92959F708091C00085FFFCCF90930B
:102B9000C6008091C00085FFFCCF320F2F702093BC
:102BA000C6004F5FE42FF0E08D2D90E001968E1768
:102BB0009F071CF7932F92959F708091C00085FF0F
:102BC000FCCF9093C6008091C00085FFFCCF3F7082
:102BD0003093C6008091C00085FFFCCF87EF8093C3
:102BE000C600C01BD10BE00EF11E209741F08CED0A
:102BF00095E0E4EFF1E03197F1F70197D1F72097F5
:102C000009F08ACFCDB7DEB7E7E00C94D43DCF9280
:102C1000DF92EF92FF921F9384E492E00E940C3DBA
:102C2000182FE82EFF2496E0EE0CFF1C9A95E1F792
:102C300080E892E0E80EF91E85EFC82E83E0D82EDA
:102C4000C60160E873E040E250E00E94FC3CC6012F
:102C5000B70140E250E00E94143DC60160EA73E013
:102C600040E250E00E94FC3C80E290E0E80EF91E59
:102C7000C601B70140E250E00E94143D80E0612FA0
:102C80000E94CA2F1F91FF90EF90DF90CF90089580
:102C90006091F5037091F60380911F048230A9F0D2
:102CA000833020F4813009F03BC005C0813199F1B7
:102CB0008337B1F52DC04091200487EF93E050E0B9
:102CC0000E94143D0E944A0F089580E00E942B0F3D
:102CD0000E94590F60912004E0915F01F091600122
:102CE000309719F080E0099505C0E0916901F091F5
:102CF0006A0160830E946B0F2CE088E190E00FB6C0
:102D0000F894A895809360000FBE20936000FFCFD9
:102D10000E9407160895CB01609120040E947C1543
:102D20000895482F803F41F410921E0410921A0417
:102D30001092190410921D0480911D04813019F124
:102D4000813030F0823091F1833009F077C063C078
:102D50008091190490911A04FC01E859FB4EE4910A
:102D6000E41709F054C0019690931A048093190453
:102D7000069708F463C081E080931D0410921A0442
:102D80001092190408958091190490911A04FC017D
:102D9000E15EFB4F4083019690931A0480931904DF
:102DA000029709F04BC00E94521508952091190412
:102DB00030911A04B90176956795FB01EB50FC4FF1
:102DC00020FF11C04F708081482B408380911B04ED
:102DD00090911C046817790750F480911E04840FA9
:102DE00080931E0404C0842F8295807F80832F5F90
:102DF0003F4F30931A042093190480911B04909143
:102E00001C040196880F991F28173907B8F083E032
:102E100080931D040895473F71F4E0911B04F091E5
:102E20001C04EB50FC4F90911E048081981719F4FC
:102E30000E944816089585E080931D040895E0914E
:102E40005F01F0916001309711F009950895E091CC
:102E50006901F0916A01E80FF11D60830895E09126
:102E60006101F0916201309711F009950895E091A8
:102E70006901F0916A01E80FF11D808108950F93B7
:102E80001F93CF93DF939091E104E92FF0E0A1E24B
:102E9000B4E0EE0FFF1FEE0FFF1F8D010E0F1F1F7F
:102EA000E80188836983AE0FBF1F12964C932B8372
:102EB0009F5F9093E1048091E2048F5F8093E2042E
:102EC000DF91CF911F910F9108953091E104E32F8D
:102ED000F0E041E254E0EE0FFF1FEE0FFF1FDA01BA
:102EE000AE0FBF1F85E58C9382E511968C931197E9
:102EF000E40FF51F128282E013968C933F5F60917E
:102F0000E204E32FF0E0EE0FFF1FEE0FFF1FDA01E8
:102F1000AE0FBF1F8DE38C9311961C921197E40F97
:102F2000F51F88E2828380EF13968C933F5FE32F37
:102F3000F0E0EE0FFF1FEE0FFF1FDA01AE0FBF1F15
:102F40008EE38C9381E411968C931197E40FF51F17
:102F5000128285E013968C933F5F832F90E0880F59
:102F6000991F880F991FFA01E80FF91F2FE320839B
:102F70001182480F591FDA0112961C928FE7838342
:102F80003F5F3093E1046C5F6093E2040895EF9239
:102F9000FF920F93CF93DF939091E104E92FF0E03C
:102FA000A1E2B4E0EE0FFF1FEE0FFF1F7D01EE0E5A
:102FB000FF1EE70188836983AE0FBF1F12964C93F3
:102FC0002B839F5F9093E1048091E204800F8093B4
:102FD000E2048091E4048F5F8093E404DF91CF9159
:102FE0000F91FF90EF90089583B190E096958795AB
:102FF00096958795817020916D07220F282B20933D
:103000006D0783B190E09695879581709091C60782
:10301000990F982B9093C607203829F4892F807F29
:1030200011F491E007C0903821F4207F11F49FEF54
:1030300001C090E083B181703091C407330F382B09
:103040003093C407992391F021E0222F2295207F0D
:103050008091EA04E82FF0E0EE0FFF1FE551F84FF2
:10306000208391838F5F8F718093EA04189914C035
:10307000D4C022E0222F2295207F9091EA04E92FEC
:10308000F0E0EE0FFF1FE551F84F20838FEF8183B3
:103090009F5F9F719093EA043F37F1F48091E704BA
:1030A0009091E8048152934098F422E0222F2295D7
:1030B000207F9091EA04E92FF0E0EE0FFF1FE55129
:1030C000F84F208381E081839F5F9F719093EA0492
:1030D0001092E8041092E7043091E604323031F1A6
:1030E000333030F4332351F0313009F061C012C075
:1030F000333051F1343009F05BC035C096B1917076
:1031000080916C07880F892B80936C07803809F0B9
:103110004FC039C086B190E0969587958170209117
:10312000EA07220F282B2093EA072BC086B190E0F4
:10313000969587959695879581702091BF07220F68
:10314000282B2093BF071DC086B190E0E3E0969541
:103150008795EA95E1F7817020916E07220F282B61
:1031600020936E070EC083B190E074E0969587952A
:103170007A95E1F781702091C007220F282B2093C8
:10318000C0072038A9F423E0222F2295207F832F27
:103190008F70282B8091EA04E82FF0E0EE0FFF1FDC
:1031A000E551F84F208311828F5F8F718093EA047D
:1031B000832F8F5F8093E604853010F01092E60431
:1031C0008091CF078F5F8093CF078091BE078823C0
:1031D00029F05B985A981092BE0708958091EC04EC
:1031E0009091EB04891B8F7331F181E08093BE07CE
:1031F0008091EB04E82FF0E0E159F84FE0818F5F18
:103200008F738093EB04E4FD5A9A8BB1E295E07FD3
:103210008F70E82BEBB95B9A08958091E704909149
:10322000E80401969093E8048093E7048152934068
:1032300008F01FCF31CF0895FC016F3F11F460E219
:1032400005C0693010F46F5C01C068506083089558
:10325000FC01862F82958F708A3010F4805D01C04A
:10326000895A80836F706A3010F4605D01C0695ABA
:1032700061830895CF93DF93EC01262F862F6CE0B6
:103280000E944B3D592F822F0E944B3D982F442383
:1032900019F427E834E102C02EE634E1852F880FC7
:1032A000F901E80FF11DE491DE01ED938F5F280F26
:1032B000311DF90184918983E92FF0E0E056FB4E3E
:1032C000E4911196EC93DF91CF91089538E020E0DE
:1032D000239FD0011124AF51B84FEAE9F1E002C0B9
:1032E0008D9331968081882321F091E0E23AF907AD
:1032F000B9F708951F93CF93DF939C01162FEA012E
:103300006623C1F1009729F4FA0180E381936150AB
:103310002FC097FF06C08DE28993115030952195FB
:103320003F4F40E0E42FF0E0EE52F84FC9016AE071
:1033300070E00E94783D80834F5FC9016AE070E0D1
:103340000E94783D9B016115710561F7642FDE01D4
:1033500008C04150E42FF0E0EE52F84F8081805DCC
:103360008D934423B1F7FE01E60FF11D161B612F6B
:1033700061111082DF91CF911F9108951F93382F13
:10338000162F662361F1882329F4FA0180E38193E3
:10339000615023C020E0E22FF0E0E553F84F832F87
:1033A0006AE00E944B3D90832F5F832F0E944B3D2C
:1033B000382F882381F7622FDA0108C02150E22FCD
:1033C000F0E0E553F84F8081805D8D932223B1F7C3
:1033D000FA01E60FF11D161B612F611110821F917A
:1033E00008951F93CF93DF93282F162FDA016623BA
:1033F00099F1882329F4FA0180E3819361502AC06E
:1034000087FF04C08DE28D931150219530E0E32FAA
:10341000F0E0E055F84F822F6AE00E94573D90831C
:103420003F5F822F6AE00E94573D282F882379F75B
:10343000632FED0108C03150E32FF0E0E055F84F65
:103440008081805D89933323B1F7FD01E60FF11D83
:10345000161B612F61111082DF91CF911F9108958A
:10346000982F84FD5A9A8BB19295907F8F70892BFB
:103470008BB95B9A88E893E10197F1F75B985A98CA
:1034800088E99AE30197F1F708951F93182F829521
:103490008F700E94301A812F8F700E94301A1F91F6
:1034A0000895282F8091EB049091EC048150891BA2
:1034B0008F73823010F480E008959091EC04E92F2E
:1034C000F0E0E159F84F822F82958F708061808300
:1034D0002F70206121839E5F9F739093EC04089569
:1034E0001F938091B5072091B6073091B70740919F
:1034F000B8076091B907E091BA07A091BB07109196
:10350000BC07B82FBF5F91E0B81708F090E0F92F23
:10351000F20F81E0F21708F080E0782F730F81E05E
:10352000731708F080E0582F540F81E0541708F00B
:1035300080E0382F360F81E0361708F080E0282F22
:103540002E0F81E02E1708F080E0982F9A0F81E06F
:103550009A1708F080E0810FB093B507F093B60793
:103560007093B7075093B8073093B9072093BA0701
:103570009093BB078093BC071F9108958AE991E05F
:1035800060E270E048E050E00E94F53C08950F933F
:103590001F9322982A9A8FEF80936D072198299A7A
:1035A0008093C6072098289A8093C4073898409A39
:1035B00080936C073998419A8093EA073A98429A27
:1035C0008093BF073B98439A80936E0724982C9A68
:1035D0008093C007529A539A8AB1806F8AB95A98D9
:1035E0005B9888EE93E0E4EFF1E03197F1F7019713
:1035F000D1F783E00E94301A00E117E2C801019779
:10360000F1F783E00E94301AC8010197F1F783E0D7
:103610000E94301AC8010197F1F782E00E94301A27
:1036200080E20E94451A8CE00E94451A86E00E94C2
:10363000451A81E00E94451A82E00E94451A1092C4
:10364000BE0781EE97E060E270E048E050E00E9443
:10365000F53C89ED97E06FE370E048E050E00E94B0
:10366000F53C1092BD071092D0071092D1078FEF52
:103670008093C2078093C5071092C3071092E60497
:103680001092E1041092E2041092E4041092E30418
:103690001092E5041092E8041092E7041F910F9134
:1036A00008959B01E82FF0E0EE0FFF1FE758FF4F52
:1036B00065917491C90150E00E94D93C08956AE96E
:1036C00071E048E00E94511B8AE991E068E00E94A5
:1036D000B30D38E020E0239FD0011124AF51B84F43
:1036E000EAE9F1E002C08D9331968081882321F0D0
:1036F00091E0E23AF907B9F70895DF92EF92FF926D
:103700000F931F93D82EE62E142FF22E8AE991E004
:1037100060E270E048E050E00E94F53C86E0D81698
:10372000B1F483E680939A0188E680939B019FEF32
:10373000E91611F480E208C088E08E1518F08E2D8D
:103740008F5C02C08E2D885080939C0106C08D2D09
:103750006AE971E043E00E94511B8AE991E063E06D
:103760000E94B30D80919C01803294F480919B0162
:10377000803271F48E2D90E0019662E04AE951E0CA
:103780000E947A198AE991E062E040E30E94830D89
:10379000123069F1133030F4112361F0113009F067
:1037A0004AC01CC0143031F0143040F1153009F01B
:1037B00042C00DC08F2D63E04EE951E00E94BE195A
:1037C000FF2009F03FC01430E9F58EE236C08F2D9E
:1037D00063E04EE951E00E94F11934C08F2D90E072
:1037E000019663E04EE951E00E947A192BC08EE900
:1037F00091E06F2D40E00E943A1924C09BE09F1594
:1038000028F08EE991E06F2D40E007C087E18F1529
:1038100040F08EE991E06F2D41E00E943A1980E27C
:1038200007C08BE680939E0185E680939F0189E720
:103830008093A00107C08F2D810F6EE971E043E0F6
:103840000E94511B8EE991E063E00E94B30D0023BA
:1038500031F08BE580939D018DE58093A10138E0E7
:1038600020E0239FD0011124AF51B84FEAE9F1E0E5
:1038700002C08D9331968081882321F091E0E23A55
:10388000F907B9F71F910F91FF90EF90DF9008951E
:103890000F931F93182F8091E504882339F08091AE
:1038A000E30490E00E943A0F1092E5040091E304D3
:1038B0001093E3048091E204181718F0815080936C
:1038C000E3048091E304E0916301F0916401309797
:1038D00039F00995813021F0823011F40093E3042E
:1038E0001F910F910895EF92FF920F931F93CF9323
:1038F000DF9310E0F6C00E94B70D6093C707709386
:10390000C8078093C9079093CA078091E304209168
:10391000E1049091E40401C0891B821720F0222366
:1039200011F09923C9F7C82FD0E08091E904E82F5E
:10393000F0E0EE0FFF1FE551F84F2081F1808F5F1F
:103940008F718093E904822F82958F70813009F006
:1039500080C0E0915701F0915801309729F08F2DE8
:103960000995882309F0BCC08091E504882309F4F7
:103970004BC08E01000F111F000F111F0F5D1B4F59
:10398000F8018181EF2CFF24E7FCF094CC0FDD1FC0
:103990008530E1F48091E3040E942F17282F33270C
:1039A00027FD30952E0D3F1DCC0FDD1FCD5DDB4F6C
:1039B0008881682F772767FD7095F8018381261726
:1039C0003707ECF0992787FD909514C08091E304A8
:1039D0000E942F179701280F311DCC0FDD1FCD5DE1
:1039E000DB4F8881682F70E0F80183812617370745
:1039F00034F090E0B901821793070CF4BC01809178
:103A0000E3040E941F176CC01091E3049091E3043B
:103A10009F0D9093E3049F3F19F41092E30407C0B5
:103A20008091E204981718F081508093E30480910C
:103A3000E304E0916301F0916401309709F450C010
:103A40000995813009F44CC0823001F71093E304EA
:103A500047C08230A1F5F1E0FF1669F5E091590108
:103A6000F0915A01309719F009958823C9F5CC0FC8
:103A7000DD1FCC0FDD1FCF5DDB4F8981823369F401
:103A80001091E304812F0E942F1760E0882309F42E
:103A900061E0812F0E941F1708C08091E50491E02A
:103AA00089278093E5048823D9F48091E30490E08A
:103AB0000E943A0F15C080E00E942B0F11C0833086
:103AC00079F4122F1F70E0915B01F0915C01309747
:103AD00021F0812F0995882319F4812F0E94481C19
:103AE00011E08091EA049091E904891B8F7109F03B
:103AF00002CF0E94B70D2091C7073091C807621B03
:103B0000730B6333710588F00E94B70D6093C7078C
:103B10007093C8078093C9079093CA0780916D017D
:103B20008D3029F40E943E3202C0112369F1E091E8
:103B30005D01F0915E01309719F00995882321F518
:103B40008091E3042091E1049091E404E82FFF24A4
:103B500002C0E91BF394E21720F0222311F099230D
:103B6000C1F7F0E0EE0FFF1FEE0FFF1FEF5DFB4F01
:103B7000108101810E942F17282F812F6F2D402F38
:103B80000091E5040E947D1B8091EB049091EC0470
:103B90008150891B8F73843008F494C09091CF07B3
:103BA0008091AF07981738F48091C3078F5F809397
:103BB000C3071092EB068091CF078093AF079091D7
:103BC000BD078091C507981739F48091C30781FF1D
:103BD00003C010912E0117C02091EB06222371F033
:103BE000992311F0973051F4E92FF0E0EF51F84F9D
:103BF0008081803219F4122F115005C0E92FF0E0B6
:103C0000EF51F84F1081292F30E0F901E752F84FBA
:103C100080811817F1F18091C20790E00196281772
:103C2000390721F48091D107882339F52091D007F5
:103C30003091D1078091EB049091EC048150891B65
:103C40008F738230D0F02295220F220F207C3068B3
:103C5000232B3091EC04E32FF0E0E159F84F822F51
:103C600090E0A4E095958795AA95E1F780832F7061
:103C700021833E5F3F733093EC04812F0E94511AE1
:103C80008091BD07E82FF0E0E752F84F1083809352
:103C9000C2079091D1079F5F9093D1078091BD0794
:103CA0008F5F8093BD07983069F41092D10780919F
:103CB000D0078F5F8093D007813021F41092D00716
:103CC0001092BD07CDB7DEB7E6E00C94D53DA9E272
:103CD000B5E093E12C91281741F0E92FFF27E7FD8C
:103CE000F095EA5EFA4F20839150119725E0A531B7
:103CF000B20781F711968C9308951F93382F209166
:103D00001505EDEEF4E01FEF90E006C0808183170B
:103D100009F4192F9F5F32969217C0F31F3F51F09D
:103D2000E12FF0E0EE0FFF1FE351FB4F1182812FD7
:103D30000E94671E812F1F9108951F93382F209195
:103D40001505222311F41FEF41C0ADEEB4E0E0E011
:103D500005C08C911296831721F0EF5FE217C8F32C
:103D600002C0EF3FB1F4A6E1B5E09FEF1C9112173E
:103D700040F4E12FF0E0EE0FFF1FE351FB4F818194
:103D80008111192F119685E0AA32B80719F0912FE9
:103D9000EDCF1E2F1F3F71F4E6E1F5E08081821721
:103DA00008F0812F319695E0EA32F90711F0182FCB
:103DB000F5CF182FE12FF0E0EE0FFF1FE351FB4F7F
:103DC000308381E08183812F0E94671E812F1F91A4
:103DD0000895089588E2EDEEF4E0DF011D928A95E2
:103DE000E9F7E6E1F5E083E181938150E8F7089592
:103DF00080912A0580932B05882319F481E0809314
:103E00002B0508951F9310912B05180F10932B0568
:103E1000112311F481E00CC00E94210E212F30E00B
:103E200090E00396821793072CF40E94210E8D5F79
:103E300080932B0581E01F9108951F930E94BE1A65
:103E400010912B050E94210E181740F010912B05A0
:103E50000E94210E195E181BE12F07C080912B05CF
:103E60000E942B0F80916D01E82FF0E0EE0FFF1FF5
:103E7000E758FF4F659174918AE991E048E050E07E
:103E80000E94D93C80E00E942B0F8AE991E068E013
:103E90000E946D0D0E94661981E01F9108950F9395
:103EA0001F9310912B050E94210E181789F400E032
:103EB0000DC0802F8068612F40E00E94D10E1F5FEF
:103EC0001038B9F70F5F003109F43FC010E0F1CFAF
:103ED00000912B0510E00E94210E90E0019608173A
:103EE000190731F480E090E060E00E947C1520C06A
:103EF00000912B0510E00E94210E90E00296081719
:103F0000190791F411E006C0812F0E942B0F0E9427
:103F10007A0F1F5F0E94210E1817B0F380E00E94F5
:103F20002B0F10922A0504C080912B0580932A053F
:103F30000E946B0F2CE088E190E00FB6F894A895F2
:103F4000809360000FBE2093600081E01F910F916D
:103F500008950E94EF0D089580912D05882319F092
:103F600081E080932C05089581E080932C0581E009
:103F700090E090933D0580933C05809139058150F8
:103F800080933A0580913205813011F081E001C0C3
:103F90008FEF80933E058FE780933F051092420597
:103FA000089580912D05882331F080912C05882378
:103FB00011F40E94B41F089580913E05813029F4C8
:103FC00010923F0510924005089580916F03815033
:103FD0008093400580913305815080933F0508957B
:103FE0001F9360913F056F3709F47AC010916F03FA
:103FF000709132057330D9F52091000130910101A3
:10400000C90181709070909581959F4F8070947BCD
:10401000369527958227932790930101809300017D
:10402000792F72957F7080913305482F50E0682F6B
:104030006195292F2F70322F260F832F992787FD07
:10404000909584179507BCF730933F05612F6195D4
:10405000472F542F460F252F332727FD3095812FCB
:1040600090E028173907ACF7509340053BC05091BA
:104070003E0540914005450F40934005242F3327CE
:1040800027FD3095812F90E0281739071CF01092FA
:10409000400506C047FF26C01150109340051F5F22
:1040A000462F450F40933F05242F332727FD30959A
:1040B0008091330590E02817390714F447FF12C0A8
:1040C000723071F4519550933E050E94DC1F1230FE
:1040D00008F087CF80913305823008F082CF02C08C
:1040E0000E94DC1F1F9108951F93142F909131059A
:1040F000891761F4603451F480914105882321F0DF
:10410000442311F40E94DE14109341051F91089579
:104110000F931F93182F062FE82FF0E0E35DFA4F5F
:104120006083843050F480912E0590E060E04091EF
:104130002F05209130050E948B0FE0913605F0E0AD
:10414000E859FF4FE491E0933905153061F480910F
:104150003205813011F081E001C08FEF80933E0580
:104160000E94DC1F08C01B3031F4002321F40E94A0
:10417000DE14109242051F910F91089580912D0534
:10418000882331F010922C05809131050E941C0F7C
:1041900008950F931F93082F162F60E00E9426109A
:1041A000882339F0809131058068602F40E00E94BB
:1041B000D10E809131051F778069602F412F0E94B9
:1041C000D10EE0913705F0E0E859FF4FE491E1505E
:1041D000802F60E04E2F20E00E94280F1F910F914A
:1041E00008951F9380913A058F5F80933A058091DF
:1041F0006F03882311F010923B0580913B058F5F80
:1042000080933B05803680F080E680933B0580916B
:104210002D05882349F410922C05809131050E94C8
:104220001C0F8CEF0E94EF0D809131050E94E80E6B
:1042300090913A0580913905981708F492C0109230
:104240003A0580913405E82FF0E0EE0FFF1FE15BA7
:10425000FD4F8591949120913C0530913D0582233D
:104260009323892B11F490E001C09FEF80916F039D
:10427000882309F458C0992309F455C08091320568
:10428000853011F410E04BC00E94F01F9091400562
:10429000E92FF0E0EC55FC4FE0818091320584304D
:1042A000A9F4E091A30320916F032150291B30E072
:1042B0000BC08E2F90E0FC01EE0FFF1FE80FF91FDF
:1042C000E059FC4FE2813F5F321798F383E0E89FAB
:1042D000F0011124E059FC4F3081618180913F054C
:1042E0002CE08202C0011124380F01C03C5037FD80
:1042F000FDCF832F0E94C92016C0E12FF0E0EC55BE
:10430000FC4F808190E0FC01EE0FFF1FE80FF91FCA
:10431000E059FC4F808161810E94C9201F5F80911C
:104320006F03181750F320913C0530913D05220F83
:10433000331F30933D0520933C0581E090E00090D1
:10434000350502C0880F991F0A94E2F7281739072C
:1043500011F0232B31F481E090E090933D058093A0
:104360003C051F91089590912D05981759F480915F
:104370002C05882339F0992319F488EF0E94EF0D5A
:104380000E94F12008950F931F93082F162F8091FC
:104390002D05823039F480E0602F412F0E946D0E90
:1043A000882311F5809131050817F1F480914105BA
:1043B0008823D1F414C0812F0E94111415C080915C
:1043C000A30390E0FC01EE0FFF1FE80FF91FE05977
:1043D000FC4F8081181741F41092420505C080916E
:1043E0003805882361F7E7CF1F910F910895FF9259
:1043F0000F931F93182F062FF42E80912D058230D6
:1044000039F481E0612F402F0E946D0E8823F1F571
:10441000809131051817D1F534C080913B05803665
:10442000E0F01092720110927301109274011092D8
:10443000750181E0809371011092980110929901A9
:1044400080917601909177019093970180939601E6
:104450000E94B41F8AEF0E94EF0D10923B058091DD
:104460003805882349F080914205882329F40E9469
:10447000DE1481E080934205802F6F2D0E94691425
:1044800005C080912D05813041F6E9CF1F910F9134
:10449000FF900895282FFB0190913105892F8068A6
:1044A000281771F0892F8069281751F0906B291710
:1044B00019F48081803421F0822FBF010E94B40E54
:1044C00008950E9465178AE261E040E02FE00E94B3
:1044D0003F1781E762E740E025E00E943F1788E749
:1044E00060E041E024E00E943F178FE461E040E09B
:1044F00025E10E943F1780E560E041E020E10E9455
:104500003F178BE76FE740E020E10E943F1789E704
:104510006FE740E020E10E943F178AE762E340E056
:1045200021E00E943F1780912E0590E060E04091CD
:104530002F05209130050E948B0F89E06091360590
:104540000E948820109272011092730110927401DF
:104550001092750181E08093710110929801109280
:1045600099018091760190917701909397018093C2
:10457000960180E680933B0510922C051092410530
:10458000109242050895813089F5209143053091BC
:1045900044054091450550914605211531054105D9
:1045A000510541F41092720110927301109274013E
:1045B000109275018091720190917301A091740124
:1045C000B09175018093470590934805A0934905E4
:1045D000B0934A052F5F3F4F4F4F5F4F20934305E6
:1045E0003093440540934505509346050895109235
:1045F000430510924405109245051092460510920D
:104600004705109248051092490510924A051092EC
:104610007201109273011092740110927501089545
:1046200010924305109244051092450510924605DC
:1046300010924705109248051092490510924A05BC
:104640001092720110927301109274011092750110
:10465000089510924305109244051092450510925A
:104660004605109247051092480510924905109290
:104670004A05109272011092730110927401109207
:104680007501089510924305109244051092450556
:104690001092460510924705109248051092490560
:1046A00010924A05109272011092730110927401D7
:1046B0001092750181E00895A0E0B0E0E2E6F3E237
:1046C0000C94B53D6B017C01A42EE901442309F44F
:1046D0003FC0611571058105910529F4F90180E359
:1046E0008193415033C0BB240B2D10E0055D174F63
:1046F000C701B6012AE030E040E050E00E948B3D67
:10470000F8016083B394C701B6012AE030E040E0CD
:1047100050E00E948B3DC901DA016C017D01C1149A
:10472000D104E104F10401F74B2DDE0108C0BA9475
:10473000EB2DF0E0E55DF74F8081805D8D93BB2030
:10474000B1F7FE01E40FF11DA41A4A2D41111082A8
:10475000CDB7DEB7EAE00C94D13D80934B058330B2
:1047600018F082E080934B050E94661981E008955D
:10477000882379F090914B05980F90934B059138D1
:1047800018F010924B0505C0933018F082E080932A
:104790004B0581E080934C050E94661981E00895E5
:1047A000EF92FF920F931F9380914B05813011F090
:1047B00082E601C082E480939A0160914305709182
:1047C0004405809145059091460561157105810567
:1047D000910521F06150704080409040E090470585
:1047E000F09048050091490510914A0508C096953A
:1047F00087957795679516950795F794E7946732AF
:1048000022E0720720E0820720E0920780F7E1149F
:10481000F1040105110551F460E070E080E090E0E2
:1048200021E0E22EF12C012D112D06C024E935E303
:1048300047E750E00E942C3DA80197010E948B3D64
:10484000CA01B90146E02CE931E00E945C238CE901
:1048500091E066E00E94B30D8091A001803219F4CE
:1048600080E38093A001EBE9F1E08181819381E015
:10487000E03AF807D1F78EE280831F910F91FF9005
:10488000EF90089590914B05923008F04AC08091C6
:104890004C05882311F4913001F50E94D0230E9429
:1048A000661980914B058823C1F41092430510923C
:1048B0004405109245051092460510924705109246
:1048C00048051092490510924A0510927201109203
:1048D0007301109274011092750180914B05882329
:1048E000E1F48091720190917301A0917401B091F3
:1048F000750181539547A040B04078F020E0809149
:10490000430590914405A0914505B0914605C19796
:10491000A105B10518F021E001C020E020934C056D
:1049200017C084E780939A01609143057091440514
:10493000809145059091460547E02BE931E00E94C2
:104940005C238BE991E067E00E94B30D0E94661939
:1049500081E008951F93182F0E94EF0D1F3FC1F4AF
:104960001092430510924405109245051092460599
:1049700010924705109248051092490510924A0579
:1049800010927201109273011092740110927501CD
:104990001F91089582E19AE760E040E020E00E94E4
:1049A0008B0F10924B0581E080934C050E94661995
:1049B00008958823B1F480914D05482F50E08091EF
:1049C0005105282F30E060915205421753073CF003
:1049D000862F90E09C01421753070CF49A01822F16
:1049E0000895E82FF0E0E35BFA4F80810895A091ED
:1049F0004D05E82FF0E0E35BFA4F608370914F05BF
:104A00007723A9F48091510587FF03C08FE7809336
:104A100051058091520587FF03C08FE780935205AF
:104A20008091500587FF03C08FE7809350058091E8
:104A30004D05482F50E080915105282F30E06091BE
:104A40005205421753073CF0862F90E09C01421715
:104A500053070CF49A01922F20934D052A1799F1D0
:104A60004091500580914E05772341F44F779F7711
:104A7000806B642F492F0E94D10E0895441F442754
:104A8000441F806B63E60E94D10E80914E054091D9
:104A900050054F77806B62E60E94D10E90914E05D3
:104AA000906B40E080914D0587FD41E0892F66E0E5
:104AB0000E94D10E80914E0540914D054F77806B3D
:104AC00066E20E94D10E08950E94B40E089587E414
:104AD00060E040E02FE70E943F178AE261E040E09B
:104AE0002FE00E943F1789E46AE440E021E00E9441
:104AF0003F1788E460E040E02FEF0E943F178CE40E
:104B000060E040E02FEF0E943F178DE460E040E05E
:104B10002FEF0E943F170895DF92EF92FF920F93BD
:104B20001F93D82E062FF42EE22E80915405882351
:104B300011F010E025C0862F8D29642F422F0E948E
:104B4000D10E22C06F2D70E080915505681B710950
:104B5000E12FF0E0EB5AFA4F8081680F711D02C01F
:104B6000645F7F4F77FDFCCF02C06C5070406038AF
:104B70007105DCF7802F8D294E2D0E94D10E1F5F0D
:104B8000809154051817F0F21F910F91FF90EF904C
:104B9000DF900895582F762FE42F2091530522237C
:104BA00031F030E090E001962817390721F4809128
:104BB000E504882339F0852F806A672F4E2F0E94E5
:104BC000D10E089580EA652F472F2E2F0E948C2545
:104BD0000895582F762FE42F20915305222331F08A
:104BE00030E090E001962817390721F48091E50420
:104BF000882339F0852F8068672F4E2F0E94D10EB1
:104C0000089580E8652F472F2E2F0E948C25089548
:104C1000582F762FA42F20915305222331F030E016
:104C200090E0019628173907D9F48091E50488238C
:104C3000F1F080915405E82FF0E0EB5AFA4F7083C1
:104C40008F5F809354058A3059F4E6E5F5E0818161
:104C5000819385E0EE35F807D1F789E0809354051C
:104C6000852F8069672F4A2F0E94D10E089580E911
:104C7000652F472F2A2F0E948C2508958091E504E7
:104C8000882319F41092540502C00E946B0F80E033
:104C90000895982F907F903831F0903921F0903A14
:104CA00011F00E94B40E08958AE264E040E020E131
:104CB0000E943F170895883F11F58091620588236F
:104CC00059F0815080936205882331F48AEF0E9465
:104CD000EF0D81E08093630580916305882349F19E
:104CE000809161058F5F8093610590915F058917C1
:104CF00000F188EF0E94EF0D1092610508958A3F40
:104D000091F480915F0581508093610580916005E9
:104D100080936205882369F48AEF0E94EF0D81E099
:104D20008093630508958C3F11F4109263050E94EF
:104D3000EF0D08958BE760E041E020E20E943F170D
:104D400081E160E040E020E60E943F17109261059B
:104D500010926205109263050895843009F481E091
:104D6000E82FF0E0EC59FA4F808108951092680521
:104D700080E008951F93809164058823E1F41092E8
:104D8000720110927301109274011092750111E07A
:104D900010937101109298011092990180917601FF
:104DA0009091770190939701809396018AEF0E94EA
:104DB000EF0D109364051F9108950E94BA2608957F
:104DC0000E94BA26089580916405882339F01092D4
:104DD00071018CEF0E94EF0D1092640508950E94FE
:104DE000E3260895882319F488EF0E94EF0D0895B3
:104DF000282F873F19F090E0803F09F491E0822F3F
:104E0000807F803F11F4992319F0822F0E94EF0DCB
:104E100008950F931F93182F062F882341F46130B4
:104E200019F40E94BA2606C00E94E32603C084300B
:104E300009F411E0E12FF0E0EC59FA4F0083809182
:104E4000650590E060E040916605209167050E944D
:104E50008B0F1F910F910895EF92FF920F931F9365
:104E60008091E304843011F080E05DC020917201F4
:104E7000309173014091740150917501109272014B
:104E8000109273011092740110927501609168057F
:104E90006623C9F120388AE1380786E0480780E0B8
:104EA000580788F5E0906905F0906A0500916B0558
:104EB00010916C05E20EF31E041F151FE0926905A8
:104EC000F0926A0500936B0510936C0570E080E02A
:104ED00090E020E33AE14EE151E00E942C3DA80130
:104EE00097010E948B3D283231051CF428E230E006
:104EF00005C0213F310514F020EF30E081E0622F42
:104F00000E9409270AC01092680510926905109244
:104F10006A0510926B0510926C05809168058F5F91
:104F20008093680581E01F910F91FF90EF900895A5
:104F30008CE362E340E021E00E943F178DE360E0F4
:104F400048E220EF0E943F178EE361E440E025E055
:104F50000E943F178FE360E040E02FE70E943F1779
:104F600080E460E048E220EF0E943F1780916505F1
:104F700090E060E040916605209167050E948B0FEC
:104F8000109264051092680508951F93142FB82F8E
:104F9000B07FB03F79F1F82FFF70E0916D05FE17FB
:104FA00010F4A0E00DC0A0E08F2F90E040916E05BE
:104FB0002E2F30E0240F311D821793070CF4A1E04F
:104FC0004F2F50E0405F5F4F2E2F30E042175307C6
:104FD00014F490E009C090E080916E05280F311D17
:104FE000421753070CF491E09A2B11F0F0916F05E2
:104FF0008F2F8B2B412F0E94B40E1F91089582E6B4
:1050000061E040E02FE00E943F1788E460E041E06B
:1050100020E10E943F1783E661E040E02FE00E941C
:105020003F17089580917105882319F081E08093DE
:105030007005089580917105882319F081E08093AF
:105040007005089580917105882311F01092700504
:1050500008950F931F93182F062FE82FF0E0EF58B5
:10506000FA4F6083843088F48091720590E060E0AC
:1050700040917305209174050E948B0F112329F430
:10508000002319F48CEF0E94EF0DE0917805F0E019
:10509000E653F94EE491E0937B051F910F9108953B
:1050A000DF92EF92FF920F931F93A82FD62EF42E2C
:1050B000442309F455C050917705541B57FD50E027
:1050C000E0917605F0E0E859FF4FE4910E2F10E0F3
:1050D00060917A05762F770F40E00CC09927710216
:1050E000C001700300249009810D901D1124080F48
:1050F000191F4F5F242F30E0852F992787FD90954A
:105100002817390714F4662349F720917B053D2DB4
:10511000329FE12C11248A2F609179050E94041599
:10512000101611061CF001E010E006C00F3F11053B
:1051300019F014F00FEF10E06D2DD11061E09E2DED
:10514000E61608F4962FFA94692F402F2F2D0E940F
:10515000280F8091A301823518F082E28093EB063C
:105160001F910F91FF90EF90DF900895CF93DF9301
:10517000E091660333C0CE2FD0E0FE01EE0FFF1F9B
:10518000EE0FFF1FEC0FFD1FEC55FE4F82818823B1
:1051900039F560816E3FC1F04181809175054423EE
:1051A00011F4806801C080690E94D10EFE01EE0FEB
:1051B000FF1FEE0FFF1FEC0FFD1FEC55FE4F808110
:1051C000618144810E945028FE01EE0FFF1FEE0F07
:1051D000FF1FEC0FFD1FEC55FE4FE381EE2359F648
:1051E0000E94EF0FDF91CF9108959091710598176C
:1051F00071F480917005882319F4992319F00895AA
:10520000992319F488EF0E94EF0D0E94B6280895A3
:105210000F931F93182F062F80917105823039F458
:1052200080E0612F402F0E946D0E882351F4809101
:105230007505181731F4802F60E0409177050E94C2
:1052400050281F910F910895FF920F931F93182FCD
:10525000062FF42E80917105823039F481E0612FA0
:10526000402F0E946D0E882351F480917505181708
:1052700031F4802F6F2D409177050E9450281F91A7
:105280000F91FF9008950F931F93CF93DF93182FE3
:10529000EB01042F90917505892F8068181719F07C
:1052A0009069191761F480917105823041F4612F82
:1052B0006F7080E048810E946D0E882329F4812F51
:1052C000BE01402F0E94B40EDF91CF911F910F912C
:1052D00008950E9465178AE261E040E02FE00E9495
:1052E0003F1781E16FE740E02CE00E943F1780E923
:1052F00060E040E020E20E943F1789E661E040E084
:105300002FE00E943F1781E965E048EE28E10E9406
:105310003F1782E965E041EC2FE30E943F1780913F
:10532000720590E060E040917305209174050E9441
:105330008B0F85E0609176050E94292810927201FA
:1053400010927301109274011092750181E08093A4
:1053500071011092980110929901809176019091BB
:1053600077019093970180939601109270050895AC
:10537000282F80918005882319F481E0809380058F
:105380008091800590E002C09F5F281B2817E0F7FE
:1053900080917E05980F892F8F700895CF93DF93AA
:1053A0009C01EC01DC01E0E08C91861729F0EF5FB5
:1053B0001296E032C9F703C0EF3F51F408C0E0E0B5
:1053C00088818F3F29F0EF5F2296E032C9F7E0E055
:1053D000F0E0EE0FFF1FE20FF31F60834183DF91C8
:1053E000CF910895EF92FF920F931F93CF93DF9386
:1053F000082F142FE22EE5EBF3E0C0E0D0E0F080C0
:10540000F11651F4FE01EE0FFF1FEB54FC4F8181AA
:105410008F3FC1F410E011C021963296C032D10501
:1054200071F71FC0812F0E94B829802B6F2D4E2D40
:105430000E94D10E80918005180F80917F0518176A
:1054400088F307C00E94B829802B612F4E2D0E943F
:10545000D10E003831F4CC0FDD1FCB54DC4F8FEF71
:105460008883CDB7DEB7E6E00C94D53D982F362F74
:10547000242F80917C05981729F480EA692F432F07
:105480000E94F2290895FF920F931F93182F062F61
:10549000F42E80917C05181749F4862F0E947D1EFA
:1054A00080E8612F402F2F2D0E94F2291F910F912C
:1054B000FF900895FF920F931F93082F162FF42E3D
:1054C00080917C05081709F05DC080917D058230D0
:1054D00039F1833030F4882351F0813009F04CC029
:1054E00017C08330D1F1843009F046C03AC08091B2
:1054F00081058F5F8093810590917F05891710F05A
:105500001092810585EB93E0612F4091810532C0B7
:1055100080917F0580931505862F0E949D1E1BC0DC
:105520002091000130910101C90181709070909526
:1055300081959F4F8070947B36952795822793277E
:10554000909301018093000160917F05892F90E085
:1055500070E00E94643D482F0AC085EB93E04FEF56
:1055600009C0440F20917F05429F412D112485EBF6
:1055700093E0612F0E94CE2980E9602F412F2F2DCB
:105580000E94F2291F910F91FF900895FF920F93AF
:105590001F93CF93DF93282FEB01F42E082F007F6A
:1055A000003F31F0982F9F7080917C05981731F063
:1055B000822FBE014F2D0E94B40E17C00038A9F0F3
:1055C000003999F0003A89F010E00BC0812F0E9459
:1055D000B829802BBE014F2D0E94B40E809180050A
:1055E000180F80917F05181788F3CDB7DEB7E5E077
:1055F0000C94D63D109215050E94EA1E82E661E0E9
:1056000040E02FE00E943F178EE46CE640E024E08B
:105610000E943F1783E661E040E02FE00E943F17C1
:1056200088E460E041E020E10E943F178DE660E001
:1056300041E028E00E943F17109281050895809173
:105640008405882319F081E0809382050895809174
:105650008405882389F080918205882369F481E09C
:10566000809382051092AB0581E090E09093AD05A8
:105670008093AC0510928D050895E82FF0E0ED576A
:10568000FA4F6083853050F48091850590E060E0AA
:1056900040918605209187050E948B0F08950F93F6
:1056A0001F93CF93DF93CFE8D5E009E815E0888119
:1056B000882349F0809188058068F801608140E086
:1056C0000E94D10E188221960F5F1F4FF5E0C3395B
:1056D000DF0769F7DF91CF911F910F9108958091B6
:1056E0008405882311F0109282050E944F2B0895A3
:1056F000EF92FF920F931F93082F10E0809188057F
:1057000099E8E92E95E0F92EE00EF11E8069F70187
:10571000608144E60E94D10E01571A4FF701808143
:10572000F80180831F910F91FF90EF900895A0E002
:10573000B0E0EDE9FBE20C94B73D8091820588234F
:1057400009F4BEC080918D058F5F80938D05809197
:105750008E058F5F80938E05803670F080E6809393
:105760008E0580918405882339F4109282050E9469
:105770004F2B8CEF0E94EF0D80918D05863009F044
:105780009BC010928D0580918305882309F03FC04E
:1057900010E0C0E0D0E04C2FFE01E955FA4FE08167
:1057A000EE2311F010928E05E10FF0E0EE0FFF1FD7
:1057B000E558FD4F859194912091AC053091AD0550
:1057C00082239323892B19F0842F0E94782B219612
:1057D000143211F0145FDFCF2091AB052F5F2093BF
:1057E000AB058091AC059091AD05880F991F909302
:1057F000AD058093AC05203109F062C01092AB0575
:1058000081E090E09093AD058093AC0559C06BE9C1
:10581000E62E65E0F62ECFE9D5E057E9C52E55E036
:10582000D52E00E010E0F801ED56FA4FE081EE23AE
:10583000C9F010928E05D6018C912CE0829FC00198
:105840001124E80FF0E0EE0FFF1FE556FC4F8591A5
:1058500094912881398182239323892B19F0802FF9
:105860000E94782BF70120812F5F20838881998106
:10587000880F991F99838883D601EC91F0E0E75A4D
:10588000F84EE49130E08E2F90E02817390731F47C
:10589000F701108281E090E0998388830F5F1F4FAA
:1058A0000894E11CF11C22960894C11CD11C043000
:1058B000110509F0B8CF04C0833011F40E944F2BBA
:1058C000CDB7DEB7E8E00C94D33D909184059817EE
:1058D00059F480918205882339F0992319F488EFCF
:1058E0000E94EF0D0E94972B08950F931F93182F7E
:1058F000062F80918405823039F480E0612F402F9B
:105900000E946D0E882339F480918805181719F4C8
:10591000802F0E9411141F910F910895FF920F93F1
:105920001F93182F062FF42E80918405823041F4A6
:1059300081E0612F402F0E946D0E882309F0A3C0E3
:1059400080918805181709F09EC097C080918E0538
:10595000803630F11092720110927301109274012E
:105960001092750181E0809371011092980110925C
:10597000990120917601309177013093970120931E
:1059800096011092AB0521E030E03093AD052093F5
:10599000AC0510928D05809382058AEF0E94EF0D71
:1059A00010928E05802F6F2D0E94691480918305BF
:1059B000882319F00FEF10E05BC010E01FC0E12F4B
:1059C000F0E0EC55FC4F808190E0FC01EE0FFF1FF2
:1059D000E80FF91FE059FC4F80810E94FE148730C8
:1059E00010F083E005C0843010F480E001C08350E3
:1059F000E82FF0E0E955FA4F90831F5F80916F0325
:105A00001817E8F240C0E12FF0E0EC55FC4F808120
:105A100090E0FC01EE0FFF1FE80FF91FE059FC4F6B
:105A200080810E94FE14282F873010F0E3E006C02A
:105A3000843010F4E0E002C0E82FE350AE2FB0E075
:105A4000201721F4A956BA4F9C9310C0FD01ED56C2
:105A5000FA4F9083FD01E556FA4F1082AA0FBB1F43
:105A6000A156BA4F81E090E08D939C931F5F022F67
:105A700080916F03181738F206C08091840588233F
:105A800009F464CF8FCF1F910F91FF900895282FB5
:105A900090918805892F8068281731F0906929171F
:105AA00019F0822F0E94B40E08951F938EE46FE4C4
:105AB00040E021E00E943F170E9465178AE261E002
:105AC00040E02FE00E943F1716E5812F62E044E19D
:105AD0002CE60E943F171F5F1A35B9F780918505A4
