:107C000033C000004CC000004AC0000048C0000063
:107C100046C0000044C0000042C0000040C0000058
:107C20003EC000003CC000003AC0000038C0000068
:107C300036C0000034C0000032C0000030C0000078
:107C40002EC000002CC000002AC0000028C0000088
:107C500026C0000024C0000022C0000020C0000098
:107C60001EC000001CC0000011241FBECFEFD8E0D2
:107C7000DEBFCDBF11E0A0E0B1E0E4E6FFE702C067
:107C800005900D92A630B107D9F712E0A6E0B1E059
:107C900001C01D92AC30B107E1F76ED028C1B0CF62
:107CA000CF93DF93F999FECFA0910601B091070120
:107CB00083E0FD0180935700E89507B600FCFDCFF7
:107CC000BD01C8E0D1E0888190E0598140E0842B7B
:107CD000952B229621E0FB010C0120935700E8959B
:107CE00011246E5F7F4FF1E0C838DF0761F785E050
:107CF000FD0180935700E89507B600FCFDCF81E1B8
:107D000080935700E895DF91CF91089520E015C04A
:107D1000E4EFF1E03197F1F70197D1F72B9A2D9825
:107D200088EE93E0E4EFF1E03197F1F70197D1F7B6
:107D30002B982D9A2F5F233019F088EE93E0E8CF2F
:107D4000089520E015C0E4EFF1E03197F1F70197D5
:107D5000D1F72B9A2D9A84EF91E0E4EFF1E031977F
:107D6000F1F70197D1F72B982D982F5F253019F057
:107D700084EF91E0E8CF0895A2E0B0E0E1ECFEE30B
:107D8000C4C084B714BE8091600088618093600095
:107D900010926000F8942098289A239A2B98259A9C
:107DA0002D9818997FC088C08091C00087FFFCCFB4
:107DB0009091C600913F10F0973FB1F74130B9F074
:107DC000413020F0423009F067C022C0F901E05094
:107DD000FF4F8081981711F0102F58C02F5F3F4F31
:107DE0002630310509F058C0102F41E04FC097FDF3
:107DF00051C0FE01E20FF31F91832F5F3F4F2230EE
:107E0000310509F049C010E042E0EE24FF243EC0F5
:107E100097FD18C0F701E85FFE4F20FF0DC09F706F
:107E20008081982B908380E8E816F10408F4090F0C
:107E30000894E11CF11C03C09295907F90832F5F02
:107E40003F4F2AC0973F41F599819F3729F48A8196
:107E5000882311F4232B29F181E8E816F104C9F4F1
:107E60009E37B9F48A818823A1F4109188011017F4
:107E700081F42D9A15DF80910601909107018058B9
:107E80009F4F909307018093060140E020E030E08F
:107E900004C057DF102FF9CF102F2B982D98012FEA
:107EA00083CF34DFE0910A02F0910B02099580E064
:107EB00090E02296E6E045C029DF8091C0008D7FEA
:107EC0008093C0001092C50087E28093C400809127
:107ED000C10080618093C1001092070110920601D9
:107EE00000E040E0EE24FF2420E030E05DCFF89495
:107EF00037C02F923F924F925F926F927F928F92F4
:107F00009F92AF92BF92CF92DF92EF92FF920F9328
:107F10001F93CF93DF93CDB7DEB7CA1BDB0B0FB632
:107F2000F894DEBF0FBECDBF09942A8839884888EF
:107F30005F846E847D848C849B84AA84B984C88485
:107F4000DF80EE80FD800C811B81AA81B981CE0F7C
:107F5000D11D0FB6F894DEBF0FBECDBFED01089561
:047F6000F894FFCFC3
:067F6400F0002102000301
:0400000300007C007D
:00000001FF
